{
  "_format": "hh-sol-artifact-1",
  "contractName": "ItemListing",
  "sourceName": "contracts/ItemListing.sol",
  "abi": [
    {
      "inputs": [
        {
          "internalType": "address",
          "name": "_motif",
          "type": "address"
        },
        {
          "internalType": "address",
          "name": "_wmotif",
          "type": "address"
        },
        {
          "internalType": "string",
          "name": "itemListingIdentifierString",
          "type": "string"
        }
      ],
      "stateMutability": "nonpayable",
      "type": "constructor"
    },
    {
      "anonymous": false,
      "inputs": [
        {
          "indexed": true,
          "internalType": "uint256",
          "name": "listingId",
          "type": "uint256"
        },
        {
          "indexed": true,
          "internalType": "uint256",
          "name": "tokenId",
          "type": "uint256"
        },
        {
          "indexed": true,
          "internalType": "address",
          "name": "tokenContract",
          "type": "address"
        },
        {
          "indexed": false,
          "internalType": "bool",
          "name": "approved",
          "type": "bool"
        }
      ],
      "name": "ListingApprovalUpdated",
      "type": "event"
    },
    {
      "anonymous": false,
      "inputs": [
        {
          "indexed": true,
          "internalType": "uint256",
          "name": "listingId",
          "type": "uint256"
        },
        {
          "indexed": true,
          "internalType": "uint256",
          "name": "tokenId",
          "type": "uint256"
        },
        {
          "indexed": true,
          "internalType": "address",
          "name": "tokenContract",
          "type": "address"
        },
        {
          "indexed": false,
          "internalType": "address",
          "name": "sender",
          "type": "address"
        },
        {
          "indexed": false,
          "internalType": "uint256",
          "name": "value",
          "type": "uint256"
        },
        {
          "indexed": false,
          "internalType": "bool",
          "name": "firstBid",
          "type": "bool"
        },
        {
          "indexed": false,
          "internalType": "bool",
          "name": "extended",
          "type": "bool"
        }
      ],
      "name": "ListingBid",
      "type": "event"
    },
    {
      "anonymous": false,
      "inputs": [
        {
          "indexed": true,
          "internalType": "uint256",
          "name": "listingId",
          "type": "uint256"
        },
        {
          "indexed": true,
          "internalType": "uint256",
          "name": "tokenId",
          "type": "uint256"
        },
        {
          "indexed": true,
          "internalType": "address",
          "name": "tokenContract",
          "type": "address"
        },
        {
          "indexed": false,
          "internalType": "address",
          "name": "tokenOwner",
          "type": "address"
        }
      ],
      "name": "ListingCanceled",
      "type": "event"
    },
    {
      "anonymous": false,
      "inputs": [
        {
          "indexed": true,
          "internalType": "uint256",
          "name": "listingId",
          "type": "uint256"
        },
        {
          "indexed": true,
          "internalType": "uint256",
          "name": "tokenId",
          "type": "uint256"
        },
        {
          "indexed": true,
          "internalType": "address",
          "name": "tokenContract",
          "type": "address"
        },
        {
          "indexed": false,
          "internalType": "uint256",
          "name": "startsAt",
          "type": "uint256"
        },
        {
          "indexed": false,
          "internalType": "uint256",
          "name": "duration",
          "type": "uint256"
        },
        {
          "indexed": false,
          "internalType": "uint256",
          "name": "listPrice",
          "type": "uint256"
        },
        {
          "indexed": false,
          "internalType": "uint8",
          "name": "listType",
          "type": "uint8"
        },
        {
          "indexed": false,
          "internalType": "address",
          "name": "tokenOwner",
          "type": "address"
        },
        {
          "indexed": false,
          "internalType": "address",
          "name": "intermediary",
          "type": "address"
        },
        {
          "indexed": false,
          "internalType": "uint8",
          "name": "intermediaryFeePercentage",
          "type": "uint8"
        },
        {
          "indexed": false,
          "internalType": "address",
          "name": "listCurrency",
          "type": "address"
        }
      ],
      "name": "ListingCreated",
      "type": "event"
    },
    {
      "anonymous": false,
      "inputs": [
        {
          "indexed": true,
          "internalType": "uint256",
          "name": "listingId",
          "type": "uint256"
        },
        {
          "indexed": true,
          "internalType": "uint256",
          "name": "tokenId",
          "type": "uint256"
        },
        {
          "indexed": true,
          "internalType": "address",
          "name": "tokenContract",
          "type": "address"
        },
        {
          "indexed": false,
          "internalType": "bool",
          "name": "approved",
          "type": "bool"
        },
        {
          "indexed": false,
          "internalType": "uint256",
          "name": "startsAt",
          "type": "uint256"
        }
      ],
      "name": "ListingDropApprovalUpdated",
      "type": "event"
    },
    {
      "anonymous": false,
      "inputs": [
        {
          "indexed": true,
          "internalType": "uint256",
          "name": "listingId",
          "type": "uint256"
        },
        {
          "indexed": true,
          "internalType": "uint256",
          "name": "tokenId",
          "type": "uint256"
        },
        {
          "indexed": true,
          "internalType": "address",
          "name": "tokenContract",
          "type": "address"
        },
        {
          "indexed": false,
          "internalType": "uint256",
          "name": "duration",
          "type": "uint256"
        }
      ],
      "name": "ListingDurationExtended",
      "type": "event"
    },
    {
      "anonymous": false,
      "inputs": [
        {
          "indexed": true,
          "internalType": "uint256",
          "name": "listingId",
          "type": "uint256"
        },
        {
          "indexed": true,
          "internalType": "uint256",
          "name": "tokenId",
          "type": "uint256"
        },
        {
          "indexed": true,
          "internalType": "address",
          "name": "tokenContract",
          "type": "address"
        },
        {
          "indexed": false,
          "internalType": "address",
          "name": "tokenOwner",
          "type": "address"
        },
        {
          "indexed": false,
          "internalType": "address",
          "name": "intermediary",
          "type": "address"
        },
        {
          "indexed": false,
          "internalType": "address",
          "name": "winner",
          "type": "address"
        },
        {
          "indexed": false,
          "internalType": "uint256",
          "name": "amount",
          "type": "uint256"
        },
        {
          "indexed": false,
          "internalType": "uint256",
          "name": "intermediaryFee",
          "type": "uint256"
        },
        {
          "indexed": false,
          "internalType": "address",
          "name": "listCurrency",
          "type": "address"
        }
      ],
      "name": "ListingEnded",
      "type": "event"
    },
    {
      "anonymous": false,
      "inputs": [
        {
          "indexed": true,
          "internalType": "uint256",
          "name": "listingId",
          "type": "uint256"
        },
        {
          "indexed": true,
          "internalType": "uint256",
          "name": "tokenId",
          "type": "uint256"
        },
        {
          "indexed": true,
          "internalType": "address",
          "name": "tokenContract",
          "type": "address"
        },
        {
          "indexed": false,
          "internalType": "uint256",
          "name": "listPrice",
          "type": "uint256"
        }
      ],
      "name": "ListingListPriceUpdated",
      "type": "event"
    },
    {
      "stateMutability": "payable",
      "type": "fallback"
    },
    {
      "inputs": [
        {
          "internalType": "uint256",
          "name": "listingId",
          "type": "uint256"
        }
      ],
      "name": "cancelListing",
      "outputs": [],
      "stateMutability": "nonpayable",
      "type": "function"
    },
    {
      "inputs": [
        {
          "internalType": "uint256",
          "name": "listingId",
          "type": "uint256"
        },
        {
          "internalType": "uint256",
          "name": "amount",
          "type": "uint256"
        }
      ],
      "name": "createBid",
      "outputs": [],
      "stateMutability": "payable",
      "type": "function"
    },
    {
      "inputs": [
        {
          "internalType": "uint256",
          "name": "tokenId",
          "type": "uint256"
        },
        {
          "internalType": "address",
          "name": "tokenContract",
          "type": "address"
        },
        {
          "internalType": "uint256",
          "name": "startsAt",
          "type": "uint256"
        },
        {
          "internalType": "uint256",
          "name": "duration",
          "type": "uint256"
        },
        {
          "internalType": "uint256",
          "name": "listPrice",
          "type": "uint256"
        },
        {
          "internalType": "uint8",
          "name": "listType",
          "type": "uint8"
        },
        {
          "internalType": "address payable",
          "name": "intermediary",
          "type": "address"
        },
        {
          "internalType": "uint8",
          "name": "intermediaryFeePercentage",
          "type": "uint8"
        },
        {
          "internalType": "address",
          "name": "listCurrency",
          "type": "address"
        }
      ],
      "name": "createListing",
      "outputs": [
        {
          "internalType": "uint256",
          "name": "",
          "type": "uint256"
        }
      ],
      "stateMutability": "nonpayable",
      "type": "function"
    },
    {
      "inputs": [
        {
          "internalType": "uint256[]",
          "name": "tokenIds",
          "type": "uint256[]"
        },
        {
          "internalType": "address",
          "name": "tokenContract",
          "type": "address"
        },
        {
          "internalType": "uint256",
          "name": "startsAt",
          "type": "uint256"
        },
        {
          "internalType": "uint256",
          "name": "duration",
          "type": "uint256"
        },
        {
          "internalType": "uint256[]",
          "name": "listPrices",
          "type": "uint256[]"
        },
        {
          "internalType": "uint8",
          "name": "listType",
          "type": "uint8"
        },
        {
          "internalType": "address payable",
          "name": "intermediary",
          "type": "address"
        },
        {
          "internalType": "uint8",
          "name": "intermediaryFeePercentage",
          "type": "uint8"
        },
        {
          "internalType": "address",
          "name": "listCurrency",
          "type": "address"
        }
      ],
      "name": "createMultipleListings",
      "outputs": [
        {
          "internalType": "uint256[]",
          "name": "",
          "type": "uint256[]"
        }
      ],
      "stateMutability": "nonpayable",
      "type": "function"
    },
    {
      "inputs": [
        {
          "internalType": "uint256",
          "name": "listingId",
          "type": "uint256"
        },
        {
          "internalType": "uint256",
          "name": "amount",
          "type": "uint256"
        }
      ],
      "name": "endFixedPriceListing",
      "outputs": [],
      "stateMutability": "payable",
      "type": "function"
    },
    {
      "inputs": [
        {
          "internalType": "uint256",
          "name": "listingId",
          "type": "uint256"
        }
      ],
      "name": "endListing",
      "outputs": [],
      "stateMutability": "nonpayable",
      "type": "function"
    },
    {
      "inputs": [],
      "name": "getItemListingIdentifier",
      "outputs": [
        {
          "internalType": "string",
          "name": "",
          "type": "string"
        }
      ],
      "stateMutability": "view",
      "type": "function"
    },
    {
      "inputs": [],
      "name": "itemListingIdentifier",
      "outputs": [
        {
          "internalType": "string",
          "name": "",
          "type": "string"
        }
      ],
      "stateMutability": "view",
      "type": "function"
    },
    {
      "inputs": [
        {
          "internalType": "uint256",
          "name": "",
          "type": "uint256"
        }
      ],
      "name": "listings",
      "outputs": [
        {
          "internalType": "uint256",
          "name": "tokenId",
          "type": "uint256"
        },
        {
          "internalType": "address",
          "name": "tokenContract",
          "type": "address"
        },
        {
          "internalType": "bool",
          "name": "approved",
          "type": "bool"
        },
        {
          "internalType": "uint256",
          "name": "amount",
          "type": "uint256"
        },
        {
          "internalType": "uint256",
          "name": "startsAt",
          "type": "uint256"
        },
        {
          "internalType": "uint256",
          "name": "duration",
          "type": "uint256"
        },
        {
          "internalType": "uint256",
          "name": "firstBidTime",
          "type": "uint256"
        },
        {
          "internalType": "uint256",
          "name": "listPrice",
          "type": "uint256"
        },
        {
          "internalType": "uint8",
          "name": "listType",
          "type": "uint8"
        },
        {
          "internalType": "uint8",
          "name": "intermediaryFeePercentage",
          "type": "uint8"
        },
        {
          "internalType": "address",
          "name": "tokenOwner",
          "type": "address"
        },
        {
          "internalType": "address payable",
          "name": "bidder",
          "type": "address"
        },
        {
          "internalType": "address payable",
          "name": "intermediary",
          "type": "address"
        },
        {
          "internalType": "address",
          "name": "listCurrency",
          "type": "address"
        }
      ],
      "stateMutability": "view",
      "type": "function"
    },
    {
      "inputs": [],
      "name": "minBidIncrementPercentage",
      "outputs": [
        {
          "internalType": "uint8",
          "name": "",
          "type": "uint8"
        }
      ],
      "stateMutability": "view",
      "type": "function"
    },
    {
      "inputs": [],
      "name": "motif",
      "outputs": [
        {
          "internalType": "address",
          "name": "",
          "type": "address"
        }
      ],
      "stateMutability": "view",
      "type": "function"
    },
    {
      "inputs": [
        {
          "internalType": "uint256",
          "name": "listingId",
          "type": "uint256"
        },
        {
          "internalType": "bool",
          "name": "approved",
          "type": "bool"
        }
      ],
      "name": "setListingApproval",
      "outputs": [],
      "stateMutability": "nonpayable",
      "type": "function"
    },
    {
      "inputs": [
        {
          "internalType": "uint256",
          "name": "listingId",
          "type": "uint256"
        },
        {
          "internalType": "bool",
          "name": "approved",
          "type": "bool"
        },
        {
          "internalType": "uint256",
          "name": "startsAt",
          "type": "uint256"
        }
      ],
      "name": "setListingDropApproval",
      "outputs": [],
      "stateMutability": "nonpayable",
      "type": "function"
    },
    {
      "inputs": [
        {
          "internalType": "uint256",
          "name": "listingId",
          "type": "uint256"
        },
        {
          "internalType": "uint256",
          "name": "listPrice",
          "type": "uint256"
        }
      ],
      "name": "setListingListPrice",
      "outputs": [],
      "stateMutability": "nonpayable",
      "type": "function"
    },
    {
      "inputs": [],
      "name": "timeBuffer",
      "outputs": [
        {
          "internalType": "uint256",
          "name": "",
          "type": "uint256"
        }
      ],
      "stateMutability": "view",
      "type": "function"
    },
    {
      "inputs": [],
      "name": "wmotifAddress",
      "outputs": [
        {
          "internalType": "address",
          "name": "",
          "type": "address"
        }
      ],
      "stateMutability": "view",
      "type": "function"
    },
    {
      "stateMutability": "payable",
      "type": "receive"
    }
  ],
  "bytecode": "0x60806040523480156200001157600080fd5b50604051620040b6380380620040b6833981016040819052620000349162000217565b60016000556040516301ffc9a760e01b81526001600160a01b038416906301ffc9a7906200006e906380ac58cd60e01b90600401620002fe565b60206040518083038186803b1580156200008757600080fd5b505afa1580156200009c573d6000803e3d6000fd5b505050506040513d601f19601f82011682018060405250810190620000c29190620002d5565b620000ea5760405162461bcd60e51b8152600401620000e19062000313565b60405180910390fd5b60028054600380546001600160a01b0319166001600160a01b03868116919091179091556104b06001556005610100600160a81b0319909216610100918716919091021760ff1916811790915581516200014a9190602084019062000154565b50505050620003a4565b828054600181600116156101000203166002900490600052602060002090601f016020900481019282601f106200019757805160ff1916838001178555620001c7565b82800160010185558215620001c7579182015b82811115620001c7578251825591602001919060010190620001aa565b50620001d5929150620001d9565b5090565b620001f691905b80821115620001d55760008155600101620001e0565b90565b80516001600160a01b03811681146200021157600080fd5b92915050565b6000806000606084860312156200022c578283fd5b620002388585620001f9565b9250620002498560208601620001f9565b60408501519092506001600160401b038082111562000266578283fd5b81860187601f82011262000278578384fd5b805192508183111562000289578384fd5b6200029e601f8401601f19166020016200034a565b9150828252876020848301011115620002b5578384fd5b620002c883602084016020840162000371565b5080925050509250925092565b600060208284031215620002e7578081fd5b81518015158114620002f7578182fd5b9392505050565b6001600160e01b031991909116815260200190565b6020808252601d908201527f446f65736e277420737570706f7274204e465420696e74657266616365000000604082015260600190565b6040518181016001600160401b03811182821017156200036957600080fd5b604052919050565b60005b838110156200038e57818101518382015260200162000374565b838111156200039e576000848401525b50505050565b613d0280620003b46000396000f3fe6080604052600436106100f75760003560e01c8063b296024d1161008a578063e273aece11610059578063e273aece146102ab578063e57e1036146102c0578063ec91f2a4146102d3578063fac2e3d8146102e8576100fe565b8063b296024d1461021c578063b7751c711461023e578063c89e098514610251578063de74e57b14610271576100fe565b806333c31bb7116100c657806333c31bb71461018d57806350a14d73146101ba578063580abdbf146101da57806383872bc1146101ef576100fe565b806312604245146101005780631582f801146101205780632989d54f1461014b578063305a67a81461016d576100fe565b366100fe57005b005b34801561010c57600080fd5b506100fe61011b366004612ec0565b610308565b34801561012c57600080fd5b506101356103ae565b6040516101429190612f77565b60405180910390f35b34801561015757600080fd5b506101606103bd565b60405161014291906130b6565b34801561017957600080fd5b506100fe610188366004612dfb565b61044b565b34801561019957600080fd5b506101ad6101a8366004612d0e565b61053d565b604051610142919061302a565b3480156101c657600080fd5b506100fe6101d5366004612eef565b61068c565b3480156101e657600080fd5b5061016061075f565b3480156101fb57600080fd5b5061020f61020a366004612e2b565b6107f5565b6040516101429190613b15565b34801561022857600080fd5b50610231610843565b6040516101429190613c6f565b6100fe61024c366004612f26565b61084c565b34801561025d57600080fd5b506100fe61026c366004612f26565b610e23565b34801561027d57600080fd5b5061029161028c366004612dfb565b610f44565b6040516101429e9d9c9b9a99989796959493929190613b1e565b3480156102b757600080fd5b50610135610fca565b6100fe6102ce366004612f26565b610fde565b3480156102df57600080fd5b5061020f6112f2565b3480156102f457600080fd5b506100fe610303366004612dfb565b6112f8565b81610312816113eb565b6103375760405162461bcd60e51b815260040161032e90613313565b60405180910390fd5b6000838152600460205260409020600901546001600160a01b031633146103705760405162461bcd60e51b815260040161032e906130e9565b6000838152600460205260409020600501541561039f5760405162461bcd60e51b815260040161032e906133de565b6103a98383611411565b505050565b6003546001600160a01b031681565b6005805460408051602060026001851615610100026000190190941693909304601f810184900484028201840190925281815292918301828280156104435780601f1061041857610100808354040283529160200191610443565b820191906000526020600020905b81548152906001019060200180831161042657829003601f168201915b505050505081565b6002600054141561046e5760405162461bcd60e51b815260040161032e9061397f565b60026000558061047d816113eb565b6104995760405162461bcd60e51b815260040161032e90613313565b6000828152600460205260409020600701546201000090046001600160a01b03163314806104e057506000828152600460205260409020600901546001600160a01b031633145b6104fc5760405162461bcd60e51b815260040161032e9061372f565b6000828152600460205260409020600501541561052b5760405162461bcd60e51b815260040161032e906131fc565b61053482611488565b50506001600055565b6060600260005414156105625760405162461bcd60e51b815260040161032e9061397f565b600260005589516105855760405162461bcd60e51b815260040161032e9061378c565b6127108a5111156105a85760405162461bcd60e51b815260040161032e90613415565b85518a51146105c95760405162461bcd60e51b815260040161032e90613381565b60608a5167ffffffffffffffff811180156105e357600080fd5b5060405190808252806020026020018201604052801561060d578160200160208202803683370190505b50905060005b8b518110156106785760006106558d838151811061062d57fe5b60200260200101518d8d8d8d878151811061064457fe5b60200260200101518d8d8d8d61161d565b90508083838151811061066457fe5b602090810291909101015250600101610613565b5060016000559a9950505050505050505050565b82610696816113eb565b6106b25760405162461bcd60e51b815260040161032e90613313565b60008481526004602052604090206007015460ff166002146106e65760405162461bcd60e51b815260040161032e906139ed565b6000848152600460205260409020600901546001600160a01b0316331461071f5760405162461bcd60e51b815260040161032e90613a24565b6000848152600460205260409020600501541561074e5760405162461bcd60e51b815260040161032e9061368c565b610759848484611bdb565b50505050565b60058054604080516020601f60026000196101006001881615020190951694909404938401819004810282018101909252828152606093909290918301828280156107eb5780601f106107c0576101008083540402835291602001916107eb565b820191906000526020600020905b8154815290600101906020018083116107ce57829003601f168201915b5050505050905090565b60006002600054141561081a5760405162461bcd60e51b815260040161032e9061397f565b60026000556108308a8a8a8a8a8a8a8a8a61161d565b5060016000559998505050505050505050565b60025460ff1681565b81610856816113eb565b6108725760405162461bcd60e51b815260040161032e90613313565b600260005414156108955760405162461bcd60e51b815260040161032e9061397f565b6002600090815583815260046020526040902060088101546001909101546001600160a01b0390911690600160a01b900460ff166108e55760405162461bcd60e51b815260040161032e9061353d565b60008481526004602052604090206007015460ff166001148061091c575060008481526004602052604090206007015460ff166002145b6109385760405162461bcd60e51b815260040161032e906136c3565b6000848152600460205260409020600301544210156109695760405162461bcd60e51b815260040161032e9061318e565b60008481526004602052604090206005015415806109af57506000848152600460208190526040909120908101546005909101546109ac9163ffffffff611c4f16565b42105b6109cb5760405162461bcd60e51b815260040161032e90613911565b6000848152600460205260409020600601548310156109fc5760405162461bcd60e51b815260040161032e90613157565b60028054600086815260046020526040902090910154610a5a91610a3c91606491610a30919060ff1663ffffffff611c7d16565b9063ffffffff611cb716565b6000868152600460205260409020600201549063ffffffff611c4f16565b831015610a795760405162461bcd60e51b815260040161032e906135d1565b6002546000858152600460205260409020600101546001600160a01b03908116610100909204161415610bda57600260019054906101000a90046001600160a01b03166001600160a01b031663f1d5596b6040518163ffffffff1660e01b8152600401602060405180830381600087803b158015610af657600080fd5b505af1158015610b0a573d6000803e3d6000fd5b505050506040513d601f19601f82011682018060405250810190610b2e9190612cf2565b6000858152600460208190526040918290205491516302e8fe1360e01b81526001600160a01b0393909316926302e8fe1392610b6e929091889101613c19565b60206040518083038186803b158015610b8657600080fd5b505afa158015610b9a573d6000803e3d6000fd5b505050506040513d601f19601f82011682018060405250810190610bbe9190612ddf565b610bda5760405162461bcd60e51b815260040161032e906131c5565b600084815260046020526040902060050154610c0a57600084815260046020526040902042600590910155610c46565b6001600160a01b03811615610c465760008481526004602052604090206002810154600a90910154610c469183916001600160a01b0316611ce9565b6000848152600460205260409020600a0154610c6c9084906001600160a01b0316611e27565b600084815260046020819052604082206002810186905560088101805473ffffffffffffffffffffffffffffffffffffffff19163317905560015491810154600590910154610cd2914291610cc69163ffffffff611c4f16565b9063ffffffff61201716565b1015610d4657600085815260046020819052604090912090810154600590910154610d2d90610d2090610d11904290610cc6908663ffffffff611c4f16565b6001549063ffffffff61201716565b829063ffffffff611c4f16565b6000878152600460208190526040909120015550600190505b600085815260046020526040908190206001810154905491516001600160a01b03918216929188917fdf3c258fd5ebb54ac1a83c73feafacc466858d3badc3dda9c4034b0da1da54d991610da49133918b91908a1615908990612faf565b60405180910390a48015610e175760008581526004602081905260409182902060018101548154919092015492516001600160a01b0390921692909188917f7c5d8b1980b451e2d8e5887c47bfdb1153d8b8de54ca953d110c9ec926dba3e391610e0e9190613b15565b60405180910390a45b50506001600055505050565b81610e2d816113eb565b610e495760405162461bcd60e51b815260040161032e90613313565b6000838152600460205260409020600901546001600160a01b0316331480610e9057506000838152600460205260409020600701546201000090046001600160a01b031633145b610eac5760405162461bcd60e51b815260040161032e90613259565b60008381526004602052604090206005015415610edb5760405162461bcd60e51b815260040161032e906133de565b60008381526004602052604090819020600681018490556001810154905491516001600160a01b03909116919085907f0409843698c80a52d5e9991fdf99f888ac3f2282b93ddd87bbb63df422907e9490610f37908790613b15565b60405180910390a4505050565b600460208190526000918252604090912080546001820154600283015460038401549484015460058501546006860154600787015460088801546009890154600a9099015497996001600160a01b038089169a60ff600160a01b909a048a169a98999298858416956101008104909416946201000090940483169383169291821691168e565b60025461010090046001600160a01b031681565b81610fe8816113eb565b6110045760405162461bcd60e51b815260040161032e90613313565b600260005414156110275760405162461bcd60e51b815260040161032e9061397f565b600260009081558381526004602052604090206007015460ff166003146110605760405162461bcd60e51b815260040161032e906136f8565b600083815260046020526040902060010154600160a01b900460ff166110985760405162461bcd60e51b815260040161032e9061353d565b60008381526004602052604090206006015482146110c85760405162461bcd60e51b815260040161032e90613120565b6002546000848152600460205260409020600101546001600160a01b0390811661010090920416141561122957600260019054906101000a90046001600160a01b03166001600160a01b031663f1d5596b6040518163ffffffff1660e01b8152600401602060405180830381600087803b15801561114557600080fd5b505af1158015611159573d6000803e3d6000fd5b505050506040513d601f19601f8201168201806040525081019061117d9190612cf2565b6000848152600460208190526040918290205491516302e8fe1360e01b81526001600160a01b0393909316926302e8fe13926111bd929091879101613c19565b60206040518083038186803b1580156111d557600080fd5b505afa1580156111e9573d6000803e3d6000fd5b505050506040513d601f19601f8201168201806040525081019061120d9190612ddf565b6112295760405162461bcd60e51b815260040161032e906131c5565b6000838152600460205260409020426005820155600a01546112559083906001600160a01b0316611e27565b6000838152600460205260408082206002810185905560088101805473ffffffffffffffffffffffffffffffffffffffff191633908117909155600180830154925493516001600160a01b03939093169488937fdf3c258fd5ebb54ac1a83c73feafacc466858d3badc3dda9c4034b0da1da54d9936112d79390928a92612faf565b60405180910390a46112e88361203f565b5050600160005550565b60015481565b80611302816113eb565b61131e5760405162461bcd60e51b815260040161032e90613313565b600260005414156113415760405162461bcd60e51b815260040161032e9061397f565b600260009081558281526004602052604090206007015460ff166001148061137d575060008281526004602052604090206007015460ff166002145b6113995760405162461bcd60e51b815260040161032e906136c3565b6000828152600460208190526040909120908101546005909101546113c39163ffffffff611c4f16565b4210156113e25760405162461bcd60e51b815260040161032e90613948565b6105348261203f565b6000908152600460205260409020600701546201000090046001600160a01b0316151590565b6000828152600460205260409081902060018101805460ff60a01b1916600160a01b851515021790819055905491516001600160a01b03909116919084907f301b3a878e4bfbb57bd5babb78545aff93752440eb359d65b3ad34de32d842fc9061147c90869061306e565b60405180910390a45050565b6000818152600460208190526040918290206007810154600182015491549351632142170760e11b8152620100009091046001600160a01b03908116949216926342842e0e926114dd92309287929101612f8b565b600060405180830381600087803b1580156114f757600080fd5b505af115801561150b573d6000803e3d6000fd5b505050600083815260046020526040908190206001810154905491516001600160a01b03909116925084907fd5074712d772916d5592447e134f0f148b438068d1cd2559a4b2ab8990c0fba090611563908690612f77565b60405180910390a4506000908152600460208190526040822082815560018101805474ffffffffffffffffffffffffffffffffffffffffff19169055600281018390556003810183905590810182905560058101829055600681019190915560078101805475ffffffffffffffffffffffffffffffffffffffffffff1916905560088101805473ffffffffffffffffffffffffffffffffffffffff1990811690915560098201805482169055600a90910180549091169055565b6040517f01ffc9a70000000000000000000000000000000000000000000000000000000081526000906001600160a01b038a16906301ffc9a790611685907f80ac58cd0000000000000000000000000000000000000000000000000000000090600401613089565b60206040518083038186803b15801561169d57600080fd5b505afa1580156116b1573d6000803e3d6000fd5b505050506040513d601f19601f820116820180604052508101906116d59190612ddf565b6116f15760405162461bcd60e51b815260040161032e90613a5b565b60648360ff16106117145760405162461bcd60e51b815260040161032e90613857565b6040517f6352211e0000000000000000000000000000000000000000000000000000000081526000906001600160a01b038b1690636352211e9061175c908e90600401613b15565b60206040518083038186803b15801561177457600080fd5b505afa158015611788573d6000803e3d6000fd5b505050506040513d601f19601f820116820180604052508101906117ac9190612cf2565b6040517f081812fc0000000000000000000000000000000000000000000000000000000081529091506001600160a01b038b169063081812fc906117f4908e90600401613b15565b60206040518083038186803b15801561180c57600080fd5b505afa158015611820573d6000803e3d6000fd5b505050506040513d601f19601f820116820180604052508101906118449190612cf2565b6001600160a01b0316336001600160a01b0316148061186b5750336001600160a01b038216145b6118875760405162461bcd60e51b815260040161032e906138b4565b60006118936006612452565b9050604051806101c001604052808d81526020018c6001600160a01b03168152602001600015158152602001600081526020018b81526020018a8152602001600081526020018981526020018860ff1681526020018660ff168152602001836001600160a01b0316815260200160006001600160a01b03168152602001876001600160a01b03168152602001856001600160a01b0316815250600460008381526020019081526020016000206000820151816000015560208201518160010160006101000a8154816001600160a01b0302191690836001600160a01b0316021790555060408201518160010160146101000a81548160ff021916908315150217905550606082015181600201556080820151816003015560a0820151816004015560c0820151816005015560e082015181600601556101008201518160070160006101000a81548160ff021916908360ff1602179055506101208201518160070160016101000a81548160ff021916908360ff1602179055506101408201518160070160026101000a8154816001600160a01b0302191690836001600160a01b031602179055506101608201518160080160006101000a8154816001600160a01b0302191690836001600160a01b031602179055506101808201518160090160006101000a8154816001600160a01b0302191690836001600160a01b031602179055506101a082015181600a0160006101000a8154816001600160a01b0302191690836001600160a01b031602179055509050508a6001600160a01b03166323b872dd83308f6040518463ffffffff1660e01b8152600401611af793929190612f8b565b600060405180830381600087803b158015611b1157600080fd5b505af1158015611b25573d6000803e3d6000fd5b50505050611b336006612456565b8a6001600160a01b03168c827f804f18cb6eb2eeef9ae4bfec904ef4d2b03d3364418461d62d4919c3a746407a8d8d8d8d898e8e8e604051611b7c989796959493929190613c27565b60405180910390a46000818152600460205260409020600901546001600160a01b03161580611bbc5750816001600160a01b0316866001600160a01b0316145b15611bcc57611bcc816001611411565b9b9a5050505050505050505050565b6000838152600460205260409081902060018101805460ff60a01b1916600160a01b86151502179081905560038201849055905491516001600160a01b03909116919085907f366ba2ff3ae87084a6b770c4ac0371bf0647243b3ab1a7f5c751d29322aa616190610f379087908790613079565b600082820183811015611c745760405162461bcd60e51b815260040161032e9061334a565b90505b92915050565b600082611c8c57506000611c77565b82820282848281611c9957fe5b0414611c745760405162461bcd60e51b815260040161032e9061362f565b6000808211611cd85760405162461bcd60e51b815260040161032e90613506565b818381611ce157fe5b049392505050565b6001600160a01b038116611e0d576003546040517f2e1a7d4d0000000000000000000000000000000000000000000000000000000081526001600160a01b0390911690632e1a7d4d90611d40908590600401613b15565b600060405180830381600087803b158015611d5a57600080fd5b505af1158015611d6e573d6000803e3d6000fd5b50505050611d7c838361245f565b611e0857600360009054906101000a90046001600160a01b03166001600160a01b031663d0e30db0836040518263ffffffff1660e01b81526004016000604051808303818588803b158015611dd057600080fd5b505af1158015611de4573d6000803e3d6000fd5b5050600354611e0893506001600160a01b031691508590508463ffffffff6124d616565b6103a9565b6103a96001600160a01b038216848463ffffffff6124d616565b6001600160a01b038116611ec257813414611e545760405162461bcd60e51b815260040161032e906132b6565b600360009054906101000a90046001600160a01b03166001600160a01b031663d0e30db0836040518263ffffffff1660e01b81526004016000604051808303818588803b158015611ea457600080fd5b505af1158015611eb8573d6000803e3d6000fd5b5050505050612013565b6040516370a0823160e01b815281906000906001600160a01b038316906370a0823190611ef3903090600401612f77565b60206040518083038186803b158015611f0b57600080fd5b505afa158015611f1f573d6000803e3d6000fd5b505050506040513d601f19601f82011682018060405250810190611f439190612e13565b9050611f606001600160a01b03831633308763ffffffff61255916565b6040516370a0823160e01b81526000906001600160a01b038416906370a0823190611f8f903090600401612f77565b60206040518083038186803b158015611fa757600080fd5b505afa158015611fbb573d6000803e3d6000fd5b505050506040513d601f19601f82011682018060405250810190611fdf9190612e13565b905080611ff2838763ffffffff611c4f16565b1461200f5760405162461bcd60e51b815260040161032e90613ab8565b5050505b5050565b6000828211156120395760405162461bcd60e51b815260040161032e90613472565b50900390565b60008181526004602052604090206005015461206d5760405162461bcd60e51b815260040161032e906139b6565b60008181526004602052604090206003015442101561209e5760405162461bcd60e51b815260040161032e9061359a565b6000818152600460205260408120600a01546001600160a01b0316156120de576000828152600460205260409020600a01546001600160a01b03166120eb565b6003546001600160a01b03165b6000838152600460205260408120600280820154905460019092015493945091926001600160a01b03908116610100909204161415612191576000806121308661257a565b9350915082905060018215151461218a57600086815260046020526040902060088101546002820154600a90920154612177926001600160a01b0392831692909116611ce9565b61218086611488565b505050505061244f565b5050612251565b6000848152600460208190526040918290206001810154600882015491549351632142170760e11b81526001600160a01b03918216946342842e0e946121db943094169201612f8b565b600060405180830381600087803b1580156121f557600080fd5b505af1925050508015612206575060015b61225157600084815260046020526040902060088101546002820154600a90920154612240926001600160a01b0392831692909116611ce9565b61224984611488565b50505061244f565b6000848152600460205260409020600901546001600160a01b0316156122e35760008481526004602052604090206007015461229d90606490610a30908490610100900460ff16611c7d565b91506122af818363ffffffff61201716565b60008581526004602052604090206009810154600a909101549192506122e3916001600160a01b0391821691859116611ce9565b60008481526004602052604090206007810154600a9091015461231a916001600160a01b0362010000909104811691849116611ce9565b60008481526004602052604090819020600181015481546007830154600984015460089094015494516001600160a01b039384169592948a947f334843dd102fb480fd982e331134a746cae45483f35aa91db449e96cb90cc5f194612394946201000090048216939282169291169089908b908d90612fd9565b60405180910390a45050506000818152600460208190526040822082815560018101805474ffffffffffffffffffffffffffffffffffffffffff19169055600281018390556003810183905590810182905560058101829055600681019190915560078101805475ffffffffffffffffffffffffffffffffffffffffffff1916905560088101805473ffffffffffffffffffffffffffffffffffffffff1990811690915560098201805482169055600a909101805490911690555b50565b5490565b80546001019055565b60408051600080825260208201928390529182916001600160a01b03861691859161248991612f5b565b60006040518083038185875af1925050503d80600081146124c6576040519150601f19603f3d011682016040523d82523d6000602084013e6124cb565b606091505b509095945050505050565b6103a98363a9059cbb60e01b84846040516024016124f5929190613011565b60408051601f198184030181529190526020810180517bffffffffffffffffffffffffffffffffffffffffffffffffffffffff167fffffffff0000000000000000000000000000000000000000000000000000000090931692909217909152612a39565b610759846323b872dd60e01b8585856040516024016124f593929190612f8b565b6000818152600460205260408120600a0154819081906001600160a01b0316156125be576000848152600460205260409020600a01546001600160a01b03166125cb565b6003546001600160a01b03165b90506125d5612be1565b506040805160a08101825260008681526004602081815284832060028082015486526001600160a01b0380891684880181905230888a01528c875285855260089093015481166060880152875180850189528681526080880152905487517ff1d5596b00000000000000000000000000000000000000000000000000000000815297519697929663095ea7b3966101009092049092169463f1d5596b94848201949093929083900390910190829087803b15801561269257600080fd5b505af11580156126a6573d6000803e3d6000fd5b505050506040513d601f19601f820116820180604052508101906126ca9190612cf2565b83516040517fffffffff0000000000000000000000000000000000000000000000000000000060e085901b168152612706929190600401613011565b602060405180830381600087803b15801561272057600080fd5b505af1158015612734573d6000803e3d6000fd5b505050506040513d601f19601f820116820180604052508101906127589190612ddf565b506002546000868152600460208190526040918290205491517f5bf624220000000000000000000000000000000000000000000000000000000081526101009093046001600160a01b031692635bf62422926127b8929091869101613bc6565b600060405180830381600087803b1580156127d257600080fd5b505af11580156127e6573d6000803e3d6000fd5b50506040516370a0823160e01b8152600092506001600160a01b03851691506370a0823190612819903090600401612f77565b60206040518083038186803b15801561283157600080fd5b505afa158015612845573d6000803e3d6000fd5b505050506040513d601f19601f820116820180604052508101906128699190612e13565b6002546000888152600460208190526040918290205491517fba3393990000000000000000000000000000000000000000000000000000000081529394506101009092046001600160a01b03169263ba339399926128ca9291879101613bc6565b600060405180830381600087803b1580156128e457600080fd5b505af19250505080156128f5575060015b612998576002546000878152600460208190526040918290205491517fb320f4590000000000000000000000000000000000000000000000000000000081526101009093046001600160a01b03169263b320f4599261295692909101613b15565b600060405180830381600087803b15801561297057600080fd5b505af1158015612984573d6000803e3d6000fd5b5060009750879650612a3495505050505050565b6040516370a0823160e01b81526000906001600160a01b038516906370a08231906129c7903090600401612f77565b60206040518083038186803b1580156129df57600080fd5b505afa1580156129f3573d6000803e3d6000fd5b505050506040513d601f19601f82011682018060405250810190612a179190612e13565b90506001612a2b828463ffffffff61201716565b95509550505050505b915091565b6060612a8e826040518060400160405280602081526020017f5361666545524332303a206c6f772d6c6576656c2063616c6c206661696c6564815250856001600160a01b0316612ac89092919063ffffffff16565b8051909150156103a95780806020019051810190612aac9190612ddf565b6103a95760405162461bcd60e51b815260040161032e906137fa565b6060612ad78484600085612ae1565b90505b9392505050565b606082471015612b035760405162461bcd60e51b815260040161032e906134a9565b612b0c85612ba2565b612b285760405162461bcd60e51b815260040161032e906137c3565b60006060866001600160a01b03168587604051612b459190612f5b565b60006040518083038185875af1925050503d8060008114612b82576040519150601f19603f3d011682016040523d82523d6000602084013e612b87565b606091505b5091509150612b97828286612ba8565b979650505050505050565b3b151590565b60608315612bb7575081612ada565b825115612bc75782518084602001fd5b8160405162461bcd60e51b815260040161032e91906130b6565b6040518060a001604052806000815260200160006001600160a01b0316815260200160006001600160a01b0316815260200160006001600160a01b03168152602001612c2b612c30565b905290565b6040518060200160405280600081525090565b8035611c7781613ca9565b600082601f830112612c5e578081fd5b813567ffffffffffffffff80821115612c75578283fd5b602080830260405182828201018181108582111715612c92578687fd5b604052848152945081850192508582018187018301881015612cb357600080fd5b600091505b84821015612cd6578035845292820192600191909101908201612cb8565b505050505092915050565b803560ff81168114611c7757600080fd5b600060208284031215612d03578081fd5b8151611c7481613ca9565b60008060008060008060008060006101208a8c031215612d2c578485fd5b893567ffffffffffffffff80821115612d43578687fd5b612d4f8d838e01612c4e565b9a5060208c01359150612d6182613ca9565b90985060408b0135975060608b0135965060808b01359080821115612d84578687fd5b50612d918c828d01612c4e565b955050612da18b60a08c01612ce1565b935060c08a0135612db181613ca9565b9250612dc08b60e08c01612ce1565b9150612dd08b6101008c01612c43565b90509295985092959850929598565b600060208284031215612df0578081fd5b8151611c7481613cbe565b600060208284031215612e0c578081fd5b5035919050565b600060208284031215612e24578081fd5b5051919050565b60008060008060008060008060006101208a8c031215612e49578485fd5b8935985060208a0135612e5b81613ca9565b975060408a0135965060608a0135955060808a01359450612e7f8b60a08c01612ce1565b935060c08a0135612e8f81613ca9565b9250612e9e8b60e08c01612ce1565b91506101008a0135612eaf81613ca9565b809150509295985092959850929598565b60008060408385031215612ed2578182fd5b823591506020830135612ee481613cbe565b809150509250929050565b600080600060608486031215612f03578283fd5b833592506020840135612f1581613cbe565b929592945050506040919091013590565b60008060408385031215612f38578182fd5b50508035926020909101359150565b6001600160a01b03169052565b60ff169052565b60008251612f6d818460208701613c7d565b9190910192915050565b6001600160a01b0391909116815260200190565b6001600160a01b039384168152919092166020820152604081019190915260600190565b6001600160a01b039490941684526020840192909252151560408301521515606082015260800190565b6001600160a01b039687168152948616602086015292851660408501526060840191909152608083015290911660a082015260c00190565b6001600160a01b03929092168252602082015260400190565b6020808252825182820181905260009190848201906040850190845b8181101561306257835183529284019291840191600101613046565b50909695505050505050565b901515815260200190565b9115158252602082015260400190565b7fffffffff0000000000000000000000000000000000000000000000000000000091909116815260200190565b60006020825282518060208401526130d5816040850160208701613c7d565b601f01601f19169190910160400192915050565b6020808252601c908201527f4d757374206265206c697374696e6720696e7465726d65646961727900000000604082015260600190565b60208082526013908201527f4d7573742073656e64206c697374507269636500000000000000000000000000604082015260600190565b6020808252601c908201527f4d7573742073656e64206174206c65617374206c697374507269636500000000604082015260600190565b60208082526012908201527f4c697374206973206e6f74206163746976650000000000000000000000000000604082015260600190565b6020808252601f908201527f42696420696e76616c696420666f722073686172652073706c697474696e6700604082015260600190565b60208082526027908201527f43616e27742063616e63656c20616e206c697374696e67206f6e63652069742760408201527f7320626567756e00000000000000000000000000000000000000000000000000606082015260800190565b6020808252602b908201527f4d757374206265206c697374696e6720696e7465726d656469617279206f722060408201527f746f6b656e206f776e6572000000000000000000000000000000000000000000606082015260800190565b60208082526034908201527f53656e74204d4f5449462056616c756520646f6573206e6f74206d617463682060408201527f7370656369666965642062696420616d6f756e74000000000000000000000000606082015260800190565b60208082526015908201527f4c697374696e6720646f65736e27742065786973740000000000000000000000604082015260600190565b6020808252601b908201527f536166654d6174683a206164646974696f6e206f766572666c6f770000000000604082015260600190565b6020808252602c908201527f4c656e677468206f6620746f6b656e49647320616e64206c697374507269636560408201527f73206d757374206d617463680000000000000000000000000000000000000000606082015260800190565b6020808252601b908201527f4c697374696e672068617320616c726561647920737461727465640000000000604082015260600190565b60208082526036908201527f4c656e677468206f6620746f6b656e496473206d75737420626520657175616c60408201527f20746f206f72206c657373207468616e20313030303000000000000000000000606082015260800190565b6020808252601e908201527f536166654d6174683a207375627472616374696f6e206f766572666c6f770000604082015260600190565b60208082526026908201527f416464726573733a20696e73756666696369656e742062616c616e636520666f60408201527f722063616c6c0000000000000000000000000000000000000000000000000000606082015260800190565b6020808252601a908201527f536166654d6174683a206469766973696f6e206279207a65726f000000000000604082015260600190565b60208082526028908201527f4c697374696e67206d75737420626520617070726f76656420627920696e746560408201527f726d656469617279000000000000000000000000000000000000000000000000606082015260800190565b60208082526015908201527f4c697374696e67206973206e6f74206163746976650000000000000000000000604082015260600190565b602080825260409082018190527f4d7573742073656e64206d6f7265207468616e206c6173742062696420627920908201527f6d696e426964496e6372656d656e7450657263656e7461676520616d6f756e74606082015260800190565b60208082526021908201527f536166654d6174683a206d756c7469706c69636174696f6e206f766572666c6f60408201527f7700000000000000000000000000000000000000000000000000000000000000606082015260800190565b60208082526018908201527f4c6973742068617320616c726561647920737461727465640000000000000000604082015260600190565b6020808252818101527f4d7573742062652062696464696e67206f722064726f70206c69737454797065604082015260600190565b6020808252601c908201527f4d757374206265206669786564207072696365206c6973745479706500000000604082015260600190565b60208082526035908201527f43616e206f6e6c792062652063616c6c6564206279206c697374696e6720637260408201527f6561746f72206f7220696e7465726d6564696172790000000000000000000000606082015260800190565b6020808252601a908201527f746f6b656e496473206d757374206e6f7420626520656d707479000000000000604082015260600190565b6020808252601d908201527f416464726573733a2063616c6c20746f206e6f6e2d636f6e7472616374000000604082015260600190565b6020808252602a908201527f5361666545524332303a204552433230206f7065726174696f6e20646964206e60408201527f6f74207375636365656400000000000000000000000000000000000000000000606082015260800190565b6020808252602f908201527f696e7465726d65646961727946656550657263656e74616765206d757374206260408201527f65206c657373207468616e203130300000000000000000000000000000000000606082015260800190565b6020808252602d908201527f43616c6c6572206d75737420626520617070726f766564206f72206f776e657260408201527f20666f7220746f6b656e20696400000000000000000000000000000000000000606082015260800190565b6020808252600f908201527f4c697374696e6720657870697265640000000000000000000000000000000000604082015260600190565b60208082526018908201527f4c697374696e67206861736e277420636f6d706c657465640000000000000000604082015260600190565b6020808252601f908201527f5265656e7472616e637947756172643a207265656e7472616e742063616c6c00604082015260600190565b60208082526014908201527f4c697374696e67206861736e277420626567756e000000000000000000000000604082015260600190565b60208082526015908201527f4d7573742062652064726f70206c697374547970650000000000000000000000604082015260600190565b60208082526019908201527f4d757374206265206c69737420696e7465726d65646961727900000000000000604082015260600190565b6020808252602f908201527f746f6b656e436f6e747261637420646f6573206e6f7420737570706f7274204560408201527f524337323120696e746572666163650000000000000000000000000000000000606082015260800190565b60208082526034908201527f546f6b656e207472616e736665722063616c6c20646964206e6f74207472616e60408201527f7366657220657870656374656420616d6f756e74000000000000000000000000606082015260800190565b90815260200190565b60006101c0820190508f82526001600160a01b038f1660208301528d151560408301528c60608301528b60808301528a60a08301528960c08301528860e0830152613b6d610100830189612f54565b613b7b610120830188612f54565b613b89610140830187612f47565b613b97610160830186612f47565b613ba5610180830185612f47565b613bb36101a0830184612f47565b9f9e505050505050505050505050505050565b600060c0820190508382528251602083015260208301516001600160a01b038082166040850152806040860151166060850152806060860151166080850152505060808301515160a08301529392505050565b918252602082015260400190565b9788526020880196909652604087019490945260ff92831660608701526001600160a01b039182166080870152811660a0860152911660c08401521660e08201526101000190565b60ff91909116815260200190565b60005b83811015613c98578181015183820152602001613c80565b838111156107595750506000910152565b6001600160a01b038116811461244f57600080fd5b801515811461244f57600080fdfea264697066735822122064f4edb9c8733a3cc512116a78443bdbfa94b816a516ee924e306b507e562f8a64736f6c63430006080033",
  "linkReferences": {},
  "deployedLinkReferences": {}
}