{
  "_format": "hh-sol-artifact-1",
  "contractName": "ItemListing",
  "sourceName": "contracts/ItemListing.sol",
  "abi": [
    {
      "inputs": [
        {
          "internalType": "address",
          "name": "_motif",
          "type": "address"
        },
        {
          "internalType": "address",
          "name": "_wmotif",
          "type": "address"
        }
      ],
      "stateMutability": "nonpayable",
      "type": "constructor"
    },
    {
      "anonymous": false,
      "inputs": [
        {
          "indexed": true,
          "internalType": "uint256",
          "name": "listingId",
          "type": "uint256"
        },
        {
          "indexed": true,
          "internalType": "uint256",
          "name": "tokenId",
          "type": "uint256"
        },
        {
          "indexed": true,
          "internalType": "address",
          "name": "tokenContract",
          "type": "address"
        },
        {
          "indexed": false,
          "internalType": "bool",
          "name": "approved",
          "type": "bool"
        }
      ],
      "name": "ListingApprovalUpdated",
      "type": "event"
    },
    {
      "anonymous": false,
      "inputs": [
        {
          "indexed": true,
          "internalType": "uint256",
          "name": "listingId",
          "type": "uint256"
        },
        {
          "indexed": true,
          "internalType": "uint256",
          "name": "tokenId",
          "type": "uint256"
        },
        {
          "indexed": true,
          "internalType": "address",
          "name": "tokenContract",
          "type": "address"
        },
        {
          "indexed": false,
          "internalType": "address",
          "name": "sender",
          "type": "address"
        },
        {
          "indexed": false,
          "internalType": "uint256",
          "name": "value",
          "type": "uint256"
        },
        {
          "indexed": false,
          "internalType": "bool",
          "name": "firstBid",
          "type": "bool"
        },
        {
          "indexed": false,
          "internalType": "bool",
          "name": "extended",
          "type": "bool"
        }
      ],
      "name": "ListingBid",
      "type": "event"
    },
    {
      "anonymous": false,
      "inputs": [
        {
          "indexed": true,
          "internalType": "uint256",
          "name": "listingId",
          "type": "uint256"
        },
        {
          "indexed": true,
          "internalType": "uint256",
          "name": "tokenId",
          "type": "uint256"
        },
        {
          "indexed": true,
          "internalType": "address",
          "name": "tokenContract",
          "type": "address"
        },
        {
          "indexed": false,
          "internalType": "address",
          "name": "tokenOwner",
          "type": "address"
        }
      ],
      "name": "ListingCanceled",
      "type": "event"
    },
    {
      "anonymous": false,
      "inputs": [
        {
          "indexed": true,
          "internalType": "uint256",
          "name": "listingId",
          "type": "uint256"
        },
        {
          "indexed": true,
          "internalType": "uint256",
          "name": "tokenId",
          "type": "uint256"
        },
        {
          "indexed": true,
          "internalType": "address",
          "name": "tokenContract",
          "type": "address"
        },
        {
          "indexed": false,
          "internalType": "uint256",
          "name": "startsAt",
          "type": "uint256"
        },
        {
          "indexed": false,
          "internalType": "uint256",
          "name": "duration",
          "type": "uint256"
        },
        {
          "indexed": false,
          "internalType": "uint256",
          "name": "listPrice",
          "type": "uint256"
        },
        {
          "indexed": false,
          "internalType": "uint8",
          "name": "listType",
          "type": "uint8"
        },
        {
          "indexed": false,
          "internalType": "address",
          "name": "tokenOwner",
          "type": "address"
        },
        {
          "indexed": false,
          "internalType": "address",
          "name": "intermediary",
          "type": "address"
        },
        {
          "indexed": false,
          "internalType": "uint8",
          "name": "intermediaryFeePercentage",
          "type": "uint8"
        },
        {
          "indexed": false,
          "internalType": "address",
          "name": "listCurrency",
          "type": "address"
        }
      ],
      "name": "ListingCreated",
      "type": "event"
    },
    {
      "anonymous": false,
      "inputs": [
        {
          "indexed": true,
          "internalType": "uint256",
          "name": "listingId",
          "type": "uint256"
        },
        {
          "indexed": true,
          "internalType": "uint256",
          "name": "tokenId",
          "type": "uint256"
        },
        {
          "indexed": true,
          "internalType": "address",
          "name": "tokenContract",
          "type": "address"
        },
        {
          "indexed": false,
          "internalType": "bool",
          "name": "approved",
          "type": "bool"
        },
        {
          "indexed": false,
          "internalType": "uint256",
          "name": "startsAt",
          "type": "uint256"
        }
      ],
      "name": "ListingDropApprovalUpdated",
      "type": "event"
    },
    {
      "anonymous": false,
      "inputs": [
        {
          "indexed": true,
          "internalType": "uint256",
          "name": "listingId",
          "type": "uint256"
        },
        {
          "indexed": true,
          "internalType": "uint256",
          "name": "tokenId",
          "type": "uint256"
        },
        {
          "indexed": true,
          "internalType": "address",
          "name": "tokenContract",
          "type": "address"
        },
        {
          "indexed": false,
          "internalType": "uint256",
          "name": "duration",
          "type": "uint256"
        }
      ],
      "name": "ListingDurationExtended",
      "type": "event"
    },
    {
      "anonymous": false,
      "inputs": [
        {
          "indexed": true,
          "internalType": "uint256",
          "name": "listingId",
          "type": "uint256"
        },
        {
          "indexed": true,
          "internalType": "uint256",
          "name": "tokenId",
          "type": "uint256"
        },
        {
          "indexed": true,
          "internalType": "address",
          "name": "tokenContract",
          "type": "address"
        },
        {
          "indexed": false,
          "internalType": "address",
          "name": "tokenOwner",
          "type": "address"
        },
        {
          "indexed": false,
          "internalType": "address",
          "name": "intermediary",
          "type": "address"
        },
        {
          "indexed": false,
          "internalType": "address",
          "name": "winner",
          "type": "address"
        },
        {
          "indexed": false,
          "internalType": "uint256",
          "name": "amount",
          "type": "uint256"
        },
        {
          "indexed": false,
          "internalType": "uint256",
          "name": "intermediaryFee",
          "type": "uint256"
        },
        {
          "indexed": false,
          "internalType": "address",
          "name": "listCurrency",
          "type": "address"
        }
      ],
      "name": "ListingEnded",
      "type": "event"
    },
    {
      "anonymous": false,
      "inputs": [
        {
          "indexed": true,
          "internalType": "uint256",
          "name": "listingId",
          "type": "uint256"
        },
        {
          "indexed": true,
          "internalType": "uint256",
          "name": "tokenId",
          "type": "uint256"
        },
        {
          "indexed": true,
          "internalType": "address",
          "name": "tokenContract",
          "type": "address"
        },
        {
          "indexed": false,
          "internalType": "uint256",
          "name": "listPrice",
          "type": "uint256"
        }
      ],
      "name": "ListingListPriceUpdated",
      "type": "event"
    },
    {
      "stateMutability": "payable",
      "type": "fallback"
    },
    {
      "inputs": [
        {
          "internalType": "uint256",
          "name": "listingId",
          "type": "uint256"
        }
      ],
      "name": "cancelListing",
      "outputs": [],
      "stateMutability": "nonpayable",
      "type": "function"
    },
    {
      "inputs": [
        {
          "internalType": "uint256",
          "name": "listingId",
          "type": "uint256"
        },
        {
          "internalType": "uint256",
          "name": "amount",
          "type": "uint256"
        }
      ],
      "name": "createBid",
      "outputs": [],
      "stateMutability": "payable",
      "type": "function"
    },
    {
      "inputs": [
        {
          "internalType": "uint256",
          "name": "listingId",
          "type": "uint256"
        },
        {
          "internalType": "uint256",
          "name": "amount",
          "type": "uint256"
        }
      ],
      "name": "createBidForFixed",
      "outputs": [],
      "stateMutability": "payable",
      "type": "function"
    },
    {
      "inputs": [
        {
          "internalType": "uint256",
          "name": "tokenId",
          "type": "uint256"
        },
        {
          "internalType": "address",
          "name": "tokenContract",
          "type": "address"
        },
        {
          "internalType": "uint256",
          "name": "startsAt",
          "type": "uint256"
        },
        {
          "internalType": "uint256",
          "name": "duration",
          "type": "uint256"
        },
        {
          "internalType": "uint256",
          "name": "listPrice",
          "type": "uint256"
        },
        {
          "internalType": "uint8",
          "name": "listType",
          "type": "uint8"
        },
        {
          "internalType": "address payable",
          "name": "intermediary",
          "type": "address"
        },
        {
          "internalType": "uint8",
          "name": "intermediaryFeePercentage",
          "type": "uint8"
        },
        {
          "internalType": "address",
          "name": "listCurrency",
          "type": "address"
        }
      ],
      "name": "createListing",
      "outputs": [
        {
          "internalType": "uint256",
          "name": "",
          "type": "uint256"
        }
      ],
      "stateMutability": "nonpayable",
      "type": "function"
    },
    {
      "inputs": [
        {
          "internalType": "uint256",
          "name": "listingId",
          "type": "uint256"
        }
      ],
      "name": "endListing",
      "outputs": [],
      "stateMutability": "nonpayable",
      "type": "function"
    },
    {
      "inputs": [
        {
          "internalType": "uint256",
          "name": "",
          "type": "uint256"
        }
      ],
      "name": "listings",
      "outputs": [
        {
          "internalType": "uint256",
          "name": "tokenId",
          "type": "uint256"
        },
        {
          "internalType": "address",
          "name": "tokenContract",
          "type": "address"
        },
        {
          "internalType": "bool",
          "name": "approved",
          "type": "bool"
        },
        {
          "internalType": "uint256",
          "name": "amount",
          "type": "uint256"
        },
        {
          "internalType": "uint256",
          "name": "startsAt",
          "type": "uint256"
        },
        {
          "internalType": "uint256",
          "name": "duration",
          "type": "uint256"
        },
        {
          "internalType": "uint256",
          "name": "firstBidTime",
          "type": "uint256"
        },
        {
          "internalType": "uint256",
          "name": "listPrice",
          "type": "uint256"
        },
        {
          "internalType": "uint8",
          "name": "listType",
          "type": "uint8"
        },
        {
          "internalType": "uint8",
          "name": "intermediaryFeePercentage",
          "type": "uint8"
        },
        {
          "internalType": "address",
          "name": "tokenOwner",
          "type": "address"
        },
        {
          "internalType": "address payable",
          "name": "bidder",
          "type": "address"
        },
        {
          "internalType": "address payable",
          "name": "intermediary",
          "type": "address"
        },
        {
          "internalType": "address",
          "name": "listCurrency",
          "type": "address"
        }
      ],
      "stateMutability": "view",
      "type": "function"
    },
    {
      "inputs": [],
      "name": "minBidIncrementPercentage",
      "outputs": [
        {
          "internalType": "uint8",
          "name": "",
          "type": "uint8"
        }
      ],
      "stateMutability": "view",
      "type": "function"
    },
    {
      "inputs": [],
      "name": "motif",
      "outputs": [
        {
          "internalType": "address",
          "name": "",
          "type": "address"
        }
      ],
      "stateMutability": "view",
      "type": "function"
    },
    {
      "inputs": [
        {
          "internalType": "uint256",
          "name": "listingId",
          "type": "uint256"
        },
        {
          "internalType": "bool",
          "name": "approved",
          "type": "bool"
        }
      ],
      "name": "setListingApproval",
      "outputs": [],
      "stateMutability": "nonpayable",
      "type": "function"
    },
    {
      "inputs": [
        {
          "internalType": "uint256",
          "name": "listingId",
          "type": "uint256"
        },
        {
          "internalType": "bool",
          "name": "approved",
          "type": "bool"
        },
        {
          "internalType": "uint256",
          "name": "startsAt",
          "type": "uint256"
        }
      ],
      "name": "setListingDropApproval",
      "outputs": [],
      "stateMutability": "nonpayable",
      "type": "function"
    },
    {
      "inputs": [
        {
          "internalType": "uint256",
          "name": "listingId",
          "type": "uint256"
        },
        {
          "internalType": "uint256",
          "name": "listPrice",
          "type": "uint256"
        }
      ],
      "name": "setListingListPrice",
      "outputs": [],
      "stateMutability": "nonpayable",
      "type": "function"
    },
    {
      "inputs": [],
      "name": "timeBuffer",
      "outputs": [
        {
          "internalType": "uint256",
          "name": "",
          "type": "uint256"
        }
      ],
      "stateMutability": "view",
      "type": "function"
    },
    {
      "inputs": [],
      "name": "wmotifAddress",
      "outputs": [
        {
          "internalType": "address",
          "name": "",
          "type": "address"
        }
      ],
      "stateMutability": "view",
      "type": "function"
    },
    {
      "stateMutability": "payable",
      "type": "receive"
    }
  ],
  "bytecode": "0x60806040523480156200001157600080fd5b5060405162003b9a38038062003b9a83398101604081905262000034916200013a565b60016000556040516301ffc9a760e01b81526001600160a01b038316906301ffc9a7906200006e906380ac58cd60e01b90600401620001a1565b60206040518083038186803b1580156200008757600080fd5b505afa1580156200009c573d6000803e3d6000fd5b505050506040513d601f19601f82011682018060405250810190620000c2919062000178565b620000ea5760405162461bcd60e51b8152600401620000e190620001b6565b60405180910390fd5b60028054600380546001600160a01b039485166001600160a01b03199091161790556104b060015560ff199290931661010002610100600160a81b03199093169290921716600517905562000206565b600080604083850312156200014d578182fd5b82516200015a81620001ed565b60208401519092506200016d81620001ed565b809150509250929050565b6000602082840312156200018a578081fd5b815180151581146200019a578182fd5b9392505050565b6001600160e01b031991909116815260200190565b6020808252601d908201527f446f65736e277420737570706f7274204e465420696e74657266616365000000604082015260600190565b6001600160a01b03811681146200020357600080fd5b50565b61398480620002166000396000f3fe6080604052600436106100d65760003560e01c8063b7751c711161007f578063e273aece11610059578063e273aece14610226578063ec91f2a41461023b578063fac2e3d814610250578063fb4bd43914610270576100dd565b8063b7751c71146101b9578063c89e0985146101cc578063de74e57b146101ec576100dd565b806350a14d73116100b057806350a14d731461014a57806383872bc11461016a578063b296024d14610197576100dd565b806312604245146100df5780631582f801146100ff578063305a67a81461012a576100dd565b366100dd57005b005b3480156100eb57600080fd5b506100dd6100fa366004612ce2565b610283565b34801561010b57600080fd5b50610114610329565b6040516101219190612d99565b60405180910390f35b34801561013657600080fd5b506100dd610145366004612c1d565b610338565b34801561015657600080fd5b506100dd610165366004612d11565b61042a565b34801561017657600080fd5b5061018a610185366004612c4d565b6104fd565b6040516101219190613794565b3480156101a357600080fd5b506101ac610ae7565b60405161012191906138ee565b6100dd6101c7366004612d48565b610af0565b3480156101d857600080fd5b506100dd6101e7366004612d48565b6110d3565b3480156101f857600080fd5b5061020c610207366004612c1d565b6111f4565b6040516101219e9d9c9b9a9998979695949392919061379d565b34801561023257600080fd5b5061011461127a565b34801561024757600080fd5b5061018a61128e565b34801561025c57600080fd5b506100dd61026b366004612c1d565b611294565b6100dd61027e366004612d48565b611785565b8161028d81611d5a565b6102b25760405162461bcd60e51b81526004016102a9906130ba565b60405180910390fd5b6000838152600460205260409020600901546001600160a01b031633146102eb5760405162461bcd60e51b81526004016102a990612ec7565b6000838152600460205260409020600501541561031a5760405162461bcd60e51b81526004016102a990613128565b6103248383611d80565b505050565b6003546001600160a01b031681565b6002600054141561035b5760405162461bcd60e51b81526004016102a9906135fe565b60026000558061036a81611d5a565b6103865760405162461bcd60e51b81526004016102a9906130ba565b6000828152600460205260409020600701546201000090046001600160a01b03163314806103cd57506000828152600460205260409020600901546001600160a01b031633145b6103e95760405162461bcd60e51b81526004016102a9906133e5565b600082815260046020526040902060050154156104185760405162461bcd60e51b81526004016102a990612fa3565b61042182611df7565b50506001600055565b8261043481611d5a565b6104505760405162461bcd60e51b81526004016102a9906130ba565b60008481526004602052604090206007015460ff166002146104845760405162461bcd60e51b81526004016102a99061366c565b6000848152600460205260409020600901546001600160a01b031633146104bd5760405162461bcd60e51b81526004016102a9906136a3565b600084815260046020526040902060050154156104ec5760405162461bcd60e51b81526004016102a990613342565b6104f7848484611f7f565b50505050565b6000600260005414156105225760405162461bcd60e51b81526004016102a9906135fe565b60026000556040517f01ffc9a70000000000000000000000000000000000000000000000000000000081526001600160a01b038a16906301ffc9a79061058c907f80ac58cd0000000000000000000000000000000000000000000000000000000090600401612e67565b60206040518083038186803b1580156105a457600080fd5b505afa1580156105b8573d6000803e3d6000fd5b505050506040513d601f19601f820116820180604052508101906105dc9190612c01565b6105f85760405162461bcd60e51b81526004016102a9906136da565b60648360ff161061061b5760405162461bcd60e51b81526004016102a9906134d6565b6040517f6352211e0000000000000000000000000000000000000000000000000000000081526000906001600160a01b038b1690636352211e90610663908e90600401613794565b60206040518083038186803b15801561067b57600080fd5b505afa15801561068f573d6000803e3d6000fd5b505050506040513d601f19601f820116820180604052508101906106b39190612be5565b6040517f081812fc0000000000000000000000000000000000000000000000000000000081529091506001600160a01b038b169063081812fc906106fb908e90600401613794565b60206040518083038186803b15801561071357600080fd5b505afa158015610727573d6000803e3d6000fd5b505050506040513d601f19601f8201168201806040525081019061074b9190612be5565b6001600160a01b0316336001600160a01b031614806107725750336001600160a01b038216145b61078e5760405162461bcd60e51b81526004016102a990613533565b600061079a6005611ff3565b9050604051806101c001604052808d81526020018c6001600160a01b03168152602001600015158152602001600081526020018b81526020018a8152602001600081526020018981526020018860ff1681526020018660ff168152602001836001600160a01b0316815260200160006001600160a01b03168152602001876001600160a01b03168152602001856001600160a01b0316815250600460008381526020019081526020016000206000820151816000015560208201518160010160006101000a8154816001600160a01b0302191690836001600160a01b0316021790555060408201518160010160146101000a81548160ff021916908315150217905550606082015181600201556080820151816003015560a0820151816004015560c0820151816005015560e082015181600601556101008201518160070160006101000a81548160ff021916908360ff1602179055506101208201518160070160016101000a81548160ff021916908360ff1602179055506101408201518160070160026101000a8154816001600160a01b0302191690836001600160a01b031602179055506101608201518160080160006101000a8154816001600160a01b0302191690836001600160a01b031602179055506101808201518160090160006101000a8154816001600160a01b0302191690836001600160a01b031602179055506101a082015181600a0160006101000a8154816001600160a01b0302191690836001600160a01b031602179055509050508a6001600160a01b03166323b872dd83308f6040518463ffffffff1660e01b81526004016109fe93929190612dad565b600060405180830381600087803b158015610a1857600080fd5b505af1158015610a2c573d6000803e3d6000fd5b50505050610a3a6005611ff7565b8a6001600160a01b03168c827f804f18cb6eb2eeef9ae4bfec904ef4d2b03d3364418461d62d4919c3a746407a8d8d8d8d898e8e8e604051610a839897969594939291906138a6565b60405180910390a46000818152600460205260409020600901546001600160a01b03161580610ac35750816001600160a01b0316866001600160a01b0316145b15610ad357610ad3816001611d80565b60016000559b9a5050505050505050505050565b60025460ff1681565b81610afa81611d5a565b610b165760405162461bcd60e51b81526004016102a9906130ba565b60026000541415610b395760405162461bcd60e51b81526004016102a9906135fe565b6002600090815583815260046020526040902060088101546001909101546001600160a01b0390911690600160a01b900460ff16610b895760405162461bcd60e51b81526004016102a99061322a565b60008481526004602052604090206007015460ff1660011480610bc0575060008481526004602052604090206007015460ff166002145b610bdc5760405162461bcd60e51b81526004016102a990613379565b600084815260046020526040902060030154421015610c0d5760405162461bcd60e51b81526004016102a990612f35565b6000848152600460205260409020600501541580610c535750600084815260046020819052604090912090810154600590910154610c509163ffffffff61200016565b42105b610c6f5760405162461bcd60e51b81526004016102a990613590565b600084815260046020526040902060060154831015610ca05760405162461bcd60e51b81526004016102a990612efe565b60028054600086815260046020526040902090910154610cfe91610ce091606491610cd4919060ff1663ffffffff61202e16565b9063ffffffff61206816565b6000868152600460205260409020600201549063ffffffff61200016565b831015610d1d5760405162461bcd60e51b81526004016102a990613287565b6002546000858152600460205260409020600101546001600160a01b03908116610100909204161415610e9757600260019054906101000a90046001600160a01b03166001600160a01b031663f1d5596b6040518163ffffffff1660e01b8152600401602060405180830381600087803b158015610d9a57600080fd5b505af1158015610dae573d6000803e3d6000fd5b505050506040513d601f19601f82011682018060405250810190610dd29190612be5565b6000858152600460208190526040918290205491517f02e8fe130000000000000000000000000000000000000000000000000000000081526001600160a01b0393909316926302e8fe1392610e2b929091889101613898565b60206040518083038186803b158015610e4357600080fd5b505afa158015610e57573d6000803e3d6000fd5b505050506040513d601f19601f82011682018060405250810190610e7b9190612c01565b610e975760405162461bcd60e51b81526004016102a990612f6c565b600084815260046020526040902060050154610ec757600084815260046020526040902042600590910155610f03565b6001600160a01b03811615610f035760008481526004602052604090206002810154600a90910154610f039183916001600160a01b031661209a565b6000848152600460205260409020600a0154610f299084906001600160a01b03166121d8565b60008481526004602081905260408220600281018690556008810180546001600160a01b0319163317905560015491810154600590910154610f82914291610f769163ffffffff61200016565b9063ffffffff6123c816565b1015610ff657600085815260046020819052604090912090810154600590910154610fdd90610fd090610fc1904290610f76908663ffffffff61200016565b6001549063ffffffff6123c816565b829063ffffffff61200016565b6000878152600460208190526040909120015550600190505b600085815260046020526040908190206001810154905491516001600160a01b03918216929188917fdf3c258fd5ebb54ac1a83c73feafacc466858d3badc3dda9c4034b0da1da54d9916110549133918b91908a1615908990612dd1565b60405180910390a480156110c75760008581526004602081905260409182902060018101548154919092015492516001600160a01b0390921692909188917f7c5d8b1980b451e2d8e5887c47bfdb1153d8b8de54ca953d110c9ec926dba3e3916110be9190613794565b60405180910390a45b50506001600055505050565b816110dd81611d5a565b6110f95760405162461bcd60e51b81526004016102a9906130ba565b6000838152600460205260409020600901546001600160a01b031633148061114057506000838152600460205260409020600701546201000090046001600160a01b031633145b61115c5760405162461bcd60e51b81526004016102a990613000565b6000838152600460205260409020600501541561118b5760405162461bcd60e51b81526004016102a990613128565b60008381526004602052604090819020600681018490556001810154905491516001600160a01b03909116919085907f0409843698c80a52d5e9991fdf99f888ac3f2282b93ddd87bbb63df422907e94906111e7908790613794565b60405180910390a4505050565b600460208190526000918252604090912080546001820154600283015460038401549484015460058501546006860154600787015460088801546009890154600a9099015497996001600160a01b038089169a60ff600160a01b909a048a169a98999298858416956101008104909416946201000090940483169383169291821691168e565b60025461010090046001600160a01b031681565b60015481565b8061129e81611d5a565b6112ba5760405162461bcd60e51b81526004016102a9906130ba565b600260005414156112dd5760405162461bcd60e51b81526004016102a9906135fe565b600260009081558281526004602052604090206007015460ff1660011480611319575060008281526004602052604090206007015460ff166002145b6113355760405162461bcd60e51b81526004016102a990613379565b6000828152600460205260409020600501546113635760405162461bcd60e51b81526004016102a990613635565b6000828152600460205260409020600301544210156113945760405162461bcd60e51b81526004016102a990612f35565b6000828152600460208190526040909120908101546005909101546113be9163ffffffff61200016565b4210156113dd5760405162461bcd60e51b81526004016102a9906135c7565b6000828152600460205260408120600a01546001600160a01b03161561141d576000838152600460205260409020600a01546001600160a01b031661142a565b6003546001600160a01b03165b6000848152600460205260408120600280820154905460019092015493945091926001600160a01b039081166101009092041614156114d05760008061146f876123f0565b935091508290506001821515146114c957600087815260046020526040902060088101546002820154600a909201546114b6926001600160a01b039283169290911661209a565b6114bf87611df7565b5050505050610421565b5050611590565b6000858152600460208190526040918290206001810154600882015491549351632142170760e11b81526001600160a01b03918216946342842e0e9461151a943094169201612dad565b600060405180830381600087803b15801561153457600080fd5b505af1925050508015611545575060015b61159057600085815260046020526040902060088101546002820154600a9092015461157f926001600160a01b039283169290911661209a565b61158885611df7565b505050610421565b6000858152600460205260409020600901546001600160a01b031615611622576000858152600460205260409020600701546115dc90606490610cd4908490610100900460ff1661202e565b91506115ee818363ffffffff6123c816565b60008681526004602052604090206009810154600a90910154919250611622916001600160a01b039182169185911661209a565b60008581526004602052604090206007810154600a90910154611659916001600160a01b036201000090910481169184911661209a565b60008581526004602052604090819020600181015481546007830154600984015460089094015494516001600160a01b039384169592948b947f334843dd102fb480fd982e331134a746cae45483f35aa91db449e96cb90cc5f1946116d3946201000090048216939282169291169089908b908d90612dfb565b60405180910390a450505060009182525060046020819052604082208281556001808201805474ffffffffffffffffffffffffffffffffffffffffff191690556002820184905560038201849055918101839055600581018390556006810183905560078101805475ffffffffffffffffffffffffffffffffffffffffffff191690556008810180546001600160a01b031990811690915560098201805482169055600a909101805490911690559055565b8161178f81611d5a565b6117ab5760405162461bcd60e51b81526004016102a9906130ba565b600260005414156117ce5760405162461bcd60e51b81526004016102a9906135fe565b6002600090815583815260046020526040902060010154600160a01b900460ff1661180b5760405162461bcd60e51b81526004016102a99061322a565b60008381526004602052604090206007015460ff1660031461183f5760405162461bcd60e51b81526004016102a9906133ae565b6000838152600460205260409020600301544210156118705760405162461bcd60e51b81526004016102a990612f35565b60008381526004602052604090206005015415806118b657506000838152600460208190526040909120908101546005909101546118b39163ffffffff61200016565b42105b6118d25760405162461bcd60e51b81526004016102a990613590565b6000838152600460205260409020600601548210156119035760405162461bcd60e51b81526004016102a990612efe565b6000838152600460205260409020426005820155600a015461192f9083906001600160a01b03166121d8565b600083815260046020526040808220600281018590556008810180546001600160a01b03191633908117909155600180830154925493516001600160a01b03939093169488937fdf3c258fd5ebb54ac1a83c73feafacc466858d3badc3dda9c4034b0da1da54d9936119a49390928a92612dd1565b60405180910390a46000838152600460205260408120600a01546001600160a01b0316156119ec576000848152600460205260409020600a01546001600160a01b03166119f9565b6003546001600160a01b03165b6000858152600460205260408120600280820154905460019092015493945091926001600160a01b03908116610100909204161415611a9f57600080611a3e886123f0565b93509150829050600182151514611a9857600088815260046020526040902060088101546002820154600a90920154611a85926001600160a01b039283169290911661209a565b611a8e88611df7565b5050505050611d50565b5050611b5f565b6000868152600460208190526040918290206001810154600882015491549351632142170760e11b81526001600160a01b03918216946342842e0e94611ae9943094169201612dad565b600060405180830381600087803b158015611b0357600080fd5b505af1925050508015611b14575060015b611b5f57600086815260046020526040902060088101546002820154600a90920154611b4e926001600160a01b039283169290911661209a565b611b5786611df7565b505050611d50565b6000868152600460205260409020600901546001600160a01b031615611bf157600086815260046020526040902060070154611bab90606490610cd4908490610100900460ff1661202e565b9150611bbd818363ffffffff6123c816565b60008781526004602052604090206009810154600a90910154919250611bf1916001600160a01b039182169185911661209a565b60008681526004602052604090206007810154600a90910154611c28916001600160a01b036201000090910481169184911661209a565b60008681526004602052604090819020600181015481546007830154600984015460089094015494516001600160a01b039384169592948c947f334843dd102fb480fd982e331134a746cae45483f35aa91db449e96cb90cc5f194611ca2946201000090048216939282169291169089908b908d90612dfb565b60405180910390a45050506000838152600460208190526040822082815560018101805474ffffffffffffffffffffffffffffffffffffffffff19169055600281018390556003810183905590810182905560058101829055600681019190915560078101805475ffffffffffffffffffffffffffffffffffffffffffff191690556008810180546001600160a01b031990811690915560098201805482169055600a909101805490911690555b5050600160005550565b6000908152600460205260409020600701546201000090046001600160a01b0316151590565b6000828152600460205260409081902060018101805460ff60a01b1916600160a01b851515021790819055905491516001600160a01b03909116919084907f301b3a878e4bfbb57bd5babb78545aff93752440eb359d65b3ad34de32d842fc90611deb908690612e4c565b60405180910390a45050565b6000818152600460208190526040918290206007810154600182015491549351632142170760e11b8152620100009091046001600160a01b03908116949216926342842e0e92611e4c92309287929101612dad565b600060405180830381600087803b158015611e6657600080fd5b505af1158015611e7a573d6000803e3d6000fd5b505050600083815260046020526040908190206001810154905491516001600160a01b03909116925084907fd5074712d772916d5592447e134f0f148b438068d1cd2559a4b2ab8990c0fba090611ed2908690612d99565b60405180910390a4506000908152600460208190526040822082815560018101805474ffffffffffffffffffffffffffffffffffffffffff19169055600281018390556003810183905590810182905560058101829055600681019190915560078101805475ffffffffffffffffffffffffffffffffffffffffffff191690556008810180546001600160a01b031990811690915560098201805482169055600a90910180549091169055565b6000838152600460205260409081902060018101805460ff60a01b1916600160a01b86151502179081905560038201849055905491516001600160a01b03909116919085907f366ba2ff3ae87084a6b770c4ac0371bf0647243b3ab1a7f5c751d29322aa6161906111e79087908790612e57565b5490565b80546001019055565b6000828201838110156120255760405162461bcd60e51b81526004016102a9906130f1565b90505b92915050565b60008261203d57506000612028565b8282028284828161204a57fe5b04146120255760405162461bcd60e51b81526004016102a9906132e5565b60008082116120895760405162461bcd60e51b81526004016102a9906131f3565b81838161209257fe5b049392505050565b6001600160a01b0381166121be576003546040517f2e1a7d4d0000000000000000000000000000000000000000000000000000000081526001600160a01b0390911690632e1a7d4d906120f1908590600401613794565b600060405180830381600087803b15801561210b57600080fd5b505af115801561211f573d6000803e3d6000fd5b5050505061212d83836128af565b6121b957600360009054906101000a90046001600160a01b03166001600160a01b031663d0e30db0836040518263ffffffff1660e01b81526004016000604051808303818588803b15801561218157600080fd5b505af1158015612195573d6000803e3d6000fd5b50506003546121b993506001600160a01b031691508590508463ffffffff61292616565b610324565b6103246001600160a01b038216848463ffffffff61292616565b6001600160a01b038116612273578134146122055760405162461bcd60e51b81526004016102a99061305d565b600360009054906101000a90046001600160a01b03166001600160a01b031663d0e30db0836040518263ffffffff1660e01b81526004016000604051808303818588803b15801561225557600080fd5b505af1158015612269573d6000803e3d6000fd5b50505050506123c4565b6040516370a0823160e01b815281906000906001600160a01b038316906370a08231906122a4903090600401612d99565b60206040518083038186803b1580156122bc57600080fd5b505afa1580156122d0573d6000803e3d6000fd5b505050506040513d601f19601f820116820180604052508101906122f49190612c35565b90506123116001600160a01b03831633308763ffffffff6129a916565b6040516370a0823160e01b81526000906001600160a01b038416906370a0823190612340903090600401612d99565b60206040518083038186803b15801561235857600080fd5b505afa15801561236c573d6000803e3d6000fd5b505050506040513d601f19601f820116820180604052508101906123909190612c35565b9050806123a3838763ffffffff61200016565b146123c05760405162461bcd60e51b81526004016102a990613737565b5050505b5050565b6000828211156123ea5760405162461bcd60e51b81526004016102a99061315f565b50900390565b6000818152600460205260408120600a0154819081906001600160a01b031615612434576000848152600460205260409020600a01546001600160a01b0316612441565b6003546001600160a01b03165b905061244b612b72565b506040805160a08101825260008681526004602081815284832060028082015486526001600160a01b0380891684880181905230888a01528c875285855260089093015481166060880152875180850189528681526080880152905487517ff1d5596b00000000000000000000000000000000000000000000000000000000815297519697929663095ea7b3966101009092049092169463f1d5596b94848201949093929083900390910190829087803b15801561250857600080fd5b505af115801561251c573d6000803e3d6000fd5b505050506040513d601f19601f820116820180604052508101906125409190612be5565b83516040517fffffffff0000000000000000000000000000000000000000000000000000000060e085901b16815261257c929190600401612e33565b602060405180830381600087803b15801561259657600080fd5b505af11580156125aa573d6000803e3d6000fd5b505050506040513d601f19601f820116820180604052508101906125ce9190612c01565b506002546000868152600460208190526040918290205491517f5bf624220000000000000000000000000000000000000000000000000000000081526101009093046001600160a01b031692635bf624229261262e929091869101613845565b600060405180830381600087803b15801561264857600080fd5b505af115801561265c573d6000803e3d6000fd5b50506040516370a0823160e01b8152600092506001600160a01b03851691506370a082319061268f903090600401612d99565b60206040518083038186803b1580156126a757600080fd5b505afa1580156126bb573d6000803e3d6000fd5b505050506040513d601f19601f820116820180604052508101906126df9190612c35565b6002546000888152600460208190526040918290205491517fba3393990000000000000000000000000000000000000000000000000000000081529394506101009092046001600160a01b03169263ba339399926127409291879101613845565b600060405180830381600087803b15801561275a57600080fd5b505af192505050801561276b575060015b61280e576002546000878152600460208190526040918290205491517fb320f4590000000000000000000000000000000000000000000000000000000081526101009093046001600160a01b03169263b320f459926127cc92909101613794565b600060405180830381600087803b1580156127e657600080fd5b505af11580156127fa573d6000803e3d6000fd5b50600097508796506128aa95505050505050565b6040516370a0823160e01b81526000906001600160a01b038516906370a082319061283d903090600401612d99565b60206040518083038186803b15801561285557600080fd5b505afa158015612869573d6000803e3d6000fd5b505050506040513d601f19601f8201168201806040525081019061288d9190612c35565b905060016128a1828463ffffffff6123c816565b95509550505050505b915091565b60408051600080825260208201928390529182916001600160a01b0386169185916128d991612d7d565b60006040518083038185875af1925050503d8060008114612916576040519150601f19603f3d011682016040523d82523d6000602084013e61291b565b606091505b509095945050505050565b6103248363a9059cbb60e01b8484604051602401612945929190612e33565b60408051601f198184030181529190526020810180517bffffffffffffffffffffffffffffffffffffffffffffffffffffffff167fffffffff00000000000000000000000000000000000000000000000000000000909316929092179091526129ca565b6104f7846323b872dd60e01b85858560405160240161294593929190612dad565b6060612a1f826040518060400160405280602081526020017f5361666545524332303a206c6f772d6c6576656c2063616c6c206661696c6564815250856001600160a01b0316612a599092919063ffffffff16565b8051909150156103245780806020019051810190612a3d9190612c01565b6103245760405162461bcd60e51b81526004016102a990613479565b6060612a688484600085612a72565b90505b9392505050565b606082471015612a945760405162461bcd60e51b81526004016102a990613196565b612a9d85612b33565b612ab95760405162461bcd60e51b81526004016102a990613442565b60006060866001600160a01b03168587604051612ad69190612d7d565b60006040518083038185875af1925050503d8060008114612b13576040519150601f19603f3d011682016040523d82523d6000602084013e612b18565b606091505b5091509150612b28828286612b39565b979650505050505050565b3b151590565b60608315612b48575081612a6b565b825115612b585782518084602001fd5b8160405162461bcd60e51b81526004016102a99190612e94565b6040518060a001604052806000815260200160006001600160a01b0316815260200160006001600160a01b0316815260200160006001600160a01b03168152602001612bbc612bc1565b905290565b6040518060200160405280600081525090565b803560ff8116811461202857600080fd5b600060208284031215612bf6578081fd5b815161202581613928565b600060208284031215612c12578081fd5b815161202581613940565b600060208284031215612c2e578081fd5b5035919050565b600060208284031215612c46578081fd5b5051919050565b60008060008060008060008060006101208a8c031215612c6b578485fd5b8935985060208a0135612c7d81613928565b975060408a0135965060608a0135955060808a01359450612ca18b60a08c01612bd4565b935060c08a0135612cb181613928565b9250612cc08b60e08c01612bd4565b91506101008a0135612cd181613928565b809150509295985092959850929598565b60008060408385031215612cf4578182fd5b823591506020830135612d0681613940565b809150509250929050565b600080600060608486031215612d25578283fd5b833592506020840135612d3781613940565b929592945050506040919091013590565b60008060408385031215612d5a578182fd5b50508035926020909101359150565b6001600160a01b03169052565b60ff169052565b60008251612d8f8184602087016138fc565b9190910192915050565b6001600160a01b0391909116815260200190565b6001600160a01b039384168152919092166020820152604081019190915260600190565b6001600160a01b039490941684526020840192909252151560408301521515606082015260800190565b6001600160a01b039687168152948616602086015292851660408501526060840191909152608083015290911660a082015260c00190565b6001600160a01b03929092168252602082015260400190565b901515815260200190565b9115158252602082015260400190565b7fffffffff0000000000000000000000000000000000000000000000000000000091909116815260200190565b6000602082528251806020840152612eb38160408501602087016138fc565b601f01601f19169190910160400192915050565b6020808252601c908201527f4d757374206265206c697374696e6720696e7465726d65646961727900000000604082015260600190565b6020808252601c908201527f4d7573742073656e64206174206c65617374206c697374507269636500000000604082015260600190565b60208082526012908201527f4c697374206973206e6f74206163746976650000000000000000000000000000604082015260600190565b6020808252601f908201527f42696420696e76616c696420666f722073686172652073706c697474696e6700604082015260600190565b60208082526027908201527f43616e27742063616e63656c20616e206c697374696e67206f6e63652069742760408201527f7320626567756e00000000000000000000000000000000000000000000000000606082015260800190565b6020808252602b908201527f4d757374206265206c697374696e6720696e7465726d656469617279206f722060408201527f746f6b656e206f776e6572000000000000000000000000000000000000000000606082015260800190565b60208082526034908201527f53656e74204d4f5449462056616c756520646f6573206e6f74206d617463682060408201527f7370656369666965642062696420616d6f756e74000000000000000000000000606082015260800190565b60208082526015908201527f4c697374696e6720646f65736e27742065786973740000000000000000000000604082015260600190565b6020808252601b908201527f536166654d6174683a206164646974696f6e206f766572666c6f770000000000604082015260600190565b6020808252601b908201527f4c697374696e672068617320616c726561647920737461727465640000000000604082015260600190565b6020808252601e908201527f536166654d6174683a207375627472616374696f6e206f766572666c6f770000604082015260600190565b60208082526026908201527f416464726573733a20696e73756666696369656e742062616c616e636520666f60408201527f722063616c6c0000000000000000000000000000000000000000000000000000606082015260800190565b6020808252601a908201527f536166654d6174683a206469766973696f6e206279207a65726f000000000000604082015260600190565b60208082526028908201527f4c697374696e67206d75737420626520617070726f76656420627920696e746560408201527f726d656469617279000000000000000000000000000000000000000000000000606082015260800190565b602080825260409082018190527f4d7573742073656e64206d6f7265207468616e206c6173742062696420627920908201527f6d696e426964496e6372656d656e7450657263656e7461676520616d6f756e74606082015260800190565b60208082526021908201527f536166654d6174683a206d756c7469706c69636174696f6e206f766572666c6f60408201527f7700000000000000000000000000000000000000000000000000000000000000606082015260800190565b60208082526018908201527f4c6973742068617320616c726561647920737461727465640000000000000000604082015260600190565b6020808252818101527f4d7573742062652062696464696e67206f722064726f70206c69737454797065604082015260600190565b6020808252601c908201527f4d757374206265206669786564207072696365206c6973745479706500000000604082015260600190565b60208082526035908201527f43616e206f6e6c792062652063616c6c6564206279206c697374696e6720637260408201527f6561746f72206f7220696e7465726d6564696172790000000000000000000000606082015260800190565b6020808252601d908201527f416464726573733a2063616c6c20746f206e6f6e2d636f6e7472616374000000604082015260600190565b6020808252602a908201527f5361666545524332303a204552433230206f7065726174696f6e20646964206e60408201527f6f74207375636365656400000000000000000000000000000000000000000000606082015260800190565b6020808252602f908201527f696e7465726d65646961727946656550657263656e74616765206d757374206260408201527f65206c657373207468616e203130300000000000000000000000000000000000606082015260800190565b6020808252602d908201527f43616c6c6572206d75737420626520617070726f766564206f72206f776e657260408201527f20666f7220746f6b656e20696400000000000000000000000000000000000000606082015260800190565b6020808252600f908201527f4c697374696e6720657870697265640000000000000000000000000000000000604082015260600190565b60208082526018908201527f4c697374696e67206861736e277420636f6d706c657465640000000000000000604082015260600190565b6020808252601f908201527f5265656e7472616e637947756172643a207265656e7472616e742063616c6c00604082015260600190565b60208082526014908201527f4c697374696e67206861736e277420626567756e000000000000000000000000604082015260600190565b60208082526015908201527f4d7573742062652064726f70206c697374547970650000000000000000000000604082015260600190565b60208082526019908201527f4d757374206265206c69737420696e7465726d65646961727900000000000000604082015260600190565b6020808252602f908201527f746f6b656e436f6e747261637420646f6573206e6f7420737570706f7274204560408201527f524337323120696e746572666163650000000000000000000000000000000000606082015260800190565b60208082526034908201527f546f6b656e207472616e736665722063616c6c20646964206e6f74207472616e60408201527f7366657220657870656374656420616d6f756e74000000000000000000000000606082015260800190565b90815260200190565b60006101c0820190508f82526001600160a01b038f1660208301528d151560408301528c60608301528b60808301528a60a08301528960c08301528860e08301526137ec610100830189612d76565b6137fa610120830188612d76565b613808610140830187612d69565b613816610160830186612d69565b613824610180830185612d69565b6138326101a0830184612d69565b9f9e505050505050505050505050505050565b600060c0820190508382528251602083015260208301516001600160a01b038082166040850152806040860151166060850152806060860151166080850152505060808301515160a08301529392505050565b918252602082015260400190565b9788526020880196909652604087019490945260ff92831660608701526001600160a01b039182166080870152811660a0860152911660c08401521660e08201526101000190565b60ff91909116815260200190565b60005b838110156139175781810151838201526020016138ff565b838111156104f75750506000910152565b6001600160a01b038116811461393d57600080fd5b50565b801515811461393d57600080fdfea264697066735822122020bc00f77097c7434c0d44b9a1dc1278c80d71a95fdd8a70a86026948b67952764736f6c63430006080033",
  "linkReferences": {},
  "deployedLinkReferences": {}
}