{
  "_format": "hh-sol-artifact-1",
  "contractName": "ItemExchange",
  "sourceName": "contracts/ItemExchange.sol",
  "abi": [
    {
      "inputs": [
        {
          "internalType": "string",
          "name": "itemExchangeIdentifierString",
          "type": "string"
        }
      ],
      "stateMutability": "nonpayable",
      "type": "constructor"
    },
    {
      "anonymous": false,
      "inputs": [
        {
          "indexed": true,
          "internalType": "uint256",
          "name": "tokenId",
          "type": "uint256"
        },
        {
          "components": [
            {
              "internalType": "uint256",
              "name": "amount",
              "type": "uint256"
            },
            {
              "internalType": "address",
              "name": "currency",
              "type": "address"
            }
          ],
          "indexed": false,
          "internalType": "struct IItemExchange.Ask",
          "name": "ask",
          "type": "tuple"
        }
      ],
      "name": "AskCreated",
      "type": "event"
    },
    {
      "anonymous": false,
      "inputs": [
        {
          "indexed": true,
          "internalType": "uint256",
          "name": "tokenId",
          "type": "uint256"
        },
        {
          "components": [
            {
              "internalType": "uint256",
              "name": "amount",
              "type": "uint256"
            },
            {
              "internalType": "address",
              "name": "currency",
              "type": "address"
            }
          ],
          "indexed": false,
          "internalType": "struct IItemExchange.Ask",
          "name": "ask",
          "type": "tuple"
        }
      ],
      "name": "AskRemoved",
      "type": "event"
    },
    {
      "anonymous": false,
      "inputs": [
        {
          "indexed": true,
          "internalType": "uint256",
          "name": "tokenId",
          "type": "uint256"
        },
        {
          "components": [
            {
              "internalType": "uint256",
              "name": "amount",
              "type": "uint256"
            },
            {
              "internalType": "address",
              "name": "currency",
              "type": "address"
            },
            {
              "internalType": "address",
              "name": "bidder",
              "type": "address"
            },
            {
              "internalType": "address",
              "name": "recipient",
              "type": "address"
            },
            {
              "components": [
                {
                  "internalType": "uint256",
                  "name": "value",
                  "type": "uint256"
                }
              ],
              "internalType": "struct Decimal.D256",
              "name": "sellOnShare",
              "type": "tuple"
            }
          ],
          "indexed": false,
          "internalType": "struct IItemExchange.Bid",
          "name": "bid",
          "type": "tuple"
        }
      ],
      "name": "BidCreated",
      "type": "event"
    },
    {
      "anonymous": false,
      "inputs": [
        {
          "indexed": true,
          "internalType": "uint256",
          "name": "tokenId",
          "type": "uint256"
        },
        {
          "components": [
            {
              "internalType": "uint256",
              "name": "amount",
              "type": "uint256"
            },
            {
              "internalType": "address",
              "name": "currency",
              "type": "address"
            },
            {
              "internalType": "address",
              "name": "bidder",
              "type": "address"
            },
            {
              "internalType": "address",
              "name": "recipient",
              "type": "address"
            },
            {
              "components": [
                {
                  "internalType": "uint256",
                  "name": "value",
                  "type": "uint256"
                }
              ],
              "internalType": "struct Decimal.D256",
              "name": "sellOnShare",
              "type": "tuple"
            }
          ],
          "indexed": false,
          "internalType": "struct IItemExchange.Bid",
          "name": "bid",
          "type": "tuple"
        }
      ],
      "name": "BidFinalized",
      "type": "event"
    },
    {
      "anonymous": false,
      "inputs": [
        {
          "indexed": true,
          "internalType": "uint256",
          "name": "tokenId",
          "type": "uint256"
        },
        {
          "components": [
            {
              "internalType": "uint256",
              "name": "amount",
              "type": "uint256"
            },
            {
              "internalType": "address",
              "name": "currency",
              "type": "address"
            },
            {
              "internalType": "address",
              "name": "bidder",
              "type": "address"
            },
            {
              "internalType": "address",
              "name": "recipient",
              "type": "address"
            },
            {
              "components": [
                {
                  "internalType": "uint256",
                  "name": "value",
                  "type": "uint256"
                }
              ],
              "internalType": "struct Decimal.D256",
              "name": "sellOnShare",
              "type": "tuple"
            }
          ],
          "indexed": false,
          "internalType": "struct IItemExchange.Bid",
          "name": "bid",
          "type": "tuple"
        }
      ],
      "name": "BidRemoved",
      "type": "event"
    },
    {
      "anonymous": false,
      "inputs": [
        {
          "indexed": true,
          "internalType": "uint256",
          "name": "tokenId",
          "type": "uint256"
        },
        {
          "components": [
            {
              "components": [
                {
                  "internalType": "uint256",
                  "name": "value",
                  "type": "uint256"
                }
              ],
              "internalType": "struct Decimal.D256",
              "name": "prevOwner",
              "type": "tuple"
            },
            {
              "components": [
                {
                  "internalType": "uint256",
                  "name": "value",
                  "type": "uint256"
                }
              ],
              "internalType": "struct Decimal.D256",
              "name": "creator",
              "type": "tuple"
            },
            {
              "components": [
                {
                  "internalType": "uint256",
                  "name": "value",
                  "type": "uint256"
                }
              ],
              "internalType": "struct Decimal.D256",
              "name": "owner",
              "type": "tuple"
            }
          ],
          "indexed": false,
          "internalType": "struct IItemExchange.BidShares",
          "name": "bidShares",
          "type": "tuple"
        }
      ],
      "name": "BidShareUpdated",
      "type": "event"
    },
    {
      "inputs": [
        {
          "internalType": "uint256",
          "name": "tokenId",
          "type": "uint256"
        },
        {
          "components": [
            {
              "internalType": "uint256",
              "name": "amount",
              "type": "uint256"
            },
            {
              "internalType": "address",
              "name": "currency",
              "type": "address"
            },
            {
              "internalType": "address",
              "name": "bidder",
              "type": "address"
            },
            {
              "internalType": "address",
              "name": "recipient",
              "type": "address"
            },
            {
              "components": [
                {
                  "internalType": "uint256",
                  "name": "value",
                  "type": "uint256"
                }
              ],
              "internalType": "struct Decimal.D256",
              "name": "sellOnShare",
              "type": "tuple"
            }
          ],
          "internalType": "struct IItemExchange.Bid",
          "name": "expectedBid",
          "type": "tuple"
        }
      ],
      "name": "acceptBid",
      "outputs": [],
      "stateMutability": "nonpayable",
      "type": "function"
    },
    {
      "inputs": [
        {
          "internalType": "uint256",
          "name": "tokenId",
          "type": "uint256"
        },
        {
          "internalType": "address",
          "name": "bidder",
          "type": "address"
        }
      ],
      "name": "bidForTokenBidder",
      "outputs": [
        {
          "components": [
            {
              "internalType": "uint256",
              "name": "amount",
              "type": "uint256"
            },
            {
              "internalType": "address",
              "name": "currency",
              "type": "address"
            },
            {
              "internalType": "address",
              "name": "bidder",
              "type": "address"
            },
            {
              "internalType": "address",
              "name": "recipient",
              "type": "address"
            },
            {
              "components": [
                {
                  "internalType": "uint256",
                  "name": "value",
                  "type": "uint256"
                }
              ],
              "internalType": "struct Decimal.D256",
              "name": "sellOnShare",
              "type": "tuple"
            }
          ],
          "internalType": "struct IItemExchange.Bid",
          "name": "",
          "type": "tuple"
        }
      ],
      "stateMutability": "view",
      "type": "function"
    },
    {
      "inputs": [
        {
          "internalType": "uint256",
          "name": "tokenId",
          "type": "uint256"
        }
      ],
      "name": "bidSharesForToken",
      "outputs": [
        {
          "components": [
            {
              "components": [
                {
                  "internalType": "uint256",
                  "name": "value",
                  "type": "uint256"
                }
              ],
              "internalType": "struct Decimal.D256",
              "name": "prevOwner",
              "type": "tuple"
            },
            {
              "components": [
                {
                  "internalType": "uint256",
                  "name": "value",
                  "type": "uint256"
                }
              ],
              "internalType": "struct Decimal.D256",
              "name": "creator",
              "type": "tuple"
            },
            {
              "components": [
                {
                  "internalType": "uint256",
                  "name": "value",
                  "type": "uint256"
                }
              ],
              "internalType": "struct Decimal.D256",
              "name": "owner",
              "type": "tuple"
            }
          ],
          "internalType": "struct IItemExchange.BidShares",
          "name": "",
          "type": "tuple"
        }
      ],
      "stateMutability": "view",
      "type": "function"
    },
    {
      "inputs": [
        {
          "internalType": "address",
          "name": "itemContractAddress",
          "type": "address"
        }
      ],
      "name": "configure",
      "outputs": [],
      "stateMutability": "nonpayable",
      "type": "function"
    },
    {
      "inputs": [
        {
          "internalType": "uint256",
          "name": "tokenId",
          "type": "uint256"
        }
      ],
      "name": "currentAskForToken",
      "outputs": [
        {
          "components": [
            {
              "internalType": "uint256",
              "name": "amount",
              "type": "uint256"
            },
            {
              "internalType": "address",
              "name": "currency",
              "type": "address"
            }
          ],
          "internalType": "struct IItemExchange.Ask",
          "name": "",
          "type": "tuple"
        }
      ],
      "stateMutability": "view",
      "type": "function"
    },
    {
      "inputs": [],
      "name": "getItemExchangeIdentifier",
      "outputs": [
        {
          "internalType": "string",
          "name": "",
          "type": "string"
        }
      ],
      "stateMutability": "view",
      "type": "function"
    },
    {
      "inputs": [
        {
          "internalType": "uint256",
          "name": "tokenId",
          "type": "uint256"
        },
        {
          "internalType": "uint256",
          "name": "bidAmount",
          "type": "uint256"
        }
      ],
      "name": "isValidBid",
      "outputs": [
        {
          "internalType": "bool",
          "name": "",
          "type": "bool"
        }
      ],
      "stateMutability": "view",
      "type": "function"
    },
    {
      "inputs": [
        {
          "components": [
            {
              "components": [
                {
                  "internalType": "uint256",
                  "name": "value",
                  "type": "uint256"
                }
              ],
              "internalType": "struct Decimal.D256",
              "name": "prevOwner",
              "type": "tuple"
            },
            {
              "components": [
                {
                  "internalType": "uint256",
                  "name": "value",
                  "type": "uint256"
                }
              ],
              "internalType": "struct Decimal.D256",
              "name": "creator",
              "type": "tuple"
            },
            {
              "components": [
                {
                  "internalType": "uint256",
                  "name": "value",
                  "type": "uint256"
                }
              ],
              "internalType": "struct Decimal.D256",
              "name": "owner",
              "type": "tuple"
            }
          ],
          "internalType": "struct IItemExchange.BidShares",
          "name": "bidShares",
          "type": "tuple"
        }
      ],
      "name": "isValidBidShares",
      "outputs": [
        {
          "internalType": "bool",
          "name": "",
          "type": "bool"
        }
      ],
      "stateMutability": "pure",
      "type": "function"
    },
    {
      "inputs": [],
      "name": "itemContract",
      "outputs": [
        {
          "internalType": "address",
          "name": "",
          "type": "address"
        }
      ],
      "stateMutability": "view",
      "type": "function"
    },
    {
      "inputs": [],
      "name": "itemExchangeIdentifier",
      "outputs": [
        {
          "internalType": "string",
          "name": "",
          "type": "string"
        }
      ],
      "stateMutability": "view",
      "type": "function"
    },
    {
      "inputs": [
        {
          "internalType": "uint256",
          "name": "tokenId",
          "type": "uint256"
        }
      ],
      "name": "removeAsk",
      "outputs": [],
      "stateMutability": "nonpayable",
      "type": "function"
    },
    {
      "inputs": [
        {
          "internalType": "uint256",
          "name": "tokenId",
          "type": "uint256"
        },
        {
          "internalType": "address",
          "name": "bidder",
          "type": "address"
        }
      ],
      "name": "removeBid",
      "outputs": [],
      "stateMutability": "nonpayable",
      "type": "function"
    },
    {
      "inputs": [
        {
          "internalType": "uint256",
          "name": "tokenId",
          "type": "uint256"
        },
        {
          "components": [
            {
              "internalType": "uint256",
              "name": "amount",
              "type": "uint256"
            },
            {
              "internalType": "address",
              "name": "currency",
              "type": "address"
            }
          ],
          "internalType": "struct IItemExchange.Ask",
          "name": "ask",
          "type": "tuple"
        }
      ],
      "name": "setAsk",
      "outputs": [],
      "stateMutability": "nonpayable",
      "type": "function"
    },
    {
      "inputs": [
        {
          "internalType": "uint256",
          "name": "tokenId",
          "type": "uint256"
        },
        {
          "components": [
            {
              "internalType": "uint256",
              "name": "amount",
              "type": "uint256"
            },
            {
              "internalType": "address",
              "name": "currency",
              "type": "address"
            },
            {
              "internalType": "address",
              "name": "bidder",
              "type": "address"
            },
            {
              "internalType": "address",
              "name": "recipient",
              "type": "address"
            },
            {
              "components": [
                {
                  "internalType": "uint256",
                  "name": "value",
                  "type": "uint256"
                }
              ],
              "internalType": "struct Decimal.D256",
              "name": "sellOnShare",
              "type": "tuple"
            }
          ],
          "internalType": "struct IItemExchange.Bid",
          "name": "bid",
          "type": "tuple"
        },
        {
          "internalType": "address",
          "name": "spender",
          "type": "address"
        }
      ],
      "name": "setBid",
      "outputs": [],
      "stateMutability": "nonpayable",
      "type": "function"
    },
    {
      "inputs": [
        {
          "internalType": "uint256",
          "name": "tokenId",
          "type": "uint256"
        },
        {
          "components": [
            {
              "components": [
                {
                  "internalType": "uint256",
                  "name": "value",
                  "type": "uint256"
                }
              ],
              "internalType": "struct Decimal.D256",
              "name": "prevOwner",
              "type": "tuple"
            },
            {
              "components": [
                {
                  "internalType": "uint256",
                  "name": "value",
                  "type": "uint256"
                }
              ],
              "internalType": "struct Decimal.D256",
              "name": "creator",
              "type": "tuple"
            },
            {
              "components": [
                {
                  "internalType": "uint256",
                  "name": "value",
                  "type": "uint256"
                }
              ],
              "internalType": "struct Decimal.D256",
              "name": "owner",
              "type": "tuple"
            }
          ],
          "internalType": "struct IItemExchange.BidShares",
          "name": "bidShares",
          "type": "tuple"
        }
      ],
      "name": "setBidShares",
      "outputs": [],
      "stateMutability": "nonpayable",
      "type": "function"
    },
    {
      "inputs": [
        {
          "components": [
            {
              "internalType": "uint256",
              "name": "value",
              "type": "uint256"
            }
          ],
          "internalType": "struct Decimal.D256",
          "name": "sharePercentage",
          "type": "tuple"
        },
        {
          "internalType": "uint256",
          "name": "amount",
          "type": "uint256"
        }
      ],
      "name": "splitShare",
      "outputs": [
        {
          "internalType": "uint256",
          "name": "",
          "type": "uint256"
        }
      ],
      "stateMutability": "pure",
      "type": "function"
    }
  ],
  "bytecode": "0x60806040523480156200001157600080fd5b506040516200258e3803806200258e833981016040819052620000349162000108565b600280546001600160a01b0319163317905580516200005b90600190602084019062000063565b5050620001dd565b828054600181600116156101000203166002900490600052602060002090601f016020900481019282601f10620000a657805160ff1916838001178555620000d6565b82800160010185558215620000d6579182015b82811115620000d6578251825591602001919060010190620000b9565b50620000e4929150620000e8565b5090565b6200010591905b80821115620000e45760008155600101620000ef565b90565b6000602082840312156200011a578081fd5b81516001600160401b038082111562000131578283fd5b81840185601f82011262000143578384fd5b805192508183111562000154578384fd5b604051601f8401601f19168101602001838111828210171562000175578586fd5b6040528381528184016020018710156200018d578485fd5b620001a0846020830160208501620001aa565b9695505050505050565b60005b83811015620001c7578181015183820152602001620001ad565b83811115620001d7576000848401525b50505050565b6123a180620001ed6000396000f3fe608060405234801561001057600080fd5b50600436106101005760003560e01c80638d76f94011610097578063bdb5869811610066578063bdb586981461022c578063e06c9e181461023f578063eb55683a14610247578063f9ce05821461025a57610100565b80638d76f940146101c4578063ad827dc4146101d9578063b920c123146101f9578063ba3393991461021957610100565b8063578064f6116100d3578063578064f61461016b57806362f24b701461018b57806375cb26721461019e578063776a0835146101b157610100565b806302e8fe131461010557806328220f351461012e578063360636eb1461014357806344f33d4114610156575b600080fd5b610118610113366004611a68565b61027a565b6040516101259190611af6565b60405180910390f35b61014161013c3660046118ad565b610310565b005b610118610151366004611868565b6103a8565b61015e6103ee565b6040516101259190611b01565b61017e6101793660046118ad565b61047b565b60405161012591906121d2565b61014161019936600461190c565b6104b6565b6101416101ac366004611810565b610582565b6101416101bf3660046118dd565b61061d565b6101cc610743565b6040516101259190611aa5565b6101ec6101e73660046118dd565b610752565b6040516101259190612253565b61020c610207366004611883565b6107c8565b60405161012591906122e0565b610141610227366004611990565b6107ec565b61014161023a3660046119c6565b610997565b61015e610de9565b610141610255366004611964565b610e7e565b61026d6102683660046118ad565b610f29565b6040516101259190612210565b60006102846116f6565b61028d84610f29565b9050610298816103a8565b6102bd5760405162461bcd60e51b81526004016102b490611b78565b60405180910390fd5b821580159061030657506103036102d88260400151856107c8565b6102f76102e98460000151876107c8565b6102f78560200151886107c8565b9063ffffffff610f7f16565b83145b9150505b92915050565b6000546001600160a01b0316331461033a5760405162461bcd60e51b81526004016102b490611d23565b807fbf58f6d6c7d7c6efc69e7444efa93ed26d7cdc0e82e12a37df96f36a367561df6005600084815260200190815260200160002060405161037c91906121f2565b60405180910390a2600090815260056020526040812090815560010180546001600160a01b0319169055565b60006103c36064670de0b6b3a764000063ffffffff610fa416565b8251516040840151516020850151516103e792916102f7919063ffffffff610f7f16565b1492915050565b60018054604080516020600284861615610100026000190190941693909304601f810184900484028201840190925281815292918301828280156104735780601f1061044857610100808354040283529160200191610473565b820191906000526020600020905b81548152906001019060200180831161045657829003601f168201915b505050505081565b610483611728565b50600090815260056020908152604091829020825180840190935280548352600101546001600160a01b03169082015290565b6000546001600160a01b031633146104e05760405162461bcd60e51b81526004016102b490611d23565b6104ee82826000015161027a565b61050a5760405162461bcd60e51b81526004016102b4906120f3565b6000828152600560209081526040918290208351815590830151600190910180546001600160a01b0319166001600160a01b039092169190911790555182907ff7347cb9e91d8cbe995b51920ba5f92cbf84a9e09cbed3cd7a739fef4d1d07cf906105769084906121d2565b60405180910390a25050565b6002546001600160a01b031633146105ac5760405162461bcd60e51b81526004016102b490611dc6565b6000546001600160a01b0316156105d55760405162461bcd60e51b81526004016102b490612140565b6001600160a01b0381166105fb5760405162461bcd60e51b81526004016102b490611bd5565b600080546001600160a01b0319166001600160a01b0392909216919091179055565b6000546001600160a01b031633146106475760405162461bcd60e51b81526004016102b490611d23565b60008281526003602090815260408083206001600160a01b0380861685529252909120805460018201549192909116816106935760405162461bcd60e51b81526004016102b490611cc6565b6000819050857fcbebd567b8a5c57f63ec61dc46746aab28daff6bdd1f4a6a0a305c17fa5465c9856040516106c8919061229f565b60405180910390a260008681526003602081815260408084206001600160a01b03808b168652925283208381556001810180546001600160a01b031990811690915560028201805482169055928101805490931690925560049091019190915561073b908216868563ffffffff610fde16565b505050505050565b6000546001600160a01b031681565b61075a61173f565b5060009182526003602081815260408085206001600160a01b039485168652825293849020845160a081018652815481526001820154851681840152600282015485168187015292810154909316606083015283519081019093526004909101548252608081019190915290565b60006107e560646107d98486611061565b9063ffffffff61107a16565b9392505050565b6000546001600160a01b031633146108165760405162461bcd60e51b81526004016102b490611d23565b61081e61173f565b600083815260036020526040808220919061083f9060608601908601611810565b6001600160a01b0390811682526020808301939093526040918201600020825160a08101845281548152600182015483168186015260028201548316818501526003820154909216606083015282519384019092526004909101548252608081019190915280519091506108c55760405162461bcd60e51b81526004016102b490611b34565b805182351480156108fa57506108e16040830160208401611810565b6001600160a01b031681602001516001600160a01b0316145b801561090e57506080818101515190830135145b801561093e57506109256080830160608401611810565b6001600160a01b031681606001516001600160a01b0316145b61095a5760405162461bcd60e51b81526004016102b490612175565b61096883826000015161027a565b6109845760405162461bcd60e51b81526004016102b490611e5a565b6109928382604001516110ac565b505050565b6000546001600160a01b031633146109c15760405162461bcd60e51b81526004016102b490611d23565b6109c96116f6565b506000838152600460209081526040918290208251608081018452815460608201908152815283518084018552600183015481528184015283519283018452600290910154825291820152610a2d6064670de0b6b3a764000063ffffffff610fa416565b608084015151602083015151610a489163ffffffff610f7f16565b1115610a665760405162461bcd60e51b81526004016102b490612039565b60408301516001600160a01b0316610a905760405162461bcd60e51b81526004016102b490611ea7565b8251610aae5760405162461bcd60e51b81526004016102b490611f61565b60208301516001600160a01b0316610ad85760405162461bcd60e51b81526004016102b490611fa5565b60608301516001600160a01b0316610b025760405162461bcd60e51b81526004016102b490611c69565b6000848152600360209081526040808320868201516001600160a01b031684529091529020805415610b3c57610b3c85856040015161061d565b60208401516040516370a0823160e01b81526000906001600160a01b038316906370a0823190610b70903090600401611aa5565b60206040518083038186803b158015610b8857600080fd5b505afa158015610b9c573d6000803e3d6000fd5b505050506040513d601f19601f82011682018060405250810190610bc091906118c5565b8651909150610be3906001600160a01b038416908790309063ffffffff61151116565b6040516370a0823160e01b81526000906001600160a01b038416906370a0823190610c12903090600401611aa5565b60206040518083038186803b158015610c2a57600080fd5b505afa158015610c3e573d6000803e3d6000fd5b505050506040513d601f19601f82011682018060405250810190610c6291906118c5565b90506040518060a00160405280610c82848461153890919063ffffffff16565b81526020898101516001600160a01b03908116828401526040808c0180518316828601526060808e01518416818701526080808f01519681019690965260008f8152600380875284822093518616825292865283902087518155948701516001860180549186166001600160a01b031992831617905587840151600287018054918716918316919091179055908701519185018054929094169116179091559290910151516004909101555188907f327bc9021bfbee403a11b13dd6c819999006aff090cc129f07e9f2840af38dd590610d5d908a90612253565b60405180910390a26000888152600560205260409020600101546001600160a01b031615801590610db15750600088815260056020908152604090912060010154908801516001600160a01b039081169116145b8015610dcc5750600088815260056020526040902054875110155b15610ddf57610ddf8888604001516110ac565b5050505050505050565b60018054604080516020601f60026000196101008789161502019095169490940493840181900481028201810190925282815260609390929091830182828015610e745780601f10610e4957610100808354040283529160200191610e74565b820191906000526020600020905b815481529060010190602001808311610e5757829003601f168201915b5050505050905090565b6000546001600160a01b03163314610ea85760405162461bcd60e51b81526004016102b490611d23565b610eb1816103a8565b610ecd5760405162461bcd60e51b81526004016102b490611f04565b60008281526004602090815260409182902083515181559083015151600182015581830151516002909101555182907fdb88d4e96cb8697aaee5e575ee5f460817709a1dfcfbf7ba15192e90b5c86f9f90610576908490612210565b610f316116f6565b50600090815260046020908152604091829020825160808101845281546060820190815281528351808401855260018301548152818401528351928301845260029091015482529182015290565b6000828201838110156107e55760405162461bcd60e51b81526004016102b490611c32565b600082610fb35750600061030a565b82820282848281610fc057fe5b04146107e55760405162461bcd60e51b81526004016102b490611dfd565b6109928363a9059cbb60e01b8484604051602401610ffd929190611add565b60408051601f198184030181529190526020810180517bffffffffffffffffffffffffffffffffffffffffffffffffffffffff167fffffffff0000000000000000000000000000000000000000000000000000000090931692909217909152611560565b80516000906107e5908490670de0b6b3a76400006115ef565b600080821161109b5760405162461bcd60e51b81526004016102b490611d8f565b8183816110a457fe5b049392505050565b6110b461173f565b5060008281526003602081815260408084206001600160a01b038087168652908352818520825160a0810184528154815260018201548316818601908152600283015484168286015295820154831660608201528351808601855260049283015481526080820152888752938190528286209451955492517f6352211e0000000000000000000000000000000000000000000000000000000081529395936111f19390921691636352211e9161116c918a91016122e0565b60206040518083038186803b15801561118457600080fd5b505afa158015611198573d6000803e3d6000fd5b505050506040513d601f19601f820116820180604052508101906111bc919061182c565b60408051602081019091526002850154815285516111da91906107c8565b6001600160a01b038416919063ffffffff610fde16565b6000546040517fe0fd045f0000000000000000000000000000000000000000000000000000000081526112aa916001600160a01b03169063e0fd045f9061123c9089906004016122e0565b60206040518083038186803b15801561125457600080fd5b505afa158015611268573d6000803e3d6000fd5b505050506040513d601f19601f8201168201806040525081019061128c919061182c565b60408051602081019091526001850154815285516111da91906107c8565b6000546040517f9d8e7260000000000000000000000000000000000000000000000000000000008152611360916001600160a01b031690639d8e7260906112f59089906004016122e0565b60206040518083038186803b15801561130d57600080fd5b505afa158015611321573d6000803e3d6000fd5b505050506040513d601f19601f82011682018060405250810190611345919061182c565b60408051602081019091528454815285516111da91906107c8565b60005460608401516040517f32f44aa90000000000000000000000000000000000000000000000000000000081526001600160a01b03909216916332f44aa9916113af918991906004016122e9565b600060405180830381600087803b1580156113c957600080fd5b505af11580156113dd573d6000803e3d6000fd5b5050604080516020808201835260808801515160008b8152600490925292902060010154909350839250611433919061142790816064670de0b6b3a764000063ffffffff610fa416565b9063ffffffff61153816565b905251600280840191909155608084015151835560008681526003602081815260408084206001600160a01b038a1685529091528083208381556001810180546001600160a01b03199081169091559481018054861690559182018054909416909355600401555185907fdb88d4e96cb8697aaee5e575ee5f460817709a1dfcfbf7ba15192e90b5c86f9f906114ca908590612234565b60405180910390a2847fb6ef177c7a6f32b283a49b5e0463a39240cdaa278028dfb219480d050e8ee54c846040516115029190612253565b60405180910390a25050505050565b611532846323b872dd60e01b858585604051602401610ffd93929190611ab9565b50505050565b60008282111561155a5760405162461bcd60e51b81526004016102b490611d58565b50900390565b60606115b5826040518060400160405280602081526020017f5361666545524332303a206c6f772d6c6576656c2063616c6c206661696c6564815250856001600160a01b031661160d9092919063ffffffff16565b80519091501561099257808060200190518101906115d39190611848565b6109925760405162461bcd60e51b81526004016102b490612096565b6000611605826107d9868663ffffffff610fa416565b949350505050565b6060611605848460008585611621856116b7565b61163d5760405162461bcd60e51b81526004016102b490612002565b60006060866001600160a01b0316858760405161165a9190611a89565b60006040518083038185875af1925050503d8060008114611697576040519150601f19603f3d011682016040523d82523d6000602084013e61169c565b606091505b50915091506116ac8282866116bd565b979650505050505050565b3b151590565b606083156116cc5750816107e5565b8251156116dc5782518084602001fd5b8160405162461bcd60e51b81526004016102b49190611b01565b6040518060600160405280611709611785565b8152602001611716611785565b8152602001611723611785565b905290565b604080518082019091526000808252602082015290565b6040518060a001604052806000815260200160006001600160a01b0316815260200160006001600160a01b0316815260200160006001600160a01b031681526020016117235b6040518060200160405280600081525090565b6000606082840312156117a9578081fd5b6117b36060612300565b90506117bf83836117eb565b81526117ce83602084016117eb565b60208201526117e083604084016117eb565b604082015292915050565b6000602082840312156117fc578081fd5b6118066020612300565b9135825250919050565b600060208284031215611821578081fd5b81356107e581612353565b60006020828403121561183d578081fd5b81516107e581612353565b600060208284031215611859578081fd5b815180151581146107e5578182fd5b600060608284031215611879578081fd5b6107e58383611798565b60008060408385031215611895578081fd5b61189f84846117eb565b946020939093013593505050565b6000602082840312156118be578081fd5b5035919050565b6000602082840312156118d6578081fd5b5051919050565b600080604083850312156118ef578182fd5b82359150602083013561190181612353565b809150509250929050565b600080828403606081121561191f578283fd5b833592506040601f1982011215611934578182fd5b5061193f6040612300565b60208401358152604084013561195481612353565b6020820152919491935090915050565b60008060808385031215611976578182fd5b823591506119878460208501611798565b90509250929050565b60008082840360c08112156119a3578283fd5b8335925060a0601f19820112156119b8578182fd5b506020830190509250929050565b600080600083850360e08112156119db578182fd5b8435935060a0601f19820112156119f0578182fd5b506119fb60a0612300565b602085013581526040850135611a1081612353565b60208201526060850135611a2381612353565b60408201526080850135611a3681612353565b6060820152611a488660a087016117eb565b6080820152915060c0840135611a5d81612353565b809150509250925092565b60008060408385031215611a7a578182fd5b50508035926020909101359150565b60008251611a9b818460208701612327565b9190910192915050565b6001600160a01b0391909116815260200190565b6001600160a01b039384168152919092166020820152604081019190915260600190565b6001600160a01b03929092168252602082015260400190565b901515815260200190565b6000602082528251806020840152611b20816040850160208701612327565b601f01601f19169190910160400192915050565b60208082526024908201527f4974656d45786368616e67653a2063616e6e6f7420616363657074206269642060408201526306f6620360e41b606082015260800190565b6020808252602a908201527f4974656d45786368616e67653a20496e76616c6964206269642073686172657360408201527f20666f7220746f6b656e00000000000000000000000000000000000000000000606082015260800190565b60208082526036908201527f4974656d45786368616e67653a2063616e6e6f7420736574206974656d20636f60408201527f6e7472616374206173207a65726f206164647265737300000000000000000000606082015260800190565b6020808252601b908201527f536166654d6174683a206164646974696f6e206f766572666c6f770000000000604082015260600190565b6020808252602f908201527f4974656d45786368616e67653a2062696420726563697069656e742063616e6e60408201527f6f74206265203020616464726573730000000000000000000000000000000000606082015260800190565b6020808252602b908201527f4974656d45786368616e67653a2063616e6e6f742072656d6f7665206269642060408201527f616d6f756e74206f662030000000000000000000000000000000000000000000606082015260800190565b6020808252818101527f4974656d45786368616e67653a204f6e6c79206974656d20636f6e7472616374604082015260600190565b6020808252601e908201527f536166654d6174683a207375627472616374696f6e206f766572666c6f770000604082015260600190565b6020808252601a908201527f536166654d6174683a206469766973696f6e206279207a65726f000000000000604082015260600190565b60208082526018908201527f4974656d45786368616e67653a204f6e6c79206f776e65720000000000000000604082015260600190565b60208082526021908201527f536166654d6174683a206d756c7469706c69636174696f6e206f766572666c6f60408201527f7700000000000000000000000000000000000000000000000000000000000000606082015260800190565b6020808252602d908201527f4974656d45786368616e67653a2042696420696e76616c696420666f7220736860408201526c6172652073706c697474696e6760981b606082015260800190565b60208082526028908201527f4974656d45786368616e67653a206269646465722063616e6e6f74206265203060408201527f2061646472657373000000000000000000000000000000000000000000000000606082015260800190565b60208082526031908201527f4974656d45786368616e67653a20496e76616c6964206269642073686172657360408201527f2c206d7573742073756d20746f20313030000000000000000000000000000000606082015260800190565b60208082526024908201527f4974656d45786368616e67653a2063616e6e6f742062696420616d6f756e742060408201526306f6620360e41b606082015260800190565b6020808252602e908201527f4974656d45786368616e67653a206269642063757272656e63792063616e6e6f60408201527f7420626520302061646472657373000000000000000000000000000000000000606082015260800190565b6020808252601d908201527f416464726573733a2063616c6c20746f206e6f6e2d636f6e7472616374000000604082015260600190565b60208082526035908201527f4974656d45786368616e67653a2053656c6c206f6e2066656520696e76616c6960408201527f6420666f722073686172652073706c697474696e670000000000000000000000606082015260800190565b6020808252602a908201527f5361666545524332303a204552433230206f7065726174696f6e20646964206e60408201527f6f74207375636365656400000000000000000000000000000000000000000000606082015260800190565b6020808252602d908201527f4974656d45786368616e67653a2041736b20696e76616c696420666f7220736860408201526c6172652073706c697474696e6760981b606082015260800190565b6020808252818101527f4974656d45786368616e67653a20416c726561647920636f6e66696775726564604082015260600190565b60208082526023908201527f4974656d45786368616e67653a20556e65787065637465642062696420666f7560408201527f6e642e0000000000000000000000000000000000000000000000000000000000606082015260800190565b815181526020918201516001600160a01b03169181019190915260400190565b815481526001909101546001600160a01b0316602082015260400190565b81515181526020808301515190820152604091820151519181019190915260600190565b8154815260018201546020820152600290910154604082015260600190565b600060a0820190508251825260208301516001600160a01b0380821660208501528060408601511660408501528060608601511660608501525050608083015151608083015292915050565b8154815260018201546001600160a01b0390811660208301526002830154811660408301526003830154166060820152600490910154608082015260a00190565b90815260200190565b9182526001600160a01b0316602082015260400190565b60405181810167ffffffffffffffff8111828210171561231f57600080fd5b604052919050565b60005b8381101561234257818101518382015260200161232a565b838111156115325750506000910152565b6001600160a01b038116811461236857600080fd5b5056fea2646970667358221220c73fda53f7eff6981c0c3d16cd66242b5bca6842bb5b9ae767102a08c794a07464736f6c63430006080033",
  "linkReferences": {},
  "deployedLinkReferences": {}
}