{
  "_format": "hh-sol-artifact-1",
  "contractName": "ItemListing",
  "sourceName": "contracts/ItemListing.sol",
  "abi": [
    {
      "inputs": [
        {
          "internalType": "address",
          "name": "_motif",
          "type": "address"
        },
        {
          "internalType": "address",
          "name": "_wmotif",
          "type": "address"
        }
      ],
      "stateMutability": "nonpayable",
      "type": "constructor"
    },
    {
      "anonymous": false,
      "inputs": [
        {
          "indexed": true,
          "internalType": "uint256",
          "name": "listingId",
          "type": "uint256"
        },
        {
          "indexed": true,
          "internalType": "uint256",
          "name": "tokenId",
          "type": "uint256"
        },
        {
          "indexed": true,
          "internalType": "address",
          "name": "tokenContract",
          "type": "address"
        },
        {
          "indexed": false,
          "internalType": "bool",
          "name": "approved",
          "type": "bool"
        }
      ],
      "name": "ListingApprovalUpdated",
      "type": "event"
    },
    {
      "anonymous": false,
      "inputs": [
        {
          "indexed": true,
          "internalType": "uint256",
          "name": "listingId",
          "type": "uint256"
        },
        {
          "indexed": true,
          "internalType": "uint256",
          "name": "tokenId",
          "type": "uint256"
        },
        {
          "indexed": true,
          "internalType": "address",
          "name": "tokenContract",
          "type": "address"
        },
        {
          "indexed": false,
          "internalType": "address",
          "name": "sender",
          "type": "address"
        },
        {
          "indexed": false,
          "internalType": "uint256",
          "name": "value",
          "type": "uint256"
        },
        {
          "indexed": false,
          "internalType": "bool",
          "name": "firstBid",
          "type": "bool"
        },
        {
          "indexed": false,
          "internalType": "bool",
          "name": "extended",
          "type": "bool"
        }
      ],
      "name": "ListingBid",
      "type": "event"
    },
    {
      "anonymous": false,
      "inputs": [
        {
          "indexed": true,
          "internalType": "uint256",
          "name": "listingId",
          "type": "uint256"
        },
        {
          "indexed": true,
          "internalType": "uint256",
          "name": "tokenId",
          "type": "uint256"
        },
        {
          "indexed": true,
          "internalType": "address",
          "name": "tokenContract",
          "type": "address"
        },
        {
          "indexed": false,
          "internalType": "address",
          "name": "tokenOwner",
          "type": "address"
        }
      ],
      "name": "ListingCanceled",
      "type": "event"
    },
    {
      "anonymous": false,
      "inputs": [
        {
          "indexed": true,
          "internalType": "uint256",
          "name": "listingId",
          "type": "uint256"
        },
        {
          "indexed": true,
          "internalType": "uint256",
          "name": "tokenId",
          "type": "uint256"
        },
        {
          "indexed": true,
          "internalType": "address",
          "name": "tokenContract",
          "type": "address"
        },
        {
          "indexed": false,
          "internalType": "uint256",
          "name": "startsAt",
          "type": "uint256"
        },
        {
          "indexed": false,
          "internalType": "uint256",
          "name": "duration",
          "type": "uint256"
        },
        {
          "indexed": false,
          "internalType": "uint256",
          "name": "listPrice",
          "type": "uint256"
        },
        {
          "indexed": false,
          "internalType": "uint8",
          "name": "listType",
          "type": "uint8"
        },
        {
          "indexed": false,
          "internalType": "address",
          "name": "tokenOwner",
          "type": "address"
        },
        {
          "indexed": false,
          "internalType": "address",
          "name": "intermediary",
          "type": "address"
        },
        {
          "indexed": false,
          "internalType": "uint8",
          "name": "intermediaryFeePercentage",
          "type": "uint8"
        },
        {
          "indexed": false,
          "internalType": "address",
          "name": "listCurrency",
          "type": "address"
        }
      ],
      "name": "ListingCreated",
      "type": "event"
    },
    {
      "anonymous": false,
      "inputs": [
        {
          "indexed": true,
          "internalType": "uint256",
          "name": "listingId",
          "type": "uint256"
        },
        {
          "indexed": true,
          "internalType": "uint256",
          "name": "tokenId",
          "type": "uint256"
        },
        {
          "indexed": true,
          "internalType": "address",
          "name": "tokenContract",
          "type": "address"
        },
        {
          "indexed": false,
          "internalType": "bool",
          "name": "approved",
          "type": "bool"
        },
        {
          "indexed": false,
          "internalType": "uint256",
          "name": "startsAt",
          "type": "uint256"
        }
      ],
      "name": "ListingDropApprovalUpdated",
      "type": "event"
    },
    {
      "anonymous": false,
      "inputs": [
        {
          "indexed": true,
          "internalType": "uint256",
          "name": "listingId",
          "type": "uint256"
        },
        {
          "indexed": true,
          "internalType": "uint256",
          "name": "tokenId",
          "type": "uint256"
        },
        {
          "indexed": true,
          "internalType": "address",
          "name": "tokenContract",
          "type": "address"
        },
        {
          "indexed": false,
          "internalType": "uint256",
          "name": "duration",
          "type": "uint256"
        }
      ],
      "name": "ListingDurationExtended",
      "type": "event"
    },
    {
      "anonymous": false,
      "inputs": [
        {
          "indexed": true,
          "internalType": "uint256",
          "name": "listingId",
          "type": "uint256"
        },
        {
          "indexed": true,
          "internalType": "uint256",
          "name": "tokenId",
          "type": "uint256"
        },
        {
          "indexed": true,
          "internalType": "address",
          "name": "tokenContract",
          "type": "address"
        },
        {
          "indexed": false,
          "internalType": "address",
          "name": "tokenOwner",
          "type": "address"
        },
        {
          "indexed": false,
          "internalType": "address",
          "name": "intermediary",
          "type": "address"
        },
        {
          "indexed": false,
          "internalType": "address",
          "name": "winner",
          "type": "address"
        },
        {
          "indexed": false,
          "internalType": "uint256",
          "name": "amount",
          "type": "uint256"
        },
        {
          "indexed": false,
          "internalType": "uint256",
          "name": "intermediaryFee",
          "type": "uint256"
        },
        {
          "indexed": false,
          "internalType": "address",
          "name": "listCurrency",
          "type": "address"
        }
      ],
      "name": "ListingEnded",
      "type": "event"
    },
    {
      "anonymous": false,
      "inputs": [
        {
          "indexed": true,
          "internalType": "uint256",
          "name": "listingId",
          "type": "uint256"
        },
        {
          "indexed": true,
          "internalType": "uint256",
          "name": "tokenId",
          "type": "uint256"
        },
        {
          "indexed": true,
          "internalType": "address",
          "name": "tokenContract",
          "type": "address"
        },
        {
          "indexed": false,
          "internalType": "uint256",
          "name": "listPrice",
          "type": "uint256"
        }
      ],
      "name": "ListingListPriceUpdated",
      "type": "event"
    },
    {
      "stateMutability": "payable",
      "type": "fallback"
    },
    {
      "inputs": [
        {
          "internalType": "uint256",
          "name": "listingId",
          "type": "uint256"
        }
      ],
      "name": "cancelListing",
      "outputs": [],
      "stateMutability": "nonpayable",
      "type": "function"
    },
    {
      "inputs": [
        {
          "internalType": "uint256",
          "name": "listingId",
          "type": "uint256"
        },
        {
          "internalType": "uint256",
          "name": "amount",
          "type": "uint256"
        }
      ],
      "name": "createBid",
      "outputs": [],
      "stateMutability": "payable",
      "type": "function"
    },
    {
      "inputs": [
        {
          "internalType": "uint256",
          "name": "tokenId",
          "type": "uint256"
        },
        {
          "internalType": "address",
          "name": "tokenContract",
          "type": "address"
        },
        {
          "internalType": "uint256",
          "name": "startsAt",
          "type": "uint256"
        },
        {
          "internalType": "uint256",
          "name": "duration",
          "type": "uint256"
        },
        {
          "internalType": "uint256",
          "name": "listPrice",
          "type": "uint256"
        },
        {
          "internalType": "uint8",
          "name": "listType",
          "type": "uint8"
        },
        {
          "internalType": "address payable",
          "name": "intermediary",
          "type": "address"
        },
        {
          "internalType": "uint8",
          "name": "intermediaryFeePercentage",
          "type": "uint8"
        },
        {
          "internalType": "address",
          "name": "listCurrency",
          "type": "address"
        }
      ],
      "name": "createListing",
      "outputs": [
        {
          "internalType": "uint256",
          "name": "",
          "type": "uint256"
        }
      ],
      "stateMutability": "nonpayable",
      "type": "function"
    },
    {
      "inputs": [
        {
          "internalType": "uint256",
          "name": "listingId",
          "type": "uint256"
        },
        {
          "internalType": "uint256",
          "name": "amount",
          "type": "uint256"
        }
      ],
      "name": "endFixedPriceListing",
      "outputs": [],
      "stateMutability": "payable",
      "type": "function"
    },
    {
      "inputs": [
        {
          "internalType": "uint256[]",
          "name": "listingIds",
          "type": "uint256[]"
        },
        {
          "internalType": "uint256[]",
          "name": "amounts",
          "type": "uint256[]"
        }
      ],
      "name": "endFixedPriceListings",
      "outputs": [],
      "stateMutability": "payable",
      "type": "function"
    },
    {
      "inputs": [
        {
          "internalType": "uint256",
          "name": "listingId",
          "type": "uint256"
        }
      ],
      "name": "endListing",
      "outputs": [],
      "stateMutability": "nonpayable",
      "type": "function"
    },
    {
      "inputs": [
        {
          "internalType": "uint256",
          "name": "",
          "type": "uint256"
        }
      ],
      "name": "listings",
      "outputs": [
        {
          "internalType": "uint256",
          "name": "tokenId",
          "type": "uint256"
        },
        {
          "internalType": "address",
          "name": "tokenContract",
          "type": "address"
        },
        {
          "internalType": "bool",
          "name": "approved",
          "type": "bool"
        },
        {
          "internalType": "uint256",
          "name": "amount",
          "type": "uint256"
        },
        {
          "internalType": "uint256",
          "name": "startsAt",
          "type": "uint256"
        },
        {
          "internalType": "uint256",
          "name": "duration",
          "type": "uint256"
        },
        {
          "internalType": "uint256",
          "name": "firstBidTime",
          "type": "uint256"
        },
        {
          "internalType": "uint256",
          "name": "listPrice",
          "type": "uint256"
        },
        {
          "internalType": "uint8",
          "name": "listType",
          "type": "uint8"
        },
        {
          "internalType": "uint8",
          "name": "intermediaryFeePercentage",
          "type": "uint8"
        },
        {
          "internalType": "address",
          "name": "tokenOwner",
          "type": "address"
        },
        {
          "internalType": "address payable",
          "name": "bidder",
          "type": "address"
        },
        {
          "internalType": "address payable",
          "name": "intermediary",
          "type": "address"
        },
        {
          "internalType": "address",
          "name": "listCurrency",
          "type": "address"
        }
      ],
      "stateMutability": "view",
      "type": "function"
    },
    {
      "inputs": [],
      "name": "minBidIncrementPercentage",
      "outputs": [
        {
          "internalType": "uint8",
          "name": "",
          "type": "uint8"
        }
      ],
      "stateMutability": "view",
      "type": "function"
    },
    {
      "inputs": [],
      "name": "motif",
      "outputs": [
        {
          "internalType": "address",
          "name": "",
          "type": "address"
        }
      ],
      "stateMutability": "view",
      "type": "function"
    },
    {
      "inputs": [
        {
          "internalType": "uint256",
          "name": "listingId",
          "type": "uint256"
        },
        {
          "internalType": "bool",
          "name": "approved",
          "type": "bool"
        }
      ],
      "name": "setListingApproval",
      "outputs": [],
      "stateMutability": "nonpayable",
      "type": "function"
    },
    {
      "inputs": [
        {
          "internalType": "uint256",
          "name": "listingId",
          "type": "uint256"
        },
        {
          "internalType": "bool",
          "name": "approved",
          "type": "bool"
        },
        {
          "internalType": "uint256",
          "name": "startsAt",
          "type": "uint256"
        }
      ],
      "name": "setListingDropApproval",
      "outputs": [],
      "stateMutability": "nonpayable",
      "type": "function"
    },
    {
      "inputs": [
        {
          "internalType": "uint256",
          "name": "listingId",
          "type": "uint256"
        },
        {
          "internalType": "uint256",
          "name": "listPrice",
          "type": "uint256"
        }
      ],
      "name": "setListingListPrice",
      "outputs": [],
      "stateMutability": "nonpayable",
      "type": "function"
    },
    {
      "inputs": [],
      "name": "timeBuffer",
      "outputs": [
        {
          "internalType": "uint256",
          "name": "",
          "type": "uint256"
        }
      ],
      "stateMutability": "view",
      "type": "function"
    },
    {
      "inputs": [],
      "name": "wmotifAddress",
      "outputs": [
        {
          "internalType": "address",
          "name": "",
          "type": "address"
        }
      ],
      "stateMutability": "view",
      "type": "function"
    },
    {
      "stateMutability": "payable",
      "type": "receive"
    }
  ],
  "bytecode": "0x60806040523480156200001157600080fd5b5060405162003d9038038062003d9083398101604081905262000034916200013a565b60016000556040516301ffc9a760e01b81526001600160a01b038316906301ffc9a7906200006e906380ac58cd60e01b90600401620001a1565b60206040518083038186803b1580156200008757600080fd5b505afa1580156200009c573d6000803e3d6000fd5b505050506040513d601f19601f82011682018060405250810190620000c2919062000178565b620000ea5760405162461bcd60e51b8152600401620000e190620001b6565b60405180910390fd5b60028054600380546001600160a01b039485166001600160a01b03199091161790556104b060015560ff199290931661010002610100600160a81b03199093169290921716600517905562000206565b600080604083850312156200014d578182fd5b82516200015a81620001ed565b60208401519092506200016d81620001ed565b809150509250929050565b6000602082840312156200018a578081fd5b815180151581146200019a578182fd5b9392505050565b6001600160e01b031991909116815260200190565b6020808252601d908201527f446f65736e277420737570706f7274204e465420696e74657266616365000000604082015260600190565b6001600160a01b03811681146200020357600080fd5b50565b613b7a80620002166000396000f3fe6080604052600436106100e15760003560e01c8063b7751c711161007f578063e273aece11610059578063e273aece14610244578063e57e103614610259578063ec91f2a41461026c578063fac2e3d814610281576100e8565b8063b7751c71146101d7578063c89e0985146101ea578063de74e57b1461020a576100e8565b806350a14d73116100bb57806350a14d731461015557806383872bc11461017557806394d2ca1d146101a2578063b296024d146101b5576100e8565b806312604245146100ea5780631582f8011461010a578063305a67a814610135576100e8565b366100e857005b005b3480156100f657600080fd5b506100e8610105366004612db0565b6102a1565b34801561011657600080fd5b5061011f610347565b60405161012c9190612e67565b60405180910390f35b34801561014157600080fd5b506100e8610150366004612ceb565b610356565b34801561016157600080fd5b506100e8610170366004612ddf565b610448565b34801561018157600080fd5b50610195610190366004612d1b565b61051b565b60405161012c919061398a565b6100e86101b0366004612c66565b610b05565b3480156101c157600080fd5b506101ca610bd7565b60405161012c9190613ae4565b6100e86101e5366004612e16565b610be0565b3480156101f657600080fd5b506100e8610205366004612e16565b61117c565b34801561021657600080fd5b5061022a610225366004612ceb565b61129d565b60405161012c9e9d9c9b9a99989796959493929190613993565b34801561025057600080fd5b5061011f611323565b6100e8610267366004612e16565b611337565b34801561027857600080fd5b50610195611369565b34801561028d57600080fd5b506100e861029c366004612ceb565b61136f565b816102ab81611778565b6102d05760405162461bcd60e51b81526004016102c7906131bf565b60405180910390fd5b6000838152600460205260409020600901546001600160a01b031633146103095760405162461bcd60e51b81526004016102c790612f95565b600083815260046020526040902060050154156103385760405162461bcd60e51b81526004016102c79061322d565b610342838361179e565b505050565b6003546001600160a01b031681565b600260005414156103795760405162461bcd60e51b81526004016102c7906137f4565b60026000558061038881611778565b6103a45760405162461bcd60e51b81526004016102c7906131bf565b6000828152600460205260409020600701546201000090046001600160a01b03163314806103eb57506000828152600460205260409020600901546001600160a01b031633145b6104075760405162461bcd60e51b81526004016102c7906135db565b600082815260046020526040902060050154156104365760405162461bcd60e51b81526004016102c7906130a8565b61043f82611815565b50506001600055565b8261045281611778565b61046e5760405162461bcd60e51b81526004016102c7906131bf565b60008481526004602052604090206007015460ff166002146104a25760405162461bcd60e51b81526004016102c790613862565b6000848152600460205260409020600901546001600160a01b031633146104db5760405162461bcd60e51b81526004016102c790613899565b6000848152600460205260409020600501541561050a5760405162461bcd60e51b81526004016102c790613538565b6105158484846119b6565b50505050565b6000600260005414156105405760405162461bcd60e51b81526004016102c7906137f4565b60026000556040517f01ffc9a70000000000000000000000000000000000000000000000000000000081526001600160a01b038a16906301ffc9a7906105aa907f80ac58cd0000000000000000000000000000000000000000000000000000000090600401612f35565b60206040518083038186803b1580156105c257600080fd5b505afa1580156105d6573d6000803e3d6000fd5b505050506040513d601f19601f820116820180604052508101906105fa9190612ccf565b6106165760405162461bcd60e51b81526004016102c7906138d0565b60648360ff16106106395760405162461bcd60e51b81526004016102c7906136cc565b6040517f6352211e0000000000000000000000000000000000000000000000000000000081526000906001600160a01b038b1690636352211e90610681908e9060040161398a565b60206040518083038186803b15801561069957600080fd5b505afa1580156106ad573d6000803e3d6000fd5b505050506040513d601f19601f820116820180604052508101906106d19190612c4a565b6040517f081812fc0000000000000000000000000000000000000000000000000000000081529091506001600160a01b038b169063081812fc90610719908e9060040161398a565b60206040518083038186803b15801561073157600080fd5b505afa158015610745573d6000803e3d6000fd5b505050506040513d601f19601f820116820180604052508101906107699190612c4a565b6001600160a01b0316336001600160a01b031614806107905750336001600160a01b038216145b6107ac5760405162461bcd60e51b81526004016102c790613729565b60006107b86005611a2a565b9050604051806101c001604052808d81526020018c6001600160a01b03168152602001600015158152602001600081526020018b81526020018a8152602001600081526020018981526020018860ff1681526020018660ff168152602001836001600160a01b0316815260200160006001600160a01b03168152602001876001600160a01b03168152602001856001600160a01b0316815250600460008381526020019081526020016000206000820151816000015560208201518160010160006101000a8154816001600160a01b0302191690836001600160a01b0316021790555060408201518160010160146101000a81548160ff021916908315150217905550606082015181600201556080820151816003015560a0820151816004015560c0820151816005015560e082015181600601556101008201518160070160006101000a81548160ff021916908360ff1602179055506101208201518160070160016101000a81548160ff021916908360ff1602179055506101408201518160070160026101000a8154816001600160a01b0302191690836001600160a01b031602179055506101608201518160080160006101000a8154816001600160a01b0302191690836001600160a01b031602179055506101808201518160090160006101000a8154816001600160a01b0302191690836001600160a01b031602179055506101a082015181600a0160006101000a8154816001600160a01b0302191690836001600160a01b031602179055509050508a6001600160a01b03166323b872dd83308f6040518463ffffffff1660e01b8152600401610a1c93929190612e7b565b600060405180830381600087803b158015610a3657600080fd5b505af1158015610a4a573d6000803e3d6000fd5b50505050610a586005611a2e565b8a6001600160a01b03168c827f804f18cb6eb2eeef9ae4bfec904ef4d2b03d3364418461d62d4919c3a746407a8d8d8d8d898e8e8e604051610aa1989796959493929190613a9c565b60405180910390a46000818152600460205260409020600901546001600160a01b03161580610ae15750816001600160a01b0316866001600160a01b0316145b15610af157610af181600161179e565b60016000559b9a5050505050505050505050565b60026000541415610b285760405162461bcd60e51b81526004016102c7906137f4565b600260005582610b4a5760405162461bcd60e51b81526004016102c79061338c565b6032831115610b6b5760405162461bcd60e51b81526004016102c790613264565b828114610b8a5760405162461bcd60e51b81526004016102c7906133c3565b60005b83811015610bcb57610bc3858583818110610ba457fe5b90506020020135848484818110610bb757fe5b90506020020135611a37565b600101610b8d565b50506001600055505050565b60025460ff1681565b81610bea81611778565b610c065760405162461bcd60e51b81526004016102c7906131bf565b60026000541415610c295760405162461bcd60e51b81526004016102c7906137f4565b6002600090815583815260046020526040902060088101546001909101546001600160a01b0390911690600160a01b900460ff16610c795760405162461bcd60e51b81526004016102c790613420565b60008481526004602052604090206007015460ff1660011480610cb0575060008481526004602052604090206007015460ff166002145b610ccc5760405162461bcd60e51b81526004016102c79061356f565b600084815260046020526040902060030154421015610cfd5760405162461bcd60e51b81526004016102c79061303a565b6000848152600460205260409020600501541580610d435750600084815260046020819052604090912090810154600590910154610d409163ffffffff61202716565b42105b610d5f5760405162461bcd60e51b81526004016102c790613786565b600084815260046020526040902060060154831015610d905760405162461bcd60e51b81526004016102c790613003565b60028054600086815260046020526040902090910154610dee91610dd091606491610dc4919060ff1663ffffffff61205516565b9063ffffffff61208f16565b6000868152600460205260409020600201549063ffffffff61202716565b831015610e0d5760405162461bcd60e51b81526004016102c79061347d565b600260019054906101000a90046001600160a01b03166001600160a01b031663f1d5596b6040518163ffffffff1660e01b8152600401602060405180830381600087803b158015610e5d57600080fd5b505af1158015610e71573d6000803e3d6000fd5b505050506040513d601f19601f82011682018060405250810190610e959190612c4a565b6000858152600460208190526040918290205491516302e8fe1360e01b81526001600160a01b0393909316926302e8fe1392610ed5929091889101613a8e565b60206040518083038186803b158015610eed57600080fd5b505afa158015610f01573d6000803e3d6000fd5b505050506040513d601f19601f82011682018060405250810190610f259190612ccf565b610f415760405162461bcd60e51b81526004016102c790613071565b600084815260046020526040902060050154610f7157600084815260046020526040902042600590910155610fad565b6001600160a01b03811615610fad5760008481526004602052604090206002810154600a90910154610fad9183916001600160a01b03166120c1565b6000848152600460205260409020600a0154610fd39084906001600160a01b03166121ff565b60008481526004602081905260408220600281018690556008810180546001600160a01b031916331790556001549181015460059091015461102c9142916110209163ffffffff61202716565b9063ffffffff6123e416565b10156110a0576000858152600460208190526040909120908101546005909101546110879061107a9061106b904290611020908663ffffffff61202716565b6001549063ffffffff6123e416565b829063ffffffff61202716565b6000878152600460208190526040909120015550600190505b600085815260046020526040908190206001810154905491516001600160a01b03918216929188917fdf3c258fd5ebb54ac1a83c73feafacc466858d3badc3dda9c4034b0da1da54d9916110fe9133918b91908a1615908990612e9f565b60405180910390a48015610bcb5760008581526004602081905260409182902060018101548154919092015492516001600160a01b0390921692909188917f7c5d8b1980b451e2d8e5887c47bfdb1153d8b8de54ca953d110c9ec926dba3e391611168919061398a565b60405180910390a450506001600055505050565b8161118681611778565b6111a25760405162461bcd60e51b81526004016102c7906131bf565b6000838152600460205260409020600901546001600160a01b03163314806111e957506000838152600460205260409020600701546201000090046001600160a01b031633145b6112055760405162461bcd60e51b81526004016102c790613105565b600083815260046020526040902060050154156112345760405162461bcd60e51b81526004016102c79061322d565b60008381526004602052604090819020600681018490556001810154905491516001600160a01b03909116919085907f0409843698c80a52d5e9991fdf99f888ac3f2282b93ddd87bbb63df422907e949061129090879061398a565b60405180910390a4505050565b600460208190526000918252604090912080546001820154600283015460038401549484015460058501546006860154600787015460088801546009890154600a9099015497996001600160a01b038089169a60ff600160a01b909a048a169a98999298858416956101008104909416946201000090940483169383169291821691168e565b60025461010090046001600160a01b031681565b6002600054141561135a5760405162461bcd60e51b81526004016102c7906137f4565b600260005561043f8282611a37565b60015481565b8061137981611778565b6113955760405162461bcd60e51b81526004016102c7906131bf565b600260005414156113b85760405162461bcd60e51b81526004016102c7906137f4565b600260009081558281526004602052604090206007015460ff16600114806113f4575060008281526004602052604090206007015460ff166002145b6114105760405162461bcd60e51b81526004016102c79061356f565b60008281526004602052604090206005015461143e5760405162461bcd60e51b81526004016102c79061382b565b60008281526004602052604090206003015442101561146f5760405162461bcd60e51b81526004016102c79061303a565b6000828152600460208190526040909120908101546005909101546114999163ffffffff61202716565b4210156114b85760405162461bcd60e51b81526004016102c7906137bd565b6000828152600460205260408120600a01546001600160a01b0316156114f8576000838152600460205260409020600a01546001600160a01b0316611505565b6003546001600160a01b03165b6000848152600460205260408120600201549192509081806115268761240c565b9350915082905060018215151461158057600087815260046020526040902060088101546002820154600a9092015461156d926001600160a01b03928316929091166120c1565b61157687611815565b505050505061043f565b6000878152600460205260409020600901546001600160a01b031615611612576000878152600460205260409020600701546115cc90606490610dc4908690610100900460ff16612055565b93506115de838563ffffffff6123e416565b60008881526004602052604090206009810154600a90910154919450611612916001600160a01b03918216918791166120c1565b60008781526004602052604090206007810154600a90910154611649916001600160a01b03620100009091048116918691166120c1565b60008781526004602052604090819020600181015481546007830154600984015460089094015494516001600160a01b039384169592948d947f334843dd102fb480fd982e331134a746cae45483f35aa91db449e96cb90cc5f1946116c394620100009004821693928216929116908b908d908f90612ec9565b60405180910390a45050506000938452505060046020819052604083208381556001808201805474ffffffffffffffffffffffffffffffffffffffffff191690556002820185905560038201859055918101849055600581018490556006810184905560078101805475ffffffffffffffffffffffffffffffffffffffffffff191690556008810180546001600160a01b031990811690915560098201805482169055600a9091018054909116905590915550565b6000908152600460205260409020600701546201000090046001600160a01b0316151590565b6000828152600460205260409081902060018101805460ff60a01b1916600160a01b851515021790819055905491516001600160a01b03909116919084907f301b3a878e4bfbb57bd5babb78545aff93752440eb359d65b3ad34de32d842fc90611809908690612f1a565b60405180910390a45050565b60008181526004602081905260409182902060078101546001820154915493517f42842e0e000000000000000000000000000000000000000000000000000000008152620100009091046001600160a01b03908116949216926342842e0e9261188392309287929101612e7b565b600060405180830381600087803b15801561189d57600080fd5b505af11580156118b1573d6000803e3d6000fd5b505050600083815260046020526040908190206001810154905491516001600160a01b03909116925084907fd5074712d772916d5592447e134f0f148b438068d1cd2559a4b2ab8990c0fba090611909908690612e67565b60405180910390a4506000908152600460208190526040822082815560018101805474ffffffffffffffffffffffffffffffffffffffffff19169055600281018390556003810183905590810182905560058101829055600681019190915560078101805475ffffffffffffffffffffffffffffffffffffffffffff191690556008810180546001600160a01b031990811690915560098201805482169055600a90910180549091169055565b6000838152600460205260409081902060018101805460ff60a01b1916600160a01b86151502179081905560038201849055905491516001600160a01b03909116919085907f366ba2ff3ae87084a6b770c4ac0371bf0647243b3ab1a7f5c751d29322aa6161906112909087908790612f25565b5490565b80546001019055565b611a4082611778565b611a5c5760405162461bcd60e51b81526004016102c7906131bf565b600082815260046020526040902060010154600160a01b900460ff16611a945760405162461bcd60e51b81526004016102c790613420565b60008281526004602052604090206007015460ff16600314611ac85760405162461bcd60e51b81526004016102c7906135a4565b600082815260046020526040902060030154421015611af95760405162461bcd60e51b81526004016102c79061303a565b6000828152600460205260409020600501541580611b3f5750600082815260046020819052604090912090810154600590910154611b3c9163ffffffff61202716565b42105b611b5b5760405162461bcd60e51b81526004016102c790613786565b6000828152600460205260409020600601548114611b8b5760405162461bcd60e51b81526004016102c790612fcc565b600260019054906101000a90046001600160a01b03166001600160a01b031663f1d5596b6040518163ffffffff1660e01b8152600401602060405180830381600087803b158015611bdb57600080fd5b505af1158015611bef573d6000803e3d6000fd5b505050506040513d601f19601f82011682018060405250810190611c139190612c4a565b6000838152600460208190526040918290205491516302e8fe1360e01b81526001600160a01b0393909316926302e8fe1392611c53929091869101613a8e565b60206040518083038186803b158015611c6b57600080fd5b505afa158015611c7f573d6000803e3d6000fd5b505050506040513d601f19601f82011682018060405250810190611ca39190612ccf565b611cbf5760405162461bcd60e51b81526004016102c790613071565b6000828152600460205260409020426005820155600a0154611ceb9082906001600160a01b03166121ff565b600082815260046020526040808220600281018490556008810180546001600160a01b03191633908117909155600180830154925493516001600160a01b03939093169487937fdf3c258fd5ebb54ac1a83c73feafacc466858d3badc3dda9c4034b0da1da54d993611d609390928992612e9f565b60405180910390a46000828152600460205260408120600a01546001600160a01b031615611da8576000838152600460205260409020600a01546001600160a01b0316611db5565b6003546001600160a01b03165b600084815260046020526040812060020154919250908180611dd68761240c565b93509150829050600182151514611e3057600087815260046020526040902060088101546002820154600a90920154611e1d926001600160a01b03928316929091166120c1565b611e2687611815565b5050505050612023565b6000878152600460205260409020600901546001600160a01b031615611ec257600087815260046020526040902060070154611e7c90606490610dc4908690610100900460ff16612055565b9350611e8e838563ffffffff6123e416565b60008881526004602052604090206009810154600a90910154919450611ec2916001600160a01b03918216918791166120c1565b60008781526004602052604090206007810154600a90910154611ef9916001600160a01b03620100009091048116918691166120c1565b60008781526004602052604090819020600181015481546007830154600984015460089094015494516001600160a01b039384169592948d947f334843dd102fb480fd982e331134a746cae45483f35aa91db449e96cb90cc5f194611f7394620100009004821693928216929116908b908d908f90612ec9565b60405180910390a45050506000848152600460208190526040822082815560018101805474ffffffffffffffffffffffffffffffffffffffffff19169055600281018390556003810183905590810182905560058101829055600681019190915560078101805475ffffffffffffffffffffffffffffffffffffffffffff191690556008810180546001600160a01b031990811690915560098201805482169055600a9091018054909116905550505b5050565b60008282018381101561204c5760405162461bcd60e51b81526004016102c7906131f6565b90505b92915050565b6000826120645750600061204f565b8282028284828161207157fe5b041461204c5760405162461bcd60e51b81526004016102c7906134db565b60008082116120b05760405162461bcd60e51b81526004016102c790613355565b8183816120b957fe5b049392505050565b6001600160a01b0381166121e5576003546040517f2e1a7d4d0000000000000000000000000000000000000000000000000000000081526001600160a01b0390911690632e1a7d4d9061211890859060040161398a565b600060405180830381600087803b15801561213257600080fd5b505af1158015612146573d6000803e3d6000fd5b5050505061215483836128cb565b6121e057600360009054906101000a90046001600160a01b03166001600160a01b031663d0e30db0836040518263ffffffff1660e01b81526004016000604051808303818588803b1580156121a857600080fd5b505af11580156121bc573d6000803e3d6000fd5b50506003546121e093506001600160a01b031691508590508463ffffffff61294216565b610342565b6103426001600160a01b038216848463ffffffff61294216565b6001600160a01b0381166122905781341461222c5760405162461bcd60e51b81526004016102c790613162565b600360009054906101000a90046001600160a01b03166001600160a01b031663d0e30db0836040518263ffffffff1660e01b81526004016000604051808303818588803b15801561227c57600080fd5b505af1158015611e26573d6000803e3d6000fd5b6040516370a0823160e01b815281906000906001600160a01b038316906370a08231906122c1903090600401612e67565b60206040518083038186803b1580156122d957600080fd5b505afa1580156122ed573d6000803e3d6000fd5b505050506040513d601f19601f820116820180604052508101906123119190612d03565b905061232e6001600160a01b03831633308763ffffffff6129c516565b6040516370a0823160e01b81526000906001600160a01b038416906370a082319061235d903090600401612e67565b60206040518083038186803b15801561237557600080fd5b505afa158015612389573d6000803e3d6000fd5b505050506040513d601f19601f820116820180604052508101906123ad9190612d03565b9050806123c0838763ffffffff61202716565b146123dd5760405162461bcd60e51b81526004016102c79061392d565b5050505050565b6000828211156124065760405162461bcd60e51b81526004016102c7906132c1565b50900390565b6000818152600460205260408120600a0154819081906001600160a01b031615612450576000848152600460205260409020600a01546001600160a01b031661245d565b6003546001600160a01b03165b9050612467612b8e565b506040805160a08101825260008681526004602081815284832060028082015486526001600160a01b0380891684880181905230888a01528c875285855260089093015481166060880152875180850189528681526080880152905487517ff1d5596b00000000000000000000000000000000000000000000000000000000815297519697929663095ea7b3966101009092049092169463f1d5596b94848201949093929083900390910190829087803b15801561252457600080fd5b505af1158015612538573d6000803e3d6000fd5b505050506040513d601f19601f8201168201806040525081019061255c9190612c4a565b83516040517fffffffff0000000000000000000000000000000000000000000000000000000060e085901b168152612598929190600401612f01565b602060405180830381600087803b1580156125b257600080fd5b505af11580156125c6573d6000803e3d6000fd5b505050506040513d601f19601f820116820180604052508101906125ea9190612ccf565b506002546000868152600460208190526040918290205491517f5bf624220000000000000000000000000000000000000000000000000000000081526101009093046001600160a01b031692635bf624229261264a929091869101613a3b565b600060405180830381600087803b15801561266457600080fd5b505af1158015612678573d6000803e3d6000fd5b50506040516370a0823160e01b8152600092506001600160a01b03851691506370a08231906126ab903090600401612e67565b60206040518083038186803b1580156126c357600080fd5b505afa1580156126d7573d6000803e3d6000fd5b505050506040513d601f19601f820116820180604052508101906126fb9190612d03565b6002546000888152600460208190526040918290205491517fba3393990000000000000000000000000000000000000000000000000000000081529394506101009092046001600160a01b03169263ba3393999261275c9291879101613a3b565b600060405180830381600087803b15801561277657600080fd5b505af1925050508015612787575060015b61282a576002546000878152600460208190526040918290205491517fb320f4590000000000000000000000000000000000000000000000000000000081526101009093046001600160a01b03169263b320f459926127e89290910161398a565b600060405180830381600087803b15801561280257600080fd5b505af1158015612816573d6000803e3d6000fd5b50600097508796506128c695505050505050565b6040516370a0823160e01b81526000906001600160a01b038516906370a0823190612859903090600401612e67565b60206040518083038186803b15801561287157600080fd5b505afa158015612885573d6000803e3d6000fd5b505050506040513d601f19601f820116820180604052508101906128a99190612d03565b905060016128bd828463ffffffff6123e416565b95509550505050505b915091565b60408051600080825260208201928390529182916001600160a01b0386169185916128f591612e4b565b60006040518083038185875af1925050503d8060008114612932576040519150601f19603f3d011682016040523d82523d6000602084013e612937565b606091505b509095945050505050565b6103428363a9059cbb60e01b8484604051602401612961929190612f01565b60408051601f198184030181529190526020810180517bffffffffffffffffffffffffffffffffffffffffffffffffffffffff167fffffffff00000000000000000000000000000000000000000000000000000000909316929092179091526129e6565b610515846323b872dd60e01b85858560405160240161296193929190612e7b565b6060612a3b826040518060400160405280602081526020017f5361666545524332303a206c6f772d6c6576656c2063616c6c206661696c6564815250856001600160a01b0316612a759092919063ffffffff16565b8051909150156103425780806020019051810190612a599190612ccf565b6103425760405162461bcd60e51b81526004016102c79061366f565b6060612a848484600085612a8e565b90505b9392505050565b606082471015612ab05760405162461bcd60e51b81526004016102c7906132f8565b612ab985612b4f565b612ad55760405162461bcd60e51b81526004016102c790613638565b60006060866001600160a01b03168587604051612af29190612e4b565b60006040518083038185875af1925050503d8060008114612b2f576040519150601f19603f3d011682016040523d82523d6000602084013e612b34565b606091505b5091509150612b44828286612b55565b979650505050505050565b3b151590565b60608315612b64575081612a87565b825115612b745782518084602001fd5b8160405162461bcd60e51b81526004016102c79190612f62565b6040518060a001604052806000815260200160006001600160a01b0316815260200160006001600160a01b0316815260200160006001600160a01b03168152602001612bd8612bdd565b905290565b6040518060200160405280600081525090565b60008083601f840112612c01578182fd5b50813567ffffffffffffffff811115612c18578182fd5b6020830191508360208083028501011115612c3257600080fd5b9250929050565b803560ff8116811461204f57600080fd5b600060208284031215612c5b578081fd5b815161204c81613b1e565b60008060008060408587031215612c7b578283fd5b843567ffffffffffffffff80821115612c92578485fd5b612c9e88838901612bf0565b90965094506020870135915080821115612cb6578384fd5b50612cc387828801612bf0565b95989497509550505050565b600060208284031215612ce0578081fd5b815161204c81613b36565b600060208284031215612cfc578081fd5b5035919050565b600060208284031215612d14578081fd5b5051919050565b60008060008060008060008060006101208a8c031215612d39578485fd5b8935985060208a0135612d4b81613b1e565b975060408a0135965060608a0135955060808a01359450612d6f8b60a08c01612c39565b935060c08a0135612d7f81613b1e565b9250612d8e8b60e08c01612c39565b91506101008a0135612d9f81613b1e565b809150509295985092959850929598565b60008060408385031215612dc2578182fd5b823591506020830135612dd481613b36565b809150509250929050565b600080600060608486031215612df3578283fd5b833592506020840135612e0581613b36565b929592945050506040919091013590565b60008060408385031215612e28578182fd5b50508035926020909101359150565b6001600160a01b03169052565b60ff169052565b60008251612e5d818460208701613af2565b9190910192915050565b6001600160a01b0391909116815260200190565b6001600160a01b039384168152919092166020820152604081019190915260600190565b6001600160a01b039490941684526020840192909252151560408301521515606082015260800190565b6001600160a01b039687168152948616602086015292851660408501526060840191909152608083015290911660a082015260c00190565b6001600160a01b03929092168252602082015260400190565b901515815260200190565b9115158252602082015260400190565b7fffffffff0000000000000000000000000000000000000000000000000000000091909116815260200190565b6000602082528251806020840152612f81816040850160208701613af2565b601f01601f19169190910160400192915050565b6020808252601c908201527f4d757374206265206c697374696e6720696e7465726d65646961727900000000604082015260600190565b60208082526013908201527f4d7573742073656e64206c697374507269636500000000000000000000000000604082015260600190565b6020808252601c908201527f4d7573742073656e64206174206c65617374206c697374507269636500000000604082015260600190565b60208082526012908201527f4c697374206973206e6f74206163746976650000000000000000000000000000604082015260600190565b6020808252601f908201527f42696420696e76616c696420666f722073686172652073706c697474696e6700604082015260600190565b60208082526027908201527f43616e27742063616e63656c20616e206c697374696e67206f6e63652069742760408201527f7320626567756e00000000000000000000000000000000000000000000000000606082015260800190565b6020808252602b908201527f4d757374206265206c697374696e6720696e7465726d656469617279206f722060408201527f746f6b656e206f776e6572000000000000000000000000000000000000000000606082015260800190565b60208082526034908201527f53656e74204d4f5449462056616c756520646f6573206e6f74206d617463682060408201527f7370656369666965642062696420616d6f756e74000000000000000000000000606082015260800190565b60208082526015908201527f4c697374696e6720646f65736e27742065786973740000000000000000000000604082015260600190565b6020808252601b908201527f536166654d6174683a206164646974696f6e206f766572666c6f770000000000604082015260600190565b6020808252601b908201527f4c697374696e672068617320616c726561647920737461727465640000000000604082015260600190565b60208082526036908201527f4c656e677468206f66206c697374696e6720696473206d75737420626520657160408201527f75616c20746f206f72206c657373207468616e20353000000000000000000000606082015260800190565b6020808252601e908201527f536166654d6174683a207375627472616374696f6e206f766572666c6f770000604082015260600190565b60208082526026908201527f416464726573733a20696e73756666696369656e742062616c616e636520666f60408201527f722063616c6c0000000000000000000000000000000000000000000000000000606082015260800190565b6020808252601a908201527f536166654d6174683a206469766973696f6e206279207a65726f000000000000604082015260600190565b6020808252601d908201527f4c697374696e6720696473206d757374206e6f7420626520656d707479000000604082015260600190565b6020808252602c908201527f4c656e677468206f66206c697374696e672069647320616e6420616d6f756e7460408201527f73206d757374206d617463680000000000000000000000000000000000000000606082015260800190565b60208082526028908201527f4c697374696e67206d75737420626520617070726f76656420627920696e746560408201527f726d656469617279000000000000000000000000000000000000000000000000606082015260800190565b602080825260409082018190527f4d7573742073656e64206d6f7265207468616e206c6173742062696420627920908201527f6d696e426964496e6372656d656e7450657263656e7461676520616d6f756e74606082015260800190565b60208082526021908201527f536166654d6174683a206d756c7469706c69636174696f6e206f766572666c6f60408201527f7700000000000000000000000000000000000000000000000000000000000000606082015260800190565b60208082526018908201527f4c6973742068617320616c726561647920737461727465640000000000000000604082015260600190565b6020808252818101527f4d7573742062652062696464696e67206f722064726f70206c69737454797065604082015260600190565b6020808252601c908201527f4d757374206265206669786564207072696365206c6973745479706500000000604082015260600190565b60208082526035908201527f43616e206f6e6c792062652063616c6c6564206279206c697374696e6720637260408201527f6561746f72206f7220696e7465726d6564696172790000000000000000000000606082015260800190565b6020808252601d908201527f416464726573733a2063616c6c20746f206e6f6e2d636f6e7472616374000000604082015260600190565b6020808252602a908201527f5361666545524332303a204552433230206f7065726174696f6e20646964206e60408201527f6f74207375636365656400000000000000000000000000000000000000000000606082015260800190565b6020808252602f908201527f696e7465726d65646961727946656550657263656e74616765206d757374206260408201527f65206c657373207468616e203130300000000000000000000000000000000000606082015260800190565b6020808252602d908201527f43616c6c6572206d75737420626520617070726f766564206f72206f776e657260408201527f20666f7220746f6b656e20696400000000000000000000000000000000000000606082015260800190565b6020808252600f908201527f4c697374696e6720657870697265640000000000000000000000000000000000604082015260600190565b60208082526018908201527f4c697374696e67206861736e277420636f6d706c657465640000000000000000604082015260600190565b6020808252601f908201527f5265656e7472616e637947756172643a207265656e7472616e742063616c6c00604082015260600190565b60208082526014908201527f4c697374696e67206861736e277420626567756e000000000000000000000000604082015260600190565b60208082526015908201527f4d7573742062652064726f70206c697374547970650000000000000000000000604082015260600190565b60208082526019908201527f4d757374206265206c69737420696e7465726d65646961727900000000000000604082015260600190565b6020808252602f908201527f746f6b656e436f6e747261637420646f6573206e6f7420737570706f7274204560408201527f524337323120696e746572666163650000000000000000000000000000000000606082015260800190565b60208082526034908201527f546f6b656e207472616e736665722063616c6c20646964206e6f74207472616e60408201527f7366657220657870656374656420616d6f756e74000000000000000000000000606082015260800190565b90815260200190565b60006101c0820190508f82526001600160a01b038f1660208301528d151560408301528c60608301528b60808301528a60a08301528960c08301528860e08301526139e2610100830189612e44565b6139f0610120830188612e44565b6139fe610140830187612e37565b613a0c610160830186612e37565b613a1a610180830185612e37565b613a286101a0830184612e37565b9f9e505050505050505050505050505050565b600060c0820190508382528251602083015260208301516001600160a01b038082166040850152806040860151166060850152806060860151166080850152505060808301515160a08301529392505050565b918252602082015260400190565b9788526020880196909652604087019490945260ff92831660608701526001600160a01b039182166080870152811660a0860152911660c08401521660e08201526101000190565b60ff91909116815260200190565b60005b83811015613b0d578181015183820152602001613af5565b838111156105155750506000910152565b6001600160a01b0381168114613b3357600080fd5b50565b8015158114613b3357600080fdfea26469706673582212203c1e4885ec34e3d8f6e8cc28a1ea26044cb2d3f660fe518263a94fb8ec57a40b64736f6c63430006080033",
  "linkReferences": {},
  "deployedLinkReferences": {}
}