{
  "_format": "hh-sol-artifact-1",
  "contractName": "ItemListing",
  "sourceName": "contracts/ItemListing.sol",
  "abi": [
    {
      "inputs": [
        {
          "internalType": "address",
          "name": "_motif",
          "type": "address"
        },
        {
          "internalType": "address",
          "name": "_wmotif",
          "type": "address"
        },
        {
          "internalType": "string",
          "name": "itemListingIdentifierString",
          "type": "string"
        }
      ],
      "stateMutability": "nonpayable",
      "type": "constructor"
    },
    {
      "anonymous": false,
      "inputs": [
        {
          "indexed": true,
          "internalType": "uint256",
          "name": "listingId",
          "type": "uint256"
        },
        {
          "indexed": true,
          "internalType": "uint256",
          "name": "tokenId",
          "type": "uint256"
        },
        {
          "indexed": true,
          "internalType": "address",
          "name": "tokenContract",
          "type": "address"
        },
        {
          "indexed": false,
          "internalType": "bool",
          "name": "approved",
          "type": "bool"
        }
      ],
      "name": "ListingApprovalUpdated",
      "type": "event"
    },
    {
      "anonymous": false,
      "inputs": [
        {
          "indexed": true,
          "internalType": "uint256",
          "name": "listingId",
          "type": "uint256"
        },
        {
          "indexed": true,
          "internalType": "uint256",
          "name": "tokenId",
          "type": "uint256"
        },
        {
          "indexed": true,
          "internalType": "address",
          "name": "tokenContract",
          "type": "address"
        },
        {
          "indexed": false,
          "internalType": "address",
          "name": "sender",
          "type": "address"
        },
        {
          "indexed": false,
          "internalType": "uint256",
          "name": "value",
          "type": "uint256"
        },
        {
          "indexed": false,
          "internalType": "bool",
          "name": "firstBid",
          "type": "bool"
        },
        {
          "indexed": false,
          "internalType": "bool",
          "name": "extended",
          "type": "bool"
        }
      ],
      "name": "ListingBid",
      "type": "event"
    },
    {
      "anonymous": false,
      "inputs": [
        {
          "indexed": true,
          "internalType": "uint256",
          "name": "listingId",
          "type": "uint256"
        },
        {
          "indexed": true,
          "internalType": "uint256",
          "name": "tokenId",
          "type": "uint256"
        },
        {
          "indexed": true,
          "internalType": "address",
          "name": "tokenContract",
          "type": "address"
        },
        {
          "indexed": false,
          "internalType": "address",
          "name": "tokenOwner",
          "type": "address"
        }
      ],
      "name": "ListingCanceled",
      "type": "event"
    },
    {
      "anonymous": false,
      "inputs": [
        {
          "indexed": true,
          "internalType": "uint256",
          "name": "listingId",
          "type": "uint256"
        },
        {
          "indexed": true,
          "internalType": "uint256",
          "name": "tokenId",
          "type": "uint256"
        },
        {
          "indexed": true,
          "internalType": "address",
          "name": "tokenContract",
          "type": "address"
        },
        {
          "indexed": false,
          "internalType": "uint256",
          "name": "startsAt",
          "type": "uint256"
        },
        {
          "indexed": false,
          "internalType": "uint256",
          "name": "duration",
          "type": "uint256"
        },
        {
          "indexed": false,
          "internalType": "uint256",
          "name": "listPrice",
          "type": "uint256"
        },
        {
          "indexed": false,
          "internalType": "uint8",
          "name": "listType",
          "type": "uint8"
        },
        {
          "indexed": false,
          "internalType": "address",
          "name": "tokenOwner",
          "type": "address"
        },
        {
          "indexed": false,
          "internalType": "address",
          "name": "intermediary",
          "type": "address"
        },
        {
          "indexed": false,
          "internalType": "uint8",
          "name": "intermediaryFeePercentage",
          "type": "uint8"
        },
        {
          "indexed": false,
          "internalType": "address",
          "name": "listCurrency",
          "type": "address"
        }
      ],
      "name": "ListingCreated",
      "type": "event"
    },
    {
      "anonymous": false,
      "inputs": [
        {
          "indexed": true,
          "internalType": "uint256",
          "name": "listingId",
          "type": "uint256"
        },
        {
          "indexed": true,
          "internalType": "uint256",
          "name": "tokenId",
          "type": "uint256"
        },
        {
          "indexed": true,
          "internalType": "address",
          "name": "tokenContract",
          "type": "address"
        },
        {
          "indexed": false,
          "internalType": "bool",
          "name": "approved",
          "type": "bool"
        },
        {
          "indexed": false,
          "internalType": "uint256",
          "name": "startsAt",
          "type": "uint256"
        }
      ],
      "name": "ListingDropApprovalUpdated",
      "type": "event"
    },
    {
      "anonymous": false,
      "inputs": [
        {
          "indexed": true,
          "internalType": "uint256",
          "name": "listingId",
          "type": "uint256"
        },
        {
          "indexed": true,
          "internalType": "uint256",
          "name": "tokenId",
          "type": "uint256"
        },
        {
          "indexed": true,
          "internalType": "address",
          "name": "tokenContract",
          "type": "address"
        },
        {
          "indexed": false,
          "internalType": "uint256",
          "name": "duration",
          "type": "uint256"
        }
      ],
      "name": "ListingDurationExtended",
      "type": "event"
    },
    {
      "anonymous": false,
      "inputs": [
        {
          "indexed": true,
          "internalType": "uint256",
          "name": "listingId",
          "type": "uint256"
        },
        {
          "indexed": true,
          "internalType": "uint256",
          "name": "tokenId",
          "type": "uint256"
        },
        {
          "indexed": true,
          "internalType": "address",
          "name": "tokenContract",
          "type": "address"
        },
        {
          "indexed": false,
          "internalType": "address",
          "name": "tokenOwner",
          "type": "address"
        },
        {
          "indexed": false,
          "internalType": "address",
          "name": "intermediary",
          "type": "address"
        },
        {
          "indexed": false,
          "internalType": "address",
          "name": "winner",
          "type": "address"
        },
        {
          "indexed": false,
          "internalType": "uint256",
          "name": "amount",
          "type": "uint256"
        },
        {
          "indexed": false,
          "internalType": "uint256",
          "name": "intermediaryFee",
          "type": "uint256"
        },
        {
          "indexed": false,
          "internalType": "address",
          "name": "listCurrency",
          "type": "address"
        }
      ],
      "name": "ListingEnded",
      "type": "event"
    },
    {
      "anonymous": false,
      "inputs": [
        {
          "indexed": true,
          "internalType": "uint256",
          "name": "listingId",
          "type": "uint256"
        },
        {
          "indexed": true,
          "internalType": "uint256",
          "name": "tokenId",
          "type": "uint256"
        },
        {
          "indexed": true,
          "internalType": "address",
          "name": "tokenContract",
          "type": "address"
        },
        {
          "indexed": false,
          "internalType": "uint256",
          "name": "listPrice",
          "type": "uint256"
        }
      ],
      "name": "ListingListPriceUpdated",
      "type": "event"
    },
    {
      "stateMutability": "payable",
      "type": "fallback"
    },
    {
      "inputs": [
        {
          "internalType": "uint256",
          "name": "listingId",
          "type": "uint256"
        }
      ],
      "name": "cancelListing",
      "outputs": [],
      "stateMutability": "nonpayable",
      "type": "function"
    },
    {
      "inputs": [
        {
          "internalType": "uint256",
          "name": "listingId",
          "type": "uint256"
        },
        {
          "internalType": "uint256",
          "name": "amount",
          "type": "uint256"
        }
      ],
      "name": "createBid",
      "outputs": [],
      "stateMutability": "payable",
      "type": "function"
    },
    {
      "inputs": [
        {
          "internalType": "uint256",
          "name": "tokenId",
          "type": "uint256"
        },
        {
          "internalType": "address",
          "name": "tokenContract",
          "type": "address"
        },
        {
          "internalType": "uint256",
          "name": "startsAt",
          "type": "uint256"
        },
        {
          "internalType": "uint256",
          "name": "duration",
          "type": "uint256"
        },
        {
          "internalType": "uint256",
          "name": "listPrice",
          "type": "uint256"
        },
        {
          "internalType": "uint8",
          "name": "listType",
          "type": "uint8"
        },
        {
          "internalType": "address payable",
          "name": "intermediary",
          "type": "address"
        },
        {
          "internalType": "uint8",
          "name": "intermediaryFeePercentage",
          "type": "uint8"
        },
        {
          "internalType": "address",
          "name": "listCurrency",
          "type": "address"
        }
      ],
      "name": "createListing",
      "outputs": [
        {
          "internalType": "uint256",
          "name": "",
          "type": "uint256"
        }
      ],
      "stateMutability": "nonpayable",
      "type": "function"
    },
    {
      "inputs": [
        {
          "internalType": "uint256",
          "name": "listingId",
          "type": "uint256"
        },
        {
          "internalType": "uint256",
          "name": "amount",
          "type": "uint256"
        }
      ],
      "name": "endFixedPriceListing",
      "outputs": [],
      "stateMutability": "payable",
      "type": "function"
    },
    {
      "inputs": [
        {
          "internalType": "uint256[]",
          "name": "listingIds",
          "type": "uint256[]"
        },
        {
          "internalType": "uint256[]",
          "name": "amounts",
          "type": "uint256[]"
        }
      ],
      "name": "endFixedPriceListings",
      "outputs": [],
      "stateMutability": "payable",
      "type": "function"
    },
    {
      "inputs": [
        {
          "internalType": "uint256",
          "name": "listingId",
          "type": "uint256"
        }
      ],
      "name": "endListing",
      "outputs": [],
      "stateMutability": "nonpayable",
      "type": "function"
    },
    {
      "inputs": [],
      "name": "getItemListingIdentifier",
      "outputs": [
        {
          "internalType": "string",
          "name": "",
          "type": "string"
        }
      ],
      "stateMutability": "view",
      "type": "function"
    },
    {
      "inputs": [],
      "name": "itemListingIdentifier",
      "outputs": [
        {
          "internalType": "string",
          "name": "",
          "type": "string"
        }
      ],
      "stateMutability": "view",
      "type": "function"
    },
    {
      "inputs": [
        {
          "internalType": "uint256",
          "name": "",
          "type": "uint256"
        }
      ],
      "name": "listings",
      "outputs": [
        {
          "internalType": "uint256",
          "name": "tokenId",
          "type": "uint256"
        },
        {
          "internalType": "address",
          "name": "tokenContract",
          "type": "address"
        },
        {
          "internalType": "bool",
          "name": "approved",
          "type": "bool"
        },
        {
          "internalType": "uint256",
          "name": "amount",
          "type": "uint256"
        },
        {
          "internalType": "uint256",
          "name": "startsAt",
          "type": "uint256"
        },
        {
          "internalType": "uint256",
          "name": "duration",
          "type": "uint256"
        },
        {
          "internalType": "uint256",
          "name": "firstBidTime",
          "type": "uint256"
        },
        {
          "internalType": "uint256",
          "name": "listPrice",
          "type": "uint256"
        },
        {
          "internalType": "uint8",
          "name": "listType",
          "type": "uint8"
        },
        {
          "internalType": "uint8",
          "name": "intermediaryFeePercentage",
          "type": "uint8"
        },
        {
          "internalType": "address",
          "name": "tokenOwner",
          "type": "address"
        },
        {
          "internalType": "address payable",
          "name": "bidder",
          "type": "address"
        },
        {
          "internalType": "address payable",
          "name": "intermediary",
          "type": "address"
        },
        {
          "internalType": "address",
          "name": "listCurrency",
          "type": "address"
        }
      ],
      "stateMutability": "view",
      "type": "function"
    },
    {
      "inputs": [],
      "name": "minBidIncrementPercentage",
      "outputs": [
        {
          "internalType": "uint8",
          "name": "",
          "type": "uint8"
        }
      ],
      "stateMutability": "view",
      "type": "function"
    },
    {
      "inputs": [],
      "name": "motif",
      "outputs": [
        {
          "internalType": "address",
          "name": "",
          "type": "address"
        }
      ],
      "stateMutability": "view",
      "type": "function"
    },
    {
      "inputs": [
        {
          "internalType": "uint256",
          "name": "listingId",
          "type": "uint256"
        },
        {
          "internalType": "bool",
          "name": "approved",
          "type": "bool"
        }
      ],
      "name": "setListingApproval",
      "outputs": [],
      "stateMutability": "nonpayable",
      "type": "function"
    },
    {
      "inputs": [
        {
          "internalType": "uint256",
          "name": "listingId",
          "type": "uint256"
        },
        {
          "internalType": "bool",
          "name": "approved",
          "type": "bool"
        },
        {
          "internalType": "uint256",
          "name": "startsAt",
          "type": "uint256"
        }
      ],
      "name": "setListingDropApproval",
      "outputs": [],
      "stateMutability": "nonpayable",
      "type": "function"
    },
    {
      "inputs": [
        {
          "internalType": "uint256",
          "name": "listingId",
          "type": "uint256"
        },
        {
          "internalType": "uint256",
          "name": "listPrice",
          "type": "uint256"
        }
      ],
      "name": "setListingListPrice",
      "outputs": [],
      "stateMutability": "nonpayable",
      "type": "function"
    },
    {
      "inputs": [],
      "name": "timeBuffer",
      "outputs": [
        {
          "internalType": "uint256",
          "name": "",
          "type": "uint256"
        }
      ],
      "stateMutability": "view",
      "type": "function"
    },
    {
      "inputs": [],
      "name": "wmotifAddress",
      "outputs": [
        {
          "internalType": "address",
          "name": "",
          "type": "address"
        }
      ],
      "stateMutability": "view",
      "type": "function"
    },
    {
      "stateMutability": "payable",
      "type": "receive"
    }
  ],
  "bytecode": "0x60806040523480156200001157600080fd5b5060405162003fb338038062003fb3833981016040819052620000349162000217565b60016000556040516301ffc9a760e01b81526001600160a01b038416906301ffc9a7906200006e906380ac58cd60e01b90600401620002fe565b60206040518083038186803b1580156200008757600080fd5b505afa1580156200009c573d6000803e3d6000fd5b505050506040513d601f19601f82011682018060405250810190620000c29190620002d5565b620000ea5760405162461bcd60e51b8152600401620000e19062000313565b60405180910390fd5b60028054600380546001600160a01b0319166001600160a01b03868116919091179091556104b06001556005610100600160a81b0319909216610100918716919091021760ff1916811790915581516200014a9190602084019062000154565b50505050620003a4565b828054600181600116156101000203166002900490600052602060002090601f016020900481019282601f106200019757805160ff1916838001178555620001c7565b82800160010185558215620001c7579182015b82811115620001c7578251825591602001919060010190620001aa565b50620001d5929150620001d9565b5090565b620001f691905b80821115620001d55760008155600101620001e0565b90565b80516001600160a01b03811681146200021157600080fd5b92915050565b6000806000606084860312156200022c578283fd5b620002388585620001f9565b9250620002498560208601620001f9565b60408501519092506001600160401b038082111562000266578283fd5b81860187601f82011262000278578384fd5b805192508183111562000289578384fd5b6200029e601f8401601f19166020016200034a565b9150828252876020848301011115620002b5578384fd5b620002c883602084016020840162000371565b5080925050509250925092565b600060208284031215620002e7578081fd5b81518015158114620002f7578182fd5b9392505050565b6001600160e01b031991909116815260200190565b6020808252601d908201527f446f65736e277420737570706f7274204e465420696e74657266616365000000604082015260600190565b6040518181016001600160401b03811182821017156200036957600080fd5b604052919050565b60005b838110156200038e57818101518382015260200162000374565b838111156200039e576000848401525b50505050565b613bff80620003b46000396000f3fe6080604052600436106100f75760003560e01c8063b296024d1161008a578063e273aece11610059578063e273aece14610291578063e57e1036146102a6578063ec91f2a4146102b9578063fac2e3d8146102ce576100fe565b8063b296024d14610202578063b7751c7114610224578063c89e098514610237578063de74e57b14610257576100fe565b806350a14d73116100c657806350a14d731461018d578063580abdbf146101ad57806383872bc1146101c257806394d2ca1d146101ef576100fe565b806312604245146101005780631582f801146101205780632989d54f1461014b578063305a67a81461016d576100fe565b366100fe57005b005b34801561010c57600080fd5b506100fe61011b366004612e6c565b6102ee565b34801561012c57600080fd5b50610135610394565b6040516101429190612f23565b60405180910390f35b34801561015757600080fd5b506101606103a3565b604051610142919061301e565b34801561017957600080fd5b506100fe610188366004612da7565b610431565b34801561019957600080fd5b506100fe6101a8366004612e9b565b610523565b3480156101b957600080fd5b506101606105f6565b3480156101ce57600080fd5b506101e26101dd366004612dd7565b61068c565b6040516101429190613a0f565b6100fe6101fd366004612d22565b610c76565b34801561020e57600080fd5b50610217610d48565b6040516101429190613b69565b6100fe610232366004612ed2565b610d51565b34801561024357600080fd5b506100fe610252366004612ed2565b611238565b34801561026357600080fd5b50610277610272366004612da7565b611359565b6040516101429e9d9c9b9a99989796959493929190613a18565b34801561029d57600080fd5b506101356113df565b6100fe6102b4366004612ed2565b6113f3565b3480156102c557600080fd5b506101e2611425565b3480156102da57600080fd5b506100fe6102e9366004612da7565b61142b565b816102f881611834565b61031d5760405162461bcd60e51b815260040161031490613244565b60405180910390fd5b6000838152600460205260409020600901546001600160a01b031633146103565760405162461bcd60e51b815260040161031490613051565b600083815260046020526040902060050154156103855760405162461bcd60e51b8152600401610314906132b2565b61038f838361185a565b505050565b6003546001600160a01b031681565b6005805460408051602060026001851615610100026000190190941693909304601f810184900484028201840190925281815292918301828280156104295780601f106103fe57610100808354040283529160200191610429565b820191906000526020600020905b81548152906001019060200180831161040c57829003601f168201915b505050505081565b600260005414156104545760405162461bcd60e51b815260040161031490613879565b60026000558061046381611834565b61047f5760405162461bcd60e51b815260040161031490613244565b6000828152600460205260409020600701546201000090046001600160a01b03163314806104c657506000828152600460205260409020600901546001600160a01b031633145b6104e25760405162461bcd60e51b815260040161031490613660565b600082815260046020526040902060050154156105115760405162461bcd60e51b81526004016103149061312d565b61051a826118d1565b50506001600055565b8261052d81611834565b6105495760405162461bcd60e51b815260040161031490613244565b60008481526004602052604090206007015460ff1660021461057d5760405162461bcd60e51b8152600401610314906138e7565b6000848152600460205260409020600901546001600160a01b031633146105b65760405162461bcd60e51b81526004016103149061391e565b600084815260046020526040902060050154156105e55760405162461bcd60e51b8152600401610314906135bd565b6105f0848484611a72565b50505050565b60058054604080516020601f60026000196101006001881615020190951694909404938401819004810282018101909252828152606093909290918301828280156106825780601f1061065757610100808354040283529160200191610682565b820191906000526020600020905b81548152906001019060200180831161066557829003601f168201915b5050505050905090565b6000600260005414156106b15760405162461bcd60e51b815260040161031490613879565b60026000556040517f01ffc9a70000000000000000000000000000000000000000000000000000000081526001600160a01b038a16906301ffc9a79061071b907f80ac58cd0000000000000000000000000000000000000000000000000000000090600401612ff1565b60206040518083038186803b15801561073357600080fd5b505afa158015610747573d6000803e3d6000fd5b505050506040513d601f19601f8201168201806040525081019061076b9190612d8b565b6107875760405162461bcd60e51b815260040161031490613955565b60648360ff16106107aa5760405162461bcd60e51b815260040161031490613751565b6040517f6352211e0000000000000000000000000000000000000000000000000000000081526000906001600160a01b038b1690636352211e906107f2908e90600401613a0f565b60206040518083038186803b15801561080a57600080fd5b505afa15801561081e573d6000803e3d6000fd5b505050506040513d601f19601f820116820180604052508101906108429190612d06565b6040517f081812fc0000000000000000000000000000000000000000000000000000000081529091506001600160a01b038b169063081812fc9061088a908e90600401613a0f565b60206040518083038186803b1580156108a257600080fd5b505afa1580156108b6573d6000803e3d6000fd5b505050506040513d601f19601f820116820180604052508101906108da9190612d06565b6001600160a01b0316336001600160a01b031614806109015750336001600160a01b038216145b61091d5760405162461bcd60e51b8152600401610314906137ae565b60006109296006611ae6565b9050604051806101c001604052808d81526020018c6001600160a01b03168152602001600015158152602001600081526020018b81526020018a8152602001600081526020018981526020018860ff1681526020018660ff168152602001836001600160a01b0316815260200160006001600160a01b03168152602001876001600160a01b03168152602001856001600160a01b0316815250600460008381526020019081526020016000206000820151816000015560208201518160010160006101000a8154816001600160a01b0302191690836001600160a01b0316021790555060408201518160010160146101000a81548160ff021916908315150217905550606082015181600201556080820151816003015560a0820151816004015560c0820151816005015560e082015181600601556101008201518160070160006101000a81548160ff021916908360ff1602179055506101208201518160070160016101000a81548160ff021916908360ff1602179055506101408201518160070160026101000a8154816001600160a01b0302191690836001600160a01b031602179055506101608201518160080160006101000a8154816001600160a01b0302191690836001600160a01b031602179055506101808201518160090160006101000a8154816001600160a01b0302191690836001600160a01b031602179055506101a082015181600a0160006101000a8154816001600160a01b0302191690836001600160a01b031602179055509050508a6001600160a01b03166323b872dd83308f6040518463ffffffff1660e01b8152600401610b8d93929190612f37565b600060405180830381600087803b158015610ba757600080fd5b505af1158015610bbb573d6000803e3d6000fd5b50505050610bc96006611aea565b8a6001600160a01b03168c827f804f18cb6eb2eeef9ae4bfec904ef4d2b03d3364418461d62d4919c3a746407a8d8d8d8d898e8e8e604051610c12989796959493929190613b21565b60405180910390a46000818152600460205260409020600901546001600160a01b03161580610c525750816001600160a01b0316866001600160a01b0316145b15610c6257610c6281600161185a565b60016000559b9a5050505050505050505050565b60026000541415610c995760405162461bcd60e51b815260040161031490613879565b600260005582610cbb5760405162461bcd60e51b815260040161031490613411565b6032831115610cdc5760405162461bcd60e51b8152600401610314906132e9565b828114610cfb5760405162461bcd60e51b815260040161031490613448565b60005b83811015610d3c57610d34858583818110610d1557fe5b90506020020135848484818110610d2857fe5b90506020020135611af3565b600101610cfe565b50506001600055505050565b60025460ff1681565b81610d5b81611834565b610d775760405162461bcd60e51b815260040161031490613244565b60026000541415610d9a5760405162461bcd60e51b815260040161031490613879565b6002600090815583815260046020526040902060088101546001909101546001600160a01b0390911690600160a01b900460ff16610dea5760405162461bcd60e51b8152600401610314906134a5565b6000848152600460205260409020600501541580610e305750600084815260046020819052604090912090810154600590910154610e2d9163ffffffff6120e316565b42105b610e4c5760405162461bcd60e51b81526004016103149061380b565b60028054600086815260046020526040902090910154610eaa91610e8c91606491610e80919060ff1663ffffffff61211116565b9063ffffffff61214b16565b6000868152600460205260409020600201549063ffffffff6120e316565b831015610ec95760405162461bcd60e51b815260040161031490613502565b600260019054906101000a90046001600160a01b03166001600160a01b031663f1d5596b6040518163ffffffff1660e01b8152600401602060405180830381600087803b158015610f1957600080fd5b505af1158015610f2d573d6000803e3d6000fd5b505050506040513d601f19601f82011682018060405250810190610f519190612d06565b6000858152600460208190526040918290205491516302e8fe1360e01b81526001600160a01b0393909316926302e8fe1392610f91929091889101613b13565b60206040518083038186803b158015610fa957600080fd5b505afa158015610fbd573d6000803e3d6000fd5b505050506040513d601f19601f82011682018060405250810190610fe19190612d8b565b610ffd5760405162461bcd60e51b8152600401610314906130f6565b60008481526004602052604090206005015461102d57600084815260046020526040902042600590910155611069565b6001600160a01b038116156110695760008481526004602052604090206002810154600a909101546110699183916001600160a01b031661217d565b6000848152600460205260409020600a015461108f9084906001600160a01b03166122bb565b60008481526004602081905260408220600281018690556008810180546001600160a01b03191633179055600154918101546005909101546110e89142916110dc9163ffffffff6120e316565b9063ffffffff6124a016565b101561115c5760008581526004602081905260409091209081015460059091015461114390611136906111279042906110dc908663ffffffff6120e316565b6001549063ffffffff6124a016565b829063ffffffff6120e316565b6000878152600460208190526040909120015550600190505b600085815260046020526040908190206001810154905491516001600160a01b03918216929188917fdf3c258fd5ebb54ac1a83c73feafacc466858d3badc3dda9c4034b0da1da54d9916111ba9133918b91908a1615908990612f5b565b60405180910390a48015610d3c5760008581526004602081905260409182902060018101548154919092015492516001600160a01b0390921692909188917f7c5d8b1980b451e2d8e5887c47bfdb1153d8b8de54ca953d110c9ec926dba3e3916112249190613a0f565b60405180910390a450506001600055505050565b8161124281611834565b61125e5760405162461bcd60e51b815260040161031490613244565b6000838152600460205260409020600901546001600160a01b03163314806112a557506000838152600460205260409020600701546201000090046001600160a01b031633145b6112c15760405162461bcd60e51b81526004016103149061318a565b600083815260046020526040902060050154156112f05760405162461bcd60e51b8152600401610314906132b2565b60008381526004602052604090819020600681018490556001810154905491516001600160a01b03909116919085907f0409843698c80a52d5e9991fdf99f888ac3f2282b93ddd87bbb63df422907e949061134c908790613a0f565b60405180910390a4505050565b600460208190526000918252604090912080546001820154600283015460038401549484015460058501546006860154600787015460088801546009890154600a9099015497996001600160a01b038089169a60ff600160a01b909a048a169a98999298858416956101008104909416946201000090940483169383169291821691168e565b60025461010090046001600160a01b031681565b600260005414156114165760405162461bcd60e51b815260040161031490613879565b600260005561051a8282611af3565b60015481565b8061143581611834565b6114515760405162461bcd60e51b815260040161031490613244565b600260005414156114745760405162461bcd60e51b815260040161031490613879565b600260009081558281526004602052604090206007015460ff16600114806114b0575060008281526004602052604090206007015460ff166002145b6114cc5760405162461bcd60e51b8152600401610314906135f4565b6000828152600460205260409020600501546114fa5760405162461bcd60e51b8152600401610314906138b0565b60008281526004602052604090206003015442101561152b5760405162461bcd60e51b8152600401610314906130bf565b6000828152600460208190526040909120908101546005909101546115559163ffffffff6120e316565b4210156115745760405162461bcd60e51b815260040161031490613842565b6000828152600460205260408120600a01546001600160a01b0316156115b4576000838152600460205260409020600a01546001600160a01b03166115c1565b6003546001600160a01b03165b6000848152600460205260408120600201549192509081806115e2876124c8565b9350915082905060018215151461163c57600087815260046020526040902060088101546002820154600a90920154611629926001600160a01b039283169290911661217d565b611632876118d1565b505050505061051a565b6000878152600460205260409020600901546001600160a01b0316156116ce5760008781526004602052604090206007015461168890606490610e80908690610100900460ff16612111565b935061169a838563ffffffff6124a016565b60008881526004602052604090206009810154600a909101549194506116ce916001600160a01b039182169187911661217d565b60008781526004602052604090206007810154600a90910154611705916001600160a01b036201000090910481169186911661217d565b60008781526004602052604090819020600181015481546007830154600984015460089094015494516001600160a01b039384169592948d947f334843dd102fb480fd982e331134a746cae45483f35aa91db449e96cb90cc5f19461177f94620100009004821693928216929116908b908d908f90612f85565b60405180910390a45050506000938452505060046020819052604083208381556001808201805474ffffffffffffffffffffffffffffffffffffffffff191690556002820185905560038201859055918101849055600581018490556006810184905560078101805475ffffffffffffffffffffffffffffffffffffffffffff191690556008810180546001600160a01b031990811690915560098201805482169055600a9091018054909116905590915550565b6000908152600460205260409020600701546201000090046001600160a01b0316151590565b6000828152600460205260409081902060018101805460ff60a01b1916600160a01b851515021790819055905491516001600160a01b03909116919084907f301b3a878e4bfbb57bd5babb78545aff93752440eb359d65b3ad34de32d842fc906118c5908690612fd6565b60405180910390a45050565b60008181526004602081905260409182902060078101546001820154915493517f42842e0e000000000000000000000000000000000000000000000000000000008152620100009091046001600160a01b03908116949216926342842e0e9261193f92309287929101612f37565b600060405180830381600087803b15801561195957600080fd5b505af115801561196d573d6000803e3d6000fd5b505050600083815260046020526040908190206001810154905491516001600160a01b03909116925084907fd5074712d772916d5592447e134f0f148b438068d1cd2559a4b2ab8990c0fba0906119c5908690612f23565b60405180910390a4506000908152600460208190526040822082815560018101805474ffffffffffffffffffffffffffffffffffffffffff19169055600281018390556003810183905590810182905560058101829055600681019190915560078101805475ffffffffffffffffffffffffffffffffffffffffffff191690556008810180546001600160a01b031990811690915560098201805482169055600a90910180549091169055565b6000838152600460205260409081902060018101805460ff60a01b1916600160a01b86151502179081905560038201849055905491516001600160a01b03909116919085907f366ba2ff3ae87084a6b770c4ac0371bf0647243b3ab1a7f5c751d29322aa61619061134c9087908790612fe1565b5490565b80546001019055565b611afc82611834565b611b185760405162461bcd60e51b815260040161031490613244565b600082815260046020526040902060010154600160a01b900460ff16611b505760405162461bcd60e51b8152600401610314906134a5565b60008281526004602052604090206007015460ff16600314611b845760405162461bcd60e51b815260040161031490613629565b600082815260046020526040902060030154421015611bb55760405162461bcd60e51b8152600401610314906130bf565b6000828152600460205260409020600501541580611bfb5750600082815260046020819052604090912090810154600590910154611bf89163ffffffff6120e316565b42105b611c175760405162461bcd60e51b81526004016103149061380b565b6000828152600460205260409020600601548114611c475760405162461bcd60e51b815260040161031490613088565b600260019054906101000a90046001600160a01b03166001600160a01b031663f1d5596b6040518163ffffffff1660e01b8152600401602060405180830381600087803b158015611c9757600080fd5b505af1158015611cab573d6000803e3d6000fd5b505050506040513d601f19601f82011682018060405250810190611ccf9190612d06565b6000838152600460208190526040918290205491516302e8fe1360e01b81526001600160a01b0393909316926302e8fe1392611d0f929091869101613b13565b60206040518083038186803b158015611d2757600080fd5b505afa158015611d3b573d6000803e3d6000fd5b505050506040513d601f19601f82011682018060405250810190611d5f9190612d8b565b611d7b5760405162461bcd60e51b8152600401610314906130f6565b6000828152600460205260409020426005820155600a0154611da79082906001600160a01b03166122bb565b600082815260046020526040808220600281018490556008810180546001600160a01b03191633908117909155600180830154925493516001600160a01b03939093169487937fdf3c258fd5ebb54ac1a83c73feafacc466858d3badc3dda9c4034b0da1da54d993611e1c9390928992612f5b565b60405180910390a46000828152600460205260408120600a01546001600160a01b031615611e64576000838152600460205260409020600a01546001600160a01b0316611e71565b6003546001600160a01b03165b600084815260046020526040812060020154919250908180611e92876124c8565b93509150829050600182151514611eec57600087815260046020526040902060088101546002820154600a90920154611ed9926001600160a01b039283169290911661217d565b611ee2876118d1565b50505050506120df565b6000878152600460205260409020600901546001600160a01b031615611f7e57600087815260046020526040902060070154611f3890606490610e80908690610100900460ff16612111565b9350611f4a838563ffffffff6124a016565b60008881526004602052604090206009810154600a90910154919450611f7e916001600160a01b039182169187911661217d565b60008781526004602052604090206007810154600a90910154611fb5916001600160a01b036201000090910481169186911661217d565b60008781526004602052604090819020600181015481546007830154600984015460089094015494516001600160a01b039384169592948d947f334843dd102fb480fd982e331134a746cae45483f35aa91db449e96cb90cc5f19461202f94620100009004821693928216929116908b908d908f90612f85565b60405180910390a45050506000848152600460208190526040822082815560018101805474ffffffffffffffffffffffffffffffffffffffffff19169055600281018390556003810183905590810182905560058101829055600681019190915560078101805475ffffffffffffffffffffffffffffffffffffffffffff191690556008810180546001600160a01b031990811690915560098201805482169055600a9091018054909116905550505b5050565b6000828201838110156121085760405162461bcd60e51b81526004016103149061327b565b90505b92915050565b6000826121205750600061210b565b8282028284828161212d57fe5b04146121085760405162461bcd60e51b815260040161031490613560565b600080821161216c5760405162461bcd60e51b8152600401610314906133da565b81838161217557fe5b049392505050565b6001600160a01b0381166122a1576003546040517f2e1a7d4d0000000000000000000000000000000000000000000000000000000081526001600160a01b0390911690632e1a7d4d906121d4908590600401613a0f565b600060405180830381600087803b1580156121ee57600080fd5b505af1158015612202573d6000803e3d6000fd5b505050506122108383612987565b61229c57600360009054906101000a90046001600160a01b03166001600160a01b031663d0e30db0836040518263ffffffff1660e01b81526004016000604051808303818588803b15801561226457600080fd5b505af1158015612278573d6000803e3d6000fd5b505060035461229c93506001600160a01b031691508590508463ffffffff6129fe16565b61038f565b61038f6001600160a01b038216848463ffffffff6129fe16565b6001600160a01b03811661234c578134146122e85760405162461bcd60e51b8152600401610314906131e7565b600360009054906101000a90046001600160a01b03166001600160a01b031663d0e30db0836040518263ffffffff1660e01b81526004016000604051808303818588803b15801561233857600080fd5b505af1158015611ee2573d6000803e3d6000fd5b6040516370a0823160e01b815281906000906001600160a01b038316906370a082319061237d903090600401612f23565b60206040518083038186803b15801561239557600080fd5b505afa1580156123a9573d6000803e3d6000fd5b505050506040513d601f19601f820116820180604052508101906123cd9190612dbf565b90506123ea6001600160a01b03831633308763ffffffff612a8116565b6040516370a0823160e01b81526000906001600160a01b038416906370a0823190612419903090600401612f23565b60206040518083038186803b15801561243157600080fd5b505afa158015612445573d6000803e3d6000fd5b505050506040513d601f19601f820116820180604052508101906124699190612dbf565b90508061247c838763ffffffff6120e316565b146124995760405162461bcd60e51b8152600401610314906139b2565b5050505050565b6000828211156124c25760405162461bcd60e51b815260040161031490613346565b50900390565b6000818152600460205260408120600a0154819081906001600160a01b03161561250c576000848152600460205260409020600a01546001600160a01b0316612519565b6003546001600160a01b03165b9050612523612c4a565b506040805160a08101825260008681526004602081815284832060028082015486526001600160a01b0380891684880181905230888a01528c875285855260089093015481166060880152875180850189528681526080880152905487517ff1d5596b00000000000000000000000000000000000000000000000000000000815297519697929663095ea7b3966101009092049092169463f1d5596b94848201949093929083900390910190829087803b1580156125e057600080fd5b505af11580156125f4573d6000803e3d6000fd5b505050506040513d601f19601f820116820180604052508101906126189190612d06565b83516040517fffffffff0000000000000000000000000000000000000000000000000000000060e085901b168152612654929190600401612fbd565b602060405180830381600087803b15801561266e57600080fd5b505af1158015612682573d6000803e3d6000fd5b505050506040513d601f19601f820116820180604052508101906126a69190612d8b565b506002546000868152600460208190526040918290205491517f5bf624220000000000000000000000000000000000000000000000000000000081526101009093046001600160a01b031692635bf6242292612706929091869101613ac0565b600060405180830381600087803b15801561272057600080fd5b505af1158015612734573d6000803e3d6000fd5b50506040516370a0823160e01b8152600092506001600160a01b03851691506370a0823190612767903090600401612f23565b60206040518083038186803b15801561277f57600080fd5b505afa158015612793573d6000803e3d6000fd5b505050506040513d601f19601f820116820180604052508101906127b79190612dbf565b6002546000888152600460208190526040918290205491517fba3393990000000000000000000000000000000000000000000000000000000081529394506101009092046001600160a01b03169263ba339399926128189291879101613ac0565b600060405180830381600087803b15801561283257600080fd5b505af1925050508015612843575060015b6128e6576002546000878152600460208190526040918290205491517fb320f4590000000000000000000000000000000000000000000000000000000081526101009093046001600160a01b03169263b320f459926128a492909101613a0f565b600060405180830381600087803b1580156128be57600080fd5b505af11580156128d2573d6000803e3d6000fd5b506000975087965061298295505050505050565b6040516370a0823160e01b81526000906001600160a01b038516906370a0823190612915903090600401612f23565b60206040518083038186803b15801561292d57600080fd5b505afa158015612941573d6000803e3d6000fd5b505050506040513d601f19601f820116820180604052508101906129659190612dbf565b90506001612979828463ffffffff6124a016565b95509550505050505b915091565b60408051600080825260208201928390529182916001600160a01b0386169185916129b191612f07565b60006040518083038185875af1925050503d80600081146129ee576040519150601f19603f3d011682016040523d82523d6000602084013e6129f3565b606091505b509095945050505050565b61038f8363a9059cbb60e01b8484604051602401612a1d929190612fbd565b60408051601f198184030181529190526020810180517bffffffffffffffffffffffffffffffffffffffffffffffffffffffff167fffffffff0000000000000000000000000000000000000000000000000000000090931692909217909152612aa2565b6105f0846323b872dd60e01b858585604051602401612a1d93929190612f37565b6060612af7826040518060400160405280602081526020017f5361666545524332303a206c6f772d6c6576656c2063616c6c206661696c6564815250856001600160a01b0316612b319092919063ffffffff16565b80519091501561038f5780806020019051810190612b159190612d8b565b61038f5760405162461bcd60e51b8152600401610314906136f4565b6060612b408484600085612b4a565b90505b9392505050565b606082471015612b6c5760405162461bcd60e51b81526004016103149061337d565b612b7585612c0b565b612b915760405162461bcd60e51b8152600401610314906136bd565b60006060866001600160a01b03168587604051612bae9190612f07565b60006040518083038185875af1925050503d8060008114612beb576040519150601f19603f3d011682016040523d82523d6000602084013e612bf0565b606091505b5091509150612c00828286612c11565b979650505050505050565b3b151590565b60608315612c20575081612b43565b825115612c305782518084602001fd5b8160405162461bcd60e51b8152600401610314919061301e565b6040518060a001604052806000815260200160006001600160a01b0316815260200160006001600160a01b0316815260200160006001600160a01b03168152602001612c94612c99565b905290565b6040518060200160405280600081525090565b60008083601f840112612cbd578182fd5b50813567ffffffffffffffff811115612cd4578182fd5b6020830191508360208083028501011115612cee57600080fd5b9250929050565b803560ff8116811461210b57600080fd5b600060208284031215612d17578081fd5b815161210881613ba3565b60008060008060408587031215612d37578283fd5b843567ffffffffffffffff80821115612d4e578485fd5b612d5a88838901612cac565b90965094506020870135915080821115612d72578384fd5b50612d7f87828801612cac565b95989497509550505050565b600060208284031215612d9c578081fd5b815161210881613bbb565b600060208284031215612db8578081fd5b5035919050565b600060208284031215612dd0578081fd5b5051919050565b60008060008060008060008060006101208a8c031215612df5578485fd5b8935985060208a0135612e0781613ba3565b975060408a0135965060608a0135955060808a01359450612e2b8b60a08c01612cf5565b935060c08a0135612e3b81613ba3565b9250612e4a8b60e08c01612cf5565b91506101008a0135612e5b81613ba3565b809150509295985092959850929598565b60008060408385031215612e7e578182fd5b823591506020830135612e9081613bbb565b809150509250929050565b600080600060608486031215612eaf578283fd5b833592506020840135612ec181613bbb565b929592945050506040919091013590565b60008060408385031215612ee4578182fd5b50508035926020909101359150565b6001600160a01b03169052565b60ff169052565b60008251612f19818460208701613b77565b9190910192915050565b6001600160a01b0391909116815260200190565b6001600160a01b039384168152919092166020820152604081019190915260600190565b6001600160a01b039490941684526020840192909252151560408301521515606082015260800190565b6001600160a01b039687168152948616602086015292851660408501526060840191909152608083015290911660a082015260c00190565b6001600160a01b03929092168252602082015260400190565b901515815260200190565b9115158252602082015260400190565b7fffffffff0000000000000000000000000000000000000000000000000000000091909116815260200190565b600060208252825180602084015261303d816040850160208701613b77565b601f01601f19169190910160400192915050565b6020808252601c908201527f4d757374206265206c697374696e6720696e7465726d65646961727900000000604082015260600190565b60208082526013908201527f4d7573742073656e64206c697374507269636500000000000000000000000000604082015260600190565b60208082526012908201527f4c697374206973206e6f74206163746976650000000000000000000000000000604082015260600190565b6020808252601f908201527f42696420696e76616c696420666f722073686172652073706c697474696e6700604082015260600190565b60208082526027908201527f43616e27742063616e63656c20616e206c697374696e67206f6e63652069742760408201527f7320626567756e00000000000000000000000000000000000000000000000000606082015260800190565b6020808252602b908201527f4d757374206265206c697374696e6720696e7465726d656469617279206f722060408201527f746f6b656e206f776e6572000000000000000000000000000000000000000000606082015260800190565b60208082526034908201527f53656e74204d4f5449462056616c756520646f6573206e6f74206d617463682060408201527f7370656369666965642062696420616d6f756e74000000000000000000000000606082015260800190565b60208082526015908201527f4c697374696e6720646f65736e27742065786973740000000000000000000000604082015260600190565b6020808252601b908201527f536166654d6174683a206164646974696f6e206f766572666c6f770000000000604082015260600190565b6020808252601b908201527f4c697374696e672068617320616c726561647920737461727465640000000000604082015260600190565b60208082526036908201527f4c656e677468206f66206c697374696e6720696473206d75737420626520657160408201527f75616c20746f206f72206c657373207468616e20353000000000000000000000606082015260800190565b6020808252601e908201527f536166654d6174683a207375627472616374696f6e206f766572666c6f770000604082015260600190565b60208082526026908201527f416464726573733a20696e73756666696369656e742062616c616e636520666f60408201527f722063616c6c0000000000000000000000000000000000000000000000000000606082015260800190565b6020808252601a908201527f536166654d6174683a206469766973696f6e206279207a65726f000000000000604082015260600190565b6020808252601d908201527f4c697374696e6720696473206d757374206e6f7420626520656d707479000000604082015260600190565b6020808252602c908201527f4c656e677468206f66206c697374696e672069647320616e6420616d6f756e7460408201527f73206d757374206d617463680000000000000000000000000000000000000000606082015260800190565b60208082526028908201527f4c697374696e67206d75737420626520617070726f76656420627920696e746560408201527f726d656469617279000000000000000000000000000000000000000000000000606082015260800190565b602080825260409082018190527f4d7573742073656e64206d6f7265207468616e206c6173742062696420627920908201527f6d696e426964496e6372656d656e7450657263656e7461676520616d6f756e74606082015260800190565b60208082526021908201527f536166654d6174683a206d756c7469706c69636174696f6e206f766572666c6f60408201527f7700000000000000000000000000000000000000000000000000000000000000606082015260800190565b60208082526018908201527f4c6973742068617320616c726561647920737461727465640000000000000000604082015260600190565b6020808252818101527f4d7573742062652062696464696e67206f722064726f70206c69737454797065604082015260600190565b6020808252601c908201527f4d757374206265206669786564207072696365206c6973745479706500000000604082015260600190565b60208082526035908201527f43616e206f6e6c792062652063616c6c6564206279206c697374696e6720637260408201527f6561746f72206f7220696e7465726d6564696172790000000000000000000000606082015260800190565b6020808252601d908201527f416464726573733a2063616c6c20746f206e6f6e2d636f6e7472616374000000604082015260600190565b6020808252602a908201527f5361666545524332303a204552433230206f7065726174696f6e20646964206e60408201527f6f74207375636365656400000000000000000000000000000000000000000000606082015260800190565b6020808252602f908201527f696e7465726d65646961727946656550657263656e74616765206d757374206260408201527f65206c657373207468616e203130300000000000000000000000000000000000606082015260800190565b6020808252602d908201527f43616c6c6572206d75737420626520617070726f766564206f72206f776e657260408201527f20666f7220746f6b656e20696400000000000000000000000000000000000000606082015260800190565b6020808252600f908201527f4c697374696e6720657870697265640000000000000000000000000000000000604082015260600190565b60208082526018908201527f4c697374696e67206861736e277420636f6d706c657465640000000000000000604082015260600190565b6020808252601f908201527f5265656e7472616e637947756172643a207265656e7472616e742063616c6c00604082015260600190565b60208082526014908201527f4c697374696e67206861736e277420626567756e000000000000000000000000604082015260600190565b60208082526015908201527f4d7573742062652064726f70206c697374547970650000000000000000000000604082015260600190565b60208082526019908201527f4d757374206265206c69737420696e7465726d65646961727900000000000000604082015260600190565b6020808252602f908201527f746f6b656e436f6e747261637420646f6573206e6f7420737570706f7274204560408201527f524337323120696e746572666163650000000000000000000000000000000000606082015260800190565b60208082526034908201527f546f6b656e207472616e736665722063616c6c20646964206e6f74207472616e60408201527f7366657220657870656374656420616d6f756e74000000000000000000000000606082015260800190565b90815260200190565b60006101c0820190508f82526001600160a01b038f1660208301528d151560408301528c60608301528b60808301528a60a08301528960c08301528860e0830152613a67610100830189612f00565b613a75610120830188612f00565b613a83610140830187612ef3565b613a91610160830186612ef3565b613a9f610180830185612ef3565b613aad6101a0830184612ef3565b9f9e505050505050505050505050505050565b600060c0820190508382528251602083015260208301516001600160a01b038082166040850152806040860151166060850152806060860151166080850152505060808301515160a08301529392505050565b918252602082015260400190565b9788526020880196909652604087019490945260ff92831660608701526001600160a01b039182166080870152811660a0860152911660c08401521660e08201526101000190565b60ff91909116815260200190565b60005b83811015613b92578181015183820152602001613b7a565b838111156105f05750506000910152565b6001600160a01b0381168114613bb857600080fd5b50565b8015158114613bb857600080fdfea2646970667358221220f4595696ff871c7bca3832940eab383d8727c5d31fcee32583b9e0f12a55245c64736f6c63430006080033",
  "linkReferences": {},
  "deployedLinkReferences": {}
}