{
  "_format": "hh-sol-artifact-1",
  "contractName": "ItemListing",
  "sourceName": "contracts/ItemListing.sol",
  "abi": [
    {
      "inputs": [
        {
          "internalType": "address",
          "name": "_motif",
          "type": "address"
        },
        {
          "internalType": "address",
          "name": "_wmotif",
          "type": "address"
        },
        {
          "internalType": "uint256",
          "name": "itemIdentifierCode",
          "type": "uint256"
        }
      ],
      "stateMutability": "nonpayable",
      "type": "constructor"
    },
    {
      "anonymous": false,
      "inputs": [
        {
          "indexed": true,
          "internalType": "uint256",
          "name": "listingId",
          "type": "uint256"
        },
        {
          "indexed": true,
          "internalType": "uint256",
          "name": "tokenId",
          "type": "uint256"
        },
        {
          "indexed": true,
          "internalType": "address",
          "name": "tokenContract",
          "type": "address"
        },
        {
          "indexed": false,
          "internalType": "bool",
          "name": "approved",
          "type": "bool"
        }
      ],
      "name": "ListingApprovalUpdated",
      "type": "event"
    },
    {
      "anonymous": false,
      "inputs": [
        {
          "indexed": true,
          "internalType": "uint256",
          "name": "listingId",
          "type": "uint256"
        },
        {
          "indexed": true,
          "internalType": "uint256",
          "name": "tokenId",
          "type": "uint256"
        },
        {
          "indexed": true,
          "internalType": "address",
          "name": "tokenContract",
          "type": "address"
        },
        {
          "indexed": false,
          "internalType": "address",
          "name": "sender",
          "type": "address"
        },
        {
          "indexed": false,
          "internalType": "uint256",
          "name": "value",
          "type": "uint256"
        },
        {
          "indexed": false,
          "internalType": "bool",
          "name": "firstBid",
          "type": "bool"
        },
        {
          "indexed": false,
          "internalType": "bool",
          "name": "extended",
          "type": "bool"
        }
      ],
      "name": "ListingBid",
      "type": "event"
    },
    {
      "anonymous": false,
      "inputs": [
        {
          "indexed": true,
          "internalType": "uint256",
          "name": "listingId",
          "type": "uint256"
        },
        {
          "indexed": true,
          "internalType": "uint256",
          "name": "tokenId",
          "type": "uint256"
        },
        {
          "indexed": true,
          "internalType": "address",
          "name": "tokenContract",
          "type": "address"
        },
        {
          "indexed": false,
          "internalType": "address",
          "name": "tokenOwner",
          "type": "address"
        }
      ],
      "name": "ListingCanceled",
      "type": "event"
    },
    {
      "anonymous": false,
      "inputs": [
        {
          "indexed": true,
          "internalType": "uint256",
          "name": "listingId",
          "type": "uint256"
        },
        {
          "indexed": true,
          "internalType": "uint256",
          "name": "tokenId",
          "type": "uint256"
        },
        {
          "indexed": true,
          "internalType": "address",
          "name": "tokenContract",
          "type": "address"
        },
        {
          "indexed": false,
          "internalType": "uint256",
          "name": "startsAt",
          "type": "uint256"
        },
        {
          "indexed": false,
          "internalType": "uint256",
          "name": "duration",
          "type": "uint256"
        },
        {
          "indexed": false,
          "internalType": "uint256",
          "name": "listPrice",
          "type": "uint256"
        },
        {
          "indexed": false,
          "internalType": "uint8",
          "name": "listType",
          "type": "uint8"
        },
        {
          "indexed": false,
          "internalType": "address",
          "name": "tokenOwner",
          "type": "address"
        },
        {
          "indexed": false,
          "internalType": "address",
          "name": "intermediary",
          "type": "address"
        },
        {
          "indexed": false,
          "internalType": "uint8",
          "name": "intermediaryFeePercentage",
          "type": "uint8"
        },
        {
          "indexed": false,
          "internalType": "address",
          "name": "listCurrency",
          "type": "address"
        }
      ],
      "name": "ListingCreated",
      "type": "event"
    },
    {
      "anonymous": false,
      "inputs": [
        {
          "indexed": true,
          "internalType": "uint256",
          "name": "listingId",
          "type": "uint256"
        },
        {
          "indexed": true,
          "internalType": "uint256",
          "name": "tokenId",
          "type": "uint256"
        },
        {
          "indexed": true,
          "internalType": "address",
          "name": "tokenContract",
          "type": "address"
        },
        {
          "indexed": false,
          "internalType": "bool",
          "name": "approved",
          "type": "bool"
        },
        {
          "indexed": false,
          "internalType": "uint256",
          "name": "startsAt",
          "type": "uint256"
        }
      ],
      "name": "ListingDropApprovalUpdated",
      "type": "event"
    },
    {
      "anonymous": false,
      "inputs": [
        {
          "indexed": true,
          "internalType": "uint256",
          "name": "listingId",
          "type": "uint256"
        },
        {
          "indexed": true,
          "internalType": "uint256",
          "name": "tokenId",
          "type": "uint256"
        },
        {
          "indexed": true,
          "internalType": "address",
          "name": "tokenContract",
          "type": "address"
        },
        {
          "indexed": false,
          "internalType": "uint256",
          "name": "duration",
          "type": "uint256"
        }
      ],
      "name": "ListingDurationExtended",
      "type": "event"
    },
    {
      "anonymous": false,
      "inputs": [
        {
          "indexed": true,
          "internalType": "uint256",
          "name": "listingId",
          "type": "uint256"
        },
        {
          "indexed": true,
          "internalType": "uint256",
          "name": "tokenId",
          "type": "uint256"
        },
        {
          "indexed": true,
          "internalType": "address",
          "name": "tokenContract",
          "type": "address"
        },
        {
          "indexed": false,
          "internalType": "address",
          "name": "tokenOwner",
          "type": "address"
        },
        {
          "indexed": false,
          "internalType": "address",
          "name": "intermediary",
          "type": "address"
        },
        {
          "indexed": false,
          "internalType": "address",
          "name": "winner",
          "type": "address"
        },
        {
          "indexed": false,
          "internalType": "uint256",
          "name": "amount",
          "type": "uint256"
        },
        {
          "indexed": false,
          "internalType": "uint256",
          "name": "intermediaryFee",
          "type": "uint256"
        },
        {
          "indexed": false,
          "internalType": "address",
          "name": "listCurrency",
          "type": "address"
        }
      ],
      "name": "ListingEnded",
      "type": "event"
    },
    {
      "anonymous": false,
      "inputs": [
        {
          "indexed": true,
          "internalType": "uint256",
          "name": "listingId",
          "type": "uint256"
        },
        {
          "indexed": true,
          "internalType": "uint256",
          "name": "tokenId",
          "type": "uint256"
        },
        {
          "indexed": true,
          "internalType": "address",
          "name": "tokenContract",
          "type": "address"
        },
        {
          "indexed": false,
          "internalType": "uint256",
          "name": "listPrice",
          "type": "uint256"
        }
      ],
      "name": "ListingListPriceUpdated",
      "type": "event"
    },
    {
      "stateMutability": "payable",
      "type": "fallback"
    },
    {
      "inputs": [
        {
          "internalType": "uint256",
          "name": "listingId",
          "type": "uint256"
        }
      ],
      "name": "cancelListing",
      "outputs": [],
      "stateMutability": "nonpayable",
      "type": "function"
    },
    {
      "inputs": [
        {
          "internalType": "uint256",
          "name": "listingId",
          "type": "uint256"
        },
        {
          "internalType": "uint256",
          "name": "amount",
          "type": "uint256"
        }
      ],
      "name": "createBid",
      "outputs": [],
      "stateMutability": "payable",
      "type": "function"
    },
    {
      "inputs": [
        {
          "internalType": "uint256",
          "name": "tokenId",
          "type": "uint256"
        },
        {
          "internalType": "address",
          "name": "tokenContract",
          "type": "address"
        },
        {
          "internalType": "uint256",
          "name": "startsAt",
          "type": "uint256"
        },
        {
          "internalType": "uint256",
          "name": "duration",
          "type": "uint256"
        },
        {
          "internalType": "uint256",
          "name": "listPrice",
          "type": "uint256"
        },
        {
          "internalType": "uint8",
          "name": "listType",
          "type": "uint8"
        },
        {
          "internalType": "address payable",
          "name": "intermediary",
          "type": "address"
        },
        {
          "internalType": "uint8",
          "name": "intermediaryFeePercentage",
          "type": "uint8"
        },
        {
          "internalType": "address",
          "name": "listCurrency",
          "type": "address"
        }
      ],
      "name": "createListing",
      "outputs": [
        {
          "internalType": "uint256",
          "name": "",
          "type": "uint256"
        }
      ],
      "stateMutability": "nonpayable",
      "type": "function"
    },
    {
      "inputs": [
        {
          "internalType": "uint256",
          "name": "listingId",
          "type": "uint256"
        },
        {
          "internalType": "uint256",
          "name": "amount",
          "type": "uint256"
        }
      ],
      "name": "endFixedPriceListing",
      "outputs": [],
      "stateMutability": "payable",
      "type": "function"
    },
    {
      "inputs": [
        {
          "internalType": "uint256[]",
          "name": "listingIds",
          "type": "uint256[]"
        },
        {
          "internalType": "uint256[]",
          "name": "amounts",
          "type": "uint256[]"
        }
      ],
      "name": "endFixedPriceListings",
      "outputs": [],
      "stateMutability": "payable",
      "type": "function"
    },
    {
      "inputs": [
        {
          "internalType": "uint256",
          "name": "listingId",
          "type": "uint256"
        }
      ],
      "name": "endListing",
      "outputs": [],
      "stateMutability": "nonpayable",
      "type": "function"
    },
    {
      "inputs": [],
      "name": "itemIdentifier",
      "outputs": [
        {
          "internalType": "uint256",
          "name": "",
          "type": "uint256"
        }
      ],
      "stateMutability": "view",
      "type": "function"
    },
    {
      "inputs": [
        {
          "internalType": "uint256",
          "name": "",
          "type": "uint256"
        }
      ],
      "name": "listings",
      "outputs": [
        {
          "internalType": "uint256",
          "name": "tokenId",
          "type": "uint256"
        },
        {
          "internalType": "address",
          "name": "tokenContract",
          "type": "address"
        },
        {
          "internalType": "bool",
          "name": "approved",
          "type": "bool"
        },
        {
          "internalType": "uint256",
          "name": "amount",
          "type": "uint256"
        },
        {
          "internalType": "uint256",
          "name": "startsAt",
          "type": "uint256"
        },
        {
          "internalType": "uint256",
          "name": "duration",
          "type": "uint256"
        },
        {
          "internalType": "uint256",
          "name": "firstBidTime",
          "type": "uint256"
        },
        {
          "internalType": "uint256",
          "name": "listPrice",
          "type": "uint256"
        },
        {
          "internalType": "uint8",
          "name": "listType",
          "type": "uint8"
        },
        {
          "internalType": "uint8",
          "name": "intermediaryFeePercentage",
          "type": "uint8"
        },
        {
          "internalType": "address",
          "name": "tokenOwner",
          "type": "address"
        },
        {
          "internalType": "address payable",
          "name": "bidder",
          "type": "address"
        },
        {
          "internalType": "address payable",
          "name": "intermediary",
          "type": "address"
        },
        {
          "internalType": "address",
          "name": "listCurrency",
          "type": "address"
        }
      ],
      "stateMutability": "view",
      "type": "function"
    },
    {
      "inputs": [],
      "name": "minBidIncrementPercentage",
      "outputs": [
        {
          "internalType": "uint8",
          "name": "",
          "type": "uint8"
        }
      ],
      "stateMutability": "view",
      "type": "function"
    },
    {
      "inputs": [],
      "name": "motif",
      "outputs": [
        {
          "internalType": "address",
          "name": "",
          "type": "address"
        }
      ],
      "stateMutability": "view",
      "type": "function"
    },
    {
      "inputs": [
        {
          "internalType": "uint256",
          "name": "listingId",
          "type": "uint256"
        },
        {
          "internalType": "bool",
          "name": "approved",
          "type": "bool"
        }
      ],
      "name": "setListingApproval",
      "outputs": [],
      "stateMutability": "nonpayable",
      "type": "function"
    },
    {
      "inputs": [
        {
          "internalType": "uint256",
          "name": "listingId",
          "type": "uint256"
        },
        {
          "internalType": "bool",
          "name": "approved",
          "type": "bool"
        },
        {
          "internalType": "uint256",
          "name": "startsAt",
          "type": "uint256"
        }
      ],
      "name": "setListingDropApproval",
      "outputs": [],
      "stateMutability": "nonpayable",
      "type": "function"
    },
    {
      "inputs": [
        {
          "internalType": "uint256",
          "name": "listingId",
          "type": "uint256"
        },
        {
          "internalType": "uint256",
          "name": "listPrice",
          "type": "uint256"
        }
      ],
      "name": "setListingListPrice",
      "outputs": [],
      "stateMutability": "nonpayable",
      "type": "function"
    },
    {
      "inputs": [],
      "name": "timeBuffer",
      "outputs": [
        {
          "internalType": "uint256",
          "name": "",
          "type": "uint256"
        }
      ],
      "stateMutability": "view",
      "type": "function"
    },
    {
      "inputs": [],
      "name": "wmotifAddress",
      "outputs": [
        {
          "internalType": "address",
          "name": "",
          "type": "address"
        }
      ],
      "stateMutability": "view",
      "type": "function"
    },
    {
      "stateMutability": "payable",
      "type": "receive"
    }
  ],
  "bytecode": "0x60806040523480156200001157600080fd5b5060405162003dc438038062003dc483398101604081905262000034916200015d565b60016000556040516301ffc9a760e01b81526001600160a01b038416906301ffc9a7906200006e906380ac58cd60e01b90600401620001c8565b60206040518083038186803b1580156200008757600080fd5b505afa1580156200009c573d6000803e3d6000fd5b505050506040513d601f19601f82011682018060405250810190620000c291906200019f565b620000ea5760405162461bcd60e51b8152600401620000e190620001dd565b60405180910390fd5b60028054600380546001600160a01b0319166001600160a01b039586161790556104b06001556005610100600160a81b031990911661010095909416949094029290921760ff19168317909155905562000214565b80516001600160a01b03811681146200015757600080fd5b92915050565b60008060006060848603121562000172578283fd5b6200017e85856200013f565b92506200018f85602086016200013f565b9150604084015190509250925092565b600060208284031215620001b1578081fd5b81518015158114620001c1578182fd5b9392505050565b6001600160e01b031991909116815260200190565b6020808252601d908201527f446f65736e277420737570706f7274204e465420696e74657266616365000000604082015260600190565b613ba080620002246000396000f3fe6080604052600436106100ec5760003560e01c8063b296024d1161008a578063e273aece11610059578063e273aece14610264578063e57e103614610279578063ec91f2a41461028c578063fac2e3d8146102a1576100f3565b8063b296024d146101d5578063b7751c71146101f7578063c89e09851461020a578063de74e57b1461022a576100f3565b8063305a67a8116100c6578063305a67a81461016257806350a14d731461018257806383872bc1146101a257806394d2ca1d146101c2576100f3565b80630d37f7d4146100f557806312604245146101205780631582f80114610140576100f3565b366100f357005b005b34801561010157600080fd5b5061010a6102c1565b60405161011791906139b0565b60405180910390f35b34801561012c57600080fd5b506100f361013b366004612dd6565b6102c7565b34801561014c57600080fd5b5061015561036d565b6040516101179190612e8d565b34801561016e57600080fd5b506100f361017d366004612d11565b61037c565b34801561018e57600080fd5b506100f361019d366004612e05565b61046e565b3480156101ae57600080fd5b5061010a6101bd366004612d41565b610541565b6100f36101d0366004612c8c565b610b2b565b3480156101e157600080fd5b506101ea610bfd565b6040516101179190613b0a565b6100f3610205366004612e3c565b610c06565b34801561021657600080fd5b506100f3610225366004612e3c565b6111a2565b34801561023657600080fd5b5061024a610245366004612d11565b6112c3565b6040516101179e9d9c9b9a999897969594939291906139b9565b34801561027057600080fd5b50610155611349565b6100f3610287366004612e3c565b61135d565b34801561029857600080fd5b5061010a61138f565b3480156102ad57600080fd5b506100f36102bc366004612d11565b611395565b60055481565b816102d18161179e565b6102f65760405162461bcd60e51b81526004016102ed906131e5565b60405180910390fd5b6000838152600460205260409020600901546001600160a01b0316331461032f5760405162461bcd60e51b81526004016102ed90612fbb565b6000838152600460205260409020600501541561035e5760405162461bcd60e51b81526004016102ed90613253565b61036883836117c4565b505050565b6003546001600160a01b031681565b6002600054141561039f5760405162461bcd60e51b81526004016102ed9061381a565b6002600055806103ae8161179e565b6103ca5760405162461bcd60e51b81526004016102ed906131e5565b6000828152600460205260409020600701546201000090046001600160a01b031633148061041157506000828152600460205260409020600901546001600160a01b031633145b61042d5760405162461bcd60e51b81526004016102ed90613601565b6000828152600460205260409020600501541561045c5760405162461bcd60e51b81526004016102ed906130ce565b6104658261183b565b50506001600055565b826104788161179e565b6104945760405162461bcd60e51b81526004016102ed906131e5565b60008481526004602052604090206007015460ff166002146104c85760405162461bcd60e51b81526004016102ed90613888565b6000848152600460205260409020600901546001600160a01b031633146105015760405162461bcd60e51b81526004016102ed906138bf565b600084815260046020526040902060050154156105305760405162461bcd60e51b81526004016102ed9061355e565b61053b8484846119dc565b50505050565b6000600260005414156105665760405162461bcd60e51b81526004016102ed9061381a565b60026000556040517f01ffc9a70000000000000000000000000000000000000000000000000000000081526001600160a01b038a16906301ffc9a7906105d0907f80ac58cd0000000000000000000000000000000000000000000000000000000090600401612f5b565b60206040518083038186803b1580156105e857600080fd5b505afa1580156105fc573d6000803e3d6000fd5b505050506040513d601f19601f820116820180604052508101906106209190612cf5565b61063c5760405162461bcd60e51b81526004016102ed906138f6565b60648360ff161061065f5760405162461bcd60e51b81526004016102ed906136f2565b6040517f6352211e0000000000000000000000000000000000000000000000000000000081526000906001600160a01b038b1690636352211e906106a7908e906004016139b0565b60206040518083038186803b1580156106bf57600080fd5b505afa1580156106d3573d6000803e3d6000fd5b505050506040513d601f19601f820116820180604052508101906106f79190612c70565b6040517f081812fc0000000000000000000000000000000000000000000000000000000081529091506001600160a01b038b169063081812fc9061073f908e906004016139b0565b60206040518083038186803b15801561075757600080fd5b505afa15801561076b573d6000803e3d6000fd5b505050506040513d601f19601f8201168201806040525081019061078f9190612c70565b6001600160a01b0316336001600160a01b031614806107b65750336001600160a01b038216145b6107d25760405162461bcd60e51b81526004016102ed9061374f565b60006107de6006611a50565b9050604051806101c001604052808d81526020018c6001600160a01b03168152602001600015158152602001600081526020018b81526020018a8152602001600081526020018981526020018860ff1681526020018660ff168152602001836001600160a01b0316815260200160006001600160a01b03168152602001876001600160a01b03168152602001856001600160a01b0316815250600460008381526020019081526020016000206000820151816000015560208201518160010160006101000a8154816001600160a01b0302191690836001600160a01b0316021790555060408201518160010160146101000a81548160ff021916908315150217905550606082015181600201556080820151816003015560a0820151816004015560c0820151816005015560e082015181600601556101008201518160070160006101000a81548160ff021916908360ff1602179055506101208201518160070160016101000a81548160ff021916908360ff1602179055506101408201518160070160026101000a8154816001600160a01b0302191690836001600160a01b031602179055506101608201518160080160006101000a8154816001600160a01b0302191690836001600160a01b031602179055506101808201518160090160006101000a8154816001600160a01b0302191690836001600160a01b031602179055506101a082015181600a0160006101000a8154816001600160a01b0302191690836001600160a01b031602179055509050508a6001600160a01b03166323b872dd83308f6040518463ffffffff1660e01b8152600401610a4293929190612ea1565b600060405180830381600087803b158015610a5c57600080fd5b505af1158015610a70573d6000803e3d6000fd5b50505050610a7e6006611a54565b8a6001600160a01b03168c827f804f18cb6eb2eeef9ae4bfec904ef4d2b03d3364418461d62d4919c3a746407a8d8d8d8d898e8e8e604051610ac7989796959493929190613ac2565b60405180910390a46000818152600460205260409020600901546001600160a01b03161580610b075750816001600160a01b0316866001600160a01b0316145b15610b1757610b178160016117c4565b60016000559b9a5050505050505050505050565b60026000541415610b4e5760405162461bcd60e51b81526004016102ed9061381a565b600260005582610b705760405162461bcd60e51b81526004016102ed906133b2565b6032831115610b915760405162461bcd60e51b81526004016102ed9061328a565b828114610bb05760405162461bcd60e51b81526004016102ed906133e9565b60005b83811015610bf157610be9858583818110610bca57fe5b90506020020135848484818110610bdd57fe5b90506020020135611a5d565b600101610bb3565b50506001600055505050565b60025460ff1681565b81610c108161179e565b610c2c5760405162461bcd60e51b81526004016102ed906131e5565b60026000541415610c4f5760405162461bcd60e51b81526004016102ed9061381a565b6002600090815583815260046020526040902060088101546001909101546001600160a01b0390911690600160a01b900460ff16610c9f5760405162461bcd60e51b81526004016102ed90613446565b60008481526004602052604090206007015460ff1660011480610cd6575060008481526004602052604090206007015460ff166002145b610cf25760405162461bcd60e51b81526004016102ed90613595565b600084815260046020526040902060030154421015610d235760405162461bcd60e51b81526004016102ed90613060565b6000848152600460205260409020600501541580610d695750600084815260046020819052604090912090810154600590910154610d669163ffffffff61204d16565b42105b610d855760405162461bcd60e51b81526004016102ed906137ac565b600084815260046020526040902060060154831015610db65760405162461bcd60e51b81526004016102ed90613029565b60028054600086815260046020526040902090910154610e1491610df691606491610dea919060ff1663ffffffff61207b16565b9063ffffffff6120b516565b6000868152600460205260409020600201549063ffffffff61204d16565b831015610e335760405162461bcd60e51b81526004016102ed906134a3565b600260019054906101000a90046001600160a01b03166001600160a01b031663f1d5596b6040518163ffffffff1660e01b8152600401602060405180830381600087803b158015610e8357600080fd5b505af1158015610e97573d6000803e3d6000fd5b505050506040513d601f19601f82011682018060405250810190610ebb9190612c70565b6000858152600460208190526040918290205491516302e8fe1360e01b81526001600160a01b0393909316926302e8fe1392610efb929091889101613ab4565b60206040518083038186803b158015610f1357600080fd5b505afa158015610f27573d6000803e3d6000fd5b505050506040513d601f19601f82011682018060405250810190610f4b9190612cf5565b610f675760405162461bcd60e51b81526004016102ed90613097565b600084815260046020526040902060050154610f9757600084815260046020526040902042600590910155610fd3565b6001600160a01b03811615610fd35760008481526004602052604090206002810154600a90910154610fd39183916001600160a01b03166120e7565b6000848152600460205260409020600a0154610ff99084906001600160a01b0316612225565b60008481526004602081905260408220600281018690556008810180546001600160a01b03191633179055600154918101546005909101546110529142916110469163ffffffff61204d16565b9063ffffffff61240a16565b10156110c6576000858152600460208190526040909120908101546005909101546110ad906110a090611091904290611046908663ffffffff61204d16565b6001549063ffffffff61240a16565b829063ffffffff61204d16565b6000878152600460208190526040909120015550600190505b600085815260046020526040908190206001810154905491516001600160a01b03918216929188917fdf3c258fd5ebb54ac1a83c73feafacc466858d3badc3dda9c4034b0da1da54d9916111249133918b91908a1615908990612ec5565b60405180910390a48015610bf15760008581526004602081905260409182902060018101548154919092015492516001600160a01b0390921692909188917f7c5d8b1980b451e2d8e5887c47bfdb1153d8b8de54ca953d110c9ec926dba3e39161118e91906139b0565b60405180910390a450506001600055505050565b816111ac8161179e565b6111c85760405162461bcd60e51b81526004016102ed906131e5565b6000838152600460205260409020600901546001600160a01b031633148061120f57506000838152600460205260409020600701546201000090046001600160a01b031633145b61122b5760405162461bcd60e51b81526004016102ed9061312b565b6000838152600460205260409020600501541561125a5760405162461bcd60e51b81526004016102ed90613253565b60008381526004602052604090819020600681018490556001810154905491516001600160a01b03909116919085907f0409843698c80a52d5e9991fdf99f888ac3f2282b93ddd87bbb63df422907e94906112b69087906139b0565b60405180910390a4505050565b600460208190526000918252604090912080546001820154600283015460038401549484015460058501546006860154600787015460088801546009890154600a9099015497996001600160a01b038089169a60ff600160a01b909a048a169a98999298858416956101008104909416946201000090940483169383169291821691168e565b60025461010090046001600160a01b031681565b600260005414156113805760405162461bcd60e51b81526004016102ed9061381a565b60026000556104658282611a5d565b60015481565b8061139f8161179e565b6113bb5760405162461bcd60e51b81526004016102ed906131e5565b600260005414156113de5760405162461bcd60e51b81526004016102ed9061381a565b600260009081558281526004602052604090206007015460ff166001148061141a575060008281526004602052604090206007015460ff166002145b6114365760405162461bcd60e51b81526004016102ed90613595565b6000828152600460205260409020600501546114645760405162461bcd60e51b81526004016102ed90613851565b6000828152600460205260409020600301544210156114955760405162461bcd60e51b81526004016102ed90613060565b6000828152600460208190526040909120908101546005909101546114bf9163ffffffff61204d16565b4210156114de5760405162461bcd60e51b81526004016102ed906137e3565b6000828152600460205260408120600a01546001600160a01b03161561151e576000838152600460205260409020600a01546001600160a01b031661152b565b6003546001600160a01b03165b60008481526004602052604081206002015491925090818061154c87612432565b935091508290506001821515146115a657600087815260046020526040902060088101546002820154600a90920154611593926001600160a01b03928316929091166120e7565b61159c8761183b565b5050505050610465565b6000878152600460205260409020600901546001600160a01b031615611638576000878152600460205260409020600701546115f290606490610dea908690610100900460ff1661207b565b9350611604838563ffffffff61240a16565b60008881526004602052604090206009810154600a90910154919450611638916001600160a01b03918216918791166120e7565b60008781526004602052604090206007810154600a9091015461166f916001600160a01b03620100009091048116918691166120e7565b60008781526004602052604090819020600181015481546007830154600984015460089094015494516001600160a01b039384169592948d947f334843dd102fb480fd982e331134a746cae45483f35aa91db449e96cb90cc5f1946116e994620100009004821693928216929116908b908d908f90612eef565b60405180910390a45050506000938452505060046020819052604083208381556001808201805474ffffffffffffffffffffffffffffffffffffffffff191690556002820185905560038201859055918101849055600581018490556006810184905560078101805475ffffffffffffffffffffffffffffffffffffffffffff191690556008810180546001600160a01b031990811690915560098201805482169055600a9091018054909116905590915550565b6000908152600460205260409020600701546201000090046001600160a01b0316151590565b6000828152600460205260409081902060018101805460ff60a01b1916600160a01b851515021790819055905491516001600160a01b03909116919084907f301b3a878e4bfbb57bd5babb78545aff93752440eb359d65b3ad34de32d842fc9061182f908690612f40565b60405180910390a45050565b60008181526004602081905260409182902060078101546001820154915493517f42842e0e000000000000000000000000000000000000000000000000000000008152620100009091046001600160a01b03908116949216926342842e0e926118a992309287929101612ea1565b600060405180830381600087803b1580156118c357600080fd5b505af11580156118d7573d6000803e3d6000fd5b505050600083815260046020526040908190206001810154905491516001600160a01b03909116925084907fd5074712d772916d5592447e134f0f148b438068d1cd2559a4b2ab8990c0fba09061192f908690612e8d565b60405180910390a4506000908152600460208190526040822082815560018101805474ffffffffffffffffffffffffffffffffffffffffff19169055600281018390556003810183905590810182905560058101829055600681019190915560078101805475ffffffffffffffffffffffffffffffffffffffffffff191690556008810180546001600160a01b031990811690915560098201805482169055600a90910180549091169055565b6000838152600460205260409081902060018101805460ff60a01b1916600160a01b86151502179081905560038201849055905491516001600160a01b03909116919085907f366ba2ff3ae87084a6b770c4ac0371bf0647243b3ab1a7f5c751d29322aa6161906112b69087908790612f4b565b5490565b80546001019055565b611a668261179e565b611a825760405162461bcd60e51b81526004016102ed906131e5565b600082815260046020526040902060010154600160a01b900460ff16611aba5760405162461bcd60e51b81526004016102ed90613446565b60008281526004602052604090206007015460ff16600314611aee5760405162461bcd60e51b81526004016102ed906135ca565b600082815260046020526040902060030154421015611b1f5760405162461bcd60e51b81526004016102ed90613060565b6000828152600460205260409020600501541580611b655750600082815260046020819052604090912090810154600590910154611b629163ffffffff61204d16565b42105b611b815760405162461bcd60e51b81526004016102ed906137ac565b6000828152600460205260409020600601548114611bb15760405162461bcd60e51b81526004016102ed90612ff2565b600260019054906101000a90046001600160a01b03166001600160a01b031663f1d5596b6040518163ffffffff1660e01b8152600401602060405180830381600087803b158015611c0157600080fd5b505af1158015611c15573d6000803e3d6000fd5b505050506040513d601f19601f82011682018060405250810190611c399190612c70565b6000838152600460208190526040918290205491516302e8fe1360e01b81526001600160a01b0393909316926302e8fe1392611c79929091869101613ab4565b60206040518083038186803b158015611c9157600080fd5b505afa158015611ca5573d6000803e3d6000fd5b505050506040513d601f19601f82011682018060405250810190611cc99190612cf5565b611ce55760405162461bcd60e51b81526004016102ed90613097565b6000828152600460205260409020426005820155600a0154611d119082906001600160a01b0316612225565b600082815260046020526040808220600281018490556008810180546001600160a01b03191633908117909155600180830154925493516001600160a01b03939093169487937fdf3c258fd5ebb54ac1a83c73feafacc466858d3badc3dda9c4034b0da1da54d993611d869390928992612ec5565b60405180910390a46000828152600460205260408120600a01546001600160a01b031615611dce576000838152600460205260409020600a01546001600160a01b0316611ddb565b6003546001600160a01b03165b600084815260046020526040812060020154919250908180611dfc87612432565b93509150829050600182151514611e5657600087815260046020526040902060088101546002820154600a90920154611e43926001600160a01b03928316929091166120e7565b611e4c8761183b565b5050505050612049565b6000878152600460205260409020600901546001600160a01b031615611ee857600087815260046020526040902060070154611ea290606490610dea908690610100900460ff1661207b565b9350611eb4838563ffffffff61240a16565b60008881526004602052604090206009810154600a90910154919450611ee8916001600160a01b03918216918791166120e7565b60008781526004602052604090206007810154600a90910154611f1f916001600160a01b03620100009091048116918691166120e7565b60008781526004602052604090819020600181015481546007830154600984015460089094015494516001600160a01b039384169592948d947f334843dd102fb480fd982e331134a746cae45483f35aa91db449e96cb90cc5f194611f9994620100009004821693928216929116908b908d908f90612eef565b60405180910390a45050506000848152600460208190526040822082815560018101805474ffffffffffffffffffffffffffffffffffffffffff19169055600281018390556003810183905590810182905560058101829055600681019190915560078101805475ffffffffffffffffffffffffffffffffffffffffffff191690556008810180546001600160a01b031990811690915560098201805482169055600a9091018054909116905550505b5050565b6000828201838110156120725760405162461bcd60e51b81526004016102ed9061321c565b90505b92915050565b60008261208a57506000612075565b8282028284828161209757fe5b04146120725760405162461bcd60e51b81526004016102ed90613501565b60008082116120d65760405162461bcd60e51b81526004016102ed9061337b565b8183816120df57fe5b049392505050565b6001600160a01b03811661220b576003546040517f2e1a7d4d0000000000000000000000000000000000000000000000000000000081526001600160a01b0390911690632e1a7d4d9061213e9085906004016139b0565b600060405180830381600087803b15801561215857600080fd5b505af115801561216c573d6000803e3d6000fd5b5050505061217a83836128f1565b61220657600360009054906101000a90046001600160a01b03166001600160a01b031663d0e30db0836040518263ffffffff1660e01b81526004016000604051808303818588803b1580156121ce57600080fd5b505af11580156121e2573d6000803e3d6000fd5b505060035461220693506001600160a01b031691508590508463ffffffff61296816565b610368565b6103686001600160a01b038216848463ffffffff61296816565b6001600160a01b0381166122b6578134146122525760405162461bcd60e51b81526004016102ed90613188565b600360009054906101000a90046001600160a01b03166001600160a01b031663d0e30db0836040518263ffffffff1660e01b81526004016000604051808303818588803b1580156122a257600080fd5b505af1158015611e4c573d6000803e3d6000fd5b6040516370a0823160e01b815281906000906001600160a01b038316906370a08231906122e7903090600401612e8d565b60206040518083038186803b1580156122ff57600080fd5b505afa158015612313573d6000803e3d6000fd5b505050506040513d601f19601f820116820180604052508101906123379190612d29565b90506123546001600160a01b03831633308763ffffffff6129eb16565b6040516370a0823160e01b81526000906001600160a01b038416906370a0823190612383903090600401612e8d565b60206040518083038186803b15801561239b57600080fd5b505afa1580156123af573d6000803e3d6000fd5b505050506040513d601f19601f820116820180604052508101906123d39190612d29565b9050806123e6838763ffffffff61204d16565b146124035760405162461bcd60e51b81526004016102ed90613953565b5050505050565b60008282111561242c5760405162461bcd60e51b81526004016102ed906132e7565b50900390565b6000818152600460205260408120600a0154819081906001600160a01b031615612476576000848152600460205260409020600a01546001600160a01b0316612483565b6003546001600160a01b03165b905061248d612bb4565b506040805160a08101825260008681526004602081815284832060028082015486526001600160a01b0380891684880181905230888a01528c875285855260089093015481166060880152875180850189528681526080880152905487517ff1d5596b00000000000000000000000000000000000000000000000000000000815297519697929663095ea7b3966101009092049092169463f1d5596b94848201949093929083900390910190829087803b15801561254a57600080fd5b505af115801561255e573d6000803e3d6000fd5b505050506040513d601f19601f820116820180604052508101906125829190612c70565b83516040517fffffffff0000000000000000000000000000000000000000000000000000000060e085901b1681526125be929190600401612f27565b602060405180830381600087803b1580156125d857600080fd5b505af11580156125ec573d6000803e3d6000fd5b505050506040513d601f19601f820116820180604052508101906126109190612cf5565b506002546000868152600460208190526040918290205491517f5bf624220000000000000000000000000000000000000000000000000000000081526101009093046001600160a01b031692635bf6242292612670929091869101613a61565b600060405180830381600087803b15801561268a57600080fd5b505af115801561269e573d6000803e3d6000fd5b50506040516370a0823160e01b8152600092506001600160a01b03851691506370a08231906126d1903090600401612e8d565b60206040518083038186803b1580156126e957600080fd5b505afa1580156126fd573d6000803e3d6000fd5b505050506040513d601f19601f820116820180604052508101906127219190612d29565b6002546000888152600460208190526040918290205491517fba3393990000000000000000000000000000000000000000000000000000000081529394506101009092046001600160a01b03169263ba339399926127829291879101613a61565b600060405180830381600087803b15801561279c57600080fd5b505af19250505080156127ad575060015b612850576002546000878152600460208190526040918290205491517fb320f4590000000000000000000000000000000000000000000000000000000081526101009093046001600160a01b03169263b320f4599261280e929091016139b0565b600060405180830381600087803b15801561282857600080fd5b505af115801561283c573d6000803e3d6000fd5b50600097508796506128ec95505050505050565b6040516370a0823160e01b81526000906001600160a01b038516906370a082319061287f903090600401612e8d565b60206040518083038186803b15801561289757600080fd5b505afa1580156128ab573d6000803e3d6000fd5b505050506040513d601f19601f820116820180604052508101906128cf9190612d29565b905060016128e3828463ffffffff61240a16565b95509550505050505b915091565b60408051600080825260208201928390529182916001600160a01b03861691859161291b91612e71565b60006040518083038185875af1925050503d8060008114612958576040519150601f19603f3d011682016040523d82523d6000602084013e61295d565b606091505b509095945050505050565b6103688363a9059cbb60e01b8484604051602401612987929190612f27565b60408051601f198184030181529190526020810180517bffffffffffffffffffffffffffffffffffffffffffffffffffffffff167fffffffff0000000000000000000000000000000000000000000000000000000090931692909217909152612a0c565b61053b846323b872dd60e01b85858560405160240161298793929190612ea1565b6060612a61826040518060400160405280602081526020017f5361666545524332303a206c6f772d6c6576656c2063616c6c206661696c6564815250856001600160a01b0316612a9b9092919063ffffffff16565b8051909150156103685780806020019051810190612a7f9190612cf5565b6103685760405162461bcd60e51b81526004016102ed90613695565b6060612aaa8484600085612ab4565b90505b9392505050565b606082471015612ad65760405162461bcd60e51b81526004016102ed9061331e565b612adf85612b75565b612afb5760405162461bcd60e51b81526004016102ed9061365e565b60006060866001600160a01b03168587604051612b189190612e71565b60006040518083038185875af1925050503d8060008114612b55576040519150601f19603f3d011682016040523d82523d6000602084013e612b5a565b606091505b5091509150612b6a828286612b7b565b979650505050505050565b3b151590565b60608315612b8a575081612aad565b825115612b9a5782518084602001fd5b8160405162461bcd60e51b81526004016102ed9190612f88565b6040518060a001604052806000815260200160006001600160a01b0316815260200160006001600160a01b0316815260200160006001600160a01b03168152602001612bfe612c03565b905290565b6040518060200160405280600081525090565b60008083601f840112612c27578182fd5b50813567ffffffffffffffff811115612c3e578182fd5b6020830191508360208083028501011115612c5857600080fd5b9250929050565b803560ff8116811461207557600080fd5b600060208284031215612c81578081fd5b815161207281613b44565b60008060008060408587031215612ca1578283fd5b843567ffffffffffffffff80821115612cb8578485fd5b612cc488838901612c16565b90965094506020870135915080821115612cdc578384fd5b50612ce987828801612c16565b95989497509550505050565b600060208284031215612d06578081fd5b815161207281613b5c565b600060208284031215612d22578081fd5b5035919050565b600060208284031215612d3a578081fd5b5051919050565b60008060008060008060008060006101208a8c031215612d5f578485fd5b8935985060208a0135612d7181613b44565b975060408a0135965060608a0135955060808a01359450612d958b60a08c01612c5f565b935060c08a0135612da581613b44565b9250612db48b60e08c01612c5f565b91506101008a0135612dc581613b44565b809150509295985092959850929598565b60008060408385031215612de8578182fd5b823591506020830135612dfa81613b5c565b809150509250929050565b600080600060608486031215612e19578283fd5b833592506020840135612e2b81613b5c565b929592945050506040919091013590565b60008060408385031215612e4e578182fd5b50508035926020909101359150565b6001600160a01b03169052565b60ff169052565b60008251612e83818460208701613b18565b9190910192915050565b6001600160a01b0391909116815260200190565b6001600160a01b039384168152919092166020820152604081019190915260600190565b6001600160a01b039490941684526020840192909252151560408301521515606082015260800190565b6001600160a01b039687168152948616602086015292851660408501526060840191909152608083015290911660a082015260c00190565b6001600160a01b03929092168252602082015260400190565b901515815260200190565b9115158252602082015260400190565b7fffffffff0000000000000000000000000000000000000000000000000000000091909116815260200190565b6000602082528251806020840152612fa7816040850160208701613b18565b601f01601f19169190910160400192915050565b6020808252601c908201527f4d757374206265206c697374696e6720696e7465726d65646961727900000000604082015260600190565b60208082526013908201527f4d7573742073656e64206c697374507269636500000000000000000000000000604082015260600190565b6020808252601c908201527f4d7573742073656e64206174206c65617374206c697374507269636500000000604082015260600190565b60208082526012908201527f4c697374206973206e6f74206163746976650000000000000000000000000000604082015260600190565b6020808252601f908201527f42696420696e76616c696420666f722073686172652073706c697474696e6700604082015260600190565b60208082526027908201527f43616e27742063616e63656c20616e206c697374696e67206f6e63652069742760408201527f7320626567756e00000000000000000000000000000000000000000000000000606082015260800190565b6020808252602b908201527f4d757374206265206c697374696e6720696e7465726d656469617279206f722060408201527f746f6b656e206f776e6572000000000000000000000000000000000000000000606082015260800190565b60208082526034908201527f53656e74204d4f5449462056616c756520646f6573206e6f74206d617463682060408201527f7370656369666965642062696420616d6f756e74000000000000000000000000606082015260800190565b60208082526015908201527f4c697374696e6720646f65736e27742065786973740000000000000000000000604082015260600190565b6020808252601b908201527f536166654d6174683a206164646974696f6e206f766572666c6f770000000000604082015260600190565b6020808252601b908201527f4c697374696e672068617320616c726561647920737461727465640000000000604082015260600190565b60208082526036908201527f4c656e677468206f66206c697374696e6720696473206d75737420626520657160408201527f75616c20746f206f72206c657373207468616e20353000000000000000000000606082015260800190565b6020808252601e908201527f536166654d6174683a207375627472616374696f6e206f766572666c6f770000604082015260600190565b60208082526026908201527f416464726573733a20696e73756666696369656e742062616c616e636520666f60408201527f722063616c6c0000000000000000000000000000000000000000000000000000606082015260800190565b6020808252601a908201527f536166654d6174683a206469766973696f6e206279207a65726f000000000000604082015260600190565b6020808252601d908201527f4c697374696e6720696473206d757374206e6f7420626520656d707479000000604082015260600190565b6020808252602c908201527f4c656e677468206f66206c697374696e672069647320616e6420616d6f756e7460408201527f73206d757374206d617463680000000000000000000000000000000000000000606082015260800190565b60208082526028908201527f4c697374696e67206d75737420626520617070726f76656420627920696e746560408201527f726d656469617279000000000000000000000000000000000000000000000000606082015260800190565b602080825260409082018190527f4d7573742073656e64206d6f7265207468616e206c6173742062696420627920908201527f6d696e426964496e6372656d656e7450657263656e7461676520616d6f756e74606082015260800190565b60208082526021908201527f536166654d6174683a206d756c7469706c69636174696f6e206f766572666c6f60408201527f7700000000000000000000000000000000000000000000000000000000000000606082015260800190565b60208082526018908201527f4c6973742068617320616c726561647920737461727465640000000000000000604082015260600190565b6020808252818101527f4d7573742062652062696464696e67206f722064726f70206c69737454797065604082015260600190565b6020808252601c908201527f4d757374206265206669786564207072696365206c6973745479706500000000604082015260600190565b60208082526035908201527f43616e206f6e6c792062652063616c6c6564206279206c697374696e6720637260408201527f6561746f72206f7220696e7465726d6564696172790000000000000000000000606082015260800190565b6020808252601d908201527f416464726573733a2063616c6c20746f206e6f6e2d636f6e7472616374000000604082015260600190565b6020808252602a908201527f5361666545524332303a204552433230206f7065726174696f6e20646964206e60408201527f6f74207375636365656400000000000000000000000000000000000000000000606082015260800190565b6020808252602f908201527f696e7465726d65646961727946656550657263656e74616765206d757374206260408201527f65206c657373207468616e203130300000000000000000000000000000000000606082015260800190565b6020808252602d908201527f43616c6c6572206d75737420626520617070726f766564206f72206f776e657260408201527f20666f7220746f6b656e20696400000000000000000000000000000000000000606082015260800190565b6020808252600f908201527f4c697374696e6720657870697265640000000000000000000000000000000000604082015260600190565b60208082526018908201527f4c697374696e67206861736e277420636f6d706c657465640000000000000000604082015260600190565b6020808252601f908201527f5265656e7472616e637947756172643a207265656e7472616e742063616c6c00604082015260600190565b60208082526014908201527f4c697374696e67206861736e277420626567756e000000000000000000000000604082015260600190565b60208082526015908201527f4d7573742062652064726f70206c697374547970650000000000000000000000604082015260600190565b60208082526019908201527f4d757374206265206c69737420696e7465726d65646961727900000000000000604082015260600190565b6020808252602f908201527f746f6b656e436f6e747261637420646f6573206e6f7420737570706f7274204560408201527f524337323120696e746572666163650000000000000000000000000000000000606082015260800190565b60208082526034908201527f546f6b656e207472616e736665722063616c6c20646964206e6f74207472616e60408201527f7366657220657870656374656420616d6f756e74000000000000000000000000606082015260800190565b90815260200190565b60006101c0820190508f82526001600160a01b038f1660208301528d151560408301528c60608301528b60808301528a60a08301528960c08301528860e0830152613a08610100830189612e6a565b613a16610120830188612e6a565b613a24610140830187612e5d565b613a32610160830186612e5d565b613a40610180830185612e5d565b613a4e6101a0830184612e5d565b9f9e505050505050505050505050505050565b600060c0820190508382528251602083015260208301516001600160a01b038082166040850152806040860151166060850152806060860151166080850152505060808301515160a08301529392505050565b918252602082015260400190565b9788526020880196909652604087019490945260ff92831660608701526001600160a01b039182166080870152811660a0860152911660c08401521660e08201526101000190565b60ff91909116815260200190565b60005b83811015613b33578181015183820152602001613b1b565b8381111561053b5750506000910152565b6001600160a01b0381168114613b5957600080fd5b50565b8015158114613b5957600080fdfea2646970667358221220c394b353ffceae2280d246cdf184b84532e8b296c7628962689e6045044401f864736f6c63430006080033",
  "linkReferences": {},
  "deployedLinkReferences": {}
}