{
  "_format": "hh-sol-artifact-1",
  "contractName": "Item",
  "sourceName": "contracts/Item.sol",
  "abi": [
    {
      "inputs": [
        {
          "internalType": "address",
          "name": "itemExchangeContractAddr",
          "type": "address"
        },
        {
          "internalType": "string",
          "name": "name_",
          "type": "string"
        },
        {
          "internalType": "string",
          "name": "symbol_",
          "type": "string"
        },
        {
          "internalType": "uint256",
          "name": "maxSupplyAmount",
          "type": "uint256"
        },
        {
          "internalType": "string",
          "name": "itemIdentifierString",
          "type": "string"
        }
      ],
      "stateMutability": "nonpayable",
      "type": "constructor"
    },
    {
      "anonymous": false,
      "inputs": [
        {
          "indexed": true,
          "internalType": "address",
          "name": "owner",
          "type": "address"
        },
        {
          "indexed": true,
          "internalType": "address",
          "name": "approved",
          "type": "address"
        },
        {
          "indexed": true,
          "internalType": "uint256",
          "name": "tokenId",
          "type": "uint256"
        }
      ],
      "name": "Approval",
      "type": "event"
    },
    {
      "anonymous": false,
      "inputs": [
        {
          "indexed": true,
          "internalType": "address",
          "name": "owner",
          "type": "address"
        },
        {
          "indexed": true,
          "internalType": "address",
          "name": "operator",
          "type": "address"
        },
        {
          "indexed": false,
          "internalType": "bool",
          "name": "approved",
          "type": "bool"
        }
      ],
      "name": "ApprovalForAll",
      "type": "event"
    },
    {
      "anonymous": false,
      "inputs": [
        {
          "indexed": true,
          "internalType": "address",
          "name": "previousOwner",
          "type": "address"
        },
        {
          "indexed": true,
          "internalType": "address",
          "name": "newOwner",
          "type": "address"
        }
      ],
      "name": "OwnershipTransferred",
      "type": "event"
    },
    {
      "anonymous": false,
      "inputs": [
        {
          "indexed": true,
          "internalType": "uint256",
          "name": "_tokenId",
          "type": "uint256"
        },
        {
          "indexed": false,
          "internalType": "address",
          "name": "owner",
          "type": "address"
        },
        {
          "indexed": false,
          "internalType": "string",
          "name": "_uri",
          "type": "string"
        }
      ],
      "name": "TokenMetadataURIUpdated",
      "type": "event"
    },
    {
      "anonymous": false,
      "inputs": [
        {
          "indexed": true,
          "internalType": "uint256",
          "name": "_tokenId",
          "type": "uint256"
        },
        {
          "indexed": false,
          "internalType": "address",
          "name": "owner",
          "type": "address"
        },
        {
          "indexed": false,
          "internalType": "string",
          "name": "_uri",
          "type": "string"
        }
      ],
      "name": "TokenURIUpdated",
      "type": "event"
    },
    {
      "anonymous": false,
      "inputs": [
        {
          "indexed": true,
          "internalType": "address",
          "name": "from",
          "type": "address"
        },
        {
          "indexed": true,
          "internalType": "address",
          "name": "to",
          "type": "address"
        },
        {
          "indexed": true,
          "internalType": "uint256",
          "name": "tokenId",
          "type": "uint256"
        }
      ],
      "name": "Transfer",
      "type": "event"
    },
    {
      "inputs": [],
      "name": "MINT_WITH_SIG_TYPEHASH",
      "outputs": [
        {
          "internalType": "bytes32",
          "name": "",
          "type": "bytes32"
        }
      ],
      "stateMutability": "view",
      "type": "function"
    },
    {
      "inputs": [],
      "name": "PERMIT_TYPEHASH",
      "outputs": [
        {
          "internalType": "bytes32",
          "name": "",
          "type": "bytes32"
        }
      ],
      "stateMutability": "view",
      "type": "function"
    },
    {
      "inputs": [
        {
          "internalType": "uint256",
          "name": "tokenId",
          "type": "uint256"
        },
        {
          "components": [
            {
              "internalType": "uint256",
              "name": "amount",
              "type": "uint256"
            },
            {
              "internalType": "address",
              "name": "currency",
              "type": "address"
            },
            {
              "internalType": "address",
              "name": "bidder",
              "type": "address"
            },
            {
              "internalType": "address",
              "name": "recipient",
              "type": "address"
            },
            {
              "components": [
                {
                  "internalType": "uint256",
                  "name": "value",
                  "type": "uint256"
                }
              ],
              "internalType": "struct Decimal.D256",
              "name": "sellOnShare",
              "type": "tuple"
            }
          ],
          "internalType": "struct IItemExchange.Bid",
          "name": "bid",
          "type": "tuple"
        }
      ],
      "name": "acceptBid",
      "outputs": [],
      "stateMutability": "nonpayable",
      "type": "function"
    },
    {
      "inputs": [
        {
          "internalType": "address",
          "name": "to",
          "type": "address"
        },
        {
          "internalType": "uint256",
          "name": "tokenId",
          "type": "uint256"
        }
      ],
      "name": "approve",
      "outputs": [],
      "stateMutability": "nonpayable",
      "type": "function"
    },
    {
      "inputs": [
        {
          "internalType": "address",
          "name": "owner",
          "type": "address"
        }
      ],
      "name": "balanceOf",
      "outputs": [
        {
          "internalType": "uint256",
          "name": "",
          "type": "uint256"
        }
      ],
      "stateMutability": "view",
      "type": "function"
    },
    {
      "inputs": [],
      "name": "baseURI",
      "outputs": [
        {
          "internalType": "string",
          "name": "",
          "type": "string"
        }
      ],
      "stateMutability": "view",
      "type": "function"
    },
    {
      "inputs": [
        {
          "internalType": "uint256",
          "name": "tokenId",
          "type": "uint256"
        }
      ],
      "name": "burn",
      "outputs": [],
      "stateMutability": "nonpayable",
      "type": "function"
    },
    {
      "inputs": [
        {
          "internalType": "uint256",
          "name": "tokenId",
          "type": "uint256"
        }
      ],
      "name": "getApproved",
      "outputs": [
        {
          "internalType": "address",
          "name": "",
          "type": "address"
        }
      ],
      "stateMutability": "view",
      "type": "function"
    },
    {
      "inputs": [],
      "name": "getItemIdentifier",
      "outputs": [
        {
          "internalType": "string",
          "name": "",
          "type": "string"
        }
      ],
      "stateMutability": "view",
      "type": "function"
    },
    {
      "inputs": [
        {
          "internalType": "address",
          "name": "owner",
          "type": "address"
        },
        {
          "internalType": "address",
          "name": "operator",
          "type": "address"
        }
      ],
      "name": "isApprovedForAll",
      "outputs": [
        {
          "internalType": "bool",
          "name": "",
          "type": "bool"
        }
      ],
      "stateMutability": "view",
      "type": "function"
    },
    {
      "inputs": [],
      "name": "itemExchangeContract",
      "outputs": [
        {
          "internalType": "address",
          "name": "",
          "type": "address"
        }
      ],
      "stateMutability": "view",
      "type": "function"
    },
    {
      "inputs": [],
      "name": "itemIdentifier",
      "outputs": [
        {
          "internalType": "string",
          "name": "",
          "type": "string"
        }
      ],
      "stateMutability": "view",
      "type": "function"
    },
    {
      "inputs": [
        {
          "internalType": "uint256",
          "name": "tokenId",
          "type": "uint256"
        },
        {
          "internalType": "address",
          "name": "recipient",
          "type": "address"
        }
      ],
      "name": "listTransfer",
      "outputs": [],
      "stateMutability": "nonpayable",
      "type": "function"
    },
    {
      "inputs": [],
      "name": "maxSupply",
      "outputs": [
        {
          "internalType": "uint256",
          "name": "",
          "type": "uint256"
        }
      ],
      "stateMutability": "view",
      "type": "function"
    },
    {
      "inputs": [
        {
          "components": [
            {
              "internalType": "string",
              "name": "tokenURI",
              "type": "string"
            },
            {
              "internalType": "string",
              "name": "metadataURI",
              "type": "string"
            },
            {
              "internalType": "bytes32",
              "name": "contentHash",
              "type": "bytes32"
            },
            {
              "internalType": "bytes32",
              "name": "metadataHash",
              "type": "bytes32"
            }
          ],
          "internalType": "struct IItem.ItemData",
          "name": "data",
          "type": "tuple"
        },
        {
          "components": [
            {
              "components": [
                {
                  "internalType": "uint256",
                  "name": "value",
                  "type": "uint256"
                }
              ],
              "internalType": "struct Decimal.D256",
              "name": "prevOwner",
              "type": "tuple"
            },
            {
              "components": [
                {
                  "internalType": "uint256",
                  "name": "value",
                  "type": "uint256"
                }
              ],
              "internalType": "struct Decimal.D256",
              "name": "creator",
              "type": "tuple"
            },
            {
              "components": [
                {
                  "internalType": "uint256",
                  "name": "value",
                  "type": "uint256"
                }
              ],
              "internalType": "struct Decimal.D256",
              "name": "owner",
              "type": "tuple"
            }
          ],
          "internalType": "struct IItemExchange.BidShares",
          "name": "bidShares",
          "type": "tuple"
        }
      ],
      "name": "mint",
      "outputs": [],
      "stateMutability": "nonpayable",
      "type": "function"
    },
    {
      "inputs": [
        {
          "internalType": "address",
          "name": "creator",
          "type": "address"
        },
        {
          "components": [
            {
              "internalType": "string",
              "name": "tokenURI",
              "type": "string"
            },
            {
              "internalType": "string",
              "name": "metadataURI",
              "type": "string"
            },
            {
              "internalType": "bytes32",
              "name": "contentHash",
              "type": "bytes32"
            },
            {
              "internalType": "bytes32",
              "name": "metadataHash",
              "type": "bytes32"
            }
          ],
          "internalType": "struct IItem.ItemData",
          "name": "data",
          "type": "tuple"
        },
        {
          "components": [
            {
              "components": [
                {
                  "internalType": "uint256",
                  "name": "value",
                  "type": "uint256"
                }
              ],
              "internalType": "struct Decimal.D256",
              "name": "prevOwner",
              "type": "tuple"
            },
            {
              "components": [
                {
                  "internalType": "uint256",
                  "name": "value",
                  "type": "uint256"
                }
              ],
              "internalType": "struct Decimal.D256",
              "name": "creator",
              "type": "tuple"
            },
            {
              "components": [
                {
                  "internalType": "uint256",
                  "name": "value",
                  "type": "uint256"
                }
              ],
              "internalType": "struct Decimal.D256",
              "name": "owner",
              "type": "tuple"
            }
          ],
          "internalType": "struct IItemExchange.BidShares",
          "name": "bidShares",
          "type": "tuple"
        },
        {
          "components": [
            {
              "internalType": "uint256",
              "name": "deadline",
              "type": "uint256"
            },
            {
              "internalType": "uint8",
              "name": "v",
              "type": "uint8"
            },
            {
              "internalType": "bytes32",
              "name": "r",
              "type": "bytes32"
            },
            {
              "internalType": "bytes32",
              "name": "s",
              "type": "bytes32"
            }
          ],
          "internalType": "struct IItem.EIP712Signature",
          "name": "sig",
          "type": "tuple"
        }
      ],
      "name": "mintForCreatorWithSig",
      "outputs": [],
      "stateMutability": "nonpayable",
      "type": "function"
    },
    {
      "inputs": [
        {
          "internalType": "address",
          "name": "creator",
          "type": "address"
        },
        {
          "components": [
            {
              "internalType": "string",
              "name": "tokenURI",
              "type": "string"
            },
            {
              "internalType": "string",
              "name": "metadataURI",
              "type": "string"
            },
            {
              "internalType": "bytes32",
              "name": "contentHash",
              "type": "bytes32"
            },
            {
              "internalType": "bytes32",
              "name": "metadataHash",
              "type": "bytes32"
            }
          ],
          "internalType": "struct IItem.ItemData",
          "name": "data",
          "type": "tuple"
        },
        {
          "components": [
            {
              "components": [
                {
                  "internalType": "uint256",
                  "name": "value",
                  "type": "uint256"
                }
              ],
              "internalType": "struct Decimal.D256",
              "name": "prevOwner",
              "type": "tuple"
            },
            {
              "components": [
                {
                  "internalType": "uint256",
                  "name": "value",
                  "type": "uint256"
                }
              ],
              "internalType": "struct Decimal.D256",
              "name": "creator",
              "type": "tuple"
            },
            {
              "components": [
                {
                  "internalType": "uint256",
                  "name": "value",
                  "type": "uint256"
                }
              ],
              "internalType": "struct Decimal.D256",
              "name": "owner",
              "type": "tuple"
            }
          ],
          "internalType": "struct IItemExchange.BidShares",
          "name": "bidShares",
          "type": "tuple"
        }
      ],
      "name": "mintForCreatorWithoutSig",
      "outputs": [],
      "stateMutability": "nonpayable",
      "type": "function"
    },
    {
      "inputs": [
        {
          "internalType": "address",
          "name": "",
          "type": "address"
        }
      ],
      "name": "mintWithSigNonces",
      "outputs": [
        {
          "internalType": "uint256",
          "name": "",
          "type": "uint256"
        }
      ],
      "stateMutability": "view",
      "type": "function"
    },
    {
      "inputs": [],
      "name": "name",
      "outputs": [
        {
          "internalType": "string",
          "name": "",
          "type": "string"
        }
      ],
      "stateMutability": "view",
      "type": "function"
    },
    {
      "inputs": [],
      "name": "owner",
      "outputs": [
        {
          "internalType": "address",
          "name": "",
          "type": "address"
        }
      ],
      "stateMutability": "view",
      "type": "function"
    },
    {
      "inputs": [
        {
          "internalType": "uint256",
          "name": "tokenId",
          "type": "uint256"
        }
      ],
      "name": "ownerOf",
      "outputs": [
        {
          "internalType": "address",
          "name": "",
          "type": "address"
        }
      ],
      "stateMutability": "view",
      "type": "function"
    },
    {
      "inputs": [
        {
          "internalType": "address",
          "name": "spender",
          "type": "address"
        },
        {
          "internalType": "uint256",
          "name": "tokenId",
          "type": "uint256"
        },
        {
          "components": [
            {
              "internalType": "uint256",
              "name": "deadline",
              "type": "uint256"
            },
            {
              "internalType": "uint8",
              "name": "v",
              "type": "uint8"
            },
            {
              "internalType": "bytes32",
              "name": "r",
              "type": "bytes32"
            },
            {
              "internalType": "bytes32",
              "name": "s",
              "type": "bytes32"
            }
          ],
          "internalType": "struct IItem.EIP712Signature",
          "name": "sig",
          "type": "tuple"
        }
      ],
      "name": "permit",
      "outputs": [],
      "stateMutability": "nonpayable",
      "type": "function"
    },
    {
      "inputs": [
        {
          "internalType": "address",
          "name": "",
          "type": "address"
        },
        {
          "internalType": "uint256",
          "name": "",
          "type": "uint256"
        }
      ],
      "name": "permitNonces",
      "outputs": [
        {
          "internalType": "uint256",
          "name": "",
          "type": "uint256"
        }
      ],
      "stateMutability": "view",
      "type": "function"
    },
    {
      "inputs": [
        {
          "internalType": "uint256",
          "name": "",
          "type": "uint256"
        }
      ],
      "name": "previousTokenOwners",
      "outputs": [
        {
          "internalType": "address",
          "name": "",
          "type": "address"
        }
      ],
      "stateMutability": "view",
      "type": "function"
    },
    {
      "inputs": [
        {
          "internalType": "uint256",
          "name": "tokenId",
          "type": "uint256"
        }
      ],
      "name": "removeAsk",
      "outputs": [],
      "stateMutability": "nonpayable",
      "type": "function"
    },
    {
      "inputs": [
        {
          "internalType": "uint256",
          "name": "tokenId",
          "type": "uint256"
        }
      ],
      "name": "removeBid",
      "outputs": [],
      "stateMutability": "nonpayable",
      "type": "function"
    },
    {
      "inputs": [],
      "name": "renounceOwnership",
      "outputs": [],
      "stateMutability": "nonpayable",
      "type": "function"
    },
    {
      "inputs": [
        {
          "internalType": "uint256",
          "name": "tokenId",
          "type": "uint256"
        }
      ],
      "name": "revokeApproval",
      "outputs": [],
      "stateMutability": "nonpayable",
      "type": "function"
    },
    {
      "inputs": [
        {
          "internalType": "address",
          "name": "from",
          "type": "address"
        },
        {
          "internalType": "address",
          "name": "to",
          "type": "address"
        },
        {
          "internalType": "uint256",
          "name": "tokenId",
          "type": "uint256"
        }
      ],
      "name": "safeTransferFrom",
      "outputs": [],
      "stateMutability": "nonpayable",
      "type": "function"
    },
    {
      "inputs": [
        {
          "internalType": "address",
          "name": "from",
          "type": "address"
        },
        {
          "internalType": "address",
          "name": "to",
          "type": "address"
        },
        {
          "internalType": "uint256",
          "name": "tokenId",
          "type": "uint256"
        },
        {
          "internalType": "bytes",
          "name": "_data",
          "type": "bytes"
        }
      ],
      "name": "safeTransferFrom",
      "outputs": [],
      "stateMutability": "nonpayable",
      "type": "function"
    },
    {
      "inputs": [
        {
          "internalType": "address",
          "name": "operator",
          "type": "address"
        },
        {
          "internalType": "bool",
          "name": "approved",
          "type": "bool"
        }
      ],
      "name": "setApprovalForAll",
      "outputs": [],
      "stateMutability": "nonpayable",
      "type": "function"
    },
    {
      "inputs": [
        {
          "internalType": "uint256",
          "name": "tokenId",
          "type": "uint256"
        },
        {
          "components": [
            {
              "internalType": "uint256",
              "name": "amount",
              "type": "uint256"
            },
            {
              "internalType": "address",
              "name": "currency",
              "type": "address"
            }
          ],
          "internalType": "struct IItemExchange.Ask",
          "name": "ask",
          "type": "tuple"
        }
      ],
      "name": "setAsk",
      "outputs": [],
      "stateMutability": "nonpayable",
      "type": "function"
    },
    {
      "inputs": [
        {
          "internalType": "uint256",
          "name": "tokenId",
          "type": "uint256"
        },
        {
          "components": [
            {
              "internalType": "uint256",
              "name": "amount",
              "type": "uint256"
            },
            {
              "internalType": "address",
              "name": "currency",
              "type": "address"
            },
            {
              "internalType": "address",
              "name": "bidder",
              "type": "address"
            },
            {
              "internalType": "address",
              "name": "recipient",
              "type": "address"
            },
            {
              "components": [
                {
                  "internalType": "uint256",
                  "name": "value",
                  "type": "uint256"
                }
              ],
              "internalType": "struct Decimal.D256",
              "name": "sellOnShare",
              "type": "tuple"
            }
          ],
          "internalType": "struct IItemExchange.Bid",
          "name": "bid",
          "type": "tuple"
        }
      ],
      "name": "setBid",
      "outputs": [],
      "stateMutability": "nonpayable",
      "type": "function"
    },
    {
      "inputs": [
        {
          "internalType": "bytes4",
          "name": "interfaceId",
          "type": "bytes4"
        }
      ],
      "name": "supportsInterface",
      "outputs": [
        {
          "internalType": "bool",
          "name": "",
          "type": "bool"
        }
      ],
      "stateMutability": "view",
      "type": "function"
    },
    {
      "inputs": [],
      "name": "symbol",
      "outputs": [
        {
          "internalType": "string",
          "name": "",
          "type": "string"
        }
      ],
      "stateMutability": "view",
      "type": "function"
    },
    {
      "inputs": [
        {
          "internalType": "uint256",
          "name": "index",
          "type": "uint256"
        }
      ],
      "name": "tokenByIndex",
      "outputs": [
        {
          "internalType": "uint256",
          "name": "",
          "type": "uint256"
        }
      ],
      "stateMutability": "view",
      "type": "function"
    },
    {
      "inputs": [
        {
          "internalType": "uint256",
          "name": "",
          "type": "uint256"
        }
      ],
      "name": "tokenContentHashes",
      "outputs": [
        {
          "internalType": "bytes32",
          "name": "",
          "type": "bytes32"
        }
      ],
      "stateMutability": "view",
      "type": "function"
    },
    {
      "inputs": [
        {
          "internalType": "uint256",
          "name": "",
          "type": "uint256"
        }
      ],
      "name": "tokenContractAddresses",
      "outputs": [
        {
          "internalType": "address",
          "name": "",
          "type": "address"
        }
      ],
      "stateMutability": "view",
      "type": "function"
    },
    {
      "inputs": [
        {
          "internalType": "uint256",
          "name": "",
          "type": "uint256"
        }
      ],
      "name": "tokenCreators",
      "outputs": [
        {
          "internalType": "address",
          "name": "",
          "type": "address"
        }
      ],
      "stateMutability": "view",
      "type": "function"
    },
    {
      "inputs": [
        {
          "internalType": "uint256",
          "name": "",
          "type": "uint256"
        }
      ],
      "name": "tokenMetadataHashes",
      "outputs": [
        {
          "internalType": "bytes32",
          "name": "",
          "type": "bytes32"
        }
      ],
      "stateMutability": "view",
      "type": "function"
    },
    {
      "inputs": [
        {
          "internalType": "uint256",
          "name": "tokenId",
          "type": "uint256"
        }
      ],
      "name": "tokenMetadataURI",
      "outputs": [
        {
          "internalType": "string",
          "name": "",
          "type": "string"
        }
      ],
      "stateMutability": "view",
      "type": "function"
    },
    {
      "inputs": [
        {
          "internalType": "address",
          "name": "owner",
          "type": "address"
        },
        {
          "internalType": "uint256",
          "name": "index",
          "type": "uint256"
        }
      ],
      "name": "tokenOfOwnerByIndex",
      "outputs": [
        {
          "internalType": "uint256",
          "name": "",
          "type": "uint256"
        }
      ],
      "stateMutability": "view",
      "type": "function"
    },
    {
      "inputs": [
        {
          "internalType": "uint256",
          "name": "tokenId",
          "type": "uint256"
        }
      ],
      "name": "tokenURI",
      "outputs": [
        {
          "internalType": "string",
          "name": "",
          "type": "string"
        }
      ],
      "stateMutability": "view",
      "type": "function"
    },
    {
      "inputs": [],
      "name": "totalSupply",
      "outputs": [
        {
          "internalType": "uint256",
          "name": "",
          "type": "uint256"
        }
      ],
      "stateMutability": "view",
      "type": "function"
    },
    {
      "inputs": [
        {
          "internalType": "address",
          "name": "newOwner",
          "type": "address"
        }
      ],
      "name": "transferContractOwnership",
      "outputs": [],
      "stateMutability": "nonpayable",
      "type": "function"
    },
    {
      "inputs": [
        {
          "internalType": "address",
          "name": "from",
          "type": "address"
        },
        {
          "internalType": "address",
          "name": "to",
          "type": "address"
        },
        {
          "internalType": "uint256",
          "name": "tokenId",
          "type": "uint256"
        }
      ],
      "name": "transferFrom",
      "outputs": [],
      "stateMutability": "nonpayable",
      "type": "function"
    },
    {
      "inputs": [
        {
          "internalType": "address",
          "name": "newOwner",
          "type": "address"
        }
      ],
      "name": "transferOwnership",
      "outputs": [],
      "stateMutability": "nonpayable",
      "type": "function"
    },
    {
      "inputs": [
        {
          "internalType": "uint256",
          "name": "tokenId",
          "type": "uint256"
        },
        {
          "internalType": "string",
          "name": "metadataURI",
          "type": "string"
        }
      ],
      "name": "updateTokenMetadataURI",
      "outputs": [],
      "stateMutability": "nonpayable",
      "type": "function"
    },
    {
      "inputs": [
        {
          "internalType": "uint256",
          "name": "tokenId",
          "type": "uint256"
        },
        {
          "internalType": "string",
          "name": "tokenURI",
          "type": "string"
        }
      ],
      "name": "updateTokenURI",
      "outputs": [],
      "stateMutability": "nonpayable",
      "type": "function"
    }
  ],
  "bytecode": "0x60806040523480156200001157600080fd5b50604051620048bc380380620048bc833981016040819052620000349162000322565b8383620000516301ffc9a760e01b6001600160e01b036200017916565b815162000066906006906020850190620001d9565b5080516200007c906007906020840190620001d9565b50620000986380ac58cd60e01b6001600160e01b036200017916565b620000b363780e9d6360e01b6001600160e01b036200017916565b50506001600a556000620000cf6001600160e01b03620001d416565b600b80546001600160a01b0319166001600160a01b038316908117909155604051919250906000907f8be0079c531659141344cd1fd0a4f28419497f9722a3daafe3b4186f6b6457e0908290a350600c80546001600160a01b0319166001600160a01b038716179055600e82905580516200015290600d906020840190620001d9565b506200016e6364825ce360e11b6001600160e01b036200017916565b505050505062000410565b6001600160e01b03198082161415620001af5760405162461bcd60e51b8152600401620001a690620003d9565b60405180910390fd5b6001600160e01b0319166000908152602081905260409020805460ff19166001179055565b335b90565b828054600181600116156101000203166002900490600052602060002090601f016020900481019282601f106200021c57805160ff19168380011785556200024c565b828001600101855582156200024c579182015b828111156200024c5782518255916020019190600101906200022f565b506200025a9291506200025e565b5090565b620001d691905b808211156200025a576000815560010162000265565b600082601f8301126200028c578081fd5b81516001600160401b0380821115620002a3578283fd5b6040516020601f8401601f1916820181018381118382101715620002c5578586fd5b80604052508194508382528681858801011115620002e257600080fd5b600092505b83831015620003065785830181015182840182015291820191620002e7565b83831115620003185760008185840101525b5050505092915050565b600080600080600060a086880312156200033a578081fd5b85516001600160a01b038116811462000351578182fd5b60208701519095506001600160401b03808211156200036e578283fd5b6200037c89838a016200027b565b9550604088015191508082111562000392578283fd5b620003a089838a016200027b565b9450606088015193506080880151915080821115620003bd578283fd5b50620003cc888289016200027b565b9150509295509295909350565b6020808252601c908201527f4552433136353a20696e76616c696420696e7465726661636520696400000000604082015260600190565b61449c80620004206000396000f3fe608060405234801561001057600080fd5b506004361061032b5760003560e01c80636c0360eb116101b2578063b1e130fc116100f9578063de5236fb116100a2578063f1d5596b1161007c578063f1d5596b1461064d578063f2fde38b14610655578063f8ccd5de14610668578063fad321971461067b5761032b565b8063de5236fb1461061f578063e0fd045f14610627578063e985e9c51461063a5761032b565b8063ba339399116100d3578063ba339399146105f1578063c87b56dd14610604578063d5abeb01146106175761032b565b8063b1e130fc146105b8578063b320f459146105cb578063b88d4fde146105de5761032b565b806389a8f74b1161015b5780639d8e7260116101355780639d8e72601461057f578063a22cb46514610592578063a843c51f146105a55761032b565b806389a8f74b1461055c5780638da5cb5b1461056f57806395d89b41146105775761032b565b806370f31a951161018c57806370f31a9514610539578063715018a61461054157806375682e79146105495761032b565b80636c0360eb1461050b5780636ed1a7b21461051357806370a08231146105265761032b565b806328220f351161027657806342842e0e1161021f5780635bf62422116101f95780635bf62422146104d257806362f24b70146104e55780636352211e146104f85761032b565b806342842e0e1461049957806342966c68146104ac5780634f6ccce7146104bf5761032b565b80632f745c59116102505780632f745c591461046b57806330adf81f1461047e57806332f44aa9146104865761032b565b806328220f35146104325780632cca3237146104455780632f01730c146104585761032b565b80630d37f7d4116102d857806318160ddd116102b257806318160ddd1461040457806318e97fd11461040c57806323b872dd1461041f5761032b565b80630d37f7d4146103d65780630e2a1778146103de578063157c3df9146103f15761032b565b8063081812fc11610309578063081812fc1461038e578063095ea7b3146103ae5780630bcd899b146103c35761032b565b806301ddc3b51461033057806301ffc9a71461035957806306fdde0314610379575b600080fd5b61034361033e366004613369565b61068e565b60405161035091906136cc565b60405180910390f35b61036c6103673660046132ed565b6106a0565b60405161035091906136c1565b6103816106d7565b6040516103509190613773565b6103a161039c366004613369565b61076e565b6040516103509190613632565b6103c16103bc36600461328f565b6107ba565b005b6103436103d136600461308e565b610852565b610381610864565b6103c16103ec3660046132b9565b6108f2565b6103816103ff366004613369565b610b16565b610343610be1565b6103c161041a3660046133a4565b610bf2565b6103c161042d3660046130dd565b610d51565b6103c1610440366004613369565b610d89565b6103c1610453366004613325565b610e37565b6103a1610466366004613369565b610e73565b61034361047936600461328f565b610e8e565b610343610ebf565b6103c1610494366004613381565b610ee3565b6103c16104a73660046130dd565b610f69565b6103c16104ba366004613369565b610f84565b6103436104cd366004613369565b611056565b6103c16104e0366004613470565b611072565b6103c16104f3366004613419565b611142565b6103a1610506366004613369565b61121a565b610381611248565b6103c16105213660046131c0565b6112a9565b61034361053436600461308e565b6112e6565b61038161132f565b6103c1611390565b6103c16105573660046133a4565b611419565b6103c161056a36600461321e565b611562565b6103a161171c565b61038161172b565b6103a161058d366004613369565b61178c565b6103c16105a0366004613185565b6117a7565b6103c16105b336600461308e565b611875565b6103c16105c6366004613369565b6118ed565b6103c16105d9366004613369565b611959565b6103c16105ec36600461311d565b611a30565b6103c16105ff366004613470565b611a6f565b610381610612366004613369565b611b0a565b610343611bd8565b610343611bde565b6103a1610635366004613369565b611c02565b61036c6106483660046130a9565b611c1d565b6103a1611c4b565b6103c161066336600461308e565b611c5a565b61034361067636600461328f565b611d1b565b610343610689366004613369565b611d38565b60136020526000908152604090205481565b7fffffffff000000000000000000000000000000000000000000000000000000001660009081526020819052604090205460ff1690565b60068054604080516020601f60026000196101006001881615020190951694909404938401819004810282018101909252828152606093909290918301828280156107635780601f1061073857610100808354040283529160200191610763565b820191906000526020600020905b81548152906001019060200180831161074657829003601f168201915b505050505090505b90565b600061077982611d4a565b61079e5760405162461bcd60e51b815260040161079590613eb4565b60405180910390fd5b506000908152600460205260409020546001600160a01b031690565b60006107c58261121a565b9050806001600160a01b0316836001600160a01b031614156107f95760405162461bcd60e51b815260040161079590614081565b806001600160a01b031661080b611d5d565b6001600160a01b03161480610827575061082781610648611d5d565b6108435760405162461bcd60e51b815260040161079590613d26565b61084d8383611d61565b505050565b60186020526000908152604090205481565b600d805460408051602060026001851615610100026000190190941693909304601f810184900484028201840190925281815292918301828280156108ea5780601f106108bf576101008083540402835291602001916108ea565b820191906000526020600020905b8154815290600101906020018083116108cd57829003601f168201915b505050505081565b6002600a5414156109155760405162461bcd60e51b815260040161079590614263565b6002600a558161092481611d4a565b6109405760405162461bcd60e51b815260040161079590614013565b8151158061094f575081514211155b61096b5760405162461bcd60e51b81526004016107959061413b565b6001600160a01b0384166109915760405162461bcd60e51b815260040161079590613cef565b600061099b611dcf565b90506000817fadacbbfdfd82dabfa913ef6727df5bc21f8699a2969db41d446fee646fc64b9e87876017856109cf8361121a565b6001600160a01b03168152602080820192909252604090810160009081208c825283528190208054600181019091558a519151610a1296959493919291016136d5565b60405160208183030381529060405280519060200120604051602001610a39929190613587565b604051602081830303815290604052805190602001209050600060018286602001518760400151886060015160405160008152602001604052604051610a829493929190613755565b6020604051602081039080840390855afa158015610aa4573d6000803e3d6000fd5b5050604051601f1901519150506001600160a01b03811615801590610ae25750806001600160a01b0316610ad78761121a565b6001600160a01b0316145b610afe5760405162461bcd60e51b81526004016107959061404a565b610b088787611d61565b50506001600a555050505050565b60608180610b246019611eba565b11610b415760405162461bcd60e51b815260040161079590613786565b60008381526015602090815260409182902080548351601f600260001961010060018616150201909316929092049182018490048402810184019094528084529091830182828015610bd45780601f10610ba957610100808354040283529160200191610bd4565b820191906000526020600020905b815481529060010190602001808311610bb757829003601f168201915b5050505050915050919050565b6000610bed6002611ebe565b905090565b6002600a541415610c155760405162461bcd60e51b815260040161079590614263565b6002600a553383610c268282611ec9565b610c425760405162461bcd60e51b815260040161079590613999565b6000858152601260205260409020548590610c6f5760405162461bcd60e51b815260040161079590613a07565b84848080601f01602080910402602001604051908101604052809392919081815260200183838082843760009201919091525050825115159150610cc790505760405162461bcd60e51b815260040161079590613882565b610d078787878080601f016020809104026020016040519081016040528093929190818152602001838380828437600092019190915250611f4e92505050565b867f702fe2dc2dc0f68023540aa4a1e11811c0f29112f6ebf01e61b90538e4f29810338888604051610d3b93929190613682565b60405180910390a250506001600a555050505050565b610d62610d5c611d5d565b82611ec9565b610d7e5760405162461bcd60e51b815260040161079590614172565b61084d838383611f92565b6002600a541415610dac5760405162461bcd60e51b815260040161079590614263565b6002600a553381610dbd8282611ec9565b610dd95760405162461bcd60e51b815260040161079590613999565b600c546040516328220f3560e01b81526001600160a01b03909116906328220f3590610e099086906004016136cc565b600060405180830381600087803b158015610e2357600080fd5b505af1158015610b08573d6000803e3d6000fd5b6002600a541415610e5a5760405162461bcd60e51b815260040161079590614263565b6002600a55610e6a338383611fff565b50506001600a55565b6014602052600090815260409020546001600160a01b031681565b6001600160a01b0382166000908152600160205260408120610eb6908363ffffffff61224016565b90505b92915050565b7fadacbbfdfd82dabfa913ef6727df5bc21f8699a2969db41d446fee646fc64b9e81565b600c546001600160a01b03163314610f0d5760405162461bcd60e51b815260040161079590613f4c565b610f168261121a565b6000838152600f6020526040902080546001600160a01b0319166001600160a01b0392909216919091179055610f65610f4e8361121a565b82846040518060200160405280600081525061224c565b5050565b61084d83838360405180602001604052806000815250611a30565b6002600a541415610fa75760405162461bcd60e51b815260040161079590614263565b6002600a5580610fb681611d4a565b610fd25760405162461bcd60e51b815260040161079590614013565b3382610fde8282611ec9565b610ffa5760405162461bcd60e51b815260040161079590613999565b60006110058561121a565b6000868152601060205260409020549091506001600160a01b038083169116146110415760405162461bcd60e51b815260040161079590613825565b61104a8561227f565b50506001600a55505050565b60008061106a60028463ffffffff61236b16565b509392505050565b6002600a5414156110955760405162461bcd60e51b815260040161079590614263565b6002600a55816110a481611d4a565b6110c05760405162461bcd60e51b815260040161079590614013565b81604001516001600160a01b0316336001600160a01b0316146110f55760405162461bcd60e51b815260040161079590614206565b600c546040517fbdb586980000000000000000000000000000000000000000000000000000000081526001600160a01b039091169063bdb5869890610e099086908690339060040161434a565b6002600a5414156111655760405162461bcd60e51b815260040161079590614263565b6002600a5533826111768282611ec9565b6111925760405162461bcd60e51b815260040161079590613999565b600c546040517f62f24b700000000000000000000000000000000000000000000000000000000081526001600160a01b03909116906362f24b70906111dd90879087906004016142e8565b600060405180830381600087803b1580156111f757600080fd5b505af115801561120b573d6000803e3d6000fd5b50506001600a55505050505050565b6000610eb98260405180606001604052806029815260200161443e602991396002919063ffffffff61238716565b60098054604080516020601f60026000196101006001881615020190951694909404938401819004810282018101909252828152606093909290918301828280156107635780601f1061073857610100808354040283529160200191610763565b6002600a5414156112cc5760405162461bcd60e51b815260040161079590614263565b6002600a556112dc838383611fff565b50506001600a5550565b60006001600160a01b03821661130e5760405162461bcd60e51b815260040161079590613de0565b6001600160a01b0382166000908152600160205260409020610eb990611ebe565b600d8054604080516020601f60026000196101006001881615020190951694909404938401819004810282018101909252828152606093909290918301828280156107635780601f1061073857610100808354040283529160200191610763565b611398611d5d565b6001600160a01b03166113a961171c565b6001600160a01b0316146113cf5760405162461bcd60e51b815260040161079590613f81565b600b546040516000916001600160a01b0316907f8be0079c531659141344cd1fd0a4f28419497f9722a3daafe3b4186f6b6457e0908390a3600b80546001600160a01b0319169055565b6002600a54141561143c5760405162461bcd60e51b815260040161079590614263565b6002600a55338361144d8282611ec9565b6114695760405162461bcd60e51b815260040161079590613999565b60008581526013602052604090205485906114965760405162461bcd60e51b815260040161079590613be9565b84848080601f016020809104026020016040519081016040528093929190818152602001838380828437600092019190915250508251151591506114ee90505760405162461bcd60e51b815260040161079590613882565b61152e8787878080601f01602080910402602001604051908101604052809392919081815260200183838082843760009201919091525061239e92505050565b867fe3df41127db820c79e5b8d541a63e40e3e97b9af96f7a50bded13091b70df9ae338888604051610d3b93929190613682565b6002600a5414156115855760405162461bcd60e51b815260040161079590614263565b6002600a5580511580611599575080514211155b6115b55760405162461bcd60e51b81526004016107959061429a565b60006115bf611dcf565b6040808601516060870151602080880151516001600160a01b038b16600090815260188352858120805460018101909155895196519798509096889661162d967f93088eb7747c9bc240a8edd9669cbcc6663249f8e821916b3305e54cca2017f7969095909493920161372d565b60405160208183030381529060405280519060200120604051602001611654929190613587565b60405160208183030381529060405280519060200120905060006001828560200151866040015187606001516040516000815260200160405260405161169d9493929190613755565b6020604051602081039080840390855afa1580156116bf573d6000803e3d6000fd5b5050604051601f1901519150506001600160a01b038116158015906116f55750806001600160a01b0316876001600160a01b0316145b6117115760405162461bcd60e51b81526004016107959061404a565b610b08818787611fff565b600b546001600160a01b031690565b60078054604080516020601f60026000196101006001881615020190951694909404938401819004810282018101909252828152606093909290918301828280156107635780601f1061073857610100808354040283529160200191610763565b600f602052600090815260409020546001600160a01b031681565b6117af611d5d565b6001600160a01b0316826001600160a01b031614156117e05760405162461bcd60e51b815260040161079590613bb2565b80600560006117ed611d5d565b6001600160a01b03908116825260208083019390935260409182016000908120918716808252919093529120805460ff191692151592909217909155611831611d5d565b6001600160a01b03167f17307eab39ab6107e8899845ad3d59bd9653f200f220920489ca2b5937696c318360405161186991906136c1565b60405180910390a35050565b6002600a5414156118985760405162461bcd60e51b815260040161079590614263565b6002600a556118a5611d5d565b6001600160a01b03166118b661171c565b6001600160a01b0316146118dc5760405162461bcd60e51b815260040161079590613f81565b6118e5816123e3565b506001600a55565b6002600a5414156119105760405162461bcd60e51b815260040161079590614263565b6002600a5561191e8161076e565b6001600160a01b0316336001600160a01b03161461194e5760405162461bcd60e51b815260040161079590613af8565b6118e5600082611d61565b6002600a54141561197c5760405162461bcd60e51b815260040161079590614263565b6002600a55808061198d6019611eba565b116119aa5760405162461bcd60e51b815260040161079590613786565b600c546040517f776a08350000000000000000000000000000000000000000000000000000000081526001600160a01b039091169063776a0835906119f590859033906004016142d1565b600060405180830381600087803b158015611a0f57600080fd5b505af1158015611a23573d6000803e3d6000fd5b50506001600a5550505050565b611a41611a3b611d5d565b83611ec9565b611a5d5760405162461bcd60e51b815260040161079590614172565b611a698484848461224c565b50505050565b6002600a541415611a925760405162461bcd60e51b815260040161079590614263565b6002600a553382611aa38282611ec9565b611abf5760405162461bcd60e51b815260040161079590613999565b600c546040517fba3393990000000000000000000000000000000000000000000000000000000081526001600160a01b039091169063ba339399906111dd9087908790600401614336565b60608180611b186019611eba565b11611b355760405162461bcd60e51b815260040161079590613786565b60008381526008602090815260409182902080548351601f6002600019610100600186161502019093169290920491820184900484028101840190945280845260609392830182828015611bca5780601f10611b9f57610100808354040283529160200191611bca565b820191906000526020600020905b815481529060010190602001808311611bad57829003601f168201915b509398975050505050505050565b600e5481565b7f93088eb7747c9bc240a8edd9669cbcc6663249f8e821916b3305e54cca2017f781565b6010602052600090815260409020546001600160a01b031681565b6001600160a01b03918216600090815260056020908152604080832093909416825291909152205460ff1690565b600c546001600160a01b031681565b611c62611d5d565b6001600160a01b0316611c7361171c565b6001600160a01b031614611c995760405162461bcd60e51b815260040161079590613f81565b6001600160a01b038116611cbf5760405162461bcd60e51b81526004016107959061393c565b600b546040516001600160a01b038084169216907f8be0079c531659141344cd1fd0a4f28419497f9722a3daafe3b4186f6b6457e090600090a3600b80546001600160a01b0319166001600160a01b0392909216919091179055565b601760209081526000928352604080842090915290825290205481565b60126020526000908152604090205481565b6000610eb960028363ffffffff6123ef16565b3390565b600081815260046020526040902080546001600160a01b0319166001600160a01b0384169081179091558190611d968261121a565b6001600160a01b03167f8c5be1e5ebec7d5bd14f71427d1e84f3dd0314c0f7b2291e5b200ac8c7c3b92560405160405180910390a45050565b6040516000904690611de0906135bd565b604080519182900382208282018252600583527f4d6f74696600000000000000000000000000000000000000000000000000000060209384015281518083018352600181527f3100000000000000000000000000000000000000000000000000000000000000908401529051611e9e927f995ec625e9d0f4c4f4cb6358dd33c33e4a452bb37d2246dee597ee07e579fcb3917fc89efdaa54c0f20c7adf612882df0950f5a951637e0307cdcb4c672f298b8bc6918691309101613701565b6040516020818303038152906040528051906020012091505090565b5490565b6000610eb982611eba565b6000611ed482611d4a565b611ef05760405162461bcd60e51b815260040161079590613ca3565b6000611efb8361121a565b9050806001600160a01b0316846001600160a01b03161480611f365750836001600160a01b0316611f2b8461076e565b6001600160a01b0316145b80611f465750611f468185611c1d565b949350505050565b611f5782611d4a565b611f735760405162461bcd60e51b815260040161079590613f00565b6000828152600860209081526040909120825161084d92840190612de4565b600c546040516328220f3560e01b81526001600160a01b03909116906328220f3590611fc29084906004016136cc565b600060405180830381600087803b158015611fdc57600080fd5b505af1158015611ff0573d6000803e3d6000fd5b5050505061084d8383836123fb565b8151805161201f5760405162461bcd60e51b815260040161079590613882565b602083015180516120425760405162461bcd60e51b815260040161079590613882565b600e5461204d610be1565b1061206a5760405162461bcd60e51b8152600401610795906139d0565b604084015161208b5760405162461bcd60e51b815260040161079590613a9b565b60408085015160009081526016602052205460ff16156120bd5760405162461bcd60e51b8152600401610795906140de565b60608401516120de5760405162461bcd60e51b815260040161079590613d83565b60006120ea6019611eba565b90506120f6868261251b565b6121006019612535565b61210e81866040015161253e565b61211c818660600151612577565b61212681306125b0565b61213481866020015161239e565b612142818660000151611f4e565b6001600160a01b038616600090815260116020526040902061216a908263ffffffff61260516565b50604080860151600090815260166020908152828220805460ff191660011790558382526010815282822080546001600160a01b03808c166001600160a01b03199283168117909355600f90935292849020805490931617909155600c5491517feb55683a00000000000000000000000000000000000000000000000000000000815291169063eb55683a90612206908490889060040161430c565b600060405180830381600087803b15801561222057600080fd5b505af1158015612234573d6000803e3d6000fd5b50505050505050505050565b6000610eb68383612611565b612257848484611f92565b61226384848484612656565b611a695760405162461bcd60e51b8152600401610795906138df565b60008181526008602090815260409182902080548351601f60026000196101006001861615020190931692909204918201849004840281018401909452808452606093928301828280156123145780601f106122e957610100808354040283529160200191612314565b820191906000526020600020905b8154815290600101906020018083116122f757829003601f168201915b505050505090506123248261277d565b80511561234c576000828152600860209081526040909120825161234a92840190612de4565b505b506000908152600f6020526040902080546001600160a01b0319169055565b600080808061237a8686612856565b9097909650945050505050565b60006123948484846128b2565b90505b9392505050565b816123a881611d4a565b6123c45760405162461bcd60e51b815260040161079590614013565b60008381526015602090815260409091208351611a6992850190612de4565b6123ec81611c5a565b50565b6000610eb68383612911565b826001600160a01b031661240e8261121a565b6001600160a01b0316146124345760405162461bcd60e51b815260040161079590613fb6565b6001600160a01b03821661245a5760405162461bcd60e51b815260040161079590613b55565b61246583838361084d565b612470600082611d61565b6001600160a01b0383166000908152600160205260409020612498908263ffffffff61292916565b506001600160a01b03821660009081526001602052604090206124c1908263ffffffff61260516565b506124d46002828463ffffffff61293516565b5080826001600160a01b0316846001600160a01b03167fddf252ad1be2c89b69c2b068fc378daa952ba7f163c4a11628f55a4df523b3ef60405160405180910390a4505050565b610f6582826040518060200160405280600081525061294b565b80546001019055565b8161254881611d4a565b6125645760405162461bcd60e51b815260040161079590614013565b5060009182526012602052604090912055565b8161258181611d4a565b61259d5760405162461bcd60e51b815260040161079590614013565b5060009182526013602052604090912055565b816125ba81611d4a565b6125d65760405162461bcd60e51b815260040161079590614013565b5060009182526014602052604090912080546001600160a01b0319166001600160a01b03909216919091179055565b6000610eb6838361297e565b815460009082106126345760405162461bcd60e51b8152600401610795906137e3565b82600001828154811061264357fe5b9060005260206000200154905092915050565b600061266a846001600160a01b03166129c8565b61267657506001611f46565b606061272e630a85bd0160e11b61268b611d5d565b8887876040516024016126a19493929190613646565b604051602081830303815290604052907bffffffffffffffffffffffffffffffffffffffffffffffffffffffff19166020820180517bffffffffffffffffffffffffffffffffffffffffffffffffffffffff838183161783525050505060405180606001604052806032815260200161440c603291396001600160a01b038816919063ffffffff6129ce16565b90506000818060200190518101906127469190613309565b7fffffffff0000000000000000000000000000000000000000000000000000000016630a85bd0160e11b1492505050949350505050565b60006127888261121a565b90506127968160008461084d565b6127a1600083611d61565b60008281526008602052604090205460026000196101006001841615020190911604156127df5760008281526008602052604081206127df91612e62565b6001600160a01b0381166000908152600160205260409020612807908363ffffffff61292916565b5061281960028363ffffffff6129dd16565b5060405182906000906001600160a01b038416907fddf252ad1be2c89b69c2b068fc378daa952ba7f163c4a11628f55a4df523b3ef908390a45050565b81546000908190831061287b5760405162461bcd60e51b815260040161079590613e3d565b600084600001848154811061288c57fe5b906000526020600020906002020190508060000154816001015492509250509250929050565b600082815260018401602052604081205482816128e25760405162461bcd60e51b81526004016107959190613773565b508460000160018203815481106128f557fe5b9060005260206000209060020201600101549150509392505050565b60009081526001919091016020526040902054151590565b6000610eb683836129e9565b600061239484846001600160a01b038516612aaf565b6129558383612b46565b6129626000848484612656565b61084d5760405162461bcd60e51b8152600401610795906138df565b600061298a8383612911565b6129c057508154600181810184556000848152602080822090930184905584548482528286019093526040902091909155610eb9565b506000610eb9565b3b151590565b60606123948484600085612c16565b6000610eb68383612cd7565b60008181526001830160205260408120548015612aa55783546000198083019190810190600090879083908110612a1c57fe5b9060005260206000200154905080876000018481548110612a3957fe5b600091825260208083209091019290925582815260018981019092526040902090840190558654879080612a6957fe5b60019003818190600052602060002001600090559055866001016000878152602001908152602001600020600090556001945050505050610eb9565b6000915050610eb9565b600082815260018401602052604081205480612b14575050604080518082018252838152602080820184815286546001818101895560008981528481209551600290930290950191825591519082015586548684528188019092529290912055612397565b82856000016001830381548110612b2757fe5b9060005260206000209060020201600101819055506000915050612397565b6001600160a01b038216612b6c5760405162461bcd60e51b815260040161079590613e7f565b612b7581611d4a565b15612b925760405162461bcd60e51b815260040161079590613a64565b612b9e6000838361084d565b6001600160a01b0382166000908152600160205260409020612bc6908263ffffffff61260516565b50612bd96002828463ffffffff61293516565b5060405181906001600160a01b038416906000907fddf252ad1be2c89b69c2b068fc378daa952ba7f163c4a11628f55a4df523b3ef908290a45050565b606082471015612c385760405162461bcd60e51b815260040161079590613c46565b612c41856129c8565b612c5d5760405162461bcd60e51b8152600401610795906141cf565b60006060866001600160a01b03168587604051612c7a919061356b565b60006040518083038185875af1925050503d8060008114612cb7576040519150601f19603f3d011682016040523d82523d6000602084013e612cbc565b606091505b5091509150612ccc828286612dab565b979650505050505050565b60008181526001830160205260408120548015612aa55783546000198083019190810190600090879083908110612d0a57fe5b9060005260206000209060020201905080876000018481548110612d2a57fe5b600091825260208083208454600290930201918255600193840154918401919091558354825289830190526040902090840190558654879080612d6957fe5b6000828152602080822060026000199094019384020182815560019081018390559290935588815289820190925260408220919091559450610eb99350505050565b60608315612dba575081612397565b825115612dca5782518084602001fd5b8160405162461bcd60e51b81526004016107959190613773565b828054600181600116156101000203166002900490600052602060002090601f016020900481019282601f10612e2557805160ff1916838001178555612e52565b82800160010185558215612e52579182015b82811115612e52578251825591602001919060010190612e37565b50612e5e929150612ea2565b5090565b50805460018160011615610100020316600290046000825580601f10612e8857506123ec565b601f0160209004906000526020600020908101906123ec91905b61076b91905b80821115612e5e5760008155600101612ea8565b80356001600160a01b0381168114610eb957600080fd5b600082601f830112612ee3578081fd5b813567ffffffffffffffff811115612ef9578182fd5b612f0c601f8201601f1916602001614375565b9150808252836020828501011115612f2357600080fd5b8060208401602084013760009082016020015292915050565b600060608284031215612f4d578081fd5b612f576060614375565b9050612f638383612f8f565b8152612f728360208401612f8f565b6020820152612f848360408401612f8f565b604082015292915050565b600060208284031215612fa0578081fd5b612faa6020614375565b9135825250919050565b600060808284031215612fc5578081fd5b612fcf6080614375565b905081358152602082013560ff81168114612fe957600080fd5b80602083015250604082013560408201526060820135606082015292915050565b60006080828403121561301b578081fd5b6130256080614375565b9050813567ffffffffffffffff8082111561303f57600080fd5b61304b85838601612ed3565b8352602084013591508082111561306157600080fd5b5061306e84828501612ed3565b602083015250604082013560408201526060820135606082015292915050565b60006020828403121561309f578081fd5b610eb68383612ebc565b600080604083850312156130bb578081fd5b6130c58484612ebc565b91506130d48460208501612ebc565b90509250929050565b6000806000606084860312156130f1578081fd5b83356130fc816143c8565b9250602084013561310c816143c8565b929592945050506040919091013590565b60008060008060808587031215613132578081fd5b61313c8686612ebc565b935061314b8660208701612ebc565b925060408501359150606085013567ffffffffffffffff81111561316d578182fd5b61317987828801612ed3565b91505092959194509250565b60008060408385031215613197578182fd5b6131a18484612ebc565b9150602083013580151581146131b5578182fd5b809150509250929050565b600080600060a084860312156131d4578283fd5b6131de8585612ebc565b9250602084013567ffffffffffffffff8111156131f9578283fd5b6132058682870161300a565b9250506132158560408601612f3c565b90509250925092565b6000806000806101208587031215613234578182fd5b61323e8686612ebc565b9350602085013567ffffffffffffffff811115613259578283fd5b6132658782880161300a565b9350506132758660408701612f3c565b91506132848660a08701612fb4565b905092959194509250565b600080604083850312156132a1578182fd5b6132ab8484612ebc565b946020939093013593505050565b600080600060c084860312156132cd578081fd5b6132d78585612ebc565b9250602084013591506132158560408601612fb4565b6000602082840312156132fe578081fd5b8135612397816143dd565b60006020828403121561331a578081fd5b8151612397816143dd565b60008060808385031215613337578182fd5b823567ffffffffffffffff81111561334d578283fd5b6133598582860161300a565b9250506130d48460208501612f3c565b60006020828403121561337a578081fd5b5035919050565b60008060408385031215613393578182fd5b823591506130d48460208501612ebc565b6000806000604084860312156133b8578081fd5b83359250602084013567ffffffffffffffff808211156133d6578283fd5b81860187601f8201126133e7578384fd5b80359250818311156133f7578384fd5b876020848301011115613408578384fd5b949760209095019650909450505050565b600080828403606081121561342c578283fd5b833592506040601f1982011215613441578182fd5b5061344c6040614375565b602084013581526134608560408601612ebc565b6020820152809150509250929050565b60008082840360c0811215613483578283fd5b8335925060a0601f1982011215613498578182fd5b506134a360a0614375565b602084013581526134b78560408601612ebc565b60208201526134c98560608601612ebc565b60408201526134db8560808601612ebc565b60608201526134ed8560a08601612f8f565b6080820152809150509250929050565b6000815180845261351581602086016020860161439c565b601f01601f19169290920160200192915050565b8051825260208101516001600160a01b038082166020850152806040840151166040850152806060840151166060850152505060808101515160808301525050565b6000825161357d81846020870161439c565b9190910192915050565b7f190100000000000000000000000000000000000000000000000000000000000081526002810192909252602282015260420190565b7f454950373132446f6d61696e28737472696e67206e616d652c737472696e672081527f76657273696f6e2c75696e7432353620636861696e49642c616464726573732060208201527f766572696679696e67436f6e7472616374290000000000000000000000000000604082015260520190565b6001600160a01b0391909116815260200190565b60006001600160a01b0380871683528086166020840152508360408301526080606083015261367860808301846134fd565b9695505050505050565b60006001600160a01b03851682526040602083015282604083015282846060840137818301606090810191909152601f909201601f1916010192915050565b901515815260200190565b90815260200190565b9485526001600160a01b0393909316602085015260408401919091526060830152608082015260a00190565b9485526020850193909352604084019190915260608301526001600160a01b0316608082015260a00190565b958652602086019490945260408501929092526060840152608083015260a082015260c00190565b93845260ff9290921660208401526040830152606082015260800190565b600060208252610eb660208301846134fd565b60208082526027908201527f4974656d3a20746f6b656e2077697468207468617420696420646f6573206e6f60408201527f7420657869737400000000000000000000000000000000000000000000000000606082015260800190565b60208082526022908201527f456e756d657261626c655365743a20696e646578206f7574206f6620626f756e604082015261647360f01b606082015260800190565b60208082526022908201527f4974656d3a206f776e6572206973206e6f742063726561746f72206f6620697460408201527f656d000000000000000000000000000000000000000000000000000000000000606082015260800190565b60208082526025908201527f4974656d3a2073706563696669656420757269206d757374206265206e6f6e2d60408201527f656d707479000000000000000000000000000000000000000000000000000000606082015260800190565b60208082526032908201527f4552433732313a207472616e7366657220746f206e6f6e20455243373231526560408201527f63656976657220696d706c656d656e7465720000000000000000000000000000606082015260800190565b60208082526026908201527f4f776e61626c653a206e6577206f776e657220697320746865207a65726f206160408201527f6464726573730000000000000000000000000000000000000000000000000000606082015260800190565b6020808252601c908201527f4974656d3a204f6e6c7920617070726f766564206f72206f776e657200000000604082015260600190565b60208082526015908201527f4974656d3a20737570706c79206465706c657465640000000000000000000000604082015260600190565b60208082526031908201527f4974656d3a20746f6b656e20646f6573206e6f7420686176652068617368206f60408201527f66206372656174656420636f6e74656e74000000000000000000000000000000606082015260800190565b6020808252601c908201527f4552433732313a20746f6b656e20616c7265616479206d696e74656400000000604082015260600190565b60208082526023908201527f4974656d3a20636f6e74656e742068617368206d757374206265206e6f6e2d7a60408201527f65726f0000000000000000000000000000000000000000000000000000000000606082015260800190565b60208082526021908201527f4974656d3a2063616c6c6572206e6f7420617070726f7665642061646472657360408201527f7300000000000000000000000000000000000000000000000000000000000000606082015260800190565b60208082526024908201527f4552433732313a207472616e7366657220746f20746865207a65726f2061646460408201527f7265737300000000000000000000000000000000000000000000000000000000606082015260800190565b60208082526019908201527f4552433732313a20617070726f766520746f2063616c6c657200000000000000604082015260600190565b6020808252602e908201527f4974656d3a20746f6b656e20646f6573206e6f7420686176652068617368206f60408201527f6620697473206d65746164617461000000000000000000000000000000000000606082015260800190565b60208082526026908201527f416464726573733a20696e73756666696369656e742062616c616e636520666f60408201527f722063616c6c0000000000000000000000000000000000000000000000000000606082015260800190565b6020808252602c908201527f4552433732313a206f70657261746f7220717565727920666f72206e6f6e657860408201526b34b9ba32b73a103a37b5b2b760a11b606082015260800190565b6020808252601b908201527f4974656d3a207370656e6465722063616e6e6f74206265203078300000000000604082015260600190565b60208082526038908201527f4552433732313a20617070726f76652063616c6c6572206973206e6f74206f7760408201527f6e6572206e6f7220617070726f76656420666f7220616c6c0000000000000000606082015260800190565b60208082526024908201527f4974656d3a206d657461646174612068617368206d757374206265206e6f6e2d60408201527f7a65726f00000000000000000000000000000000000000000000000000000000606082015260800190565b6020808252602a908201527f4552433732313a2062616c616e636520717565727920666f7220746865207a6560408201527f726f206164647265737300000000000000000000000000000000000000000000606082015260800190565b60208082526022908201527f456e756d657261626c654d61703a20696e646578206f7574206f6620626f756e604082015261647360f01b606082015260800190565b6020808252818101527f4552433732313a206d696e7420746f20746865207a65726f2061646472657373604082015260600190565b6020808252602c908201527f4552433732313a20617070726f76656420717565727920666f72206e6f6e657860408201526b34b9ba32b73a103a37b5b2b760a11b606082015260800190565b6020808252602c908201527f4552433732314d657461646174613a2055524920736574206f66206e6f6e657860408201526b34b9ba32b73a103a37b5b2b760a11b606082015260800190565b6020808252818101527f4974656d3a206f6e6c79206974656d45786368616e676520636f6e7472616374604082015260600190565b6020808252818101527f4f776e61626c653a2063616c6c6572206973206e6f7420746865206f776e6572604082015260600190565b60208082526029908201527f4552433732313a207472616e73666572206f6620746f6b656e2074686174206960408201527f73206e6f74206f776e0000000000000000000000000000000000000000000000606082015260800190565b60208082526017908201527f4974656d3a206e6f6e6578697374656e7420746f6b656e000000000000000000604082015260600190565b60208082526017908201527f4974656d3a205369676e617475726520696e76616c6964000000000000000000604082015260600190565b60208082526021908201527f4552433732313a20617070726f76616c20746f2063757272656e74206f776e6560408201527f7200000000000000000000000000000000000000000000000000000000000000606082015260800190565b6020808252603d908201527f4974656d3a206120746f6b656e2068617320616c7265616479206265656e206360408201527f7265617465642077697468207468697320636f6e74656e742068617368000000606082015260800190565b60208082526014908201527f4974656d3a205065726d69742065787069726564000000000000000000000000604082015260600190565b60208082526031908201527f4552433732313a207472616e736665722063616c6c6572206973206e6f74206f60408201527f776e6572206e6f7220617070726f766564000000000000000000000000000000606082015260800190565b6020808252601d908201527f416464726573733a2063616c6c20746f206e6f6e2d636f6e7472616374000000604082015260600190565b60208082526027908201527f4974656d45786368616e67653a20426964646572206d757374206265206d736760408201527f2073656e64657200000000000000000000000000000000000000000000000000606082015260800190565b6020808252601f908201527f5265656e7472616e637947756172643a207265656e7472616e742063616c6c00604082015260600190565b60208082526019908201527f4974656d3a206d696e7457697468536967206578706972656400000000000000604082015260600190565b9182526001600160a01b0316602082015260400190565b918252805160208084019190915201516001600160a01b0316604082015260600190565b91825280515160208084019190915281015151604080840191909152015151606082015260800190565b82815260c081016123976020830184613529565b83815260e0810161435e6020830185613529565b6001600160a01b03831660c0830152949350505050565b60405181810167ffffffffffffffff8111828210171561439457600080fd5b604052919050565b60005b838110156143b757818101518382015260200161439f565b83811115611a695750506000910152565b6001600160a01b03811681146123ec57600080fd5b7fffffffff00000000000000000000000000000000000000000000000000000000811681146123ec57600080fdfe4552433732313a207472616e7366657220746f206e6f6e20455243373231526563656976657220696d706c656d656e7465724552433732313a206f776e657220717565727920666f72206e6f6e6578697374656e7420746f6b656ea26469706673582212205a2f7228b27e82a29705cfa1c01c3253cd074f3cab7987803875670260b8810b64736f6c63430006080033",
  "linkReferences": {},
  "deployedLinkReferences": {}
}