{
  "_format": "hh-sol-artifact-1",
  "contractName": "Item",
  "sourceName": "contracts/Item.sol",
  "abi": [
    {
      "inputs": [
        {
          "internalType": "address",
          "name": "itemExchangeContractAddr",
          "type": "address"
        },
        {
          "internalType": "string",
          "name": "name_",
          "type": "string"
        },
        {
          "internalType": "string",
          "name": "symbol_",
          "type": "string"
        },
        {
          "internalType": "uint256",
          "name": "maxSupplyAmount",
          "type": "uint256"
        }
      ],
      "stateMutability": "nonpayable",
      "type": "constructor"
    },
    {
      "anonymous": false,
      "inputs": [
        {
          "indexed": true,
          "internalType": "address",
          "name": "owner",
          "type": "address"
        },
        {
          "indexed": true,
          "internalType": "address",
          "name": "approved",
          "type": "address"
        },
        {
          "indexed": true,
          "internalType": "uint256",
          "name": "tokenId",
          "type": "uint256"
        }
      ],
      "name": "Approval",
      "type": "event"
    },
    {
      "anonymous": false,
      "inputs": [
        {
          "indexed": true,
          "internalType": "address",
          "name": "owner",
          "type": "address"
        },
        {
          "indexed": true,
          "internalType": "address",
          "name": "operator",
          "type": "address"
        },
        {
          "indexed": false,
          "internalType": "bool",
          "name": "approved",
          "type": "bool"
        }
      ],
      "name": "ApprovalForAll",
      "type": "event"
    },
    {
      "anonymous": false,
      "inputs": [
        {
          "indexed": true,
          "internalType": "address",
          "name": "previousOwner",
          "type": "address"
        },
        {
          "indexed": true,
          "internalType": "address",
          "name": "newOwner",
          "type": "address"
        }
      ],
      "name": "OwnershipTransferred",
      "type": "event"
    },
    {
      "anonymous": false,
      "inputs": [
        {
          "indexed": true,
          "internalType": "uint256",
          "name": "_tokenId",
          "type": "uint256"
        },
        {
          "indexed": false,
          "internalType": "address",
          "name": "owner",
          "type": "address"
        },
        {
          "indexed": false,
          "internalType": "string",
          "name": "_uri",
          "type": "string"
        }
      ],
      "name": "TokenMetadataURIUpdated",
      "type": "event"
    },
    {
      "anonymous": false,
      "inputs": [
        {
          "indexed": true,
          "internalType": "uint256",
          "name": "_tokenId",
          "type": "uint256"
        },
        {
          "indexed": false,
          "internalType": "address",
          "name": "owner",
          "type": "address"
        },
        {
          "indexed": false,
          "internalType": "string",
          "name": "_uri",
          "type": "string"
        }
      ],
      "name": "TokenURIUpdated",
      "type": "event"
    },
    {
      "anonymous": false,
      "inputs": [
        {
          "indexed": true,
          "internalType": "address",
          "name": "from",
          "type": "address"
        },
        {
          "indexed": true,
          "internalType": "address",
          "name": "to",
          "type": "address"
        },
        {
          "indexed": true,
          "internalType": "uint256",
          "name": "tokenId",
          "type": "uint256"
        }
      ],
      "name": "Transfer",
      "type": "event"
    },
    {
      "inputs": [],
      "name": "MINT_WITH_SIG_TYPEHASH",
      "outputs": [
        {
          "internalType": "bytes32",
          "name": "",
          "type": "bytes32"
        }
      ],
      "stateMutability": "view",
      "type": "function"
    },
    {
      "inputs": [],
      "name": "PERMIT_TYPEHASH",
      "outputs": [
        {
          "internalType": "bytes32",
          "name": "",
          "type": "bytes32"
        }
      ],
      "stateMutability": "view",
      "type": "function"
    },
    {
      "inputs": [
        {
          "internalType": "uint256",
          "name": "tokenId",
          "type": "uint256"
        },
        {
          "components": [
            {
              "internalType": "uint256",
              "name": "amount",
              "type": "uint256"
            },
            {
              "internalType": "address",
              "name": "currency",
              "type": "address"
            },
            {
              "internalType": "address",
              "name": "bidder",
              "type": "address"
            },
            {
              "internalType": "address",
              "name": "recipient",
              "type": "address"
            },
            {
              "components": [
                {
                  "internalType": "uint256",
                  "name": "value",
                  "type": "uint256"
                }
              ],
              "internalType": "struct Decimal.D256",
              "name": "sellOnShare",
              "type": "tuple"
            }
          ],
          "internalType": "struct IItemExchange.Bid",
          "name": "bid",
          "type": "tuple"
        }
      ],
      "name": "acceptBid",
      "outputs": [],
      "stateMutability": "nonpayable",
      "type": "function"
    },
    {
      "inputs": [
        {
          "internalType": "address",
          "name": "to",
          "type": "address"
        },
        {
          "internalType": "uint256",
          "name": "tokenId",
          "type": "uint256"
        }
      ],
      "name": "approve",
      "outputs": [],
      "stateMutability": "nonpayable",
      "type": "function"
    },
    {
      "inputs": [
        {
          "internalType": "address",
          "name": "owner",
          "type": "address"
        }
      ],
      "name": "balanceOf",
      "outputs": [
        {
          "internalType": "uint256",
          "name": "",
          "type": "uint256"
        }
      ],
      "stateMutability": "view",
      "type": "function"
    },
    {
      "inputs": [],
      "name": "baseURI",
      "outputs": [
        {
          "internalType": "string",
          "name": "",
          "type": "string"
        }
      ],
      "stateMutability": "view",
      "type": "function"
    },
    {
      "inputs": [
        {
          "internalType": "uint256",
          "name": "tokenId",
          "type": "uint256"
        }
      ],
      "name": "burn",
      "outputs": [],
      "stateMutability": "nonpayable",
      "type": "function"
    },
    {
      "inputs": [
        {
          "internalType": "uint256",
          "name": "tokenId",
          "type": "uint256"
        }
      ],
      "name": "getApproved",
      "outputs": [
        {
          "internalType": "address",
          "name": "",
          "type": "address"
        }
      ],
      "stateMutability": "view",
      "type": "function"
    },
    {
      "inputs": [
        {
          "internalType": "address",
          "name": "owner",
          "type": "address"
        },
        {
          "internalType": "address",
          "name": "operator",
          "type": "address"
        }
      ],
      "name": "isApprovedForAll",
      "outputs": [
        {
          "internalType": "bool",
          "name": "",
          "type": "bool"
        }
      ],
      "stateMutability": "view",
      "type": "function"
    },
    {
      "inputs": [],
      "name": "itemExchangeContract",
      "outputs": [
        {
          "internalType": "address",
          "name": "",
          "type": "address"
        }
      ],
      "stateMutability": "view",
      "type": "function"
    },
    {
      "inputs": [
        {
          "internalType": "uint256",
          "name": "tokenId",
          "type": "uint256"
        },
        {
          "internalType": "address",
          "name": "recipient",
          "type": "address"
        }
      ],
      "name": "listTransfer",
      "outputs": [],
      "stateMutability": "nonpayable",
      "type": "function"
    },
    {
      "inputs": [],
      "name": "maxSupply",
      "outputs": [
        {
          "internalType": "uint256",
          "name": "",
          "type": "uint256"
        }
      ],
      "stateMutability": "view",
      "type": "function"
    },
    {
      "inputs": [
        {
          "components": [
            {
              "internalType": "string",
              "name": "tokenURI",
              "type": "string"
            },
            {
              "internalType": "string",
              "name": "metadataURI",
              "type": "string"
            },
            {
              "internalType": "bytes32",
              "name": "contentHash",
              "type": "bytes32"
            },
            {
              "internalType": "bytes32",
              "name": "metadataHash",
              "type": "bytes32"
            }
          ],
          "internalType": "struct IItem.ItemData",
          "name": "data",
          "type": "tuple"
        },
        {
          "components": [
            {
              "components": [
                {
                  "internalType": "uint256",
                  "name": "value",
                  "type": "uint256"
                }
              ],
              "internalType": "struct Decimal.D256",
              "name": "prevOwner",
              "type": "tuple"
            },
            {
              "components": [
                {
                  "internalType": "uint256",
                  "name": "value",
                  "type": "uint256"
                }
              ],
              "internalType": "struct Decimal.D256",
              "name": "creator",
              "type": "tuple"
            },
            {
              "components": [
                {
                  "internalType": "uint256",
                  "name": "value",
                  "type": "uint256"
                }
              ],
              "internalType": "struct Decimal.D256",
              "name": "owner",
              "type": "tuple"
            }
          ],
          "internalType": "struct IItemExchange.BidShares",
          "name": "bidShares",
          "type": "tuple"
        }
      ],
      "name": "mint",
      "outputs": [],
      "stateMutability": "nonpayable",
      "type": "function"
    },
    {
      "inputs": [
        {
          "internalType": "address",
          "name": "creator",
          "type": "address"
        },
        {
          "components": [
            {
              "internalType": "string",
              "name": "tokenURI",
              "type": "string"
            },
            {
              "internalType": "string",
              "name": "metadataURI",
              "type": "string"
            },
            {
              "internalType": "bytes32",
              "name": "contentHash",
              "type": "bytes32"
            },
            {
              "internalType": "bytes32",
              "name": "metadataHash",
              "type": "bytes32"
            }
          ],
          "internalType": "struct IItem.ItemData",
          "name": "data",
          "type": "tuple"
        },
        {
          "components": [
            {
              "components": [
                {
                  "internalType": "uint256",
                  "name": "value",
                  "type": "uint256"
                }
              ],
              "internalType": "struct Decimal.D256",
              "name": "prevOwner",
              "type": "tuple"
            },
            {
              "components": [
                {
                  "internalType": "uint256",
                  "name": "value",
                  "type": "uint256"
                }
              ],
              "internalType": "struct Decimal.D256",
              "name": "creator",
              "type": "tuple"
            },
            {
              "components": [
                {
                  "internalType": "uint256",
                  "name": "value",
                  "type": "uint256"
                }
              ],
              "internalType": "struct Decimal.D256",
              "name": "owner",
              "type": "tuple"
            }
          ],
          "internalType": "struct IItemExchange.BidShares",
          "name": "bidShares",
          "type": "tuple"
        },
        {
          "components": [
            {
              "internalType": "uint256",
              "name": "deadline",
              "type": "uint256"
            },
            {
              "internalType": "uint8",
              "name": "v",
              "type": "uint8"
            },
            {
              "internalType": "bytes32",
              "name": "r",
              "type": "bytes32"
            },
            {
              "internalType": "bytes32",
              "name": "s",
              "type": "bytes32"
            }
          ],
          "internalType": "struct IItem.EIP712Signature",
          "name": "sig",
          "type": "tuple"
        }
      ],
      "name": "mintForCreatorWithSig",
      "outputs": [],
      "stateMutability": "nonpayable",
      "type": "function"
    },
    {
      "inputs": [
        {
          "internalType": "address",
          "name": "creator",
          "type": "address"
        },
        {
          "components": [
            {
              "internalType": "string",
              "name": "tokenURI",
              "type": "string"
            },
            {
              "internalType": "string",
              "name": "metadataURI",
              "type": "string"
            },
            {
              "internalType": "bytes32",
              "name": "contentHash",
              "type": "bytes32"
            },
            {
              "internalType": "bytes32",
              "name": "metadataHash",
              "type": "bytes32"
            }
          ],
          "internalType": "struct IItem.ItemData",
          "name": "data",
          "type": "tuple"
        },
        {
          "components": [
            {
              "components": [
                {
                  "internalType": "uint256",
                  "name": "value",
                  "type": "uint256"
                }
              ],
              "internalType": "struct Decimal.D256",
              "name": "prevOwner",
              "type": "tuple"
            },
            {
              "components": [
                {
                  "internalType": "uint256",
                  "name": "value",
                  "type": "uint256"
                }
              ],
              "internalType": "struct Decimal.D256",
              "name": "creator",
              "type": "tuple"
            },
            {
              "components": [
                {
                  "internalType": "uint256",
                  "name": "value",
                  "type": "uint256"
                }
              ],
              "internalType": "struct Decimal.D256",
              "name": "owner",
              "type": "tuple"
            }
          ],
          "internalType": "struct IItemExchange.BidShares",
          "name": "bidShares",
          "type": "tuple"
        }
      ],
      "name": "mintForCreatorWithoutSig",
      "outputs": [],
      "stateMutability": "nonpayable",
      "type": "function"
    },
    {
      "inputs": [
        {
          "internalType": "address",
          "name": "",
          "type": "address"
        }
      ],
      "name": "mintWithSigNonces",
      "outputs": [
        {
          "internalType": "uint256",
          "name": "",
          "type": "uint256"
        }
      ],
      "stateMutability": "view",
      "type": "function"
    },
    {
      "inputs": [],
      "name": "name",
      "outputs": [
        {
          "internalType": "string",
          "name": "",
          "type": "string"
        }
      ],
      "stateMutability": "view",
      "type": "function"
    },
    {
      "inputs": [],
      "name": "owner",
      "outputs": [
        {
          "internalType": "address",
          "name": "",
          "type": "address"
        }
      ],
      "stateMutability": "view",
      "type": "function"
    },
    {
      "inputs": [
        {
          "internalType": "uint256",
          "name": "tokenId",
          "type": "uint256"
        }
      ],
      "name": "ownerOf",
      "outputs": [
        {
          "internalType": "address",
          "name": "",
          "type": "address"
        }
      ],
      "stateMutability": "view",
      "type": "function"
    },
    {
      "inputs": [
        {
          "internalType": "address",
          "name": "spender",
          "type": "address"
        },
        {
          "internalType": "uint256",
          "name": "tokenId",
          "type": "uint256"
        },
        {
          "components": [
            {
              "internalType": "uint256",
              "name": "deadline",
              "type": "uint256"
            },
            {
              "internalType": "uint8",
              "name": "v",
              "type": "uint8"
            },
            {
              "internalType": "bytes32",
              "name": "r",
              "type": "bytes32"
            },
            {
              "internalType": "bytes32",
              "name": "s",
              "type": "bytes32"
            }
          ],
          "internalType": "struct IItem.EIP712Signature",
          "name": "sig",
          "type": "tuple"
        }
      ],
      "name": "permit",
      "outputs": [],
      "stateMutability": "nonpayable",
      "type": "function"
    },
    {
      "inputs": [
        {
          "internalType": "address",
          "name": "",
          "type": "address"
        },
        {
          "internalType": "uint256",
          "name": "",
          "type": "uint256"
        }
      ],
      "name": "permitNonces",
      "outputs": [
        {
          "internalType": "uint256",
          "name": "",
          "type": "uint256"
        }
      ],
      "stateMutability": "view",
      "type": "function"
    },
    {
      "inputs": [
        {
          "internalType": "uint256",
          "name": "",
          "type": "uint256"
        }
      ],
      "name": "previousTokenOwners",
      "outputs": [
        {
          "internalType": "address",
          "name": "",
          "type": "address"
        }
      ],
      "stateMutability": "view",
      "type": "function"
    },
    {
      "inputs": [
        {
          "internalType": "uint256",
          "name": "tokenId",
          "type": "uint256"
        }
      ],
      "name": "removeAsk",
      "outputs": [],
      "stateMutability": "nonpayable",
      "type": "function"
    },
    {
      "inputs": [
        {
          "internalType": "uint256",
          "name": "tokenId",
          "type": "uint256"
        }
      ],
      "name": "removeBid",
      "outputs": [],
      "stateMutability": "nonpayable",
      "type": "function"
    },
    {
      "inputs": [],
      "name": "renounceOwnership",
      "outputs": [],
      "stateMutability": "nonpayable",
      "type": "function"
    },
    {
      "inputs": [
        {
          "internalType": "uint256",
          "name": "tokenId",
          "type": "uint256"
        }
      ],
      "name": "revokeApproval",
      "outputs": [],
      "stateMutability": "nonpayable",
      "type": "function"
    },
    {
      "inputs": [
        {
          "internalType": "address",
          "name": "from",
          "type": "address"
        },
        {
          "internalType": "address",
          "name": "to",
          "type": "address"
        },
        {
          "internalType": "uint256",
          "name": "tokenId",
          "type": "uint256"
        }
      ],
      "name": "safeTransferFrom",
      "outputs": [],
      "stateMutability": "nonpayable",
      "type": "function"
    },
    {
      "inputs": [
        {
          "internalType": "address",
          "name": "from",
          "type": "address"
        },
        {
          "internalType": "address",
          "name": "to",
          "type": "address"
        },
        {
          "internalType": "uint256",
          "name": "tokenId",
          "type": "uint256"
        },
        {
          "internalType": "bytes",
          "name": "_data",
          "type": "bytes"
        }
      ],
      "name": "safeTransferFrom",
      "outputs": [],
      "stateMutability": "nonpayable",
      "type": "function"
    },
    {
      "inputs": [
        {
          "internalType": "address",
          "name": "operator",
          "type": "address"
        },
        {
          "internalType": "bool",
          "name": "approved",
          "type": "bool"
        }
      ],
      "name": "setApprovalForAll",
      "outputs": [],
      "stateMutability": "nonpayable",
      "type": "function"
    },
    {
      "inputs": [
        {
          "internalType": "uint256",
          "name": "tokenId",
          "type": "uint256"
        },
        {
          "components": [
            {
              "internalType": "uint256",
              "name": "amount",
              "type": "uint256"
            },
            {
              "internalType": "address",
              "name": "currency",
              "type": "address"
            }
          ],
          "internalType": "struct IItemExchange.Ask",
          "name": "ask",
          "type": "tuple"
        }
      ],
      "name": "setAsk",
      "outputs": [],
      "stateMutability": "nonpayable",
      "type": "function"
    },
    {
      "inputs": [
        {
          "internalType": "uint256",
          "name": "tokenId",
          "type": "uint256"
        },
        {
          "components": [
            {
              "internalType": "uint256",
              "name": "amount",
              "type": "uint256"
            },
            {
              "internalType": "address",
              "name": "currency",
              "type": "address"
            },
            {
              "internalType": "address",
              "name": "bidder",
              "type": "address"
            },
            {
              "internalType": "address",
              "name": "recipient",
              "type": "address"
            },
            {
              "components": [
                {
                  "internalType": "uint256",
                  "name": "value",
                  "type": "uint256"
                }
              ],
              "internalType": "struct Decimal.D256",
              "name": "sellOnShare",
              "type": "tuple"
            }
          ],
          "internalType": "struct IItemExchange.Bid",
          "name": "bid",
          "type": "tuple"
        }
      ],
      "name": "setBid",
      "outputs": [],
      "stateMutability": "nonpayable",
      "type": "function"
    },
    {
      "inputs": [
        {
          "internalType": "bytes4",
          "name": "interfaceId",
          "type": "bytes4"
        }
      ],
      "name": "supportsInterface",
      "outputs": [
        {
          "internalType": "bool",
          "name": "",
          "type": "bool"
        }
      ],
      "stateMutability": "view",
      "type": "function"
    },
    {
      "inputs": [],
      "name": "symbol",
      "outputs": [
        {
          "internalType": "string",
          "name": "",
          "type": "string"
        }
      ],
      "stateMutability": "view",
      "type": "function"
    },
    {
      "inputs": [
        {
          "internalType": "uint256",
          "name": "index",
          "type": "uint256"
        }
      ],
      "name": "tokenByIndex",
      "outputs": [
        {
          "internalType": "uint256",
          "name": "",
          "type": "uint256"
        }
      ],
      "stateMutability": "view",
      "type": "function"
    },
    {
      "inputs": [
        {
          "internalType": "uint256",
          "name": "",
          "type": "uint256"
        }
      ],
      "name": "tokenContentHashes",
      "outputs": [
        {
          "internalType": "bytes32",
          "name": "",
          "type": "bytes32"
        }
      ],
      "stateMutability": "view",
      "type": "function"
    },
    {
      "inputs": [
        {
          "internalType": "uint256",
          "name": "",
          "type": "uint256"
        }
      ],
      "name": "tokenContractAddresses",
      "outputs": [
        {
          "internalType": "address",
          "name": "",
          "type": "address"
        }
      ],
      "stateMutability": "view",
      "type": "function"
    },
    {
      "inputs": [
        {
          "internalType": "uint256",
          "name": "",
          "type": "uint256"
        }
      ],
      "name": "tokenCreators",
      "outputs": [
        {
          "internalType": "address",
          "name": "",
          "type": "address"
        }
      ],
      "stateMutability": "view",
      "type": "function"
    },
    {
      "inputs": [
        {
          "internalType": "uint256",
          "name": "",
          "type": "uint256"
        }
      ],
      "name": "tokenMetadataHashes",
      "outputs": [
        {
          "internalType": "bytes32",
          "name": "",
          "type": "bytes32"
        }
      ],
      "stateMutability": "view",
      "type": "function"
    },
    {
      "inputs": [
        {
          "internalType": "uint256",
          "name": "tokenId",
          "type": "uint256"
        }
      ],
      "name": "tokenMetadataURI",
      "outputs": [
        {
          "internalType": "string",
          "name": "",
          "type": "string"
        }
      ],
      "stateMutability": "view",
      "type": "function"
    },
    {
      "inputs": [
        {
          "internalType": "address",
          "name": "owner",
          "type": "address"
        },
        {
          "internalType": "uint256",
          "name": "index",
          "type": "uint256"
        }
      ],
      "name": "tokenOfOwnerByIndex",
      "outputs": [
        {
          "internalType": "uint256",
          "name": "",
          "type": "uint256"
        }
      ],
      "stateMutability": "view",
      "type": "function"
    },
    {
      "inputs": [
        {
          "internalType": "uint256",
          "name": "tokenId",
          "type": "uint256"
        }
      ],
      "name": "tokenURI",
      "outputs": [
        {
          "internalType": "string",
          "name": "",
          "type": "string"
        }
      ],
      "stateMutability": "view",
      "type": "function"
    },
    {
      "inputs": [],
      "name": "totalSupply",
      "outputs": [
        {
          "internalType": "uint256",
          "name": "",
          "type": "uint256"
        }
      ],
      "stateMutability": "view",
      "type": "function"
    },
    {
      "inputs": [
        {
          "internalType": "address",
          "name": "newOwner",
          "type": "address"
        }
      ],
      "name": "transferContractOwnership",
      "outputs": [],
      "stateMutability": "nonpayable",
      "type": "function"
    },
    {
      "inputs": [
        {
          "internalType": "address",
          "name": "from",
          "type": "address"
        },
        {
          "internalType": "address",
          "name": "to",
          "type": "address"
        },
        {
          "internalType": "uint256",
          "name": "tokenId",
          "type": "uint256"
        }
      ],
      "name": "transferFrom",
      "outputs": [],
      "stateMutability": "nonpayable",
      "type": "function"
    },
    {
      "inputs": [
        {
          "internalType": "address",
          "name": "newOwner",
          "type": "address"
        }
      ],
      "name": "transferOwnership",
      "outputs": [],
      "stateMutability": "nonpayable",
      "type": "function"
    },
    {
      "inputs": [
        {
          "internalType": "uint256",
          "name": "tokenId",
          "type": "uint256"
        },
        {
          "internalType": "string",
          "name": "metadataURI",
          "type": "string"
        }
      ],
      "name": "updateTokenMetadataURI",
      "outputs": [],
      "stateMutability": "nonpayable",
      "type": "function"
    },
    {
      "inputs": [
        {
          "internalType": "uint256",
          "name": "tokenId",
          "type": "uint256"
        },
        {
          "internalType": "string",
          "name": "tokenURI",
          "type": "string"
        }
      ],
      "name": "updateTokenURI",
      "outputs": [],
      "stateMutability": "nonpayable",
      "type": "function"
    }
  ],
  "bytecode": "0x60806040523480156200001157600080fd5b506040516200476438038062004764833981016040819052620000349162000302565b8282620000516301ffc9a760e01b6001600160e01b036200015916565b815162000066906006906020850190620001b9565b5080516200007c906007906020840190620001b9565b50620000986380ac58cd60e01b6001600160e01b036200015916565b620000b363780e9d6360e01b6001600160e01b036200015916565b50506001600a556000620000cf6001600160e01b03620001b416565b600b80546001600160a01b0319166001600160a01b038316908117909155604051919250906000907f8be0079c531659141344cd1fd0a4f28419497f9722a3daafe3b4186f6b6457e0908290a350600c80546001600160a01b0319166001600160a01b038616179055600d8190556200014f6364825ce360e11b62000159565b50505050620003c7565b6001600160e01b031980821614156200018f5760405162461bcd60e51b8152600401620001869062000390565b60405180910390fd5b6001600160e01b0319166000908152602081905260409020805460ff19166001179055565b335b90565b828054600181600116156101000203166002900490600052602060002090601f016020900481019282601f10620001fc57805160ff19168380011785556200022c565b828001600101855582156200022c579182015b828111156200022c5782518255916020019190600101906200020f565b506200023a9291506200023e565b5090565b620001b691905b808211156200023a576000815560010162000245565b600082601f8301126200026c578081fd5b81516001600160401b038082111562000283578283fd5b6040516020601f8401601f1916820181018381118382101715620002a5578586fd5b80604052508194508382528681858801011115620002c257600080fd5b600092505b83831015620002e65785830181015182840182015291820191620002c7565b83831115620002f85760008185840101525b5050505092915050565b6000806000806080858703121562000318578384fd5b84516001600160a01b03811681146200032f578485fd5b60208601519094506001600160401b03808211156200034c578485fd5b6200035a888389016200025b565b9450604087015191508082111562000370578384fd5b506200037f878288016200025b565b606096909601519497939650505050565b6020808252601c908201527f4552433136353a20696e76616c696420696e7465726661636520696400000000604082015260600190565b61438d80620003d76000396000f3fe608060405234801561001057600080fd5b50600436106103155760003560e01c80636c0360eb116101a7578063b320f459116100ee578063e0fd045f11610097578063f2fde38b11610071578063f2fde38b1461062f578063f8ccd5de14610642578063fad321971461065557610315565b8063e0fd045f14610601578063e985e9c514610614578063f1d5596b1461062757610315565b8063c87b56dd116100c8578063c87b56dd146105de578063d5abeb01146105f1578063de5236fb146105f957610315565b8063b320f459146105a5578063b88d4fde146105b8578063ba339399146105cb57610315565b80638da5cb5b11610150578063a22cb4651161012a578063a22cb4651461056c578063a843c51f1461057f578063b1e130fc1461059257610315565b80638da5cb5b1461054957806395d89b41146105515780639d8e72601461055957610315565b8063715018a611610181578063715018a61461051b57806375682e791461052357806389a8f74b1461053657610315565b80636c0360eb146104ed5780636ed1a7b2146104f557806370a082311461050857610315565b806328220f351161026b57806342842e0e116102145780635bf62422116101ee5780635bf62422146104b457806362f24b70146104c75780636352211e146104da57610315565b806342842e0e1461047b57806342966c681461048e5780634f6ccce7146104a157610315565b80632f745c59116102455780632f745c591461044d57806330adf81f1461046057806332f44aa91461046857610315565b806328220f35146104145780632cca3237146104275780632f01730c1461043a57610315565b80630bcd899b116102cd57806318160ddd116102a757806318160ddd146103e657806318e97fd1146103ee57806323b872dd1461040157610315565b80630bcd899b146103ad5780630e2a1778146103c0578063157c3df9146103d357610315565b806306fdde03116102fe57806306fdde0314610363578063081812fc14610378578063095ea7b31461039857610315565b806301ddc3b51461031a57806301ffc9a714610343575b600080fd5b61032d610328366004613256565b610668565b60405161033a91906135bd565b60405180910390f35b6103566103513660046131da565b61067a565b60405161033a91906135b2565b61036b6106b1565b60405161033a9190613664565b61038b610386366004613256565b610748565b60405161033a9190613523565b6103ab6103a636600461317b565b610794565b005b61032d6103bb366004612f79565b61082c565b6103ab6103ce3660046131a5565b61083e565b61036b6103e1366004613256565b610a62565b61032d610b2d565b6103ab6103fc366004613291565b610b3e565b6103ab61040f366004612fc8565b610c9d565b6103ab610422366004613256565b610cd5565b6103ab610435366004613212565b610d83565b61038b610448366004613256565b610dbf565b61032d61045b36600461317b565b610dda565b61032d610e0b565b6103ab61047636600461326e565b610e2f565b6103ab610489366004612fc8565b610eb5565b6103ab61049c366004613256565b610ed0565b61032d6104af366004613256565b610fa2565b6103ab6104c236600461335e565b610fbe565b6103ab6104d5366004613306565b61108e565b61038b6104e8366004613256565b611166565b61036b611194565b6103ab6105033660046130ab565b6111f5565b61032d610516366004612f79565b611232565b6103ab61127b565b6103ab610531366004613291565b611304565b6103ab61054436600461310a565b61144d565b61038b611607565b61036b611616565b61038b610567366004613256565b611677565b6103ab61057a366004613070565b611692565b6103ab61058d366004612f79565b611760565b6103ab6105a0366004613256565b6117d8565b6103ab6105b3366004613256565b611844565b6103ab6105c6366004613008565b61191b565b6103ab6105d936600461335e565b61195a565b61036b6105ec366004613256565b6119f5565b61032d611ac3565b61032d611ac9565b61038b61060f366004613256565b611aed565b610356610622366004612f94565b611b08565b61038b611b36565b6103ab61063d366004612f79565b611b45565b61032d61065036600461317b565b611c06565b61032d610663366004613256565b611c23565b60126020526000908152604090205481565b7fffffffff000000000000000000000000000000000000000000000000000000001660009081526020819052604090205460ff1690565b60068054604080516020601f600260001961010060018816150201909516949094049384018190048102820181019092528281526060939092909183018282801561073d5780601f106107125761010080835404028352916020019161073d565b820191906000526020600020905b81548152906001019060200180831161072057829003601f168201915b505050505090505b90565b600061075382611c35565b6107785760405162461bcd60e51b815260040161076f90613da5565b60405180910390fd5b506000908152600460205260409020546001600160a01b031690565b600061079f82611166565b9050806001600160a01b0316836001600160a01b031614156107d35760405162461bcd60e51b815260040161076f90613f72565b806001600160a01b03166107e5611c48565b6001600160a01b03161480610801575061080181610622611c48565b61081d5760405162461bcd60e51b815260040161076f90613c17565b6108278383611c4c565b505050565b60176020526000908152604090205481565b6002600a5414156108615760405162461bcd60e51b815260040161076f90614154565b6002600a558161087081611c35565b61088c5760405162461bcd60e51b815260040161076f90613f04565b8151158061089b575081514211155b6108b75760405162461bcd60e51b815260040161076f9061402c565b6001600160a01b0384166108dd5760405162461bcd60e51b815260040161076f90613be0565b60006108e7611cba565b90506000817fadacbbfdfd82dabfa913ef6727df5bc21f8699a2969db41d446fee646fc64b9e878760168561091b83611166565b6001600160a01b03168152602080820192909252604090810160009081208c825283528190208054600181019091558a51915161095e96959493919291016135c6565b60405160208183030381529060405280519060200120604051602001610985929190613478565b6040516020818303038152906040528051906020012090506000600182866020015187604001518860600151604051600081526020016040526040516109ce9493929190613646565b6020604051602081039080840390855afa1580156109f0573d6000803e3d6000fd5b5050604051601f1901519150506001600160a01b03811615801590610a2e5750806001600160a01b0316610a2387611166565b6001600160a01b0316145b610a4a5760405162461bcd60e51b815260040161076f90613f3b565b610a548787611c4c565b50506001600a555050505050565b60608180610a706018611da5565b11610a8d5760405162461bcd60e51b815260040161076f90613677565b60008381526014602090815260409182902080548351601f600260001961010060018616150201909316929092049182018490048402810184019094528084529091830182828015610b205780601f10610af557610100808354040283529160200191610b20565b820191906000526020600020905b815481529060010190602001808311610b0357829003601f168201915b5050505050915050919050565b6000610b396002611da9565b905090565b6002600a541415610b615760405162461bcd60e51b815260040161076f90614154565b6002600a553383610b728282611db4565b610b8e5760405162461bcd60e51b815260040161076f9061388a565b6000858152601160205260409020548590610bbb5760405162461bcd60e51b815260040161076f906138f8565b84848080601f01602080910402602001604051908101604052809392919081815260200183838082843760009201919091525050825115159150610c1390505760405162461bcd60e51b815260040161076f90613773565b610c538787878080601f016020809104026020016040519081016040528093929190818152602001838380828437600092019190915250611e3992505050565b867f702fe2dc2dc0f68023540aa4a1e11811c0f29112f6ebf01e61b90538e4f29810338888604051610c8793929190613573565b60405180910390a250506001600a555050505050565b610cae610ca8611c48565b82611db4565b610cca5760405162461bcd60e51b815260040161076f90614063565b610827838383611e7d565b6002600a541415610cf85760405162461bcd60e51b815260040161076f90614154565b6002600a553381610d098282611db4565b610d255760405162461bcd60e51b815260040161076f9061388a565b600c546040516328220f3560e01b81526001600160a01b03909116906328220f3590610d559086906004016135bd565b600060405180830381600087803b158015610d6f57600080fd5b505af1158015610a54573d6000803e3d6000fd5b6002600a541415610da65760405162461bcd60e51b815260040161076f90614154565b6002600a55610db6338383611eea565b50506001600a55565b6013602052600090815260409020546001600160a01b031681565b6001600160a01b0382166000908152600160205260408120610e02908363ffffffff61212b16565b90505b92915050565b7fadacbbfdfd82dabfa913ef6727df5bc21f8699a2969db41d446fee646fc64b9e81565b600c546001600160a01b03163314610e595760405162461bcd60e51b815260040161076f90613e3d565b610e6282611166565b6000838152600e6020526040902080546001600160a01b0319166001600160a01b0392909216919091179055610eb1610e9a83611166565b828460405180602001604052806000815250612137565b5050565b6108278383836040518060200160405280600081525061191b565b6002600a541415610ef35760405162461bcd60e51b815260040161076f90614154565b6002600a5580610f0281611c35565b610f1e5760405162461bcd60e51b815260040161076f90613f04565b3382610f2a8282611db4565b610f465760405162461bcd60e51b815260040161076f9061388a565b6000610f5185611166565b6000868152600f60205260409020549091506001600160a01b03808316911614610f8d5760405162461bcd60e51b815260040161076f90613716565b610f968561216a565b50506001600a55505050565b600080610fb660028463ffffffff61225616565b509392505050565b6002600a541415610fe15760405162461bcd60e51b815260040161076f90614154565b6002600a5581610ff081611c35565b61100c5760405162461bcd60e51b815260040161076f90613f04565b81604001516001600160a01b0316336001600160a01b0316146110415760405162461bcd60e51b815260040161076f906140f7565b600c546040517fbdb586980000000000000000000000000000000000000000000000000000000081526001600160a01b039091169063bdb5869890610d559086908690339060040161423b565b6002600a5414156110b15760405162461bcd60e51b815260040161076f90614154565b6002600a5533826110c28282611db4565b6110de5760405162461bcd60e51b815260040161076f9061388a565b600c546040517f62f24b700000000000000000000000000000000000000000000000000000000081526001600160a01b03909116906362f24b709061112990879087906004016141d9565b600060405180830381600087803b15801561114357600080fd5b505af1158015611157573d6000803e3d6000fd5b50506001600a55505050505050565b6000610e058260405180606001604052806029815260200161432f602991396002919063ffffffff61227216565b60098054604080516020601f600260001961010060018816150201909516949094049384018190048102820181019092528281526060939092909183018282801561073d5780601f106107125761010080835404028352916020019161073d565b6002600a5414156112185760405162461bcd60e51b815260040161076f90614154565b6002600a55611228838383611eea565b50506001600a5550565b60006001600160a01b03821661125a5760405162461bcd60e51b815260040161076f90613cd1565b6001600160a01b0382166000908152600160205260409020610e0590611da9565b611283611c48565b6001600160a01b0316611294611607565b6001600160a01b0316146112ba5760405162461bcd60e51b815260040161076f90613e72565b600b546040516000916001600160a01b0316907f8be0079c531659141344cd1fd0a4f28419497f9722a3daafe3b4186f6b6457e0908390a3600b80546001600160a01b0319169055565b6002600a5414156113275760405162461bcd60e51b815260040161076f90614154565b6002600a5533836113388282611db4565b6113545760405162461bcd60e51b815260040161076f9061388a565b60008581526012602052604090205485906113815760405162461bcd60e51b815260040161076f90613ada565b84848080601f016020809104026020016040519081016040528093929190818152602001838380828437600092019190915250508251151591506113d990505760405162461bcd60e51b815260040161076f90613773565b6114198787878080601f01602080910402602001604051908101604052809392919081815260200183838082843760009201919091525061228992505050565b867fe3df41127db820c79e5b8d541a63e40e3e97b9af96f7a50bded13091b70df9ae338888604051610c8793929190613573565b6002600a5414156114705760405162461bcd60e51b815260040161076f90614154565b6002600a5580511580611484575080514211155b6114a05760405162461bcd60e51b815260040161076f9061418b565b60006114aa611cba565b6040808601516060870151602080880151516001600160a01b038b166000908152601783528581208054600181019091558951965197985090968896611518967f93088eb7747c9bc240a8edd9669cbcc6663249f8e821916b3305e54cca2017f7969095909493920161361e565b6040516020818303038152906040528051906020012060405160200161153f929190613478565b6040516020818303038152906040528051906020012090506000600182856020015186604001518760600151604051600081526020016040526040516115889493929190613646565b6020604051602081039080840390855afa1580156115aa573d6000803e3d6000fd5b5050604051601f1901519150506001600160a01b038116158015906115e05750806001600160a01b0316876001600160a01b0316145b6115fc5760405162461bcd60e51b815260040161076f90613f3b565b610a54818787611eea565b600b546001600160a01b031690565b60078054604080516020601f600260001961010060018816150201909516949094049384018190048102820181019092528281526060939092909183018282801561073d5780601f106107125761010080835404028352916020019161073d565b600e602052600090815260409020546001600160a01b031681565b61169a611c48565b6001600160a01b0316826001600160a01b031614156116cb5760405162461bcd60e51b815260040161076f90613aa3565b80600560006116d8611c48565b6001600160a01b03908116825260208083019390935260409182016000908120918716808252919093529120805460ff19169215159290921790915561171c611c48565b6001600160a01b03167f17307eab39ab6107e8899845ad3d59bd9653f200f220920489ca2b5937696c318360405161175491906135b2565b60405180910390a35050565b6002600a5414156117835760405162461bcd60e51b815260040161076f90614154565b6002600a55611790611c48565b6001600160a01b03166117a1611607565b6001600160a01b0316146117c75760405162461bcd60e51b815260040161076f90613e72565b6117d0816122ce565b506001600a55565b6002600a5414156117fb5760405162461bcd60e51b815260040161076f90614154565b6002600a5561180981610748565b6001600160a01b0316336001600160a01b0316146118395760405162461bcd60e51b815260040161076f906139e9565b6117d0600082611c4c565b6002600a5414156118675760405162461bcd60e51b815260040161076f90614154565b6002600a5580806118786018611da5565b116118955760405162461bcd60e51b815260040161076f90613677565b600c546040517f776a08350000000000000000000000000000000000000000000000000000000081526001600160a01b039091169063776a0835906118e090859033906004016141c2565b600060405180830381600087803b1580156118fa57600080fd5b505af115801561190e573d6000803e3d6000fd5b50506001600a5550505050565b61192c611926611c48565b83611db4565b6119485760405162461bcd60e51b815260040161076f90614063565b61195484848484612137565b50505050565b6002600a54141561197d5760405162461bcd60e51b815260040161076f90614154565b6002600a55338261198e8282611db4565b6119aa5760405162461bcd60e51b815260040161076f9061388a565b600c546040517fba3393990000000000000000000000000000000000000000000000000000000081526001600160a01b039091169063ba339399906111299087908790600401614227565b60608180611a036018611da5565b11611a205760405162461bcd60e51b815260040161076f90613677565b60008381526008602090815260409182902080548351601f6002600019610100600186161502019093169290920491820184900484028101840190945280845260609392830182828015611ab55780601f10611a8a57610100808354040283529160200191611ab5565b820191906000526020600020905b815481529060010190602001808311611a9857829003601f168201915b509398975050505050505050565b600d5481565b7f93088eb7747c9bc240a8edd9669cbcc6663249f8e821916b3305e54cca2017f781565b600f602052600090815260409020546001600160a01b031681565b6001600160a01b03918216600090815260056020908152604080832093909416825291909152205460ff1690565b600c546001600160a01b031681565b611b4d611c48565b6001600160a01b0316611b5e611607565b6001600160a01b031614611b845760405162461bcd60e51b815260040161076f90613e72565b6001600160a01b038116611baa5760405162461bcd60e51b815260040161076f9061382d565b600b546040516001600160a01b038084169216907f8be0079c531659141344cd1fd0a4f28419497f9722a3daafe3b4186f6b6457e090600090a3600b80546001600160a01b0319166001600160a01b0392909216919091179055565b601660209081526000928352604080842090915290825290205481565b60116020526000908152604090205481565b6000610e0560028363ffffffff6122da16565b3390565b600081815260046020526040902080546001600160a01b0319166001600160a01b0384169081179091558190611c8182611166565b6001600160a01b03167f8c5be1e5ebec7d5bd14f71427d1e84f3dd0314c0f7b2291e5b200ac8c7c3b92560405160405180910390a45050565b6040516000904690611ccb906134ae565b604080519182900382208282018252600583527f4d6f74696600000000000000000000000000000000000000000000000000000060209384015281518083018352600181527f3100000000000000000000000000000000000000000000000000000000000000908401529051611d89927f995ec625e9d0f4c4f4cb6358dd33c33e4a452bb37d2246dee597ee07e579fcb3917fc89efdaa54c0f20c7adf612882df0950f5a951637e0307cdcb4c672f298b8bc69186913091016135f2565b6040516020818303038152906040528051906020012091505090565b5490565b6000610e0582611da5565b6000611dbf82611c35565b611ddb5760405162461bcd60e51b815260040161076f90613b94565b6000611de683611166565b9050806001600160a01b0316846001600160a01b03161480611e215750836001600160a01b0316611e1684610748565b6001600160a01b0316145b80611e315750611e318185611b08565b949350505050565b611e4282611c35565b611e5e5760405162461bcd60e51b815260040161076f90613df1565b6000828152600860209081526040909120825161082792840190612ccf565b600c546040516328220f3560e01b81526001600160a01b03909116906328220f3590611ead9084906004016135bd565b600060405180830381600087803b158015611ec757600080fd5b505af1158015611edb573d6000803e3d6000fd5b505050506108278383836122e6565b81518051611f0a5760405162461bcd60e51b815260040161076f90613773565b60208301518051611f2d5760405162461bcd60e51b815260040161076f90613773565b600d54611f38610b2d565b10611f555760405162461bcd60e51b815260040161076f906138c1565b6040840151611f765760405162461bcd60e51b815260040161076f9061398c565b60408085015160009081526015602052205460ff1615611fa85760405162461bcd60e51b815260040161076f90613fcf565b6060840151611fc95760405162461bcd60e51b815260040161076f90613c74565b6000611fd56018611da5565b9050611fe18682612406565b611feb6018612420565b611ff9818660400151612429565b612007818660600151612462565b612011813061249b565b61201f818660200151612289565b61202d818660000151611e39565b6001600160a01b0386166000908152601060205260409020612055908263ffffffff6124f016565b50604080860151600090815260156020908152828220805460ff19166001179055838252600f815282822080546001600160a01b03808c166001600160a01b03199283168117909355600e90935292849020805490931617909155600c5491517feb55683a00000000000000000000000000000000000000000000000000000000815291169063eb55683a906120f190849088906004016141fd565b600060405180830381600087803b15801561210b57600080fd5b505af115801561211f573d6000803e3d6000fd5b50505050505050505050565b6000610e0283836124fc565b612142848484611e7d565b61214e84848484612541565b6119545760405162461bcd60e51b815260040161076f906137d0565b60008181526008602090815260409182902080548351601f60026000196101006001861615020190931692909204918201849004840281018401909452808452606093928301828280156121ff5780601f106121d4576101008083540402835291602001916121ff565b820191906000526020600020905b8154815290600101906020018083116121e257829003601f168201915b5050505050905061220f82612668565b805115612237576000828152600860209081526040909120825161223592840190612ccf565b505b506000908152600e6020526040902080546001600160a01b0319169055565b60008080806122658686612741565b9097909650945050505050565b600061227f84848461279d565b90505b9392505050565b8161229381611c35565b6122af5760405162461bcd60e51b815260040161076f90613f04565b6000838152601460209081526040909120835161195492850190612ccf565b6122d781611b45565b50565b6000610e0283836127fc565b826001600160a01b03166122f982611166565b6001600160a01b03161461231f5760405162461bcd60e51b815260040161076f90613ea7565b6001600160a01b0382166123455760405162461bcd60e51b815260040161076f90613a46565b612350838383610827565b61235b600082611c4c565b6001600160a01b0383166000908152600160205260409020612383908263ffffffff61281416565b506001600160a01b03821660009081526001602052604090206123ac908263ffffffff6124f016565b506123bf6002828463ffffffff61282016565b5080826001600160a01b0316846001600160a01b03167fddf252ad1be2c89b69c2b068fc378daa952ba7f163c4a11628f55a4df523b3ef60405160405180910390a4505050565b610eb1828260405180602001604052806000815250612836565b80546001019055565b8161243381611c35565b61244f5760405162461bcd60e51b815260040161076f90613f04565b5060009182526011602052604090912055565b8161246c81611c35565b6124885760405162461bcd60e51b815260040161076f90613f04565b5060009182526012602052604090912055565b816124a581611c35565b6124c15760405162461bcd60e51b815260040161076f90613f04565b5060009182526013602052604090912080546001600160a01b0319166001600160a01b03909216919091179055565b6000610e028383612869565b8154600090821061251f5760405162461bcd60e51b815260040161076f906136d4565b82600001828154811061252e57fe5b9060005260206000200154905092915050565b6000612555846001600160a01b03166128b3565b61256157506001611e31565b6060612619630a85bd0160e11b612576611c48565b88878760405160240161258c9493929190613537565b604051602081830303815290604052907bffffffffffffffffffffffffffffffffffffffffffffffffffffffff19166020820180517bffffffffffffffffffffffffffffffffffffffffffffffffffffffff83818316178352505050506040518060600160405280603281526020016142fd603291396001600160a01b038816919063ffffffff6128b916565b905060008180602001905181019061263191906131f6565b7fffffffff0000000000000000000000000000000000000000000000000000000016630a85bd0160e11b1492505050949350505050565b600061267382611166565b905061268181600084610827565b61268c600083611c4c565b60008281526008602052604090205460026000196101006001841615020190911604156126ca5760008281526008602052604081206126ca91612d4d565b6001600160a01b03811660009081526001602052604090206126f2908363ffffffff61281416565b5061270460028363ffffffff6128c816565b5060405182906000906001600160a01b038416907fddf252ad1be2c89b69c2b068fc378daa952ba7f163c4a11628f55a4df523b3ef908390a45050565b8154600090819083106127665760405162461bcd60e51b815260040161076f90613d2e565b600084600001848154811061277757fe5b906000526020600020906002020190508060000154816001015492509250509250929050565b600082815260018401602052604081205482816127cd5760405162461bcd60e51b815260040161076f9190613664565b508460000160018203815481106127e057fe5b9060005260206000209060020201600101549150509392505050565b60009081526001919091016020526040902054151590565b6000610e0283836128d4565b600061227f84846001600160a01b03851661299a565b6128408383612a31565b61284d6000848484612541565b6108275760405162461bcd60e51b815260040161076f906137d0565b600061287583836127fc565b6128ab57508154600181810184556000848152602080822090930184905584548482528286019093526040902091909155610e05565b506000610e05565b3b151590565b606061227f8484600085612b01565b6000610e028383612bc2565b60008181526001830160205260408120548015612990578354600019808301919081019060009087908390811061290757fe5b906000526020600020015490508087600001848154811061292457fe5b60009182526020808320909101929092558281526001898101909252604090209084019055865487908061295457fe5b60019003818190600052602060002001600090559055866001016000878152602001908152602001600020600090556001945050505050610e05565b6000915050610e05565b6000828152600184016020526040812054806129ff575050604080518082018252838152602080820184815286546001818101895560008981528481209551600290930290950191825591519082015586548684528188019092529290912055612282565b82856000016001830381548110612a1257fe5b9060005260206000209060020201600101819055506000915050612282565b6001600160a01b038216612a575760405162461bcd60e51b815260040161076f90613d70565b612a6081611c35565b15612a7d5760405162461bcd60e51b815260040161076f90613955565b612a8960008383610827565b6001600160a01b0382166000908152600160205260409020612ab1908263ffffffff6124f016565b50612ac46002828463ffffffff61282016565b5060405181906001600160a01b038416906000907fddf252ad1be2c89b69c2b068fc378daa952ba7f163c4a11628f55a4df523b3ef908290a45050565b606082471015612b235760405162461bcd60e51b815260040161076f90613b37565b612b2c856128b3565b612b485760405162461bcd60e51b815260040161076f906140c0565b60006060866001600160a01b03168587604051612b65919061345c565b60006040518083038185875af1925050503d8060008114612ba2576040519150601f19603f3d011682016040523d82523d6000602084013e612ba7565b606091505b5091509150612bb7828286612c96565b979650505050505050565b600081815260018301602052604081205480156129905783546000198083019190810190600090879083908110612bf557fe5b9060005260206000209060020201905080876000018481548110612c1557fe5b600091825260208083208454600290930201918255600193840154918401919091558354825289830190526040902090840190558654879080612c5457fe5b6000828152602080822060026000199094019384020182815560019081018390559290935588815289820190925260408220919091559450610e059350505050565b60608315612ca5575081612282565b825115612cb55782518084602001fd5b8160405162461bcd60e51b815260040161076f9190613664565b828054600181600116156101000203166002900490600052602060002090601f016020900481019282601f10612d1057805160ff1916838001178555612d3d565b82800160010185558215612d3d579182015b82811115612d3d578251825591602001919060010190612d22565b50612d49929150612d8d565b5090565b50805460018160011615610100020316600290046000825580601f10612d7357506122d7565b601f0160209004906000526020600020908101906122d791905b61074591905b80821115612d495760008155600101612d93565b80356001600160a01b0381168114610e0557600080fd5b600082601f830112612dce578081fd5b813567ffffffffffffffff811115612de4578182fd5b612df7601f8201601f1916602001614266565b9150808252836020828501011115612e0e57600080fd5b8060208401602084013760009082016020015292915050565b600060608284031215612e38578081fd5b612e426060614266565b9050612e4e8383612e7a565b8152612e5d8360208401612e7a565b6020820152612e6f8360408401612e7a565b604082015292915050565b600060208284031215612e8b578081fd5b612e956020614266565b9135825250919050565b600060808284031215612eb0578081fd5b612eba6080614266565b905081358152602082013560ff81168114612ed457600080fd5b80602083015250604082013560408201526060820135606082015292915050565b600060808284031215612f06578081fd5b612f106080614266565b9050813567ffffffffffffffff80821115612f2a57600080fd5b612f3685838601612dbe565b83526020840135915080821115612f4c57600080fd5b50612f5984828501612dbe565b602083015250604082013560408201526060820135606082015292915050565b600060208284031215612f8a578081fd5b610e028383612da7565b60008060408385031215612fa6578081fd5b612fb08484612da7565b9150612fbf8460208501612da7565b90509250929050565b600080600060608486031215612fdc578081fd5b8335612fe7816142b9565b92506020840135612ff7816142b9565b929592945050506040919091013590565b6000806000806080858703121561301d578081fd5b6130278686612da7565b93506130368660208701612da7565b925060408501359150606085013567ffffffffffffffff811115613058578182fd5b61306487828801612dbe565b91505092959194509250565b60008060408385031215613082578182fd5b61308c8484612da7565b9150602083013580151581146130a0578182fd5b809150509250929050565b600080600060a084860312156130bf578283fd5b83356130ca816142b9565b9250602084013567ffffffffffffffff8111156130e5578283fd5b6130f186828701612ef5565b9250506131018560408601612e27565b90509250925092565b6000806000806101208587031215613120578182fd5b61312a8686612da7565b9350602085013567ffffffffffffffff811115613145578283fd5b61315187828801612ef5565b9350506131618660408701612e27565b91506131708660a08701612e9f565b905092959194509250565b6000806040838503121561318d578182fd5b6131978484612da7565b946020939093013593505050565b600080600060c084860312156131b9578081fd5b83356131c4816142b9565b9250602084013591506131018560408601612e9f565b6000602082840312156131eb578081fd5b8135612282816142ce565b600060208284031215613207578081fd5b8151612282816142ce565b60008060808385031215613224578182fd5b823567ffffffffffffffff81111561323a578283fd5b61324685828601612ef5565b925050612fbf8460208501612e27565b600060208284031215613267578081fd5b5035919050565b60008060408385031215613280578182fd5b82359150612fbf8460208501612da7565b6000806000604084860312156132a5578081fd5b83359250602084013567ffffffffffffffff808211156132c3578283fd5b81860187601f8201126132d4578384fd5b80359250818311156132e4578384fd5b8760208483010111156132f5578384fd5b949760209095019650909450505050565b6000808284036060811215613319578283fd5b833592506040601f198201121561332e578182fd5b506133396040614266565b60208401358152604084013561334e816142b9565b6020820152919491935090915050565b60008082840360c0811215613371578283fd5b8335925060a0601f1982011215613386578182fd5b5061339160a0614266565b6020840135815260408401356133a6816142b9565b602082015260608401356133b9816142b9565b604082015260808401356133cc816142b9565b60608201526133de8560a08601612e7a565b6080820152809150509250929050565b6000815180845261340681602086016020860161428d565b601f01601f19169290920160200192915050565b8051825260208101516001600160a01b038082166020850152806040840151166040850152806060840151166060850152505060808101515160808301525050565b6000825161346e81846020870161428d565b9190910192915050565b7f190100000000000000000000000000000000000000000000000000000000000081526002810192909252602282015260420190565b7f454950373132446f6d61696e28737472696e67206e616d652c737472696e672081527f76657273696f6e2c75696e7432353620636861696e49642c616464726573732060208201527f766572696679696e67436f6e7472616374290000000000000000000000000000604082015260520190565b6001600160a01b0391909116815260200190565b60006001600160a01b0380871683528086166020840152508360408301526080606083015261356960808301846133ee565b9695505050505050565b60006001600160a01b03851682526040602083015282604083015282846060840137818301606090810191909152601f909201601f1916010192915050565b901515815260200190565b90815260200190565b9485526001600160a01b0393909316602085015260408401919091526060830152608082015260a00190565b9485526020850193909352604084019190915260608301526001600160a01b0316608082015260a00190565b958652602086019490945260408501929092526060840152608083015260a082015260c00190565b93845260ff9290921660208401526040830152606082015260800190565b600060208252610e0260208301846133ee565b60208082526027908201527f4974656d3a20746f6b656e2077697468207468617420696420646f6573206e6f60408201527f7420657869737400000000000000000000000000000000000000000000000000606082015260800190565b60208082526022908201527f456e756d657261626c655365743a20696e646578206f7574206f6620626f756e604082015261647360f01b606082015260800190565b60208082526022908201527f4974656d3a206f776e6572206973206e6f742063726561746f72206f6620697460408201527f656d000000000000000000000000000000000000000000000000000000000000606082015260800190565b60208082526025908201527f4974656d3a2073706563696669656420757269206d757374206265206e6f6e2d60408201527f656d707479000000000000000000000000000000000000000000000000000000606082015260800190565b60208082526032908201527f4552433732313a207472616e7366657220746f206e6f6e20455243373231526560408201527f63656976657220696d706c656d656e7465720000000000000000000000000000606082015260800190565b60208082526026908201527f4f776e61626c653a206e6577206f776e657220697320746865207a65726f206160408201527f6464726573730000000000000000000000000000000000000000000000000000606082015260800190565b6020808252601c908201527f4974656d3a204f6e6c7920617070726f766564206f72206f776e657200000000604082015260600190565b60208082526015908201527f4974656d3a20737570706c79206465706c657465640000000000000000000000604082015260600190565b60208082526031908201527f4974656d3a20746f6b656e20646f6573206e6f7420686176652068617368206f60408201527f66206372656174656420636f6e74656e74000000000000000000000000000000606082015260800190565b6020808252601c908201527f4552433732313a20746f6b656e20616c7265616479206d696e74656400000000604082015260600190565b60208082526023908201527f4974656d3a20636f6e74656e742068617368206d757374206265206e6f6e2d7a60408201527f65726f0000000000000000000000000000000000000000000000000000000000606082015260800190565b60208082526021908201527f4974656d3a2063616c6c6572206e6f7420617070726f7665642061646472657360408201527f7300000000000000000000000000000000000000000000000000000000000000606082015260800190565b60208082526024908201527f4552433732313a207472616e7366657220746f20746865207a65726f2061646460408201527f7265737300000000000000000000000000000000000000000000000000000000606082015260800190565b60208082526019908201527f4552433732313a20617070726f766520746f2063616c6c657200000000000000604082015260600190565b6020808252602e908201527f4974656d3a20746f6b656e20646f6573206e6f7420686176652068617368206f60408201527f6620697473206d65746164617461000000000000000000000000000000000000606082015260800190565b60208082526026908201527f416464726573733a20696e73756666696369656e742062616c616e636520666f60408201527f722063616c6c0000000000000000000000000000000000000000000000000000606082015260800190565b6020808252602c908201527f4552433732313a206f70657261746f7220717565727920666f72206e6f6e657860408201526b34b9ba32b73a103a37b5b2b760a11b606082015260800190565b6020808252601b908201527f4974656d3a207370656e6465722063616e6e6f74206265203078300000000000604082015260600190565b60208082526038908201527f4552433732313a20617070726f76652063616c6c6572206973206e6f74206f7760408201527f6e6572206e6f7220617070726f76656420666f7220616c6c0000000000000000606082015260800190565b60208082526024908201527f4974656d3a206d657461646174612068617368206d757374206265206e6f6e2d60408201527f7a65726f00000000000000000000000000000000000000000000000000000000606082015260800190565b6020808252602a908201527f4552433732313a2062616c616e636520717565727920666f7220746865207a6560408201527f726f206164647265737300000000000000000000000000000000000000000000606082015260800190565b60208082526022908201527f456e756d657261626c654d61703a20696e646578206f7574206f6620626f756e604082015261647360f01b606082015260800190565b6020808252818101527f4552433732313a206d696e7420746f20746865207a65726f2061646472657373604082015260600190565b6020808252602c908201527f4552433732313a20617070726f76656420717565727920666f72206e6f6e657860408201526b34b9ba32b73a103a37b5b2b760a11b606082015260800190565b6020808252602c908201527f4552433732314d657461646174613a2055524920736574206f66206e6f6e657860408201526b34b9ba32b73a103a37b5b2b760a11b606082015260800190565b6020808252818101527f4974656d3a206f6e6c79206974656d45786368616e676520636f6e7472616374604082015260600190565b6020808252818101527f4f776e61626c653a2063616c6c6572206973206e6f7420746865206f776e6572604082015260600190565b60208082526029908201527f4552433732313a207472616e73666572206f6620746f6b656e2074686174206960408201527f73206e6f74206f776e0000000000000000000000000000000000000000000000606082015260800190565b60208082526017908201527f4974656d3a206e6f6e6578697374656e7420746f6b656e000000000000000000604082015260600190565b60208082526017908201527f4974656d3a205369676e617475726520696e76616c6964000000000000000000604082015260600190565b60208082526021908201527f4552433732313a20617070726f76616c20746f2063757272656e74206f776e6560408201527f7200000000000000000000000000000000000000000000000000000000000000606082015260800190565b6020808252603d908201527f4974656d3a206120746f6b656e2068617320616c7265616479206265656e206360408201527f7265617465642077697468207468697320636f6e74656e742068617368000000606082015260800190565b60208082526014908201527f4974656d3a205065726d69742065787069726564000000000000000000000000604082015260600190565b60208082526031908201527f4552433732313a207472616e736665722063616c6c6572206973206e6f74206f60408201527f776e6572206e6f7220617070726f766564000000000000000000000000000000606082015260800190565b6020808252601d908201527f416464726573733a2063616c6c20746f206e6f6e2d636f6e7472616374000000604082015260600190565b60208082526027908201527f4974656d45786368616e67653a20426964646572206d757374206265206d736760408201527f2073656e64657200000000000000000000000000000000000000000000000000606082015260800190565b6020808252601f908201527f5265656e7472616e637947756172643a207265656e7472616e742063616c6c00604082015260600190565b60208082526019908201527f4974656d3a206d696e7457697468536967206578706972656400000000000000604082015260600190565b9182526001600160a01b0316602082015260400190565b918252805160208084019190915201516001600160a01b0316604082015260600190565b91825280515160208084019190915281015151604080840191909152015151606082015260800190565b82815260c08101612282602083018461341a565b83815260e0810161424f602083018561341a565b6001600160a01b03831660c0830152949350505050565b60405181810167ffffffffffffffff8111828210171561428557600080fd5b604052919050565b60005b838110156142a8578181015183820152602001614290565b838111156119545750506000910152565b6001600160a01b03811681146122d757600080fd5b7fffffffff00000000000000000000000000000000000000000000000000000000811681146122d757600080fdfe4552433732313a207472616e7366657220746f206e6f6e20455243373231526563656976657220696d706c656d656e7465724552433732313a206f776e657220717565727920666f72206e6f6e6578697374656e7420746f6b656ea26469706673582212200aae20e42d683c07cec015f9e123d4b728b5c7066014a7667baa6cda89c6621064736f6c63430006080033",
  "linkReferences": {},
  "deployedLinkReferences": {}
}