{
  "_format": "hh-sol-artifact-1",
  "contractName": "Item",
  "sourceName": "contracts/Item.sol",
  "abi": [
    {
      "inputs": [
        {
          "internalType": "address",
          "name": "itemExchangeContractAddr",
          "type": "address"
        },
        {
          "internalType": "string",
          "name": "name_",
          "type": "string"
        },
        {
          "internalType": "string",
          "name": "symbol_",
          "type": "string"
        },
        {
          "internalType": "uint256",
          "name": "maxSupplyAmount",
          "type": "uint256"
        },
        {
          "internalType": "string",
          "name": "itemIdentifierString",
          "type": "string"
        }
      ],
      "stateMutability": "nonpayable",
      "type": "constructor"
    },
    {
      "anonymous": false,
      "inputs": [
        {
          "indexed": true,
          "internalType": "address",
          "name": "owner",
          "type": "address"
        },
        {
          "indexed": true,
          "internalType": "address",
          "name": "approved",
          "type": "address"
        },
        {
          "indexed": true,
          "internalType": "uint256",
          "name": "tokenId",
          "type": "uint256"
        }
      ],
      "name": "Approval",
      "type": "event"
    },
    {
      "anonymous": false,
      "inputs": [
        {
          "indexed": true,
          "internalType": "address",
          "name": "owner",
          "type": "address"
        },
        {
          "indexed": true,
          "internalType": "address",
          "name": "operator",
          "type": "address"
        },
        {
          "indexed": false,
          "internalType": "bool",
          "name": "approved",
          "type": "bool"
        }
      ],
      "name": "ApprovalForAll",
      "type": "event"
    },
    {
      "anonymous": false,
      "inputs": [
        {
          "indexed": true,
          "internalType": "address",
          "name": "previousOwner",
          "type": "address"
        },
        {
          "indexed": true,
          "internalType": "address",
          "name": "newOwner",
          "type": "address"
        }
      ],
      "name": "OwnershipTransferred",
      "type": "event"
    },
    {
      "anonymous": false,
      "inputs": [
        {
          "indexed": true,
          "internalType": "uint256",
          "name": "_tokenId",
          "type": "uint256"
        },
        {
          "indexed": false,
          "internalType": "address",
          "name": "owner",
          "type": "address"
        },
        {
          "indexed": false,
          "internalType": "string",
          "name": "_uri",
          "type": "string"
        }
      ],
      "name": "TokenMetadataURIUpdated",
      "type": "event"
    },
    {
      "anonymous": false,
      "inputs": [
        {
          "indexed": true,
          "internalType": "uint256",
          "name": "_tokenId",
          "type": "uint256"
        },
        {
          "indexed": false,
          "internalType": "address",
          "name": "owner",
          "type": "address"
        },
        {
          "indexed": false,
          "internalType": "string",
          "name": "_uri",
          "type": "string"
        }
      ],
      "name": "TokenURIUpdated",
      "type": "event"
    },
    {
      "anonymous": false,
      "inputs": [
        {
          "indexed": true,
          "internalType": "address",
          "name": "from",
          "type": "address"
        },
        {
          "indexed": true,
          "internalType": "address",
          "name": "to",
          "type": "address"
        },
        {
          "indexed": true,
          "internalType": "uint256",
          "name": "tokenId",
          "type": "uint256"
        }
      ],
      "name": "Transfer",
      "type": "event"
    },
    {
      "inputs": [],
      "name": "MINT_WITH_SIG_TYPEHASH",
      "outputs": [
        {
          "internalType": "bytes32",
          "name": "",
          "type": "bytes32"
        }
      ],
      "stateMutability": "view",
      "type": "function"
    },
    {
      "inputs": [],
      "name": "PERMIT_TYPEHASH",
      "outputs": [
        {
          "internalType": "bytes32",
          "name": "",
          "type": "bytes32"
        }
      ],
      "stateMutability": "view",
      "type": "function"
    },
    {
      "inputs": [
        {
          "internalType": "uint256",
          "name": "tokenId",
          "type": "uint256"
        },
        {
          "components": [
            {
              "internalType": "uint256",
              "name": "amount",
              "type": "uint256"
            },
            {
              "internalType": "address",
              "name": "currency",
              "type": "address"
            },
            {
              "internalType": "address",
              "name": "bidder",
              "type": "address"
            },
            {
              "internalType": "address",
              "name": "recipient",
              "type": "address"
            },
            {
              "components": [
                {
                  "internalType": "uint256",
                  "name": "value",
                  "type": "uint256"
                }
              ],
              "internalType": "struct Decimal.D256",
              "name": "sellOnShare",
              "type": "tuple"
            }
          ],
          "internalType": "struct IItemExchange.Bid",
          "name": "bid",
          "type": "tuple"
        }
      ],
      "name": "acceptBid",
      "outputs": [],
      "stateMutability": "nonpayable",
      "type": "function"
    },
    {
      "inputs": [
        {
          "internalType": "address",
          "name": "to",
          "type": "address"
        },
        {
          "internalType": "uint256",
          "name": "tokenId",
          "type": "uint256"
        }
      ],
      "name": "approve",
      "outputs": [],
      "stateMutability": "nonpayable",
      "type": "function"
    },
    {
      "inputs": [
        {
          "internalType": "address",
          "name": "owner",
          "type": "address"
        }
      ],
      "name": "balanceOf",
      "outputs": [
        {
          "internalType": "uint256",
          "name": "",
          "type": "uint256"
        }
      ],
      "stateMutability": "view",
      "type": "function"
    },
    {
      "inputs": [],
      "name": "baseURI",
      "outputs": [
        {
          "internalType": "string",
          "name": "",
          "type": "string"
        }
      ],
      "stateMutability": "view",
      "type": "function"
    },
    {
      "inputs": [
        {
          "internalType": "uint256",
          "name": "tokenId",
          "type": "uint256"
        }
      ],
      "name": "burn",
      "outputs": [],
      "stateMutability": "nonpayable",
      "type": "function"
    },
    {
      "inputs": [
        {
          "internalType": "uint256",
          "name": "tokenId",
          "type": "uint256"
        }
      ],
      "name": "getApproved",
      "outputs": [
        {
          "internalType": "address",
          "name": "",
          "type": "address"
        }
      ],
      "stateMutability": "view",
      "type": "function"
    },
    {
      "inputs": [],
      "name": "getItemIdentifier",
      "outputs": [
        {
          "internalType": "string",
          "name": "",
          "type": "string"
        }
      ],
      "stateMutability": "view",
      "type": "function"
    },
    {
      "inputs": [
        {
          "internalType": "address",
          "name": "owner",
          "type": "address"
        },
        {
          "internalType": "address",
          "name": "operator",
          "type": "address"
        }
      ],
      "name": "isApprovedForAll",
      "outputs": [
        {
          "internalType": "bool",
          "name": "",
          "type": "bool"
        }
      ],
      "stateMutability": "view",
      "type": "function"
    },
    {
      "inputs": [],
      "name": "itemExchangeContract",
      "outputs": [
        {
          "internalType": "address",
          "name": "",
          "type": "address"
        }
      ],
      "stateMutability": "view",
      "type": "function"
    },
    {
      "inputs": [],
      "name": "itemIdentifier",
      "outputs": [
        {
          "internalType": "string",
          "name": "",
          "type": "string"
        }
      ],
      "stateMutability": "view",
      "type": "function"
    },
    {
      "inputs": [
        {
          "internalType": "uint256",
          "name": "tokenId",
          "type": "uint256"
        },
        {
          "internalType": "address",
          "name": "recipient",
          "type": "address"
        }
      ],
      "name": "listTransfer",
      "outputs": [],
      "stateMutability": "nonpayable",
      "type": "function"
    },
    {
      "inputs": [],
      "name": "maxSupply",
      "outputs": [
        {
          "internalType": "uint256",
          "name": "",
          "type": "uint256"
        }
      ],
      "stateMutability": "view",
      "type": "function"
    },
    {
      "inputs": [
        {
          "components": [
            {
              "internalType": "string",
              "name": "tokenURI",
              "type": "string"
            },
            {
              "internalType": "string",
              "name": "metadataURI",
              "type": "string"
            },
            {
              "internalType": "bytes32",
              "name": "contentHash",
              "type": "bytes32"
            },
            {
              "internalType": "bytes32",
              "name": "metadataHash",
              "type": "bytes32"
            }
          ],
          "internalType": "struct IItem.ItemData",
          "name": "data",
          "type": "tuple"
        },
        {
          "components": [
            {
              "components": [
                {
                  "internalType": "uint256",
                  "name": "value",
                  "type": "uint256"
                }
              ],
              "internalType": "struct Decimal.D256",
              "name": "prevOwner",
              "type": "tuple"
            },
            {
              "components": [
                {
                  "internalType": "uint256",
                  "name": "value",
                  "type": "uint256"
                }
              ],
              "internalType": "struct Decimal.D256",
              "name": "creator",
              "type": "tuple"
            },
            {
              "components": [
                {
                  "internalType": "uint256",
                  "name": "value",
                  "type": "uint256"
                }
              ],
              "internalType": "struct Decimal.D256",
              "name": "owner",
              "type": "tuple"
            }
          ],
          "internalType": "struct IItemExchange.BidShares",
          "name": "bidShares",
          "type": "tuple"
        }
      ],
      "name": "mint",
      "outputs": [],
      "stateMutability": "nonpayable",
      "type": "function"
    },
    {
      "inputs": [
        {
          "internalType": "address",
          "name": "creator",
          "type": "address"
        },
        {
          "components": [
            {
              "internalType": "string",
              "name": "tokenURI",
              "type": "string"
            },
            {
              "internalType": "string",
              "name": "metadataURI",
              "type": "string"
            },
            {
              "internalType": "bytes32",
              "name": "contentHash",
              "type": "bytes32"
            },
            {
              "internalType": "bytes32",
              "name": "metadataHash",
              "type": "bytes32"
            }
          ],
          "internalType": "struct IItem.ItemData",
          "name": "data",
          "type": "tuple"
        },
        {
          "components": [
            {
              "components": [
                {
                  "internalType": "uint256",
                  "name": "value",
                  "type": "uint256"
                }
              ],
              "internalType": "struct Decimal.D256",
              "name": "prevOwner",
              "type": "tuple"
            },
            {
              "components": [
                {
                  "internalType": "uint256",
                  "name": "value",
                  "type": "uint256"
                }
              ],
              "internalType": "struct Decimal.D256",
              "name": "creator",
              "type": "tuple"
            },
            {
              "components": [
                {
                  "internalType": "uint256",
                  "name": "value",
                  "type": "uint256"
                }
              ],
              "internalType": "struct Decimal.D256",
              "name": "owner",
              "type": "tuple"
            }
          ],
          "internalType": "struct IItemExchange.BidShares",
          "name": "bidShares",
          "type": "tuple"
        },
        {
          "components": [
            {
              "internalType": "uint256",
              "name": "deadline",
              "type": "uint256"
            },
            {
              "internalType": "uint8",
              "name": "v",
              "type": "uint8"
            },
            {
              "internalType": "bytes32",
              "name": "r",
              "type": "bytes32"
            },
            {
              "internalType": "bytes32",
              "name": "s",
              "type": "bytes32"
            }
          ],
          "internalType": "struct IItem.EIP712Signature",
          "name": "sig",
          "type": "tuple"
        }
      ],
      "name": "mintForCreatorWithSig",
      "outputs": [],
      "stateMutability": "nonpayable",
      "type": "function"
    },
    {
      "inputs": [
        {
          "internalType": "address",
          "name": "creator",
          "type": "address"
        },
        {
          "components": [
            {
              "internalType": "string",
              "name": "tokenURI",
              "type": "string"
            },
            {
              "internalType": "string",
              "name": "metadataURI",
              "type": "string"
            },
            {
              "internalType": "bytes32",
              "name": "contentHash",
              "type": "bytes32"
            },
            {
              "internalType": "bytes32",
              "name": "metadataHash",
              "type": "bytes32"
            }
          ],
          "internalType": "struct IItem.ItemData",
          "name": "data",
          "type": "tuple"
        },
        {
          "components": [
            {
              "components": [
                {
                  "internalType": "uint256",
                  "name": "value",
                  "type": "uint256"
                }
              ],
              "internalType": "struct Decimal.D256",
              "name": "prevOwner",
              "type": "tuple"
            },
            {
              "components": [
                {
                  "internalType": "uint256",
                  "name": "value",
                  "type": "uint256"
                }
              ],
              "internalType": "struct Decimal.D256",
              "name": "creator",
              "type": "tuple"
            },
            {
              "components": [
                {
                  "internalType": "uint256",
                  "name": "value",
                  "type": "uint256"
                }
              ],
              "internalType": "struct Decimal.D256",
              "name": "owner",
              "type": "tuple"
            }
          ],
          "internalType": "struct IItemExchange.BidShares",
          "name": "bidShares",
          "type": "tuple"
        }
      ],
      "name": "mintForCreatorWithoutSig",
      "outputs": [],
      "stateMutability": "nonpayable",
      "type": "function"
    },
    {
      "inputs": [
        {
          "components": [
            {
              "internalType": "string",
              "name": "tokenURI",
              "type": "string"
            },
            {
              "internalType": "string",
              "name": "metadataURI",
              "type": "string"
            },
            {
              "internalType": "bytes32",
              "name": "contentHash",
              "type": "bytes32"
            },
            {
              "internalType": "bytes32",
              "name": "metadataHash",
              "type": "bytes32"
            }
          ],
          "internalType": "struct IItem.ItemData[]",
          "name": "data",
          "type": "tuple[]"
        },
        {
          "components": [
            {
              "components": [
                {
                  "internalType": "uint256",
                  "name": "value",
                  "type": "uint256"
                }
              ],
              "internalType": "struct Decimal.D256",
              "name": "prevOwner",
              "type": "tuple"
            },
            {
              "components": [
                {
                  "internalType": "uint256",
                  "name": "value",
                  "type": "uint256"
                }
              ],
              "internalType": "struct Decimal.D256",
              "name": "creator",
              "type": "tuple"
            },
            {
              "components": [
                {
                  "internalType": "uint256",
                  "name": "value",
                  "type": "uint256"
                }
              ],
              "internalType": "struct Decimal.D256",
              "name": "owner",
              "type": "tuple"
            }
          ],
          "internalType": "struct IItemExchange.BidShares[]",
          "name": "bidShares",
          "type": "tuple[]"
        }
      ],
      "name": "mintMultiple",
      "outputs": [],
      "stateMutability": "nonpayable",
      "type": "function"
    },
    {
      "inputs": [
        {
          "internalType": "address",
          "name": "",
          "type": "address"
        }
      ],
      "name": "mintWithSigNonces",
      "outputs": [
        {
          "internalType": "uint256",
          "name": "",
          "type": "uint256"
        }
      ],
      "stateMutability": "view",
      "type": "function"
    },
    {
      "inputs": [],
      "name": "name",
      "outputs": [
        {
          "internalType": "string",
          "name": "",
          "type": "string"
        }
      ],
      "stateMutability": "view",
      "type": "function"
    },
    {
      "inputs": [],
      "name": "owner",
      "outputs": [
        {
          "internalType": "address",
          "name": "",
          "type": "address"
        }
      ],
      "stateMutability": "view",
      "type": "function"
    },
    {
      "inputs": [
        {
          "internalType": "uint256",
          "name": "tokenId",
          "type": "uint256"
        }
      ],
      "name": "ownerOf",
      "outputs": [
        {
          "internalType": "address",
          "name": "",
          "type": "address"
        }
      ],
      "stateMutability": "view",
      "type": "function"
    },
    {
      "inputs": [
        {
          "internalType": "address",
          "name": "spender",
          "type": "address"
        },
        {
          "internalType": "uint256",
          "name": "tokenId",
          "type": "uint256"
        },
        {
          "components": [
            {
              "internalType": "uint256",
              "name": "deadline",
              "type": "uint256"
            },
            {
              "internalType": "uint8",
              "name": "v",
              "type": "uint8"
            },
            {
              "internalType": "bytes32",
              "name": "r",
              "type": "bytes32"
            },
            {
              "internalType": "bytes32",
              "name": "s",
              "type": "bytes32"
            }
          ],
          "internalType": "struct IItem.EIP712Signature",
          "name": "sig",
          "type": "tuple"
        }
      ],
      "name": "permit",
      "outputs": [],
      "stateMutability": "nonpayable",
      "type": "function"
    },
    {
      "inputs": [
        {
          "internalType": "address",
          "name": "",
          "type": "address"
        },
        {
          "internalType": "uint256",
          "name": "",
          "type": "uint256"
        }
      ],
      "name": "permitNonces",
      "outputs": [
        {
          "internalType": "uint256",
          "name": "",
          "type": "uint256"
        }
      ],
      "stateMutability": "view",
      "type": "function"
    },
    {
      "inputs": [
        {
          "internalType": "uint256",
          "name": "",
          "type": "uint256"
        }
      ],
      "name": "previousTokenOwners",
      "outputs": [
        {
          "internalType": "address",
          "name": "",
          "type": "address"
        }
      ],
      "stateMutability": "view",
      "type": "function"
    },
    {
      "inputs": [
        {
          "internalType": "uint256",
          "name": "tokenId",
          "type": "uint256"
        }
      ],
      "name": "removeAsk",
      "outputs": [],
      "stateMutability": "nonpayable",
      "type": "function"
    },
    {
      "inputs": [
        {
          "internalType": "uint256",
          "name": "tokenId",
          "type": "uint256"
        }
      ],
      "name": "removeBid",
      "outputs": [],
      "stateMutability": "nonpayable",
      "type": "function"
    },
    {
      "inputs": [],
      "name": "renounceOwnership",
      "outputs": [],
      "stateMutability": "nonpayable",
      "type": "function"
    },
    {
      "inputs": [
        {
          "internalType": "uint256",
          "name": "tokenId",
          "type": "uint256"
        }
      ],
      "name": "revokeApproval",
      "outputs": [],
      "stateMutability": "nonpayable",
      "type": "function"
    },
    {
      "inputs": [
        {
          "internalType": "address",
          "name": "from",
          "type": "address"
        },
        {
          "internalType": "address",
          "name": "to",
          "type": "address"
        },
        {
          "internalType": "uint256",
          "name": "tokenId",
          "type": "uint256"
        }
      ],
      "name": "safeTransferFrom",
      "outputs": [],
      "stateMutability": "nonpayable",
      "type": "function"
    },
    {
      "inputs": [
        {
          "internalType": "address",
          "name": "from",
          "type": "address"
        },
        {
          "internalType": "address",
          "name": "to",
          "type": "address"
        },
        {
          "internalType": "uint256",
          "name": "tokenId",
          "type": "uint256"
        },
        {
          "internalType": "bytes",
          "name": "_data",
          "type": "bytes"
        }
      ],
      "name": "safeTransferFrom",
      "outputs": [],
      "stateMutability": "nonpayable",
      "type": "function"
    },
    {
      "inputs": [
        {
          "internalType": "address",
          "name": "operator",
          "type": "address"
        },
        {
          "internalType": "bool",
          "name": "approved",
          "type": "bool"
        }
      ],
      "name": "setApprovalForAll",
      "outputs": [],
      "stateMutability": "nonpayable",
      "type": "function"
    },
    {
      "inputs": [
        {
          "internalType": "uint256",
          "name": "tokenId",
          "type": "uint256"
        },
        {
          "components": [
            {
              "internalType": "uint256",
              "name": "amount",
              "type": "uint256"
            },
            {
              "internalType": "address",
              "name": "currency",
              "type": "address"
            }
          ],
          "internalType": "struct IItemExchange.Ask",
          "name": "ask",
          "type": "tuple"
        }
      ],
      "name": "setAsk",
      "outputs": [],
      "stateMutability": "nonpayable",
      "type": "function"
    },
    {
      "inputs": [
        {
          "internalType": "uint256",
          "name": "tokenId",
          "type": "uint256"
        },
        {
          "components": [
            {
              "internalType": "uint256",
              "name": "amount",
              "type": "uint256"
            },
            {
              "internalType": "address",
              "name": "currency",
              "type": "address"
            },
            {
              "internalType": "address",
              "name": "bidder",
              "type": "address"
            },
            {
              "internalType": "address",
              "name": "recipient",
              "type": "address"
            },
            {
              "components": [
                {
                  "internalType": "uint256",
                  "name": "value",
                  "type": "uint256"
                }
              ],
              "internalType": "struct Decimal.D256",
              "name": "sellOnShare",
              "type": "tuple"
            }
          ],
          "internalType": "struct IItemExchange.Bid",
          "name": "bid",
          "type": "tuple"
        }
      ],
      "name": "setBid",
      "outputs": [],
      "stateMutability": "nonpayable",
      "type": "function"
    },
    {
      "inputs": [
        {
          "internalType": "bytes4",
          "name": "interfaceId",
          "type": "bytes4"
        }
      ],
      "name": "supportsInterface",
      "outputs": [
        {
          "internalType": "bool",
          "name": "",
          "type": "bool"
        }
      ],
      "stateMutability": "view",
      "type": "function"
    },
    {
      "inputs": [],
      "name": "symbol",
      "outputs": [
        {
          "internalType": "string",
          "name": "",
          "type": "string"
        }
      ],
      "stateMutability": "view",
      "type": "function"
    },
    {
      "inputs": [
        {
          "internalType": "uint256",
          "name": "index",
          "type": "uint256"
        }
      ],
      "name": "tokenByIndex",
      "outputs": [
        {
          "internalType": "uint256",
          "name": "",
          "type": "uint256"
        }
      ],
      "stateMutability": "view",
      "type": "function"
    },
    {
      "inputs": [
        {
          "internalType": "uint256",
          "name": "",
          "type": "uint256"
        }
      ],
      "name": "tokenContentHashes",
      "outputs": [
        {
          "internalType": "bytes32",
          "name": "",
          "type": "bytes32"
        }
      ],
      "stateMutability": "view",
      "type": "function"
    },
    {
      "inputs": [
        {
          "internalType": "uint256",
          "name": "",
          "type": "uint256"
        }
      ],
      "name": "tokenContractAddresses",
      "outputs": [
        {
          "internalType": "address",
          "name": "",
          "type": "address"
        }
      ],
      "stateMutability": "view",
      "type": "function"
    },
    {
      "inputs": [
        {
          "internalType": "uint256",
          "name": "",
          "type": "uint256"
        }
      ],
      "name": "tokenCreators",
      "outputs": [
        {
          "internalType": "address",
          "name": "",
          "type": "address"
        }
      ],
      "stateMutability": "view",
      "type": "function"
    },
    {
      "inputs": [
        {
          "internalType": "uint256",
          "name": "",
          "type": "uint256"
        }
      ],
      "name": "tokenMetadataHashes",
      "outputs": [
        {
          "internalType": "bytes32",
          "name": "",
          "type": "bytes32"
        }
      ],
      "stateMutability": "view",
      "type": "function"
    },
    {
      "inputs": [
        {
          "internalType": "uint256",
          "name": "tokenId",
          "type": "uint256"
        }
      ],
      "name": "tokenMetadataURI",
      "outputs": [
        {
          "internalType": "string",
          "name": "",
          "type": "string"
        }
      ],
      "stateMutability": "view",
      "type": "function"
    },
    {
      "inputs": [
        {
          "internalType": "address",
          "name": "owner",
          "type": "address"
        },
        {
          "internalType": "uint256",
          "name": "index",
          "type": "uint256"
        }
      ],
      "name": "tokenOfOwnerByIndex",
      "outputs": [
        {
          "internalType": "uint256",
          "name": "",
          "type": "uint256"
        }
      ],
      "stateMutability": "view",
      "type": "function"
    },
    {
      "inputs": [
        {
          "internalType": "uint256",
          "name": "tokenId",
          "type": "uint256"
        }
      ],
      "name": "tokenURI",
      "outputs": [
        {
          "internalType": "string",
          "name": "",
          "type": "string"
        }
      ],
      "stateMutability": "view",
      "type": "function"
    },
    {
      "inputs": [],
      "name": "totalSupply",
      "outputs": [
        {
          "internalType": "uint256",
          "name": "",
          "type": "uint256"
        }
      ],
      "stateMutability": "view",
      "type": "function"
    },
    {
      "inputs": [
        {
          "internalType": "address",
          "name": "newOwner",
          "type": "address"
        }
      ],
      "name": "transferContractOwnership",
      "outputs": [],
      "stateMutability": "nonpayable",
      "type": "function"
    },
    {
      "inputs": [
        {
          "internalType": "address",
          "name": "from",
          "type": "address"
        },
        {
          "internalType": "address",
          "name": "to",
          "type": "address"
        },
        {
          "internalType": "uint256",
          "name": "tokenId",
          "type": "uint256"
        }
      ],
      "name": "transferFrom",
      "outputs": [],
      "stateMutability": "nonpayable",
      "type": "function"
    },
    {
      "inputs": [
        {
          "internalType": "address",
          "name": "newOwner",
          "type": "address"
        }
      ],
      "name": "transferOwnership",
      "outputs": [],
      "stateMutability": "nonpayable",
      "type": "function"
    },
    {
      "inputs": [
        {
          "internalType": "uint256",
          "name": "tokenId",
          "type": "uint256"
        },
        {
          "internalType": "string",
          "name": "metadataURI",
          "type": "string"
        }
      ],
      "name": "updateTokenMetadataURI",
      "outputs": [],
      "stateMutability": "nonpayable",
      "type": "function"
    },
    {
      "inputs": [
        {
          "internalType": "uint256",
          "name": "tokenId",
          "type": "uint256"
        },
        {
          "internalType": "string",
          "name": "tokenURI",
          "type": "string"
        }
      ],
      "name": "updateTokenURI",
      "outputs": [],
      "stateMutability": "nonpayable",
      "type": "function"
    }
  ],
  "bytecode": "0x60806040523480156200001157600080fd5b5060405162004be538038062004be5833981016040819052620000349162000322565b8383620000516301ffc9a760e01b6001600160e01b036200017916565b815162000066906006906020850190620001d9565b5080516200007c906007906020840190620001d9565b50620000986380ac58cd60e01b6001600160e01b036200017916565b620000b363780e9d6360e01b6001600160e01b036200017916565b50506001600a556000620000cf6001600160e01b03620001d416565b600b80546001600160a01b0319166001600160a01b038316908117909155604051919250906000907f8be0079c531659141344cd1fd0a4f28419497f9722a3daafe3b4186f6b6457e0908290a350600c80546001600160a01b0319166001600160a01b038716179055600e82905580516200015290600d906020840190620001d9565b506200016e6364825ce360e11b6001600160e01b036200017916565b505050505062000410565b6001600160e01b03198082161415620001af5760405162461bcd60e51b8152600401620001a690620003d9565b60405180910390fd5b6001600160e01b0319166000908152602081905260409020805460ff19166001179055565b335b90565b828054600181600116156101000203166002900490600052602060002090601f016020900481019282601f106200021c57805160ff19168380011785556200024c565b828001600101855582156200024c579182015b828111156200024c5782518255916020019190600101906200022f565b506200025a9291506200025e565b5090565b620001d691905b808211156200025a576000815560010162000265565b600082601f8301126200028c578081fd5b81516001600160401b0380821115620002a3578283fd5b6040516020601f8401601f1916820181018381118382101715620002c5578586fd5b80604052508194508382528681858801011115620002e257600080fd5b600092505b83831015620003065785830181015182840182015291820191620002e7565b83831115620003185760008185840101525b5050505092915050565b600080600080600060a086880312156200033a578081fd5b85516001600160a01b038116811462000351578182fd5b60208701519095506001600160401b03808211156200036e578283fd5b6200037c89838a016200027b565b9550604088015191508082111562000392578283fd5b620003a089838a016200027b565b9450606088015193506080880151915080821115620003bd578283fd5b50620003cc888289016200027b565b9150509295509295909350565b6020808252601c908201527f4552433136353a20696e76616c696420696e7465726661636520696400000000604082015260600190565b6147c580620004206000396000f3fe608060405234801561001057600080fd5b50600436106103365760003560e01c80636ed1a7b2116101b2578063b1e130fc116100f9578063de5236fb116100a2578063f1d5596b1161007c578063f1d5596b1461066b578063f2fde38b14610673578063f8ccd5de14610686578063fad321971461069957610336565b8063de5236fb1461063d578063e0fd045f14610645578063e985e9c51461065857610336565b8063ba339399116100d3578063ba3393991461060f578063c87b56dd14610622578063d5abeb011461063557610336565b8063b1e130fc146105d6578063b320f459146105e9578063b88d4fde146105fc57610336565b80638da5cb5b1161015b578063a22cb46511610135578063a22cb4651461059d578063a843c51f146105b0578063acc368bf146105c357610336565b80638da5cb5b1461057a57806395d89b41146105825780639d8e72601461058a57610336565b8063715018a61161018c578063715018a61461054c57806375682e791461055457806389a8f74b1461056757610336565b80636ed1a7b21461051e57806370a082311461053157806370f31a951461054457610336565b806328220f351161028157806342842e0e1161022a5780635bf62422116102045780635bf62422146104dd57806362f24b70146104f05780636352211e146105035780636c0360eb1461051657610336565b806342842e0e146104a457806342966c68146104b75780634f6ccce7146104ca57610336565b80632f745c591161025b5780632f745c591461047657806330adf81f1461048957806332f44aa91461049157610336565b806328220f351461043d5780632cca3237146104505780632f01730c1461046357610336565b80630d37f7d4116102e357806318160ddd116102bd57806318160ddd1461040f57806318e97fd11461041757806323b872dd1461042a57610336565b80630d37f7d4146103e15780630e2a1778146103e9578063157c3df9146103fc57610336565b8063081812fc11610314578063081812fc14610399578063095ea7b3146103b95780630bcd899b146103ce57610336565b806301ddc3b51461033b57806301ffc9a71461036457806306fdde0314610384575b600080fd5b61034e610349366004613580565b6106ac565b60405161035b91906138e4565b60405180910390f35b610377610372366004613504565b6106be565b60405161035b91906138d9565b61038c6106f5565b60405161035b919061398b565b6103ac6103a7366004613580565b61078c565b60405161035b919061384a565b6103cc6103c73660046133f5565b6107d8565b005b61034e6103dc3660046131f4565b610870565b61038c610882565b6103cc6103f736600461341f565b610910565b61038c61040a366004613580565b610b34565b61034e610bff565b6103cc6104253660046135bb565b610c10565b6103cc610438366004613243565b610d6f565b6103cc61044b366004613580565b610da7565b6103cc61045e36600461353c565b610e55565b6103ac610471366004613580565b610e91565b61034e6104843660046133f5565b610eac565b61034e610edd565b6103cc61049f366004613598565b610f01565b6103cc6104b2366004613243565b610f87565b6103cc6104c5366004613580565b610fa2565b61034e6104d8366004613580565b611074565b6103cc6104eb366004613688565b611090565b6103cc6104fe366004613630565b611160565b6103ac610511366004613580565b611238565b61038c611266565b6103cc61052c366004613326565b6112c7565b61034e61053f3660046131f4565b611304565b61038c61134d565b6103cc6113ae565b6103cc6105623660046135bb565b611437565b6103cc610575366004613384565b611580565b6103ac61173a565b61038c611749565b6103ac610598366004613580565b6117aa565b6103cc6105ab3660046132eb565b6117c5565b6103cc6105be3660046131f4565b611893565b6103cc6105d1366004613453565b61190b565b6103cc6105e4366004613580565b6119da565b6103cc6105f7366004613580565b611a46565b6103cc61060a366004613283565b611b1d565b6103cc61061d366004613688565b611b5c565b61038c610630366004613580565b611bf7565b61034e611cc5565b61034e611ccb565b6103ac610653366004613580565b611cef565b61037761066636600461320f565b611d0a565b6103ac611d38565b6103cc6106813660046131f4565b611d47565b61034e6106943660046133f5565b611e08565b61034e6106a7366004613580565b611e25565b60136020526000908152604090205481565b7fffffffff000000000000000000000000000000000000000000000000000000001660009081526020819052604090205460ff1690565b60068054604080516020601f60026000196101006001881615020190951694909404938401819004810282018101909252828152606093909290918301828280156107815780601f1061075657610100808354040283529160200191610781565b820191906000526020600020905b81548152906001019060200180831161076457829003601f168201915b505050505090505b90565b600061079782611e37565b6107bc5760405162461bcd60e51b81526004016107b390614160565b60405180910390fd5b506000908152600460205260409020546001600160a01b031690565b60006107e382611238565b9050806001600160a01b0316836001600160a01b031614156108175760405162461bcd60e51b81526004016107b39061432d565b806001600160a01b0316610829611e4a565b6001600160a01b03161480610845575061084581610666611e4a565b6108615760405162461bcd60e51b81526004016107b390613f9b565b61086b8383611e4e565b505050565b60186020526000908152604090205481565b600d805460408051602060026001851615610100026000190190941693909304601f810184900484028201840190925281815292918301828280156109085780601f106108dd57610100808354040283529160200191610908565b820191906000526020600020905b8154815290600101906020018083116108eb57829003601f168201915b505050505081565b6002600a5414156109335760405162461bcd60e51b81526004016107b39061456c565b6002600a558161094281611e37565b61095e5760405162461bcd60e51b81526004016107b3906142bf565b8151158061096d575081514211155b6109895760405162461bcd60e51b81526004016107b3906143e7565b6001600160a01b0384166109af5760405162461bcd60e51b81526004016107b390613f07565b60006109b9611ebc565b90506000817fadacbbfdfd82dabfa913ef6727df5bc21f8699a2969db41d446fee646fc64b9e87876017856109ed83611238565b6001600160a01b03168152602080820192909252604090810160009081208c825283528190208054600181019091558a519151610a3096959493919291016138ed565b60405160208183030381529060405280519060200120604051602001610a5792919061379f565b604051602081830303815290604052805190602001209050600060018286602001518760400151886060015160405160008152602001604052604051610aa0949392919061396d565b6020604051602081039080840390855afa158015610ac2573d6000803e3d6000fd5b5050604051601f1901519150506001600160a01b03811615801590610b005750806001600160a01b0316610af587611238565b6001600160a01b0316145b610b1c5760405162461bcd60e51b81526004016107b3906142f6565b610b268787611e4e565b50506001600a555050505050565b60608180610b426019611fa7565b11610b5f5760405162461bcd60e51b81526004016107b39061399e565b60008381526015602090815260409182902080548351601f600260001961010060018616150201909316929092049182018490048402810184019094528084529091830182828015610bf25780601f10610bc757610100808354040283529160200191610bf2565b820191906000526020600020905b815481529060010190602001808311610bd557829003601f168201915b5050505050915050919050565b6000610c0b6002611fab565b905090565b6002600a541415610c335760405162461bcd60e51b81526004016107b39061456c565b6002600a553383610c448282611fb6565b610c605760405162461bcd60e51b81526004016107b390613bb1565b6000858152601260205260409020548590610c8d5760405162461bcd60e51b81526004016107b390613c1f565b84848080601f01602080910402602001604051908101604052809392919081815260200183838082843760009201919091525050825115159150610ce590505760405162461bcd60e51b81526004016107b390613a9a565b610d258787878080601f01602080910402602001604051908101604052809392919081815260200183838082843760009201919091525061203b92505050565b867f702fe2dc2dc0f68023540aa4a1e11811c0f29112f6ebf01e61b90538e4f29810338888604051610d599392919061389a565b60405180910390a250506001600a555050505050565b610d80610d7a611e4a565b82611fb6565b610d9c5760405162461bcd60e51b81526004016107b39061441e565b61086b83838361207f565b6002600a541415610dca5760405162461bcd60e51b81526004016107b39061456c565b6002600a553381610ddb8282611fb6565b610df75760405162461bcd60e51b81526004016107b390613bb1565b600c546040516328220f3560e01b81526001600160a01b03909116906328220f3590610e279086906004016138e4565b600060405180830381600087803b158015610e4157600080fd5b505af1158015610b26573d6000803e3d6000fd5b6002600a541415610e785760405162461bcd60e51b81526004016107b39061456c565b6002600a55610e883383836120ec565b50506001600a55565b6014602052600090815260409020546001600160a01b031681565b6001600160a01b0382166000908152600160205260408120610ed4908363ffffffff61232d16565b90505b92915050565b7fadacbbfdfd82dabfa913ef6727df5bc21f8699a2969db41d446fee646fc64b9e81565b600c546001600160a01b03163314610f2b5760405162461bcd60e51b81526004016107b3906141f8565b610f3482611238565b6000838152600f6020526040902080546001600160a01b0319166001600160a01b0392909216919091179055610f83610f6c83611238565b828460405180602001604052806000815250612339565b5050565b61086b83838360405180602001604052806000815250611b1d565b6002600a541415610fc55760405162461bcd60e51b81526004016107b39061456c565b6002600a5580610fd481611e37565b610ff05760405162461bcd60e51b81526004016107b3906142bf565b3382610ffc8282611fb6565b6110185760405162461bcd60e51b81526004016107b390613bb1565b600061102385611238565b6000868152601060205260409020549091506001600160a01b0380831691161461105f5760405162461bcd60e51b81526004016107b390613a3d565b6110688561236c565b50506001600a55505050565b60008061108860028463ffffffff61245816565b509392505050565b6002600a5414156110b35760405162461bcd60e51b81526004016107b39061456c565b6002600a55816110c281611e37565b6110de5760405162461bcd60e51b81526004016107b3906142bf565b81604001516001600160a01b0316336001600160a01b0316146111135760405162461bcd60e51b81526004016107b39061450f565b600c546040517fbdb586980000000000000000000000000000000000000000000000000000000081526001600160a01b039091169063bdb5869890610e2790869086903390600401614653565b6002600a5414156111835760405162461bcd60e51b81526004016107b39061456c565b6002600a5533826111948282611fb6565b6111b05760405162461bcd60e51b81526004016107b390613bb1565b600c546040517f62f24b700000000000000000000000000000000000000000000000000000000081526001600160a01b03909116906362f24b70906111fb90879087906004016145f1565b600060405180830381600087803b15801561121557600080fd5b505af1158015611229573d6000803e3d6000fd5b50506001600a55505050505050565b6000610ed782604051806060016040528060298152602001614767602991396002919063ffffffff61247416565b60098054604080516020601f60026000196101006001881615020190951694909404938401819004810282018101909252828152606093909290918301828280156107815780601f1061075657610100808354040283529160200191610781565b6002600a5414156112ea5760405162461bcd60e51b81526004016107b39061456c565b6002600a556112fa8383836120ec565b50506001600a5550565b60006001600160a01b03821661132c5760405162461bcd60e51b81526004016107b390614055565b6001600160a01b0382166000908152600160205260409020610ed790611fab565b600d8054604080516020601f60026000196101006001881615020190951694909404938401819004810282018101909252828152606093909290918301828280156107815780601f1061075657610100808354040283529160200191610781565b6113b6611e4a565b6001600160a01b03166113c761173a565b6001600160a01b0316146113ed5760405162461bcd60e51b81526004016107b39061422d565b600b546040516000916001600160a01b0316907f8be0079c531659141344cd1fd0a4f28419497f9722a3daafe3b4186f6b6457e0908390a3600b80546001600160a01b0319169055565b6002600a54141561145a5760405162461bcd60e51b81526004016107b39061456c565b6002600a55338361146b8282611fb6565b6114875760405162461bcd60e51b81526004016107b390613bb1565b60008581526013602052604090205485906114b45760405162461bcd60e51b81526004016107b390613e01565b84848080601f0160208091040260200160405190810160405280939291908181526020018383808284376000920191909152505082511515915061150c90505760405162461bcd60e51b81526004016107b390613a9a565b61154c8787878080601f01602080910402602001604051908101604052809392919081815260200183838082843760009201919091525061248b92505050565b867fe3df41127db820c79e5b8d541a63e40e3e97b9af96f7a50bded13091b70df9ae338888604051610d599392919061389a565b6002600a5414156115a35760405162461bcd60e51b81526004016107b39061456c565b6002600a55805115806115b7575080514211155b6115d35760405162461bcd60e51b81526004016107b3906145a3565b60006115dd611ebc565b6040808601516060870151602080880151516001600160a01b038b16600090815260188352858120805460018101909155895196519798509096889661164b967f93088eb7747c9bc240a8edd9669cbcc6663249f8e821916b3305e54cca2017f79690959094939201613945565b6040516020818303038152906040528051906020012060405160200161167292919061379f565b6040516020818303038152906040528051906020012090506000600182856020015186604001518760600151604051600081526020016040526040516116bb949392919061396d565b6020604051602081039080840390855afa1580156116dd573d6000803e3d6000fd5b5050604051601f1901519150506001600160a01b038116158015906117135750806001600160a01b0316876001600160a01b0316145b61172f5760405162461bcd60e51b81526004016107b3906142f6565b610b268187876120ec565b600b546001600160a01b031690565b60078054604080516020601f60026000196101006001881615020190951694909404938401819004810282018101909252828152606093909290918301828280156107815780601f1061075657610100808354040283529160200191610781565b600f602052600090815260409020546001600160a01b031681565b6117cd611e4a565b6001600160a01b0316826001600160a01b031614156117fe5760405162461bcd60e51b81526004016107b390613dca565b806005600061180b611e4a565b6001600160a01b03908116825260208083019390935260409182016000908120918716808252919093529120805460ff19169215159290921790915561184f611e4a565b6001600160a01b03167f17307eab39ab6107e8899845ad3d59bd9653f200f220920489ca2b5937696c318360405161188791906138d9565b60405180910390a35050565b6002600a5414156118b65760405162461bcd60e51b81526004016107b39061456c565b6002600a556118c3611e4a565b6001600160a01b03166118d461173a565b6001600160a01b0316146118fa5760405162461bcd60e51b81526004016107b39061422d565b611903816124d0565b506001600a55565b6002600a54141561192e5760405162461bcd60e51b81526004016107b39061456c565b6002600a5581516119515760405162461bcd60e51b81526004016107b390614129565b612710825111156119745760405162461bcd60e51b81526004016107b390613f3e565b80518251146119955760405162461bcd60e51b81526004016107b3906144b2565b60005b82518110156112fa576119d2338483815181106119b157fe5b60200260200101518484815181106119c557fe5b60200260200101516120ec565b600101611998565b6002600a5414156119fd5760405162461bcd60e51b81526004016107b39061456c565b6002600a55611a0b8161078c565b6001600160a01b0316336001600160a01b031614611a3b5760405162461bcd60e51b81526004016107b390613d10565b611903600082611e4e565b6002600a541415611a695760405162461bcd60e51b81526004016107b39061456c565b6002600a558080611a7a6019611fa7565b11611a975760405162461bcd60e51b81526004016107b39061399e565b600c546040517f776a08350000000000000000000000000000000000000000000000000000000081526001600160a01b039091169063776a083590611ae290859033906004016145da565b600060405180830381600087803b158015611afc57600080fd5b505af1158015611b10573d6000803e3d6000fd5b50506001600a5550505050565b611b2e611b28611e4a565b83611fb6565b611b4a5760405162461bcd60e51b81526004016107b39061441e565b611b5684848484612339565b50505050565b6002600a541415611b7f5760405162461bcd60e51b81526004016107b39061456c565b6002600a553382611b908282611fb6565b611bac5760405162461bcd60e51b81526004016107b390613bb1565b600c546040517fba3393990000000000000000000000000000000000000000000000000000000081526001600160a01b039091169063ba339399906111fb908790879060040161463f565b60608180611c056019611fa7565b11611c225760405162461bcd60e51b81526004016107b39061399e565b60008381526008602090815260409182902080548351601f6002600019610100600186161502019093169290920491820184900484028101840190945280845260609392830182828015611cb75780601f10611c8c57610100808354040283529160200191611cb7565b820191906000526020600020905b815481529060010190602001808311611c9a57829003601f168201915b509398975050505050505050565b600e5481565b7f93088eb7747c9bc240a8edd9669cbcc6663249f8e821916b3305e54cca2017f781565b6010602052600090815260409020546001600160a01b031681565b6001600160a01b03918216600090815260056020908152604080832093909416825291909152205460ff1690565b600c546001600160a01b031681565b611d4f611e4a565b6001600160a01b0316611d6061173a565b6001600160a01b031614611d865760405162461bcd60e51b81526004016107b39061422d565b6001600160a01b038116611dac5760405162461bcd60e51b81526004016107b390613b54565b600b546040516001600160a01b038084169216907f8be0079c531659141344cd1fd0a4f28419497f9722a3daafe3b4186f6b6457e090600090a3600b80546001600160a01b0319166001600160a01b0392909216919091179055565b601760209081526000928352604080842090915290825290205481565b60126020526000908152604090205481565b6000610ed760028363ffffffff6124dc16565b3390565b600081815260046020526040902080546001600160a01b0319166001600160a01b0384169081179091558190611e8382611238565b6001600160a01b03167f8c5be1e5ebec7d5bd14f71427d1e84f3dd0314c0f7b2291e5b200ac8c7c3b92560405160405180910390a45050565b6040516000904690611ecd906137d5565b604080519182900382208282018252600583527f4d6f74696600000000000000000000000000000000000000000000000000000060209384015281518083018352600181527f3100000000000000000000000000000000000000000000000000000000000000908401529051611f8b927f995ec625e9d0f4c4f4cb6358dd33c33e4a452bb37d2246dee597ee07e579fcb3917fc89efdaa54c0f20c7adf612882df0950f5a951637e0307cdcb4c672f298b8bc6918691309101613919565b6040516020818303038152906040528051906020012091505090565b5490565b6000610ed782611fa7565b6000611fc182611e37565b611fdd5760405162461bcd60e51b81526004016107b390613ebb565b6000611fe883611238565b9050806001600160a01b0316846001600160a01b031614806120235750836001600160a01b03166120188461078c565b6001600160a01b0316145b8061203357506120338185611d0a565b949350505050565b61204482611e37565b6120605760405162461bcd60e51b81526004016107b3906141ac565b6000828152600860209081526040909120825161086b92840190612ed1565b600c546040516328220f3560e01b81526001600160a01b03909116906328220f35906120af9084906004016138e4565b600060405180830381600087803b1580156120c957600080fd5b505af11580156120dd573d6000803e3d6000fd5b5050505061086b8383836124e8565b8151805161210c5760405162461bcd60e51b81526004016107b390613a9a565b6020830151805161212f5760405162461bcd60e51b81526004016107b390613a9a565b600e5461213a610bff565b106121575760405162461bcd60e51b81526004016107b390613be8565b60408401516121785760405162461bcd60e51b81526004016107b390613cb3565b60408085015160009081526016602052205460ff16156121aa5760405162461bcd60e51b81526004016107b39061438a565b60608401516121cb5760405162461bcd60e51b81526004016107b390613ff8565b60006121d76019611fa7565b90506121e38682612608565b6121ed6019612622565b6121fb81866040015161262b565b612209818660600151612664565b612213813061269d565b61222181866020015161248b565b61222f81866000015161203b565b6001600160a01b0386166000908152601160205260409020612257908263ffffffff6126f216565b50604080860151600090815260166020908152828220805460ff191660011790558382526010815282822080546001600160a01b03808c166001600160a01b03199283168117909355600f90935292849020805490931617909155600c5491517feb55683a00000000000000000000000000000000000000000000000000000000815291169063eb55683a906122f39084908890600401614615565b600060405180830381600087803b15801561230d57600080fd5b505af1158015612321573d6000803e3d6000fd5b50505050505050505050565b6000610ed483836126fe565b61234484848461207f565b61235084848484612743565b611b565760405162461bcd60e51b81526004016107b390613af7565b60008181526008602090815260409182902080548351601f60026000196101006001861615020190931692909204918201849004840281018401909452808452606093928301828280156124015780601f106123d657610100808354040283529160200191612401565b820191906000526020600020905b8154815290600101906020018083116123e457829003601f168201915b505050505090506124118261286a565b805115612439576000828152600860209081526040909120825161243792840190612ed1565b505b506000908152600f6020526040902080546001600160a01b0319169055565b60008080806124678686612943565b9097909650945050505050565b600061248184848461299f565b90505b9392505050565b8161249581611e37565b6124b15760405162461bcd60e51b81526004016107b3906142bf565b60008381526015602090815260409091208351611b5692850190612ed1565b6124d981611d47565b50565b6000610ed483836129fe565b826001600160a01b03166124fb82611238565b6001600160a01b0316146125215760405162461bcd60e51b81526004016107b390614262565b6001600160a01b0382166125475760405162461bcd60e51b81526004016107b390613d6d565b61255283838361086b565b61255d600082611e4e565b6001600160a01b0383166000908152600160205260409020612585908263ffffffff612a1616565b506001600160a01b03821660009081526001602052604090206125ae908263ffffffff6126f216565b506125c16002828463ffffffff612a2216565b5080826001600160a01b0316846001600160a01b03167fddf252ad1be2c89b69c2b068fc378daa952ba7f163c4a11628f55a4df523b3ef60405160405180910390a4505050565b610f83828260405180602001604052806000815250612a38565b80546001019055565b8161263581611e37565b6126515760405162461bcd60e51b81526004016107b3906142bf565b5060009182526012602052604090912055565b8161266e81611e37565b61268a5760405162461bcd60e51b81526004016107b3906142bf565b5060009182526013602052604090912055565b816126a781611e37565b6126c35760405162461bcd60e51b81526004016107b3906142bf565b5060009182526014602052604090912080546001600160a01b0319166001600160a01b03909216919091179055565b6000610ed48383612a6b565b815460009082106127215760405162461bcd60e51b81526004016107b3906139fb565b82600001828154811061273057fe5b9060005260206000200154905092915050565b6000612757846001600160a01b0316612ab5565b61276357506001612033565b606061281b630a85bd0160e11b612778611e4a565b88878760405160240161278e949392919061385e565b604051602081830303815290604052907bffffffffffffffffffffffffffffffffffffffffffffffffffffffff19166020820180517bffffffffffffffffffffffffffffffffffffffffffffffffffffffff8381831617835250505050604051806060016040528060328152602001614735603291396001600160a01b038816919063ffffffff612abb16565b90506000818060200190518101906128339190613520565b7fffffffff0000000000000000000000000000000000000000000000000000000016630a85bd0160e11b1492505050949350505050565b600061287582611238565b90506128838160008461086b565b61288e600083611e4e565b60008281526008602052604090205460026000196101006001841615020190911604156128cc5760008281526008602052604081206128cc91612f4f565b6001600160a01b03811660009081526001602052604090206128f4908363ffffffff612a1616565b5061290660028363ffffffff612aca16565b5060405182906000906001600160a01b038416907fddf252ad1be2c89b69c2b068fc378daa952ba7f163c4a11628f55a4df523b3ef908390a45050565b8154600090819083106129685760405162461bcd60e51b81526004016107b3906140b2565b600084600001848154811061297957fe5b906000526020600020906002020190508060000154816001015492509250509250929050565b600082815260018401602052604081205482816129cf5760405162461bcd60e51b81526004016107b3919061398b565b508460000160018203815481106129e257fe5b9060005260206000209060020201600101549150509392505050565b60009081526001919091016020526040902054151590565b6000610ed48383612ad6565b600061248184846001600160a01b038516612b9c565b612a428383612c33565b612a4f6000848484612743565b61086b5760405162461bcd60e51b81526004016107b390613af7565b6000612a7783836129fe565b612aad57508154600181810184556000848152602080822090930184905584548482528286019093526040902091909155610ed7565b506000610ed7565b3b151590565b60606124818484600085612d03565b6000610ed48383612dc4565b60008181526001830160205260408120548015612b925783546000198083019190810190600090879083908110612b0957fe5b9060005260206000200154905080876000018481548110612b2657fe5b600091825260208083209091019290925582815260018981019092526040902090840190558654879080612b5657fe5b60019003818190600052602060002001600090559055866001016000878152602001908152602001600020600090556001945050505050610ed7565b6000915050610ed7565b600082815260018401602052604081205480612c01575050604080518082018252838152602080820184815286546001818101895560008981528481209551600290930290950191825591519082015586548684528188019092529290912055612484565b82856000016001830381548110612c1457fe5b9060005260206000209060020201600101819055506000915050612484565b6001600160a01b038216612c595760405162461bcd60e51b81526004016107b3906140f4565b612c6281611e37565b15612c7f5760405162461bcd60e51b81526004016107b390613c7c565b612c8b6000838361086b565b6001600160a01b0382166000908152600160205260409020612cb3908263ffffffff6126f216565b50612cc66002828463ffffffff612a2216565b5060405181906001600160a01b038416906000907fddf252ad1be2c89b69c2b068fc378daa952ba7f163c4a11628f55a4df523b3ef908290a45050565b606082471015612d255760405162461bcd60e51b81526004016107b390613e5e565b612d2e85612ab5565b612d4a5760405162461bcd60e51b81526004016107b39061447b565b60006060866001600160a01b03168587604051612d679190613783565b60006040518083038185875af1925050503d8060008114612da4576040519150601f19603f3d011682016040523d82523d6000602084013e612da9565b606091505b5091509150612db9828286612e98565b979650505050505050565b60008181526001830160205260408120548015612b925783546000198083019190810190600090879083908110612df757fe5b9060005260206000209060020201905080876000018481548110612e1757fe5b600091825260208083208454600290930201918255600193840154918401919091558354825289830190526040902090840190558654879080612e5657fe5b6000828152602080822060026000199094019384020182815560019081018390559290935588815289820190925260408220919091559450610ed79350505050565b60608315612ea7575081612484565b825115612eb75782518084602001fd5b8160405162461bcd60e51b81526004016107b3919061398b565b828054600181600116156101000203166002900490600052602060002090601f016020900481019282601f10612f1257805160ff1916838001178555612f3f565b82800160010185558215612f3f579182015b82811115612f3f578251825591602001919060010190612f24565b50612f4b929150612f8f565b5090565b50805460018160011615610100020316600290046000825580601f10612f7557506124d9565b601f0160209004906000526020600020908101906124d991905b61078991905b80821115612f4b5760008155600101612f95565b80356001600160a01b0381168114610ed757600080fd5b600082601f830112612fd0578081fd5b8135612fe3612fde826146a5565b61467e565b818152915060208083019084810160608085028701830188101561300657600080fd5b60005b8581101561302d5761301b89846130a2565b85529383019391810191600101613009565b50505050505092915050565b600082601f830112613049578081fd5b813567ffffffffffffffff81111561305f578182fd5b613072601f8201601f191660200161467e565b915080825283602082850101111561308957600080fd5b8060208401602084013760009082016020015292915050565b6000606082840312156130b3578081fd5b6130bd606061467e565b90506130c983836130f5565b81526130d883602084016130f5565b60208201526130ea83604084016130f5565b604082015292915050565b600060208284031215613106578081fd5b613110602061467e565b9135825250919050565b60006080828403121561312b578081fd5b613135608061467e565b905081358152602082013560ff8116811461314f57600080fd5b80602083015250604082013560408201526060820135606082015292915050565b600060808284031215613181578081fd5b61318b608061467e565b9050813567ffffffffffffffff808211156131a557600080fd5b6131b185838601613039565b835260208401359150808211156131c757600080fd5b506131d484828501613039565b602083015250604082013560408201526060820135606082015292915050565b600060208284031215613205578081fd5b610ed48383612fa9565b60008060408385031215613221578081fd5b61322b8484612fa9565b915061323a8460208501612fa9565b90509250929050565b600080600060608486031215613257578081fd5b8335613262816146f1565b92506020840135613272816146f1565b929592945050506040919091013590565b60008060008060808587031215613298578081fd5b6132a28686612fa9565b93506132b18660208701612fa9565b925060408501359150606085013567ffffffffffffffff8111156132d3578182fd5b6132df87828801613039565b91505092959194509250565b600080604083850312156132fd578182fd5b6133078484612fa9565b91506020830135801515811461331b578182fd5b809150509250929050565b600080600060a0848603121561333a578081fd5b6133448585612fa9565b9250602084013567ffffffffffffffff81111561335f578182fd5b61336b86828701613170565b92505061337b85604086016130a2565b90509250925092565b600080600080610120858703121561339a578182fd5b6133a48686612fa9565b9350602085013567ffffffffffffffff8111156133bf578283fd5b6133cb87828801613170565b9350506133db86604087016130a2565b91506133ea8660a0870161311a565b905092959194509250565b60008060408385031215613407578182fd5b6134118484612fa9565b946020939093013593505050565b600080600060c08486031215613433578081fd5b61343d8585612fa9565b92506020840135915061337b856040860161311a565b60008060408385031215613465578182fd5b823567ffffffffffffffff8082111561347c578384fd5b81850186601f82011261348d578485fd5b8035925061349d612fde846146a5565b83815260208082019190838101885b878110156134d5576134c38c848435890101613170565b855293820193908201906001016134ac565b509197508801359450505050808211156134ed578283fd5b506134fa85828601612fc0565b9150509250929050565b600060208284031215613515578081fd5b813561248481614706565b600060208284031215613531578081fd5b815161248481614706565b6000806080838503121561354e578182fd5b823567ffffffffffffffff811115613564578283fd5b61357085828601613170565b92505061323a84602085016130a2565b600060208284031215613591578081fd5b5035919050565b600080604083850312156135aa578182fd5b8235915061323a8460208501612fa9565b6000806000604084860312156135cf578081fd5b83359250602084013567ffffffffffffffff808211156135ed578283fd5b81860187601f8201126135fe578384fd5b803592508183111561360e578384fd5b87602084830101111561361f578384fd5b949760209095019650909450505050565b6000808284036060811215613643578283fd5b833592506040601f1982011215613658578182fd5b50613663604061467e565b602084013581526040840135613678816146f1565b6020820152919491935090915050565b60008082840360c081121561369b578283fd5b8335925060a0601f19820112156136b0578182fd5b506136bb60a061467e565b602084013581526136cf8560408601612fa9565b60208201526136e18560608601612fa9565b60408201526136f38560808601612fa9565b60608201526137058560a086016130f5565b6080820152809150509250929050565b6000815180845261372d8160208601602086016146c5565b601f01601f19169290920160200192915050565b8051825260208101516001600160a01b038082166020850152806040840151166040850152806060840151166060850152505060808101515160808301525050565b600082516137958184602087016146c5565b9190910192915050565b7f190100000000000000000000000000000000000000000000000000000000000081526002810192909252602282015260420190565b7f454950373132446f6d61696e28737472696e67206e616d652c737472696e672081527f76657273696f6e2c75696e7432353620636861696e49642c616464726573732060208201527f766572696679696e67436f6e7472616374290000000000000000000000000000604082015260520190565b6001600160a01b0391909116815260200190565b60006001600160a01b038087168352808616602084015250836040830152608060608301526138906080830184613715565b9695505050505050565b60006001600160a01b03851682526040602083015282604083015282846060840137818301606090810191909152601f909201601f1916010192915050565b901515815260200190565b90815260200190565b9485526001600160a01b0393909316602085015260408401919091526060830152608082015260a00190565b9485526020850193909352604084019190915260608301526001600160a01b0316608082015260a00190565b958652602086019490945260408501929092526060840152608083015260a082015260c00190565b93845260ff9290921660208401526040830152606082015260800190565b600060208252610ed46020830184613715565b60208082526027908201527f4974656d3a20746f6b656e2077697468207468617420696420646f6573206e6f60408201527f7420657869737400000000000000000000000000000000000000000000000000606082015260800190565b60208082526022908201527f456e756d657261626c655365743a20696e646578206f7574206f6620626f756e604082015261647360f01b606082015260800190565b60208082526022908201527f4974656d3a206f776e6572206973206e6f742063726561746f72206f6620697460408201527f656d000000000000000000000000000000000000000000000000000000000000606082015260800190565b60208082526025908201527f4974656d3a2073706563696669656420757269206d757374206265206e6f6e2d60408201527f656d707479000000000000000000000000000000000000000000000000000000606082015260800190565b60208082526032908201527f4552433732313a207472616e7366657220746f206e6f6e20455243373231526560408201527f63656976657220696d706c656d656e7465720000000000000000000000000000606082015260800190565b60208082526026908201527f4f776e61626c653a206e6577206f776e657220697320746865207a65726f206160408201527f6464726573730000000000000000000000000000000000000000000000000000606082015260800190565b6020808252601c908201527f4974656d3a204f6e6c7920617070726f766564206f72206f776e657200000000604082015260600190565b60208082526015908201527f4974656d3a20737570706c79206465706c657465640000000000000000000000604082015260600190565b60208082526031908201527f4974656d3a20746f6b656e20646f6573206e6f7420686176652068617368206f60408201527f66206372656174656420636f6e74656e74000000000000000000000000000000606082015260800190565b6020808252601c908201527f4552433732313a20746f6b656e20616c7265616479206d696e74656400000000604082015260600190565b60208082526023908201527f4974656d3a20636f6e74656e742068617368206d757374206265206e6f6e2d7a60408201527f65726f0000000000000000000000000000000000000000000000000000000000606082015260800190565b60208082526021908201527f4974656d3a2063616c6c6572206e6f7420617070726f7665642061646472657360408201527f7300000000000000000000000000000000000000000000000000000000000000606082015260800190565b60208082526024908201527f4552433732313a207472616e7366657220746f20746865207a65726f2061646460408201527f7265737300000000000000000000000000000000000000000000000000000000606082015260800190565b60208082526019908201527f4552433732313a20617070726f766520746f2063616c6c657200000000000000604082015260600190565b6020808252602e908201527f4974656d3a20746f6b656e20646f6573206e6f7420686176652068617368206f60408201527f6620697473206d65746164617461000000000000000000000000000000000000606082015260800190565b60208082526026908201527f416464726573733a20696e73756666696369656e742062616c616e636520666f60408201527f722063616c6c0000000000000000000000000000000000000000000000000000606082015260800190565b6020808252602c908201527f4552433732313a206f70657261746f7220717565727920666f72206e6f6e657860408201526b34b9ba32b73a103a37b5b2b760a11b606082015260800190565b6020808252601b908201527f4974656d3a207370656e6465722063616e6e6f74206265203078300000000000604082015260600190565b60208082526032908201527f4c656e677468206f662064617461206d75737420626520657175616c20746f2060408201527f6f72206c657373207468616e2031303030300000000000000000000000000000606082015260800190565b60208082526038908201527f4552433732313a20617070726f76652063616c6c6572206973206e6f74206f7760408201527f6e6572206e6f7220617070726f76656420666f7220616c6c0000000000000000606082015260800190565b60208082526024908201527f4974656d3a206d657461646174612068617368206d757374206265206e6f6e2d60408201527f7a65726f00000000000000000000000000000000000000000000000000000000606082015260800190565b6020808252602a908201527f4552433732313a2062616c616e636520717565727920666f7220746865207a6560408201527f726f206164647265737300000000000000000000000000000000000000000000606082015260800190565b60208082526022908201527f456e756d657261626c654d61703a20696e646578206f7574206f6620626f756e604082015261647360f01b606082015260800190565b6020808252818101527f4552433732313a206d696e7420746f20746865207a65726f2061646472657373604082015260600190565b60208082526016908201527f64617461206d757374206e6f7420626520656d70747900000000000000000000604082015260600190565b6020808252602c908201527f4552433732313a20617070726f76656420717565727920666f72206e6f6e657860408201526b34b9ba32b73a103a37b5b2b760a11b606082015260800190565b6020808252602c908201527f4552433732314d657461646174613a2055524920736574206f66206e6f6e657860408201526b34b9ba32b73a103a37b5b2b760a11b606082015260800190565b6020808252818101527f4974656d3a206f6e6c79206974656d45786368616e676520636f6e7472616374604082015260600190565b6020808252818101527f4f776e61626c653a2063616c6c6572206973206e6f7420746865206f776e6572604082015260600190565b60208082526029908201527f4552433732313a207472616e73666572206f6620746f6b656e2074686174206960408201527f73206e6f74206f776e0000000000000000000000000000000000000000000000606082015260800190565b60208082526017908201527f4974656d3a206e6f6e6578697374656e7420746f6b656e000000000000000000604082015260600190565b60208082526017908201527f4974656d3a205369676e617475726520696e76616c6964000000000000000000604082015260600190565b60208082526021908201527f4552433732313a20617070726f76616c20746f2063757272656e74206f776e6560408201527f7200000000000000000000000000000000000000000000000000000000000000606082015260800190565b6020808252603d908201527f4974656d3a206120746f6b656e2068617320616c7265616479206265656e206360408201527f7265617465642077697468207468697320636f6e74656e742068617368000000606082015260800190565b60208082526014908201527f4974656d3a205065726d69742065787069726564000000000000000000000000604082015260600190565b60208082526031908201527f4552433732313a207472616e736665722063616c6c6572206973206e6f74206f60408201527f776e6572206e6f7220617070726f766564000000000000000000000000000000606082015260800190565b6020808252601d908201527f416464726573733a2063616c6c20746f206e6f6e2d636f6e7472616374000000604082015260600190565b60208082526027908201527f4c656e677468206f66206461746120616e6420626964536861726573206d757360408201527f74206d6174636800000000000000000000000000000000000000000000000000606082015260800190565b60208082526027908201527f4974656d45786368616e67653a20426964646572206d757374206265206d736760408201527f2073656e64657200000000000000000000000000000000000000000000000000606082015260800190565b6020808252601f908201527f5265656e7472616e637947756172643a207265656e7472616e742063616c6c00604082015260600190565b60208082526019908201527f4974656d3a206d696e7457697468536967206578706972656400000000000000604082015260600190565b9182526001600160a01b0316602082015260400190565b918252805160208084019190915201516001600160a01b0316604082015260600190565b91825280515160208084019190915281015151604080840191909152015151606082015260800190565b82815260c081016124846020830184613741565b83815260e081016146676020830185613741565b6001600160a01b03831660c0830152949350505050565b60405181810167ffffffffffffffff8111828210171561469d57600080fd5b604052919050565b600067ffffffffffffffff8211156146bb578081fd5b5060209081020190565b60005b838110156146e05781810151838201526020016146c8565b83811115611b565750506000910152565b6001600160a01b03811681146124d957600080fd5b7fffffffff00000000000000000000000000000000000000000000000000000000811681146124d957600080fdfe4552433732313a207472616e7366657220746f206e6f6e20455243373231526563656976657220696d706c656d656e7465724552433732313a206f776e657220717565727920666f72206e6f6e6578697374656e7420746f6b656ea2646970667358221220ef2d415c8dfcc972eae1c808233a1899b3afd584f862e082676aa2719d48f66964736f6c63430006080033",
  "linkReferences": {},
  "deployedLinkReferences": {}
}