{
  "_format": "hh-sol-artifact-1",
  "contractName": "ItemExchange",
  "sourceName": "contracts/ItemExchange.sol",
  "abi": [
    {
      "inputs": [
        {
          "internalType": "uint256",
          "name": "itemIdentifierCode",
          "type": "uint256"
        }
      ],
      "stateMutability": "nonpayable",
      "type": "constructor"
    },
    {
      "anonymous": false,
      "inputs": [
        {
          "indexed": true,
          "internalType": "uint256",
          "name": "tokenId",
          "type": "uint256"
        },
        {
          "components": [
            {
              "internalType": "uint256",
              "name": "amount",
              "type": "uint256"
            },
            {
              "internalType": "address",
              "name": "currency",
              "type": "address"
            }
          ],
          "indexed": false,
          "internalType": "struct IItemExchange.Ask",
          "name": "ask",
          "type": "tuple"
        }
      ],
      "name": "AskCreated",
      "type": "event"
    },
    {
      "anonymous": false,
      "inputs": [
        {
          "indexed": true,
          "internalType": "uint256",
          "name": "tokenId",
          "type": "uint256"
        },
        {
          "components": [
            {
              "internalType": "uint256",
              "name": "amount",
              "type": "uint256"
            },
            {
              "internalType": "address",
              "name": "currency",
              "type": "address"
            }
          ],
          "indexed": false,
          "internalType": "struct IItemExchange.Ask",
          "name": "ask",
          "type": "tuple"
        }
      ],
      "name": "AskRemoved",
      "type": "event"
    },
    {
      "anonymous": false,
      "inputs": [
        {
          "indexed": true,
          "internalType": "uint256",
          "name": "tokenId",
          "type": "uint256"
        },
        {
          "components": [
            {
              "internalType": "uint256",
              "name": "amount",
              "type": "uint256"
            },
            {
              "internalType": "address",
              "name": "currency",
              "type": "address"
            },
            {
              "internalType": "address",
              "name": "bidder",
              "type": "address"
            },
            {
              "internalType": "address",
              "name": "recipient",
              "type": "address"
            },
            {
              "components": [
                {
                  "internalType": "uint256",
                  "name": "value",
                  "type": "uint256"
                }
              ],
              "internalType": "struct Decimal.D256",
              "name": "sellOnShare",
              "type": "tuple"
            }
          ],
          "indexed": false,
          "internalType": "struct IItemExchange.Bid",
          "name": "bid",
          "type": "tuple"
        }
      ],
      "name": "BidCreated",
      "type": "event"
    },
    {
      "anonymous": false,
      "inputs": [
        {
          "indexed": true,
          "internalType": "uint256",
          "name": "tokenId",
          "type": "uint256"
        },
        {
          "components": [
            {
              "internalType": "uint256",
              "name": "amount",
              "type": "uint256"
            },
            {
              "internalType": "address",
              "name": "currency",
              "type": "address"
            },
            {
              "internalType": "address",
              "name": "bidder",
              "type": "address"
            },
            {
              "internalType": "address",
              "name": "recipient",
              "type": "address"
            },
            {
              "components": [
                {
                  "internalType": "uint256",
                  "name": "value",
                  "type": "uint256"
                }
              ],
              "internalType": "struct Decimal.D256",
              "name": "sellOnShare",
              "type": "tuple"
            }
          ],
          "indexed": false,
          "internalType": "struct IItemExchange.Bid",
          "name": "bid",
          "type": "tuple"
        }
      ],
      "name": "BidFinalized",
      "type": "event"
    },
    {
      "anonymous": false,
      "inputs": [
        {
          "indexed": true,
          "internalType": "uint256",
          "name": "tokenId",
          "type": "uint256"
        },
        {
          "components": [
            {
              "internalType": "uint256",
              "name": "amount",
              "type": "uint256"
            },
            {
              "internalType": "address",
              "name": "currency",
              "type": "address"
            },
            {
              "internalType": "address",
              "name": "bidder",
              "type": "address"
            },
            {
              "internalType": "address",
              "name": "recipient",
              "type": "address"
            },
            {
              "components": [
                {
                  "internalType": "uint256",
                  "name": "value",
                  "type": "uint256"
                }
              ],
              "internalType": "struct Decimal.D256",
              "name": "sellOnShare",
              "type": "tuple"
            }
          ],
          "indexed": false,
          "internalType": "struct IItemExchange.Bid",
          "name": "bid",
          "type": "tuple"
        }
      ],
      "name": "BidRemoved",
      "type": "event"
    },
    {
      "anonymous": false,
      "inputs": [
        {
          "indexed": true,
          "internalType": "uint256",
          "name": "tokenId",
          "type": "uint256"
        },
        {
          "components": [
            {
              "components": [
                {
                  "internalType": "uint256",
                  "name": "value",
                  "type": "uint256"
                }
              ],
              "internalType": "struct Decimal.D256",
              "name": "prevOwner",
              "type": "tuple"
            },
            {
              "components": [
                {
                  "internalType": "uint256",
                  "name": "value",
                  "type": "uint256"
                }
              ],
              "internalType": "struct Decimal.D256",
              "name": "creator",
              "type": "tuple"
            },
            {
              "components": [
                {
                  "internalType": "uint256",
                  "name": "value",
                  "type": "uint256"
                }
              ],
              "internalType": "struct Decimal.D256",
              "name": "owner",
              "type": "tuple"
            }
          ],
          "indexed": false,
          "internalType": "struct IItemExchange.BidShares",
          "name": "bidShares",
          "type": "tuple"
        }
      ],
      "name": "BidShareUpdated",
      "type": "event"
    },
    {
      "inputs": [
        {
          "internalType": "uint256",
          "name": "tokenId",
          "type": "uint256"
        },
        {
          "components": [
            {
              "internalType": "uint256",
              "name": "amount",
              "type": "uint256"
            },
            {
              "internalType": "address",
              "name": "currency",
              "type": "address"
            },
            {
              "internalType": "address",
              "name": "bidder",
              "type": "address"
            },
            {
              "internalType": "address",
              "name": "recipient",
              "type": "address"
            },
            {
              "components": [
                {
                  "internalType": "uint256",
                  "name": "value",
                  "type": "uint256"
                }
              ],
              "internalType": "struct Decimal.D256",
              "name": "sellOnShare",
              "type": "tuple"
            }
          ],
          "internalType": "struct IItemExchange.Bid",
          "name": "expectedBid",
          "type": "tuple"
        }
      ],
      "name": "acceptBid",
      "outputs": [],
      "stateMutability": "nonpayable",
      "type": "function"
    },
    {
      "inputs": [
        {
          "internalType": "uint256",
          "name": "tokenId",
          "type": "uint256"
        },
        {
          "internalType": "address",
          "name": "bidder",
          "type": "address"
        }
      ],
      "name": "bidForTokenBidder",
      "outputs": [
        {
          "components": [
            {
              "internalType": "uint256",
              "name": "amount",
              "type": "uint256"
            },
            {
              "internalType": "address",
              "name": "currency",
              "type": "address"
            },
            {
              "internalType": "address",
              "name": "bidder",
              "type": "address"
            },
            {
              "internalType": "address",
              "name": "recipient",
              "type": "address"
            },
            {
              "components": [
                {
                  "internalType": "uint256",
                  "name": "value",
                  "type": "uint256"
                }
              ],
              "internalType": "struct Decimal.D256",
              "name": "sellOnShare",
              "type": "tuple"
            }
          ],
          "internalType": "struct IItemExchange.Bid",
          "name": "",
          "type": "tuple"
        }
      ],
      "stateMutability": "view",
      "type": "function"
    },
    {
      "inputs": [
        {
          "internalType": "uint256",
          "name": "tokenId",
          "type": "uint256"
        }
      ],
      "name": "bidSharesForToken",
      "outputs": [
        {
          "components": [
            {
              "components": [
                {
                  "internalType": "uint256",
                  "name": "value",
                  "type": "uint256"
                }
              ],
              "internalType": "struct Decimal.D256",
              "name": "prevOwner",
              "type": "tuple"
            },
            {
              "components": [
                {
                  "internalType": "uint256",
                  "name": "value",
                  "type": "uint256"
                }
              ],
              "internalType": "struct Decimal.D256",
              "name": "creator",
              "type": "tuple"
            },
            {
              "components": [
                {
                  "internalType": "uint256",
                  "name": "value",
                  "type": "uint256"
                }
              ],
              "internalType": "struct Decimal.D256",
              "name": "owner",
              "type": "tuple"
            }
          ],
          "internalType": "struct IItemExchange.BidShares",
          "name": "",
          "type": "tuple"
        }
      ],
      "stateMutability": "view",
      "type": "function"
    },
    {
      "inputs": [
        {
          "internalType": "address",
          "name": "itemContractAddress",
          "type": "address"
        }
      ],
      "name": "configure",
      "outputs": [],
      "stateMutability": "nonpayable",
      "type": "function"
    },
    {
      "inputs": [
        {
          "internalType": "uint256",
          "name": "tokenId",
          "type": "uint256"
        }
      ],
      "name": "currentAskForToken",
      "outputs": [
        {
          "components": [
            {
              "internalType": "uint256",
              "name": "amount",
              "type": "uint256"
            },
            {
              "internalType": "address",
              "name": "currency",
              "type": "address"
            }
          ],
          "internalType": "struct IItemExchange.Ask",
          "name": "",
          "type": "tuple"
        }
      ],
      "stateMutability": "view",
      "type": "function"
    },
    {
      "inputs": [
        {
          "internalType": "uint256",
          "name": "tokenId",
          "type": "uint256"
        },
        {
          "internalType": "uint256",
          "name": "bidAmount",
          "type": "uint256"
        }
      ],
      "name": "isValidBid",
      "outputs": [
        {
          "internalType": "bool",
          "name": "",
          "type": "bool"
        }
      ],
      "stateMutability": "view",
      "type": "function"
    },
    {
      "inputs": [
        {
          "components": [
            {
              "components": [
                {
                  "internalType": "uint256",
                  "name": "value",
                  "type": "uint256"
                }
              ],
              "internalType": "struct Decimal.D256",
              "name": "prevOwner",
              "type": "tuple"
            },
            {
              "components": [
                {
                  "internalType": "uint256",
                  "name": "value",
                  "type": "uint256"
                }
              ],
              "internalType": "struct Decimal.D256",
              "name": "creator",
              "type": "tuple"
            },
            {
              "components": [
                {
                  "internalType": "uint256",
                  "name": "value",
                  "type": "uint256"
                }
              ],
              "internalType": "struct Decimal.D256",
              "name": "owner",
              "type": "tuple"
            }
          ],
          "internalType": "struct IItemExchange.BidShares",
          "name": "bidShares",
          "type": "tuple"
        }
      ],
      "name": "isValidBidShares",
      "outputs": [
        {
          "internalType": "bool",
          "name": "",
          "type": "bool"
        }
      ],
      "stateMutability": "pure",
      "type": "function"
    },
    {
      "inputs": [],
      "name": "itemContract",
      "outputs": [
        {
          "internalType": "address",
          "name": "",
          "type": "address"
        }
      ],
      "stateMutability": "view",
      "type": "function"
    },
    {
      "inputs": [],
      "name": "itemIdentifier",
      "outputs": [
        {
          "internalType": "uint256",
          "name": "",
          "type": "uint256"
        }
      ],
      "stateMutability": "view",
      "type": "function"
    },
    {
      "inputs": [
        {
          "internalType": "uint256",
          "name": "tokenId",
          "type": "uint256"
        }
      ],
      "name": "removeAsk",
      "outputs": [],
      "stateMutability": "nonpayable",
      "type": "function"
    },
    {
      "inputs": [
        {
          "internalType": "uint256",
          "name": "tokenId",
          "type": "uint256"
        },
        {
          "internalType": "address",
          "name": "bidder",
          "type": "address"
        }
      ],
      "name": "removeBid",
      "outputs": [],
      "stateMutability": "nonpayable",
      "type": "function"
    },
    {
      "inputs": [
        {
          "internalType": "uint256",
          "name": "tokenId",
          "type": "uint256"
        },
        {
          "components": [
            {
              "internalType": "uint256",
              "name": "amount",
              "type": "uint256"
            },
            {
              "internalType": "address",
              "name": "currency",
              "type": "address"
            }
          ],
          "internalType": "struct IItemExchange.Ask",
          "name": "ask",
          "type": "tuple"
        }
      ],
      "name": "setAsk",
      "outputs": [],
      "stateMutability": "nonpayable",
      "type": "function"
    },
    {
      "inputs": [
        {
          "internalType": "uint256",
          "name": "tokenId",
          "type": "uint256"
        },
        {
          "components": [
            {
              "internalType": "uint256",
              "name": "amount",
              "type": "uint256"
            },
            {
              "internalType": "address",
              "name": "currency",
              "type": "address"
            },
            {
              "internalType": "address",
              "name": "bidder",
              "type": "address"
            },
            {
              "internalType": "address",
              "name": "recipient",
              "type": "address"
            },
            {
              "components": [
                {
                  "internalType": "uint256",
                  "name": "value",
                  "type": "uint256"
                }
              ],
              "internalType": "struct Decimal.D256",
              "name": "sellOnShare",
              "type": "tuple"
            }
          ],
          "internalType": "struct IItemExchange.Bid",
          "name": "bid",
          "type": "tuple"
        },
        {
          "internalType": "address",
          "name": "spender",
          "type": "address"
        }
      ],
      "name": "setBid",
      "outputs": [],
      "stateMutability": "nonpayable",
      "type": "function"
    },
    {
      "inputs": [
        {
          "internalType": "uint256",
          "name": "tokenId",
          "type": "uint256"
        },
        {
          "components": [
            {
              "components": [
                {
                  "internalType": "uint256",
                  "name": "value",
                  "type": "uint256"
                }
              ],
              "internalType": "struct Decimal.D256",
              "name": "prevOwner",
              "type": "tuple"
            },
            {
              "components": [
                {
                  "internalType": "uint256",
                  "name": "value",
                  "type": "uint256"
                }
              ],
              "internalType": "struct Decimal.D256",
              "name": "creator",
              "type": "tuple"
            },
            {
              "components": [
                {
                  "internalType": "uint256",
                  "name": "value",
                  "type": "uint256"
                }
              ],
              "internalType": "struct Decimal.D256",
              "name": "owner",
              "type": "tuple"
            }
          ],
          "internalType": "struct IItemExchange.BidShares",
          "name": "bidShares",
          "type": "tuple"
        }
      ],
      "name": "setBidShares",
      "outputs": [],
      "stateMutability": "nonpayable",
      "type": "function"
    },
    {
      "inputs": [
        {
          "components": [
            {
              "internalType": "uint256",
              "name": "value",
              "type": "uint256"
            }
          ],
          "internalType": "struct Decimal.D256",
          "name": "sharePercentage",
          "type": "tuple"
        },
        {
          "internalType": "uint256",
          "name": "amount",
          "type": "uint256"
        }
      ],
      "name": "splitShare",
      "outputs": [
        {
          "internalType": "uint256",
          "name": "",
          "type": "uint256"
        }
      ],
      "stateMutability": "pure",
      "type": "function"
    }
  ],
  "bytecode": "0x608060405234801561001057600080fd5b506040516122d53803806122d583398101604081905261002f91610049565b600280546001600160a01b03191633179055600155610061565b60006020828403121561005a578081fd5b5051919050565b612265806100706000396000f3fe608060405234801561001057600080fd5b50600436106100f55760003560e01c8063776a083511610097578063ba33939911610066578063ba33939914610201578063bdb5869814610214578063eb55683a14610227578063f9ce05821461023a576100f5565b8063776a0835146101a65780638d76f940146101b9578063ad827dc4146101ce578063b920c123146101ee576100f5565b8063360636eb116100d3578063360636eb1461014d578063578064f61461016057806362f24b701461018057806375cb267214610193576100f5565b806302e8fe13146100fa5780630d37f7d41461012357806328220f3514610138575b600080fd5b61010d61010836600461192c565b61025a565b60405161011a91906119ba565b60405180910390f35b61012b6102f0565b60405161011a91906121a4565b61014b610146366004611771565b6102f6565b005b61010d61015b36600461172c565b61038e565b61017361016e366004611771565b6103d4565b60405161011a9190612096565b61014b61018e3660046117d0565b61040f565b61014b6101a13660046116d4565b6104db565b61014b6101b43660046117a1565b610576565b6101c161069c565b60405161011a9190611969565b6101e16101dc3660046117a1565b6106ab565b60405161011a9190612117565b61012b6101fc366004611747565b610721565b61014b61020f366004611854565b610745565b61014b61022236600461188a565b6108f0565b61014b610235366004611828565b610d42565b61024d610248366004611771565b610ded565b60405161011a91906120d4565b60006102646115ba565b61026d84610ded565b90506102788161038e565b61029d5760405162461bcd60e51b815260040161029490611a3c565b60405180910390fd5b82158015906102e657506102e36102b8826040015185610721565b6102d76102c9846000015187610721565b6102d7856020015188610721565b9063ffffffff610e4316565b83145b9150505b92915050565b60015481565b6000546001600160a01b031633146103205760405162461bcd60e51b815260040161029490611be7565b807fbf58f6d6c7d7c6efc69e7444efa93ed26d7cdc0e82e12a37df96f36a367561df6005600084815260200190815260200160002060405161036291906120b6565b60405180910390a2600090815260056020526040812090815560010180546001600160a01b0319169055565b60006103a96064670de0b6b3a764000063ffffffff610e6816565b8251516040840151516020850151516103cd92916102d7919063ffffffff610e4316565b1492915050565b6103dc6115ec565b50600090815260056020908152604091829020825180840190935280548352600101546001600160a01b03169082015290565b6000546001600160a01b031633146104395760405162461bcd60e51b815260040161029490611be7565b61044782826000015161025a565b6104635760405162461bcd60e51b815260040161029490611fb7565b6000828152600560209081526040918290208351815590830151600190910180546001600160a01b0319166001600160a01b039092169190911790555182907ff7347cb9e91d8cbe995b51920ba5f92cbf84a9e09cbed3cd7a739fef4d1d07cf906104cf908490612096565b60405180910390a25050565b6002546001600160a01b031633146105055760405162461bcd60e51b815260040161029490611c8a565b6000546001600160a01b03161561052e5760405162461bcd60e51b815260040161029490612004565b6001600160a01b0381166105545760405162461bcd60e51b815260040161029490611a99565b600080546001600160a01b0319166001600160a01b0392909216919091179055565b6000546001600160a01b031633146105a05760405162461bcd60e51b815260040161029490611be7565b60008281526003602090815260408083206001600160a01b0380861685529252909120805460018201549192909116816105ec5760405162461bcd60e51b815260040161029490611b8a565b6000819050857fcbebd567b8a5c57f63ec61dc46746aab28daff6bdd1f4a6a0a305c17fa5465c9856040516106219190612163565b60405180910390a260008681526003602081815260408084206001600160a01b03808b168652925283208381556001810180546001600160a01b0319908116909155600282018054821690559281018054909316909255600490910191909155610694908216868563ffffffff610ea216565b505050505050565b6000546001600160a01b031681565b6106b3611603565b5060009182526003602081815260408085206001600160a01b039485168652825293849020845160a081018652815481526001820154851681840152600282015485168187015292810154909316606083015283519081019093526004909101548252608081019190915290565b600061073e60646107328486610f25565b9063ffffffff610f3e16565b9392505050565b6000546001600160a01b0316331461076f5760405162461bcd60e51b815260040161029490611be7565b610777611603565b600083815260036020526040808220919061079890606086019086016116d4565b6001600160a01b0390811682526020808301939093526040918201600020825160a081018452815481526001820154831681860152600282015483168185015260038201549092166060830152825193840190925260049091015482526080810191909152805190915061081e5760405162461bcd60e51b8152600401610294906119f8565b80518235148015610853575061083a60408301602084016116d4565b6001600160a01b031681602001516001600160a01b0316145b801561086757506080818101515190830135145b8015610897575061087e60808301606084016116d4565b6001600160a01b031681606001516001600160a01b0316145b6108b35760405162461bcd60e51b815260040161029490612039565b6108c183826000015161025a565b6108dd5760405162461bcd60e51b815260040161029490611d1e565b6108eb838260400151610f70565b505050565b6000546001600160a01b0316331461091a5760405162461bcd60e51b815260040161029490611be7565b6109226115ba565b5060008381526004602090815260409182902082516080810184528154606082019081528152835180840185526001830154815281840152835192830184526002909101548252918201526109866064670de0b6b3a764000063ffffffff610e6816565b6080840151516020830151516109a19163ffffffff610e4316565b11156109bf5760405162461bcd60e51b815260040161029490611efd565b60408301516001600160a01b03166109e95760405162461bcd60e51b815260040161029490611d6b565b8251610a075760405162461bcd60e51b815260040161029490611e25565b60208301516001600160a01b0316610a315760405162461bcd60e51b815260040161029490611e69565b60608301516001600160a01b0316610a5b5760405162461bcd60e51b815260040161029490611b2d565b6000848152600360209081526040808320868201516001600160a01b031684529091529020805415610a9557610a95858560400151610576565b60208401516040516370a0823160e01b81526000906001600160a01b038316906370a0823190610ac9903090600401611969565b60206040518083038186803b158015610ae157600080fd5b505afa158015610af5573d6000803e3d6000fd5b505050506040513d601f19601f82011682018060405250810190610b199190611789565b8651909150610b3c906001600160a01b038416908790309063ffffffff6113d516565b6040516370a0823160e01b81526000906001600160a01b038416906370a0823190610b6b903090600401611969565b60206040518083038186803b158015610b8357600080fd5b505afa158015610b97573d6000803e3d6000fd5b505050506040513d601f19601f82011682018060405250810190610bbb9190611789565b90506040518060a00160405280610bdb84846113fc90919063ffffffff16565b81526020898101516001600160a01b03908116828401526040808c0180518316828601526060808e01518416818701526080808f01519681019690965260008f8152600380875284822093518616825292865283902087518155948701516001860180549186166001600160a01b031992831617905587840151600287018054918716918316919091179055908701519185018054929094169116179091559290910151516004909101555188907f327bc9021bfbee403a11b13dd6c819999006aff090cc129f07e9f2840af38dd590610cb6908a90612117565b60405180910390a26000888152600560205260409020600101546001600160a01b031615801590610d0a5750600088815260056020908152604090912060010154908801516001600160a01b039081169116145b8015610d255750600088815260056020526040902054875110155b15610d3857610d38888860400151610f70565b5050505050505050565b6000546001600160a01b03163314610d6c5760405162461bcd60e51b815260040161029490611be7565b610d758161038e565b610d915760405162461bcd60e51b815260040161029490611dc8565b60008281526004602090815260409182902083515181559083015151600182015581830151516002909101555182907fdb88d4e96cb8697aaee5e575ee5f460817709a1dfcfbf7ba15192e90b5c86f9f906104cf9084906120d4565b610df56115ba565b50600090815260046020908152604091829020825160808101845281546060820190815281528351808401855260018301548152818401528351928301845260029091015482529182015290565b60008282018381101561073e5760405162461bcd60e51b815260040161029490611af6565b600082610e77575060006102ea565b82820282848281610e8457fe5b041461073e5760405162461bcd60e51b815260040161029490611cc1565b6108eb8363a9059cbb60e01b8484604051602401610ec19291906119a1565b60408051601f198184030181529190526020810180517bffffffffffffffffffffffffffffffffffffffffffffffffffffffff167fffffffff0000000000000000000000000000000000000000000000000000000090931692909217909152611424565b805160009061073e908490670de0b6b3a76400006114b3565b6000808211610f5f5760405162461bcd60e51b815260040161029490611c53565b818381610f6857fe5b049392505050565b610f78611603565b5060008281526003602081815260408084206001600160a01b038087168652908352818520825160a0810184528154815260018201548316818601908152600283015484168286015295820154831660608201528351808601855260049283015481526080820152888752938190528286209451955492517f6352211e0000000000000000000000000000000000000000000000000000000081529395936110b59390921691636352211e91611030918a91016121a4565b60206040518083038186803b15801561104857600080fd5b505afa15801561105c573d6000803e3d6000fd5b505050506040513d601f19601f8201168201806040525081019061108091906116f0565b604080516020810190915260028501548152855161109e9190610721565b6001600160a01b038416919063ffffffff610ea216565b6000546040517fe0fd045f00000000000000000000000000000000000000000000000000000000815261116e916001600160a01b03169063e0fd045f906111009089906004016121a4565b60206040518083038186803b15801561111857600080fd5b505afa15801561112c573d6000803e3d6000fd5b505050506040513d601f19601f8201168201806040525081019061115091906116f0565b604080516020810190915260018501548152855161109e9190610721565b6000546040517f9d8e7260000000000000000000000000000000000000000000000000000000008152611224916001600160a01b031690639d8e7260906111b99089906004016121a4565b60206040518083038186803b1580156111d157600080fd5b505afa1580156111e5573d6000803e3d6000fd5b505050506040513d601f19601f8201168201806040525081019061120991906116f0565b604080516020810190915284548152855161109e9190610721565b60005460608401516040517f32f44aa90000000000000000000000000000000000000000000000000000000081526001600160a01b03909216916332f44aa991611273918991906004016121ad565b600060405180830381600087803b15801561128d57600080fd5b505af11580156112a1573d6000803e3d6000fd5b5050604080516020808201835260808801515160008b81526004909252929020600101549093508392506112f791906112eb90816064670de0b6b3a764000063ffffffff610e6816565b9063ffffffff6113fc16565b905251600280840191909155608084015151835560008681526003602081815260408084206001600160a01b038a1685529091528083208381556001810180546001600160a01b03199081169091559481018054861690559182018054909416909355600401555185907fdb88d4e96cb8697aaee5e575ee5f460817709a1dfcfbf7ba15192e90b5c86f9f9061138e9085906120f8565b60405180910390a2847fb6ef177c7a6f32b283a49b5e0463a39240cdaa278028dfb219480d050e8ee54c846040516113c69190612117565b60405180910390a25050505050565b6113f6846323b872dd60e01b858585604051602401610ec19392919061197d565b50505050565b60008282111561141e5760405162461bcd60e51b815260040161029490611c1c565b50900390565b6060611479826040518060400160405280602081526020017f5361666545524332303a206c6f772d6c6576656c2063616c6c206661696c6564815250856001600160a01b03166114d19092919063ffffffff16565b8051909150156108eb5780806020019051810190611497919061170c565b6108eb5760405162461bcd60e51b815260040161029490611f5a565b60006114c982610732868663ffffffff610e6816565b949350505050565b60606114c98484600085856114e58561157b565b6115015760405162461bcd60e51b815260040161029490611ec6565b60006060866001600160a01b0316858760405161151e919061194d565b60006040518083038185875af1925050503d806000811461155b576040519150601f19603f3d011682016040523d82523d6000602084013e611560565b606091505b5091509150611570828286611581565b979650505050505050565b3b151590565b6060831561159057508161073e565b8251156115a05782518084602001fd5b8160405162461bcd60e51b815260040161029491906119c5565b60405180606001604052806115cd611649565b81526020016115da611649565b81526020016115e7611649565b905290565b604080518082019091526000808252602082015290565b6040518060a001604052806000815260200160006001600160a01b0316815260200160006001600160a01b0316815260200160006001600160a01b031681526020016115e75b6040518060200160405280600081525090565b60006060828403121561166d578081fd5b61167760606121c4565b905061168383836116af565b815261169283602084016116af565b60208201526116a483604084016116af565b604082015292915050565b6000602082840312156116c0578081fd5b6116ca60206121c4565b9135825250919050565b6000602082840312156116e5578081fd5b813561073e81612217565b600060208284031215611701578081fd5b815161073e81612217565b60006020828403121561171d578081fd5b8151801515811461073e578182fd5b60006060828403121561173d578081fd5b61073e838361165c565b60008060408385031215611759578081fd5b61176384846116af565b946020939093013593505050565b600060208284031215611782578081fd5b5035919050565b60006020828403121561179a578081fd5b5051919050565b600080604083850312156117b3578182fd5b8235915060208301356117c581612217565b809150509250929050565b60008082840360608112156117e3578283fd5b833592506040601f19820112156117f8578182fd5b5061180360406121c4565b60208401358152604084013561181881612217565b6020820152919491935090915050565b6000806080838503121561183a578182fd5b8235915061184b846020850161165c565b90509250929050565b60008082840360c0811215611867578283fd5b8335925060a0601f198201121561187c578182fd5b506020830190509250929050565b600080600083850360e081121561189f578182fd5b8435935060a0601f19820112156118b4578182fd5b506118bf60a06121c4565b6020850135815260408501356118d481612217565b602082015260608501356118e781612217565b604082015260808501356118fa81612217565b606082015261190c8660a087016116af565b6080820152915060c084013561192181612217565b809150509250925092565b6000806040838503121561193e578182fd5b50508035926020909101359150565b6000825161195f8184602087016121eb565b9190910192915050565b6001600160a01b0391909116815260200190565b6001600160a01b039384168152919092166020820152604081019190915260600190565b6001600160a01b03929092168252602082015260400190565b901515815260200190565b60006020825282518060208401526119e48160408501602087016121eb565b601f01601f19169190910160400192915050565b60208082526024908201527f4974656d45786368616e67653a2063616e6e6f7420616363657074206269642060408201526306f6620360e41b606082015260800190565b6020808252602a908201527f4974656d45786368616e67653a20496e76616c6964206269642073686172657360408201527f20666f7220746f6b656e00000000000000000000000000000000000000000000606082015260800190565b60208082526036908201527f4974656d45786368616e67653a2063616e6e6f7420736574206974656d20636f60408201527f6e7472616374206173207a65726f206164647265737300000000000000000000606082015260800190565b6020808252601b908201527f536166654d6174683a206164646974696f6e206f766572666c6f770000000000604082015260600190565b6020808252602f908201527f4974656d45786368616e67653a2062696420726563697069656e742063616e6e60408201527f6f74206265203020616464726573730000000000000000000000000000000000606082015260800190565b6020808252602b908201527f4974656d45786368616e67653a2063616e6e6f742072656d6f7665206269642060408201527f616d6f756e74206f662030000000000000000000000000000000000000000000606082015260800190565b6020808252818101527f4974656d45786368616e67653a204f6e6c79206974656d20636f6e7472616374604082015260600190565b6020808252601e908201527f536166654d6174683a207375627472616374696f6e206f766572666c6f770000604082015260600190565b6020808252601a908201527f536166654d6174683a206469766973696f6e206279207a65726f000000000000604082015260600190565b60208082526018908201527f4974656d45786368616e67653a204f6e6c79206f776e65720000000000000000604082015260600190565b60208082526021908201527f536166654d6174683a206d756c7469706c69636174696f6e206f766572666c6f60408201527f7700000000000000000000000000000000000000000000000000000000000000606082015260800190565b6020808252602d908201527f4974656d45786368616e67653a2042696420696e76616c696420666f7220736860408201526c6172652073706c697474696e6760981b606082015260800190565b60208082526028908201527f4974656d45786368616e67653a206269646465722063616e6e6f74206265203060408201527f2061646472657373000000000000000000000000000000000000000000000000606082015260800190565b60208082526031908201527f4974656d45786368616e67653a20496e76616c6964206269642073686172657360408201527f2c206d7573742073756d20746f20313030000000000000000000000000000000606082015260800190565b60208082526024908201527f4974656d45786368616e67653a2063616e6e6f742062696420616d6f756e742060408201526306f6620360e41b606082015260800190565b6020808252602e908201527f4974656d45786368616e67653a206269642063757272656e63792063616e6e6f60408201527f7420626520302061646472657373000000000000000000000000000000000000606082015260800190565b6020808252601d908201527f416464726573733a2063616c6c20746f206e6f6e2d636f6e7472616374000000604082015260600190565b60208082526035908201527f4974656d45786368616e67653a2053656c6c206f6e2066656520696e76616c6960408201527f6420666f722073686172652073706c697474696e670000000000000000000000606082015260800190565b6020808252602a908201527f5361666545524332303a204552433230206f7065726174696f6e20646964206e60408201527f6f74207375636365656400000000000000000000000000000000000000000000606082015260800190565b6020808252602d908201527f4974656d45786368616e67653a2041736b20696e76616c696420666f7220736860408201526c6172652073706c697474696e6760981b606082015260800190565b6020808252818101527f4974656d45786368616e67653a20416c726561647920636f6e66696775726564604082015260600190565b60208082526023908201527f4974656d45786368616e67653a20556e65787065637465642062696420666f7560408201527f6e642e0000000000000000000000000000000000000000000000000000000000606082015260800190565b815181526020918201516001600160a01b03169181019190915260400190565b815481526001909101546001600160a01b0316602082015260400190565b81515181526020808301515190820152604091820151519181019190915260600190565b8154815260018201546020820152600290910154604082015260600190565b600060a0820190508251825260208301516001600160a01b0380821660208501528060408601511660408501528060608601511660608501525050608083015151608083015292915050565b8154815260018201546001600160a01b0390811660208301526002830154811660408301526003830154166060820152600490910154608082015260a00190565b90815260200190565b9182526001600160a01b0316602082015260400190565b60405181810167ffffffffffffffff811182821017156121e357600080fd5b604052919050565b60005b838110156122065781810151838201526020016121ee565b838111156113f65750506000910152565b6001600160a01b038116811461222c57600080fd5b5056fea2646970667358221220442e90824d177a0d42ecc2a2bba78284989ea0388a06692a96f5b3681dac96ad64736f6c63430006080033",
  "linkReferences": {},
  "deployedLinkReferences": {}
}