{
  "_format": "hh-sol-artifact-1",
  "contractName": "Item",
  "sourceName": "contracts/Item.sol",
  "abi": [
    {
      "inputs": [
        {
          "internalType": "address",
          "name": "itemExchangeContractAddr",
          "type": "address"
        },
        {
          "internalType": "string",
          "name": "name_",
          "type": "string"
        },
        {
          "internalType": "string",
          "name": "symbol_",
          "type": "string"
        },
        {
          "internalType": "uint256",
          "name": "maxSupplyAmount",
          "type": "uint256"
        },
        {
          "internalType": "uint256",
          "name": "itemIdentifierCode",
          "type": "uint256"
        }
      ],
      "stateMutability": "nonpayable",
      "type": "constructor"
    },
    {
      "anonymous": false,
      "inputs": [
        {
          "indexed": true,
          "internalType": "address",
          "name": "owner",
          "type": "address"
        },
        {
          "indexed": true,
          "internalType": "address",
          "name": "approved",
          "type": "address"
        },
        {
          "indexed": true,
          "internalType": "uint256",
          "name": "tokenId",
          "type": "uint256"
        }
      ],
      "name": "Approval",
      "type": "event"
    },
    {
      "anonymous": false,
      "inputs": [
        {
          "indexed": true,
          "internalType": "address",
          "name": "owner",
          "type": "address"
        },
        {
          "indexed": true,
          "internalType": "address",
          "name": "operator",
          "type": "address"
        },
        {
          "indexed": false,
          "internalType": "bool",
          "name": "approved",
          "type": "bool"
        }
      ],
      "name": "ApprovalForAll",
      "type": "event"
    },
    {
      "anonymous": false,
      "inputs": [
        {
          "indexed": true,
          "internalType": "address",
          "name": "previousOwner",
          "type": "address"
        },
        {
          "indexed": true,
          "internalType": "address",
          "name": "newOwner",
          "type": "address"
        }
      ],
      "name": "OwnershipTransferred",
      "type": "event"
    },
    {
      "anonymous": false,
      "inputs": [
        {
          "indexed": true,
          "internalType": "uint256",
          "name": "_tokenId",
          "type": "uint256"
        },
        {
          "indexed": false,
          "internalType": "address",
          "name": "owner",
          "type": "address"
        },
        {
          "indexed": false,
          "internalType": "string",
          "name": "_uri",
          "type": "string"
        }
      ],
      "name": "TokenMetadataURIUpdated",
      "type": "event"
    },
    {
      "anonymous": false,
      "inputs": [
        {
          "indexed": true,
          "internalType": "uint256",
          "name": "_tokenId",
          "type": "uint256"
        },
        {
          "indexed": false,
          "internalType": "address",
          "name": "owner",
          "type": "address"
        },
        {
          "indexed": false,
          "internalType": "string",
          "name": "_uri",
          "type": "string"
        }
      ],
      "name": "TokenURIUpdated",
      "type": "event"
    },
    {
      "anonymous": false,
      "inputs": [
        {
          "indexed": true,
          "internalType": "address",
          "name": "from",
          "type": "address"
        },
        {
          "indexed": true,
          "internalType": "address",
          "name": "to",
          "type": "address"
        },
        {
          "indexed": true,
          "internalType": "uint256",
          "name": "tokenId",
          "type": "uint256"
        }
      ],
      "name": "Transfer",
      "type": "event"
    },
    {
      "inputs": [],
      "name": "MINT_WITH_SIG_TYPEHASH",
      "outputs": [
        {
          "internalType": "bytes32",
          "name": "",
          "type": "bytes32"
        }
      ],
      "stateMutability": "view",
      "type": "function"
    },
    {
      "inputs": [],
      "name": "PERMIT_TYPEHASH",
      "outputs": [
        {
          "internalType": "bytes32",
          "name": "",
          "type": "bytes32"
        }
      ],
      "stateMutability": "view",
      "type": "function"
    },
    {
      "inputs": [
        {
          "internalType": "uint256",
          "name": "tokenId",
          "type": "uint256"
        },
        {
          "components": [
            {
              "internalType": "uint256",
              "name": "amount",
              "type": "uint256"
            },
            {
              "internalType": "address",
              "name": "currency",
              "type": "address"
            },
            {
              "internalType": "address",
              "name": "bidder",
              "type": "address"
            },
            {
              "internalType": "address",
              "name": "recipient",
              "type": "address"
            },
            {
              "components": [
                {
                  "internalType": "uint256",
                  "name": "value",
                  "type": "uint256"
                }
              ],
              "internalType": "struct Decimal.D256",
              "name": "sellOnShare",
              "type": "tuple"
            }
          ],
          "internalType": "struct IItemExchange.Bid",
          "name": "bid",
          "type": "tuple"
        }
      ],
      "name": "acceptBid",
      "outputs": [],
      "stateMutability": "nonpayable",
      "type": "function"
    },
    {
      "inputs": [
        {
          "internalType": "address",
          "name": "to",
          "type": "address"
        },
        {
          "internalType": "uint256",
          "name": "tokenId",
          "type": "uint256"
        }
      ],
      "name": "approve",
      "outputs": [],
      "stateMutability": "nonpayable",
      "type": "function"
    },
    {
      "inputs": [
        {
          "internalType": "address",
          "name": "owner",
          "type": "address"
        }
      ],
      "name": "balanceOf",
      "outputs": [
        {
          "internalType": "uint256",
          "name": "",
          "type": "uint256"
        }
      ],
      "stateMutability": "view",
      "type": "function"
    },
    {
      "inputs": [],
      "name": "baseURI",
      "outputs": [
        {
          "internalType": "string",
          "name": "",
          "type": "string"
        }
      ],
      "stateMutability": "view",
      "type": "function"
    },
    {
      "inputs": [
        {
          "internalType": "uint256",
          "name": "tokenId",
          "type": "uint256"
        }
      ],
      "name": "burn",
      "outputs": [],
      "stateMutability": "nonpayable",
      "type": "function"
    },
    {
      "inputs": [
        {
          "internalType": "uint256",
          "name": "tokenId",
          "type": "uint256"
        }
      ],
      "name": "getApproved",
      "outputs": [
        {
          "internalType": "address",
          "name": "",
          "type": "address"
        }
      ],
      "stateMutability": "view",
      "type": "function"
    },
    {
      "inputs": [
        {
          "internalType": "address",
          "name": "owner",
          "type": "address"
        },
        {
          "internalType": "address",
          "name": "operator",
          "type": "address"
        }
      ],
      "name": "isApprovedForAll",
      "outputs": [
        {
          "internalType": "bool",
          "name": "",
          "type": "bool"
        }
      ],
      "stateMutability": "view",
      "type": "function"
    },
    {
      "inputs": [],
      "name": "itemExchangeContract",
      "outputs": [
        {
          "internalType": "address",
          "name": "",
          "type": "address"
        }
      ],
      "stateMutability": "view",
      "type": "function"
    },
    {
      "inputs": [],
      "name": "itemIdentifier",
      "outputs": [
        {
          "internalType": "uint256",
          "name": "",
          "type": "uint256"
        }
      ],
      "stateMutability": "view",
      "type": "function"
    },
    {
      "inputs": [
        {
          "internalType": "uint256",
          "name": "tokenId",
          "type": "uint256"
        },
        {
          "internalType": "address",
          "name": "recipient",
          "type": "address"
        }
      ],
      "name": "listTransfer",
      "outputs": [],
      "stateMutability": "nonpayable",
      "type": "function"
    },
    {
      "inputs": [],
      "name": "maxSupply",
      "outputs": [
        {
          "internalType": "uint256",
          "name": "",
          "type": "uint256"
        }
      ],
      "stateMutability": "view",
      "type": "function"
    },
    {
      "inputs": [
        {
          "components": [
            {
              "internalType": "string",
              "name": "tokenURI",
              "type": "string"
            },
            {
              "internalType": "string",
              "name": "metadataURI",
              "type": "string"
            },
            {
              "internalType": "bytes32",
              "name": "contentHash",
              "type": "bytes32"
            },
            {
              "internalType": "bytes32",
              "name": "metadataHash",
              "type": "bytes32"
            }
          ],
          "internalType": "struct IItem.ItemData",
          "name": "data",
          "type": "tuple"
        },
        {
          "components": [
            {
              "components": [
                {
                  "internalType": "uint256",
                  "name": "value",
                  "type": "uint256"
                }
              ],
              "internalType": "struct Decimal.D256",
              "name": "prevOwner",
              "type": "tuple"
            },
            {
              "components": [
                {
                  "internalType": "uint256",
                  "name": "value",
                  "type": "uint256"
                }
              ],
              "internalType": "struct Decimal.D256",
              "name": "creator",
              "type": "tuple"
            },
            {
              "components": [
                {
                  "internalType": "uint256",
                  "name": "value",
                  "type": "uint256"
                }
              ],
              "internalType": "struct Decimal.D256",
              "name": "owner",
              "type": "tuple"
            }
          ],
          "internalType": "struct IItemExchange.BidShares",
          "name": "bidShares",
          "type": "tuple"
        }
      ],
      "name": "mint",
      "outputs": [],
      "stateMutability": "nonpayable",
      "type": "function"
    },
    {
      "inputs": [
        {
          "internalType": "address",
          "name": "creator",
          "type": "address"
        },
        {
          "components": [
            {
              "internalType": "string",
              "name": "tokenURI",
              "type": "string"
            },
            {
              "internalType": "string",
              "name": "metadataURI",
              "type": "string"
            },
            {
              "internalType": "bytes32",
              "name": "contentHash",
              "type": "bytes32"
            },
            {
              "internalType": "bytes32",
              "name": "metadataHash",
              "type": "bytes32"
            }
          ],
          "internalType": "struct IItem.ItemData",
          "name": "data",
          "type": "tuple"
        },
        {
          "components": [
            {
              "components": [
                {
                  "internalType": "uint256",
                  "name": "value",
                  "type": "uint256"
                }
              ],
              "internalType": "struct Decimal.D256",
              "name": "prevOwner",
              "type": "tuple"
            },
            {
              "components": [
                {
                  "internalType": "uint256",
                  "name": "value",
                  "type": "uint256"
                }
              ],
              "internalType": "struct Decimal.D256",
              "name": "creator",
              "type": "tuple"
            },
            {
              "components": [
                {
                  "internalType": "uint256",
                  "name": "value",
                  "type": "uint256"
                }
              ],
              "internalType": "struct Decimal.D256",
              "name": "owner",
              "type": "tuple"
            }
          ],
          "internalType": "struct IItemExchange.BidShares",
          "name": "bidShares",
          "type": "tuple"
        },
        {
          "components": [
            {
              "internalType": "uint256",
              "name": "deadline",
              "type": "uint256"
            },
            {
              "internalType": "uint8",
              "name": "v",
              "type": "uint8"
            },
            {
              "internalType": "bytes32",
              "name": "r",
              "type": "bytes32"
            },
            {
              "internalType": "bytes32",
              "name": "s",
              "type": "bytes32"
            }
          ],
          "internalType": "struct IItem.EIP712Signature",
          "name": "sig",
          "type": "tuple"
        }
      ],
      "name": "mintForCreatorWithSig",
      "outputs": [],
      "stateMutability": "nonpayable",
      "type": "function"
    },
    {
      "inputs": [
        {
          "internalType": "address",
          "name": "creator",
          "type": "address"
        },
        {
          "components": [
            {
              "internalType": "string",
              "name": "tokenURI",
              "type": "string"
            },
            {
              "internalType": "string",
              "name": "metadataURI",
              "type": "string"
            },
            {
              "internalType": "bytes32",
              "name": "contentHash",
              "type": "bytes32"
            },
            {
              "internalType": "bytes32",
              "name": "metadataHash",
              "type": "bytes32"
            }
          ],
          "internalType": "struct IItem.ItemData",
          "name": "data",
          "type": "tuple"
        },
        {
          "components": [
            {
              "components": [
                {
                  "internalType": "uint256",
                  "name": "value",
                  "type": "uint256"
                }
              ],
              "internalType": "struct Decimal.D256",
              "name": "prevOwner",
              "type": "tuple"
            },
            {
              "components": [
                {
                  "internalType": "uint256",
                  "name": "value",
                  "type": "uint256"
                }
              ],
              "internalType": "struct Decimal.D256",
              "name": "creator",
              "type": "tuple"
            },
            {
              "components": [
                {
                  "internalType": "uint256",
                  "name": "value",
                  "type": "uint256"
                }
              ],
              "internalType": "struct Decimal.D256",
              "name": "owner",
              "type": "tuple"
            }
          ],
          "internalType": "struct IItemExchange.BidShares",
          "name": "bidShares",
          "type": "tuple"
        }
      ],
      "name": "mintForCreatorWithoutSig",
      "outputs": [],
      "stateMutability": "nonpayable",
      "type": "function"
    },
    {
      "inputs": [
        {
          "internalType": "address",
          "name": "",
          "type": "address"
        }
      ],
      "name": "mintWithSigNonces",
      "outputs": [
        {
          "internalType": "uint256",
          "name": "",
          "type": "uint256"
        }
      ],
      "stateMutability": "view",
      "type": "function"
    },
    {
      "inputs": [],
      "name": "name",
      "outputs": [
        {
          "internalType": "string",
          "name": "",
          "type": "string"
        }
      ],
      "stateMutability": "view",
      "type": "function"
    },
    {
      "inputs": [],
      "name": "owner",
      "outputs": [
        {
          "internalType": "address",
          "name": "",
          "type": "address"
        }
      ],
      "stateMutability": "view",
      "type": "function"
    },
    {
      "inputs": [
        {
          "internalType": "uint256",
          "name": "tokenId",
          "type": "uint256"
        }
      ],
      "name": "ownerOf",
      "outputs": [
        {
          "internalType": "address",
          "name": "",
          "type": "address"
        }
      ],
      "stateMutability": "view",
      "type": "function"
    },
    {
      "inputs": [
        {
          "internalType": "address",
          "name": "spender",
          "type": "address"
        },
        {
          "internalType": "uint256",
          "name": "tokenId",
          "type": "uint256"
        },
        {
          "components": [
            {
              "internalType": "uint256",
              "name": "deadline",
              "type": "uint256"
            },
            {
              "internalType": "uint8",
              "name": "v",
              "type": "uint8"
            },
            {
              "internalType": "bytes32",
              "name": "r",
              "type": "bytes32"
            },
            {
              "internalType": "bytes32",
              "name": "s",
              "type": "bytes32"
            }
          ],
          "internalType": "struct IItem.EIP712Signature",
          "name": "sig",
          "type": "tuple"
        }
      ],
      "name": "permit",
      "outputs": [],
      "stateMutability": "nonpayable",
      "type": "function"
    },
    {
      "inputs": [
        {
          "internalType": "address",
          "name": "",
          "type": "address"
        },
        {
          "internalType": "uint256",
          "name": "",
          "type": "uint256"
        }
      ],
      "name": "permitNonces",
      "outputs": [
        {
          "internalType": "uint256",
          "name": "",
          "type": "uint256"
        }
      ],
      "stateMutability": "view",
      "type": "function"
    },
    {
      "inputs": [
        {
          "internalType": "uint256",
          "name": "",
          "type": "uint256"
        }
      ],
      "name": "previousTokenOwners",
      "outputs": [
        {
          "internalType": "address",
          "name": "",
          "type": "address"
        }
      ],
      "stateMutability": "view",
      "type": "function"
    },
    {
      "inputs": [
        {
          "internalType": "uint256",
          "name": "tokenId",
          "type": "uint256"
        }
      ],
      "name": "removeAsk",
      "outputs": [],
      "stateMutability": "nonpayable",
      "type": "function"
    },
    {
      "inputs": [
        {
          "internalType": "uint256",
          "name": "tokenId",
          "type": "uint256"
        }
      ],
      "name": "removeBid",
      "outputs": [],
      "stateMutability": "nonpayable",
      "type": "function"
    },
    {
      "inputs": [],
      "name": "renounceOwnership",
      "outputs": [],
      "stateMutability": "nonpayable",
      "type": "function"
    },
    {
      "inputs": [
        {
          "internalType": "uint256",
          "name": "tokenId",
          "type": "uint256"
        }
      ],
      "name": "revokeApproval",
      "outputs": [],
      "stateMutability": "nonpayable",
      "type": "function"
    },
    {
      "inputs": [
        {
          "internalType": "address",
          "name": "from",
          "type": "address"
        },
        {
          "internalType": "address",
          "name": "to",
          "type": "address"
        },
        {
          "internalType": "uint256",
          "name": "tokenId",
          "type": "uint256"
        }
      ],
      "name": "safeTransferFrom",
      "outputs": [],
      "stateMutability": "nonpayable",
      "type": "function"
    },
    {
      "inputs": [
        {
          "internalType": "address",
          "name": "from",
          "type": "address"
        },
        {
          "internalType": "address",
          "name": "to",
          "type": "address"
        },
        {
          "internalType": "uint256",
          "name": "tokenId",
          "type": "uint256"
        },
        {
          "internalType": "bytes",
          "name": "_data",
          "type": "bytes"
        }
      ],
      "name": "safeTransferFrom",
      "outputs": [],
      "stateMutability": "nonpayable",
      "type": "function"
    },
    {
      "inputs": [
        {
          "internalType": "address",
          "name": "operator",
          "type": "address"
        },
        {
          "internalType": "bool",
          "name": "approved",
          "type": "bool"
        }
      ],
      "name": "setApprovalForAll",
      "outputs": [],
      "stateMutability": "nonpayable",
      "type": "function"
    },
    {
      "inputs": [
        {
          "internalType": "uint256",
          "name": "tokenId",
          "type": "uint256"
        },
        {
          "components": [
            {
              "internalType": "uint256",
              "name": "amount",
              "type": "uint256"
            },
            {
              "internalType": "address",
              "name": "currency",
              "type": "address"
            }
          ],
          "internalType": "struct IItemExchange.Ask",
          "name": "ask",
          "type": "tuple"
        }
      ],
      "name": "setAsk",
      "outputs": [],
      "stateMutability": "nonpayable",
      "type": "function"
    },
    {
      "inputs": [
        {
          "internalType": "uint256",
          "name": "tokenId",
          "type": "uint256"
        },
        {
          "components": [
            {
              "internalType": "uint256",
              "name": "amount",
              "type": "uint256"
            },
            {
              "internalType": "address",
              "name": "currency",
              "type": "address"
            },
            {
              "internalType": "address",
              "name": "bidder",
              "type": "address"
            },
            {
              "internalType": "address",
              "name": "recipient",
              "type": "address"
            },
            {
              "components": [
                {
                  "internalType": "uint256",
                  "name": "value",
                  "type": "uint256"
                }
              ],
              "internalType": "struct Decimal.D256",
              "name": "sellOnShare",
              "type": "tuple"
            }
          ],
          "internalType": "struct IItemExchange.Bid",
          "name": "bid",
          "type": "tuple"
        }
      ],
      "name": "setBid",
      "outputs": [],
      "stateMutability": "nonpayable",
      "type": "function"
    },
    {
      "inputs": [
        {
          "internalType": "bytes4",
          "name": "interfaceId",
          "type": "bytes4"
        }
      ],
      "name": "supportsInterface",
      "outputs": [
        {
          "internalType": "bool",
          "name": "",
          "type": "bool"
        }
      ],
      "stateMutability": "view",
      "type": "function"
    },
    {
      "inputs": [],
      "name": "symbol",
      "outputs": [
        {
          "internalType": "string",
          "name": "",
          "type": "string"
        }
      ],
      "stateMutability": "view",
      "type": "function"
    },
    {
      "inputs": [
        {
          "internalType": "uint256",
          "name": "index",
          "type": "uint256"
        }
      ],
      "name": "tokenByIndex",
      "outputs": [
        {
          "internalType": "uint256",
          "name": "",
          "type": "uint256"
        }
      ],
      "stateMutability": "view",
      "type": "function"
    },
    {
      "inputs": [
        {
          "internalType": "uint256",
          "name": "",
          "type": "uint256"
        }
      ],
      "name": "tokenContentHashes",
      "outputs": [
        {
          "internalType": "bytes32",
          "name": "",
          "type": "bytes32"
        }
      ],
      "stateMutability": "view",
      "type": "function"
    },
    {
      "inputs": [
        {
          "internalType": "uint256",
          "name": "",
          "type": "uint256"
        }
      ],
      "name": "tokenContractAddresses",
      "outputs": [
        {
          "internalType": "address",
          "name": "",
          "type": "address"
        }
      ],
      "stateMutability": "view",
      "type": "function"
    },
    {
      "inputs": [
        {
          "internalType": "uint256",
          "name": "",
          "type": "uint256"
        }
      ],
      "name": "tokenCreators",
      "outputs": [
        {
          "internalType": "address",
          "name": "",
          "type": "address"
        }
      ],
      "stateMutability": "view",
      "type": "function"
    },
    {
      "inputs": [
        {
          "internalType": "uint256",
          "name": "",
          "type": "uint256"
        }
      ],
      "name": "tokenMetadataHashes",
      "outputs": [
        {
          "internalType": "bytes32",
          "name": "",
          "type": "bytes32"
        }
      ],
      "stateMutability": "view",
      "type": "function"
    },
    {
      "inputs": [
        {
          "internalType": "uint256",
          "name": "tokenId",
          "type": "uint256"
        }
      ],
      "name": "tokenMetadataURI",
      "outputs": [
        {
          "internalType": "string",
          "name": "",
          "type": "string"
        }
      ],
      "stateMutability": "view",
      "type": "function"
    },
    {
      "inputs": [
        {
          "internalType": "address",
          "name": "owner",
          "type": "address"
        },
        {
          "internalType": "uint256",
          "name": "index",
          "type": "uint256"
        }
      ],
      "name": "tokenOfOwnerByIndex",
      "outputs": [
        {
          "internalType": "uint256",
          "name": "",
          "type": "uint256"
        }
      ],
      "stateMutability": "view",
      "type": "function"
    },
    {
      "inputs": [
        {
          "internalType": "uint256",
          "name": "tokenId",
          "type": "uint256"
        }
      ],
      "name": "tokenURI",
      "outputs": [
        {
          "internalType": "string",
          "name": "",
          "type": "string"
        }
      ],
      "stateMutability": "view",
      "type": "function"
    },
    {
      "inputs": [],
      "name": "totalSupply",
      "outputs": [
        {
          "internalType": "uint256",
          "name": "",
          "type": "uint256"
        }
      ],
      "stateMutability": "view",
      "type": "function"
    },
    {
      "inputs": [
        {
          "internalType": "address",
          "name": "newOwner",
          "type": "address"
        }
      ],
      "name": "transferContractOwnership",
      "outputs": [],
      "stateMutability": "nonpayable",
      "type": "function"
    },
    {
      "inputs": [
        {
          "internalType": "address",
          "name": "from",
          "type": "address"
        },
        {
          "internalType": "address",
          "name": "to",
          "type": "address"
        },
        {
          "internalType": "uint256",
          "name": "tokenId",
          "type": "uint256"
        }
      ],
      "name": "transferFrom",
      "outputs": [],
      "stateMutability": "nonpayable",
      "type": "function"
    },
    {
      "inputs": [
        {
          "internalType": "address",
          "name": "newOwner",
          "type": "address"
        }
      ],
      "name": "transferOwnership",
      "outputs": [],
      "stateMutability": "nonpayable",
      "type": "function"
    },
    {
      "inputs": [
        {
          "internalType": "uint256",
          "name": "tokenId",
          "type": "uint256"
        },
        {
          "internalType": "string",
          "name": "metadataURI",
          "type": "string"
        }
      ],
      "name": "updateTokenMetadataURI",
      "outputs": [],
      "stateMutability": "nonpayable",
      "type": "function"
    },
    {
      "inputs": [
        {
          "internalType": "uint256",
          "name": "tokenId",
          "type": "uint256"
        },
        {
          "internalType": "string",
          "name": "tokenURI",
          "type": "string"
        }
      ],
      "name": "updateTokenURI",
      "outputs": [],
      "stateMutability": "nonpayable",
      "type": "function"
    }
  ],
  "bytecode": "0x60806040523480156200001157600080fd5b506040516200478d3803806200478d833981016040819052620000349162000308565b8383620000516301ffc9a760e01b6001600160e01b036200015f16565b815162000066906006906020850190620001bf565b5080516200007c906007906020840190620001bf565b50620000986380ac58cd60e01b6001600160e01b036200015f16565b620000b363780e9d6360e01b6001600160e01b036200015f16565b50506001600a556000620000cf6001600160e01b03620001ba16565b600b80546001600160a01b0319166001600160a01b038316908117909155604051919250906000907f8be0079c531659141344cd1fd0a4f28419497f9722a3daafe3b4186f6b6457e0908290a350600c80546001600160a01b0319166001600160a01b038716179055600e829055600d819055620001546364825ce360e11b6200015f565b5050505050620003d8565b6001600160e01b03198082161415620001955760405162461bcd60e51b81526004016200018c90620003a1565b60405180910390fd5b6001600160e01b0319166000908152602081905260409020805460ff19166001179055565b335b90565b828054600181600116156101000203166002900490600052602060002090601f016020900481019282601f106200020257805160ff191683800117855562000232565b8280016001018555821562000232579182015b828111156200023257825182559160200191906001019062000215565b506200024092915062000244565b5090565b620001bc91905b808211156200024057600081556001016200024b565b600082601f83011262000272578081fd5b81516001600160401b038082111562000289578283fd5b6040516020601f8401601f1916820181018381118382101715620002ab578586fd5b80604052508194508382528681858801011115620002c857600080fd5b600092505b83831015620002ec5785830181015182840182015291820191620002cd565b83831115620002fe5760008185840101525b5050505092915050565b600080600080600060a0868803121562000320578081fd5b85516001600160a01b038116811462000337578182fd5b60208701519095506001600160401b038082111562000354578283fd5b6200036289838a0162000261565b9550604088015191508082111562000378578283fd5b50620003878882890162000261565b606088015160809098015196999598509695949350505050565b6020808252601c908201527f4552433136353a20696e76616c696420696e7465726661636520696400000000604082015260600190565b6143a580620003e86000396000f3fe608060405234801561001057600080fd5b50600436106103205760003560e01c80636c0360eb116101a7578063b320f459116100ee578063e0fd045f11610097578063f2fde38b11610071578063f2fde38b14610642578063f8ccd5de14610655578063fad321971461066857610320565b8063e0fd045f14610614578063e985e9c514610627578063f1d5596b1461063a57610320565b8063c87b56dd116100c8578063c87b56dd146105f1578063d5abeb0114610604578063de5236fb1461060c57610320565b8063b320f459146105b8578063b88d4fde146105cb578063ba339399146105de57610320565b80638da5cb5b11610150578063a22cb4651161012a578063a22cb4651461057f578063a843c51f14610592578063b1e130fc146105a557610320565b80638da5cb5b1461055c57806395d89b41146105645780639d8e72601461056c57610320565b8063715018a611610181578063715018a61461052e57806375682e791461053657806389a8f74b1461054957610320565b80636c0360eb146105005780636ed1a7b21461050857806370a082311461051b57610320565b806328220f351161026b57806342842e0e116102145780635bf62422116101ee5780635bf62422146104c757806362f24b70146104da5780636352211e146104ed57610320565b806342842e0e1461048e57806342966c68146104a15780634f6ccce7146104b457610320565b80632f745c59116102455780632f745c591461046057806330adf81f1461047357806332f44aa91461047b57610320565b806328220f35146104275780632cca32371461043a5780632f01730c1461044d57610320565b80630d37f7d4116102cd57806318160ddd116102a757806318160ddd146103f957806318e97fd11461040157806323b872dd1461041457610320565b80630d37f7d4146103cb5780630e2a1778146103d3578063157c3df9146103e657610320565b8063081812fc116102fe578063081812fc14610383578063095ea7b3146103a35780630bcd899b146103b857610320565b806301ddc3b51461032557806301ffc9a71461034e57806306fdde031461036e575b600080fd5b61033861033336600461326e565b61067b565b60405161034591906135d5565b60405180910390f35b61036161035c3660046131f2565b61068d565b60405161034591906135ca565b6103766106c4565b604051610345919061367c565b61039661039136600461326e565b61075b565b604051610345919061353b565b6103b66103b1366004613194565b6107a7565b005b6103386103c6366004612f92565b61083f565b610338610851565b6103b66103e13660046131be565b610857565b6103766103f436600461326e565b610a7b565b610338610b46565b6103b661040f3660046132a9565b610b57565b6103b6610422366004612fe1565b610cb6565b6103b661043536600461326e565b610cee565b6103b661044836600461322a565b610d9c565b61039661045b36600461326e565b610dd8565b61033861046e366004613194565b610df3565b610338610e24565b6103b6610489366004613286565b610e48565b6103b661049c366004612fe1565b610ece565b6103b66104af36600461326e565b610ee9565b6103386104c236600461326e565b610fbb565b6103b66104d5366004613376565b610fd7565b6103b66104e836600461331e565b6110a7565b6103966104fb36600461326e565b61117f565b6103766111ad565b6103b66105163660046130c4565b61120e565b610338610529366004612f92565b61124b565b6103b6611294565b6103b66105443660046132a9565b61131d565b6103b6610557366004613123565b611466565b610396611620565b61037661162f565b61039661057a36600461326e565b611690565b6103b661058d366004613089565b6116ab565b6103b66105a0366004612f92565b611779565b6103b66105b336600461326e565b6117f1565b6103b66105c636600461326e565b61185d565b6103b66105d9366004613021565b611934565b6103b66105ec366004613376565b611973565b6103766105ff36600461326e565b611a0e565b610338611adc565b610338611ae2565b61039661062236600461326e565b611b06565b610361610635366004612fad565b611b21565b610396611b4f565b6103b6610650366004612f92565b611b5e565b610338610663366004613194565b611c1f565b61033861067636600461326e565b611c3c565b60136020526000908152604090205481565b7fffffffff000000000000000000000000000000000000000000000000000000001660009081526020819052604090205460ff1690565b60068054604080516020601f60026000196101006001881615020190951694909404938401819004810282018101909252828152606093909290918301828280156107505780601f1061072557610100808354040283529160200191610750565b820191906000526020600020905b81548152906001019060200180831161073357829003601f168201915b505050505090505b90565b600061076682611c4e565b61078b5760405162461bcd60e51b815260040161078290613dbd565b60405180910390fd5b506000908152600460205260409020546001600160a01b031690565b60006107b28261117f565b9050806001600160a01b0316836001600160a01b031614156107e65760405162461bcd60e51b815260040161078290613f8a565b806001600160a01b03166107f8611c61565b6001600160a01b03161480610814575061081481610635611c61565b6108305760405162461bcd60e51b815260040161078290613c2f565b61083a8383611c65565b505050565b60186020526000908152604090205481565b600d5481565b6002600a54141561087a5760405162461bcd60e51b81526004016107829061416c565b6002600a558161088981611c4e565b6108a55760405162461bcd60e51b815260040161078290613f1c565b815115806108b4575081514211155b6108d05760405162461bcd60e51b815260040161078290614044565b6001600160a01b0384166108f65760405162461bcd60e51b815260040161078290613bf8565b6000610900611cd3565b90506000817fadacbbfdfd82dabfa913ef6727df5bc21f8699a2969db41d446fee646fc64b9e87876017856109348361117f565b6001600160a01b03168152602080820192909252604090810160009081208c825283528190208054600181019091558a51915161097796959493919291016135de565b6040516020818303038152906040528051906020012060405160200161099e929190613490565b6040516020818303038152906040528051906020012090506000600182866020015187604001518860600151604051600081526020016040526040516109e7949392919061365e565b6020604051602081039080840390855afa158015610a09573d6000803e3d6000fd5b5050604051601f1901519150506001600160a01b03811615801590610a475750806001600160a01b0316610a3c8761117f565b6001600160a01b0316145b610a635760405162461bcd60e51b815260040161078290613f53565b610a6d8787611c65565b50506001600a555050505050565b60608180610a896019611dbe565b11610aa65760405162461bcd60e51b81526004016107829061368f565b60008381526015602090815260409182902080548351601f600260001961010060018616150201909316929092049182018490048402810184019094528084529091830182828015610b395780601f10610b0e57610100808354040283529160200191610b39565b820191906000526020600020905b815481529060010190602001808311610b1c57829003601f168201915b5050505050915050919050565b6000610b526002611dc2565b905090565b6002600a541415610b7a5760405162461bcd60e51b81526004016107829061416c565b6002600a553383610b8b8282611dcd565b610ba75760405162461bcd60e51b8152600401610782906138a2565b6000858152601260205260409020548590610bd45760405162461bcd60e51b815260040161078290613910565b84848080601f01602080910402602001604051908101604052809392919081815260200183838082843760009201919091525050825115159150610c2c90505760405162461bcd60e51b81526004016107829061378b565b610c6c8787878080601f016020809104026020016040519081016040528093929190818152602001838380828437600092019190915250611e5292505050565b867f702fe2dc2dc0f68023540aa4a1e11811c0f29112f6ebf01e61b90538e4f29810338888604051610ca09392919061358b565b60405180910390a250506001600a555050505050565b610cc7610cc1611c61565b82611dcd565b610ce35760405162461bcd60e51b81526004016107829061407b565b61083a838383611e96565b6002600a541415610d115760405162461bcd60e51b81526004016107829061416c565b6002600a553381610d228282611dcd565b610d3e5760405162461bcd60e51b8152600401610782906138a2565b600c546040516328220f3560e01b81526001600160a01b03909116906328220f3590610d6e9086906004016135d5565b600060405180830381600087803b158015610d8857600080fd5b505af1158015610a6d573d6000803e3d6000fd5b6002600a541415610dbf5760405162461bcd60e51b81526004016107829061416c565b6002600a55610dcf338383611f03565b50506001600a55565b6014602052600090815260409020546001600160a01b031681565b6001600160a01b0382166000908152600160205260408120610e1b908363ffffffff61214416565b90505b92915050565b7fadacbbfdfd82dabfa913ef6727df5bc21f8699a2969db41d446fee646fc64b9e81565b600c546001600160a01b03163314610e725760405162461bcd60e51b815260040161078290613e55565b610e7b8261117f565b6000838152600f6020526040902080546001600160a01b0319166001600160a01b0392909216919091179055610eca610eb38361117f565b828460405180602001604052806000815250612150565b5050565b61083a83838360405180602001604052806000815250611934565b6002600a541415610f0c5760405162461bcd60e51b81526004016107829061416c565b6002600a5580610f1b81611c4e565b610f375760405162461bcd60e51b815260040161078290613f1c565b3382610f438282611dcd565b610f5f5760405162461bcd60e51b8152600401610782906138a2565b6000610f6a8561117f565b6000868152601060205260409020549091506001600160a01b03808316911614610fa65760405162461bcd60e51b81526004016107829061372e565b610faf85612183565b50506001600a55505050565b600080610fcf60028463ffffffff61226f16565b509392505050565b6002600a541415610ffa5760405162461bcd60e51b81526004016107829061416c565b6002600a558161100981611c4e565b6110255760405162461bcd60e51b815260040161078290613f1c565b81604001516001600160a01b0316336001600160a01b03161461105a5760405162461bcd60e51b81526004016107829061410f565b600c546040517fbdb586980000000000000000000000000000000000000000000000000000000081526001600160a01b039091169063bdb5869890610d6e90869086903390600401614253565b6002600a5414156110ca5760405162461bcd60e51b81526004016107829061416c565b6002600a5533826110db8282611dcd565b6110f75760405162461bcd60e51b8152600401610782906138a2565b600c546040517f62f24b700000000000000000000000000000000000000000000000000000000081526001600160a01b03909116906362f24b709061114290879087906004016141f1565b600060405180830381600087803b15801561115c57600080fd5b505af1158015611170573d6000803e3d6000fd5b50506001600a55505050505050565b6000610e1e82604051806060016040528060298152602001614347602991396002919063ffffffff61228b16565b60098054604080516020601f60026000196101006001881615020190951694909404938401819004810282018101909252828152606093909290918301828280156107505780601f1061072557610100808354040283529160200191610750565b6002600a5414156112315760405162461bcd60e51b81526004016107829061416c565b6002600a55611241838383611f03565b50506001600a5550565b60006001600160a01b0382166112735760405162461bcd60e51b815260040161078290613ce9565b6001600160a01b0382166000908152600160205260409020610e1e90611dc2565b61129c611c61565b6001600160a01b03166112ad611620565b6001600160a01b0316146112d35760405162461bcd60e51b815260040161078290613e8a565b600b546040516000916001600160a01b0316907f8be0079c531659141344cd1fd0a4f28419497f9722a3daafe3b4186f6b6457e0908390a3600b80546001600160a01b0319169055565b6002600a5414156113405760405162461bcd60e51b81526004016107829061416c565b6002600a5533836113518282611dcd565b61136d5760405162461bcd60e51b8152600401610782906138a2565b600085815260136020526040902054859061139a5760405162461bcd60e51b815260040161078290613af2565b84848080601f016020809104026020016040519081016040528093929190818152602001838380828437600092019190915250508251151591506113f290505760405162461bcd60e51b81526004016107829061378b565b6114328787878080601f0160208091040260200160405190810160405280939291908181526020018383808284376000920191909152506122a292505050565b867fe3df41127db820c79e5b8d541a63e40e3e97b9af96f7a50bded13091b70df9ae338888604051610ca09392919061358b565b6002600a5414156114895760405162461bcd60e51b81526004016107829061416c565b6002600a558051158061149d575080514211155b6114b95760405162461bcd60e51b8152600401610782906141a3565b60006114c3611cd3565b6040808601516060870151602080880151516001600160a01b038b166000908152601883528581208054600181019091558951965197985090968896611531967f93088eb7747c9bc240a8edd9669cbcc6663249f8e821916b3305e54cca2017f79690959094939201613636565b60405160208183030381529060405280519060200120604051602001611558929190613490565b6040516020818303038152906040528051906020012090506000600182856020015186604001518760600151604051600081526020016040526040516115a1949392919061365e565b6020604051602081039080840390855afa1580156115c3573d6000803e3d6000fd5b5050604051601f1901519150506001600160a01b038116158015906115f95750806001600160a01b0316876001600160a01b0316145b6116155760405162461bcd60e51b815260040161078290613f53565b610a6d818787611f03565b600b546001600160a01b031690565b60078054604080516020601f60026000196101006001881615020190951694909404938401819004810282018101909252828152606093909290918301828280156107505780601f1061072557610100808354040283529160200191610750565b600f602052600090815260409020546001600160a01b031681565b6116b3611c61565b6001600160a01b0316826001600160a01b031614156116e45760405162461bcd60e51b815260040161078290613abb565b80600560006116f1611c61565b6001600160a01b03908116825260208083019390935260409182016000908120918716808252919093529120805460ff191692151592909217909155611735611c61565b6001600160a01b03167f17307eab39ab6107e8899845ad3d59bd9653f200f220920489ca2b5937696c318360405161176d91906135ca565b60405180910390a35050565b6002600a54141561179c5760405162461bcd60e51b81526004016107829061416c565b6002600a556117a9611c61565b6001600160a01b03166117ba611620565b6001600160a01b0316146117e05760405162461bcd60e51b815260040161078290613e8a565b6117e9816122e7565b506001600a55565b6002600a5414156118145760405162461bcd60e51b81526004016107829061416c565b6002600a556118228161075b565b6001600160a01b0316336001600160a01b0316146118525760405162461bcd60e51b815260040161078290613a01565b6117e9600082611c65565b6002600a5414156118805760405162461bcd60e51b81526004016107829061416c565b6002600a5580806118916019611dbe565b116118ae5760405162461bcd60e51b81526004016107829061368f565b600c546040517f776a08350000000000000000000000000000000000000000000000000000000081526001600160a01b039091169063776a0835906118f990859033906004016141da565b600060405180830381600087803b15801561191357600080fd5b505af1158015611927573d6000803e3d6000fd5b50506001600a5550505050565b61194561193f611c61565b83611dcd565b6119615760405162461bcd60e51b81526004016107829061407b565b61196d84848484612150565b50505050565b6002600a5414156119965760405162461bcd60e51b81526004016107829061416c565b6002600a5533826119a78282611dcd565b6119c35760405162461bcd60e51b8152600401610782906138a2565b600c546040517fba3393990000000000000000000000000000000000000000000000000000000081526001600160a01b039091169063ba33939990611142908790879060040161423f565b60608180611a1c6019611dbe565b11611a395760405162461bcd60e51b81526004016107829061368f565b60008381526008602090815260409182902080548351601f6002600019610100600186161502019093169290920491820184900484028101840190945280845260609392830182828015611ace5780601f10611aa357610100808354040283529160200191611ace565b820191906000526020600020905b815481529060010190602001808311611ab157829003601f168201915b509398975050505050505050565b600e5481565b7f93088eb7747c9bc240a8edd9669cbcc6663249f8e821916b3305e54cca2017f781565b6010602052600090815260409020546001600160a01b031681565b6001600160a01b03918216600090815260056020908152604080832093909416825291909152205460ff1690565b600c546001600160a01b031681565b611b66611c61565b6001600160a01b0316611b77611620565b6001600160a01b031614611b9d5760405162461bcd60e51b815260040161078290613e8a565b6001600160a01b038116611bc35760405162461bcd60e51b815260040161078290613845565b600b546040516001600160a01b038084169216907f8be0079c531659141344cd1fd0a4f28419497f9722a3daafe3b4186f6b6457e090600090a3600b80546001600160a01b0319166001600160a01b0392909216919091179055565b601760209081526000928352604080842090915290825290205481565b60126020526000908152604090205481565b6000610e1e60028363ffffffff6122f316565b3390565b600081815260046020526040902080546001600160a01b0319166001600160a01b0384169081179091558190611c9a8261117f565b6001600160a01b03167f8c5be1e5ebec7d5bd14f71427d1e84f3dd0314c0f7b2291e5b200ac8c7c3b92560405160405180910390a45050565b6040516000904690611ce4906134c6565b604080519182900382208282018252600583527f4d6f74696600000000000000000000000000000000000000000000000000000060209384015281518083018352600181527f3100000000000000000000000000000000000000000000000000000000000000908401529051611da2927f995ec625e9d0f4c4f4cb6358dd33c33e4a452bb37d2246dee597ee07e579fcb3917fc89efdaa54c0f20c7adf612882df0950f5a951637e0307cdcb4c672f298b8bc691869130910161360a565b6040516020818303038152906040528051906020012091505090565b5490565b6000610e1e82611dbe565b6000611dd882611c4e565b611df45760405162461bcd60e51b815260040161078290613bac565b6000611dff8361117f565b9050806001600160a01b0316846001600160a01b03161480611e3a5750836001600160a01b0316611e2f8461075b565b6001600160a01b0316145b80611e4a5750611e4a8185611b21565b949350505050565b611e5b82611c4e565b611e775760405162461bcd60e51b815260040161078290613e09565b6000828152600860209081526040909120825161083a92840190612ce8565b600c546040516328220f3560e01b81526001600160a01b03909116906328220f3590611ec69084906004016135d5565b600060405180830381600087803b158015611ee057600080fd5b505af1158015611ef4573d6000803e3d6000fd5b5050505061083a8383836122ff565b81518051611f235760405162461bcd60e51b81526004016107829061378b565b60208301518051611f465760405162461bcd60e51b81526004016107829061378b565b600e54611f51610b46565b10611f6e5760405162461bcd60e51b8152600401610782906138d9565b6040840151611f8f5760405162461bcd60e51b8152600401610782906139a4565b60408085015160009081526016602052205460ff1615611fc15760405162461bcd60e51b815260040161078290613fe7565b6060840151611fe25760405162461bcd60e51b815260040161078290613c8c565b6000611fee6019611dbe565b9050611ffa868261241f565b6120046019612439565b612012818660400151612442565b61202081866060015161247b565b61202a81306124b4565b6120388186602001516122a2565b612046818660000151611e52565b6001600160a01b038616600090815260116020526040902061206e908263ffffffff61250916565b50604080860151600090815260166020908152828220805460ff191660011790558382526010815282822080546001600160a01b03808c166001600160a01b03199283168117909355600f90935292849020805490931617909155600c5491517feb55683a00000000000000000000000000000000000000000000000000000000815291169063eb55683a9061210a9084908890600401614215565b600060405180830381600087803b15801561212457600080fd5b505af1158015612138573d6000803e3d6000fd5b50505050505050505050565b6000610e1b8383612515565b61215b848484611e96565b6121678484848461255a565b61196d5760405162461bcd60e51b8152600401610782906137e8565b60008181526008602090815260409182902080548351601f60026000196101006001861615020190931692909204918201849004840281018401909452808452606093928301828280156122185780601f106121ed57610100808354040283529160200191612218565b820191906000526020600020905b8154815290600101906020018083116121fb57829003601f168201915b5050505050905061222882612681565b805115612250576000828152600860209081526040909120825161224e92840190612ce8565b505b506000908152600f6020526040902080546001600160a01b0319169055565b600080808061227e868661275a565b9097909650945050505050565b60006122988484846127b6565b90505b9392505050565b816122ac81611c4e565b6122c85760405162461bcd60e51b815260040161078290613f1c565b6000838152601560209081526040909120835161196d92850190612ce8565b6122f081611b5e565b50565b6000610e1b8383612815565b826001600160a01b03166123128261117f565b6001600160a01b0316146123385760405162461bcd60e51b815260040161078290613ebf565b6001600160a01b03821661235e5760405162461bcd60e51b815260040161078290613a5e565b61236983838361083a565b612374600082611c65565b6001600160a01b038316600090815260016020526040902061239c908263ffffffff61282d16565b506001600160a01b03821660009081526001602052604090206123c5908263ffffffff61250916565b506123d86002828463ffffffff61283916565b5080826001600160a01b0316846001600160a01b03167fddf252ad1be2c89b69c2b068fc378daa952ba7f163c4a11628f55a4df523b3ef60405160405180910390a4505050565b610eca82826040518060200160405280600081525061284f565b80546001019055565b8161244c81611c4e565b6124685760405162461bcd60e51b815260040161078290613f1c565b5060009182526012602052604090912055565b8161248581611c4e565b6124a15760405162461bcd60e51b815260040161078290613f1c565b5060009182526013602052604090912055565b816124be81611c4e565b6124da5760405162461bcd60e51b815260040161078290613f1c565b5060009182526014602052604090912080546001600160a01b0319166001600160a01b03909216919091179055565b6000610e1b8383612882565b815460009082106125385760405162461bcd60e51b8152600401610782906136ec565b82600001828154811061254757fe5b9060005260206000200154905092915050565b600061256e846001600160a01b03166128cc565b61257a57506001611e4a565b6060612632630a85bd0160e11b61258f611c61565b8887876040516024016125a5949392919061354f565b604051602081830303815290604052907bffffffffffffffffffffffffffffffffffffffffffffffffffffffff19166020820180517bffffffffffffffffffffffffffffffffffffffffffffffffffffffff8381831617835250505050604051806060016040528060328152602001614315603291396001600160a01b038816919063ffffffff6128d216565b905060008180602001905181019061264a919061320e565b7fffffffff0000000000000000000000000000000000000000000000000000000016630a85bd0160e11b1492505050949350505050565b600061268c8261117f565b905061269a8160008461083a565b6126a5600083611c65565b60008281526008602052604090205460026000196101006001841615020190911604156126e35760008281526008602052604081206126e391612d66565b6001600160a01b038116600090815260016020526040902061270b908363ffffffff61282d16565b5061271d60028363ffffffff6128e116565b5060405182906000906001600160a01b038416907fddf252ad1be2c89b69c2b068fc378daa952ba7f163c4a11628f55a4df523b3ef908390a45050565b81546000908190831061277f5760405162461bcd60e51b815260040161078290613d46565b600084600001848154811061279057fe5b906000526020600020906002020190508060000154816001015492509250509250929050565b600082815260018401602052604081205482816127e65760405162461bcd60e51b8152600401610782919061367c565b508460000160018203815481106127f957fe5b9060005260206000209060020201600101549150509392505050565b60009081526001919091016020526040902054151590565b6000610e1b83836128ed565b600061229884846001600160a01b0385166129b3565b6128598383612a4a565b612866600084848461255a565b61083a5760405162461bcd60e51b8152600401610782906137e8565b600061288e8383612815565b6128c457508154600181810184556000848152602080822090930184905584548482528286019093526040902091909155610e1e565b506000610e1e565b3b151590565b60606122988484600085612b1a565b6000610e1b8383612bdb565b600081815260018301602052604081205480156129a9578354600019808301919081019060009087908390811061292057fe5b906000526020600020015490508087600001848154811061293d57fe5b60009182526020808320909101929092558281526001898101909252604090209084019055865487908061296d57fe5b60019003818190600052602060002001600090559055866001016000878152602001908152602001600020600090556001945050505050610e1e565b6000915050610e1e565b600082815260018401602052604081205480612a1857505060408051808201825283815260208082018481528654600181810189556000898152848120955160029093029095019182559151908201558654868452818801909252929091205561229b565b82856000016001830381548110612a2b57fe5b906000526020600020906002020160010181905550600091505061229b565b6001600160a01b038216612a705760405162461bcd60e51b815260040161078290613d88565b612a7981611c4e565b15612a965760405162461bcd60e51b81526004016107829061396d565b612aa26000838361083a565b6001600160a01b0382166000908152600160205260409020612aca908263ffffffff61250916565b50612add6002828463ffffffff61283916565b5060405181906001600160a01b038416906000907fddf252ad1be2c89b69c2b068fc378daa952ba7f163c4a11628f55a4df523b3ef908290a45050565b606082471015612b3c5760405162461bcd60e51b815260040161078290613b4f565b612b45856128cc565b612b615760405162461bcd60e51b8152600401610782906140d8565b60006060866001600160a01b03168587604051612b7e9190613474565b60006040518083038185875af1925050503d8060008114612bbb576040519150601f19603f3d011682016040523d82523d6000602084013e612bc0565b606091505b5091509150612bd0828286612caf565b979650505050505050565b600081815260018301602052604081205480156129a95783546000198083019190810190600090879083908110612c0e57fe5b9060005260206000209060020201905080876000018481548110612c2e57fe5b600091825260208083208454600290930201918255600193840154918401919091558354825289830190526040902090840190558654879080612c6d57fe5b6000828152602080822060026000199094019384020182815560019081018390559290935588815289820190925260408220919091559450610e1e9350505050565b60608315612cbe57508161229b565b825115612cce5782518084602001fd5b8160405162461bcd60e51b8152600401610782919061367c565b828054600181600116156101000203166002900490600052602060002090601f016020900481019282601f10612d2957805160ff1916838001178555612d56565b82800160010185558215612d56579182015b82811115612d56578251825591602001919060010190612d3b565b50612d62929150612da6565b5090565b50805460018160011615610100020316600290046000825580601f10612d8c57506122f0565b601f0160209004906000526020600020908101906122f091905b61075891905b80821115612d625760008155600101612dac565b80356001600160a01b0381168114610e1e57600080fd5b600082601f830112612de7578081fd5b813567ffffffffffffffff811115612dfd578182fd5b612e10601f8201601f191660200161427e565b9150808252836020828501011115612e2757600080fd5b8060208401602084013760009082016020015292915050565b600060608284031215612e51578081fd5b612e5b606061427e565b9050612e678383612e93565b8152612e768360208401612e93565b6020820152612e888360408401612e93565b604082015292915050565b600060208284031215612ea4578081fd5b612eae602061427e565b9135825250919050565b600060808284031215612ec9578081fd5b612ed3608061427e565b905081358152602082013560ff81168114612eed57600080fd5b80602083015250604082013560408201526060820135606082015292915050565b600060808284031215612f1f578081fd5b612f29608061427e565b9050813567ffffffffffffffff80821115612f4357600080fd5b612f4f85838601612dd7565b83526020840135915080821115612f6557600080fd5b50612f7284828501612dd7565b602083015250604082013560408201526060820135606082015292915050565b600060208284031215612fa3578081fd5b610e1b8383612dc0565b60008060408385031215612fbf578081fd5b612fc98484612dc0565b9150612fd88460208501612dc0565b90509250929050565b600080600060608486031215612ff5578081fd5b8335613000816142d1565b92506020840135613010816142d1565b929592945050506040919091013590565b60008060008060808587031215613036578081fd5b6130408686612dc0565b935061304f8660208701612dc0565b925060408501359150606085013567ffffffffffffffff811115613071578182fd5b61307d87828801612dd7565b91505092959194509250565b6000806040838503121561309b578182fd5b6130a58484612dc0565b9150602083013580151581146130b9578182fd5b809150509250929050565b600080600060a084860312156130d8578283fd5b83356130e3816142d1565b9250602084013567ffffffffffffffff8111156130fe578283fd5b61310a86828701612f0e565b92505061311a8560408601612e40565b90509250925092565b6000806000806101208587031215613139578182fd5b6131438686612dc0565b9350602085013567ffffffffffffffff81111561315e578283fd5b61316a87828801612f0e565b93505061317a8660408701612e40565b91506131898660a08701612eb8565b905092959194509250565b600080604083850312156131a6578182fd5b6131b08484612dc0565b946020939093013593505050565b600080600060c084860312156131d2578081fd5b6131dc8585612dc0565b92506020840135915061311a8560408601612eb8565b600060208284031215613203578081fd5b813561229b816142e6565b60006020828403121561321f578081fd5b815161229b816142e6565b6000806080838503121561323c578182fd5b823567ffffffffffffffff811115613252578283fd5b61325e85828601612f0e565b925050612fd88460208501612e40565b60006020828403121561327f578081fd5b5035919050565b60008060408385031215613298578182fd5b82359150612fd88460208501612dc0565b6000806000604084860312156132bd578081fd5b83359250602084013567ffffffffffffffff808211156132db578283fd5b81860187601f8201126132ec578384fd5b80359250818311156132fc578384fd5b87602084830101111561330d578384fd5b949760209095019650909450505050565b6000808284036060811215613331578283fd5b833592506040601f1982011215613346578182fd5b50613351604061427e565b602084013581526040840135613366816142d1565b6020820152919491935090915050565b60008082840360c0811215613389578283fd5b8335925060a0601f198201121561339e578182fd5b506133a960a061427e565b6020840135815260408401356133be816142d1565b602082015260608401356133d1816142d1565b604082015260808401356133e4816142d1565b60608201526133f68560a08601612e93565b6080820152809150509250929050565b6000815180845261341e8160208601602086016142a5565b601f01601f19169290920160200192915050565b8051825260208101516001600160a01b038082166020850152806040840151166040850152806060840151166060850152505060808101515160808301525050565b600082516134868184602087016142a5565b9190910192915050565b7f190100000000000000000000000000000000000000000000000000000000000081526002810192909252602282015260420190565b7f454950373132446f6d61696e28737472696e67206e616d652c737472696e672081527f76657273696f6e2c75696e7432353620636861696e49642c616464726573732060208201527f766572696679696e67436f6e7472616374290000000000000000000000000000604082015260520190565b6001600160a01b0391909116815260200190565b60006001600160a01b038087168352808616602084015250836040830152608060608301526135816080830184613406565b9695505050505050565b60006001600160a01b03851682526040602083015282604083015282846060840137818301606090810191909152601f909201601f1916010192915050565b901515815260200190565b90815260200190565b9485526001600160a01b0393909316602085015260408401919091526060830152608082015260a00190565b9485526020850193909352604084019190915260608301526001600160a01b0316608082015260a00190565b958652602086019490945260408501929092526060840152608083015260a082015260c00190565b93845260ff9290921660208401526040830152606082015260800190565b600060208252610e1b6020830184613406565b60208082526027908201527f4974656d3a20746f6b656e2077697468207468617420696420646f6573206e6f60408201527f7420657869737400000000000000000000000000000000000000000000000000606082015260800190565b60208082526022908201527f456e756d657261626c655365743a20696e646578206f7574206f6620626f756e604082015261647360f01b606082015260800190565b60208082526022908201527f4974656d3a206f776e6572206973206e6f742063726561746f72206f6620697460408201527f656d000000000000000000000000000000000000000000000000000000000000606082015260800190565b60208082526025908201527f4974656d3a2073706563696669656420757269206d757374206265206e6f6e2d60408201527f656d707479000000000000000000000000000000000000000000000000000000606082015260800190565b60208082526032908201527f4552433732313a207472616e7366657220746f206e6f6e20455243373231526560408201527f63656976657220696d706c656d656e7465720000000000000000000000000000606082015260800190565b60208082526026908201527f4f776e61626c653a206e6577206f776e657220697320746865207a65726f206160408201527f6464726573730000000000000000000000000000000000000000000000000000606082015260800190565b6020808252601c908201527f4974656d3a204f6e6c7920617070726f766564206f72206f776e657200000000604082015260600190565b60208082526015908201527f4974656d3a20737570706c79206465706c657465640000000000000000000000604082015260600190565b60208082526031908201527f4974656d3a20746f6b656e20646f6573206e6f7420686176652068617368206f60408201527f66206372656174656420636f6e74656e74000000000000000000000000000000606082015260800190565b6020808252601c908201527f4552433732313a20746f6b656e20616c7265616479206d696e74656400000000604082015260600190565b60208082526023908201527f4974656d3a20636f6e74656e742068617368206d757374206265206e6f6e2d7a60408201527f65726f0000000000000000000000000000000000000000000000000000000000606082015260800190565b60208082526021908201527f4974656d3a2063616c6c6572206e6f7420617070726f7665642061646472657360408201527f7300000000000000000000000000000000000000000000000000000000000000606082015260800190565b60208082526024908201527f4552433732313a207472616e7366657220746f20746865207a65726f2061646460408201527f7265737300000000000000000000000000000000000000000000000000000000606082015260800190565b60208082526019908201527f4552433732313a20617070726f766520746f2063616c6c657200000000000000604082015260600190565b6020808252602e908201527f4974656d3a20746f6b656e20646f6573206e6f7420686176652068617368206f60408201527f6620697473206d65746164617461000000000000000000000000000000000000606082015260800190565b60208082526026908201527f416464726573733a20696e73756666696369656e742062616c616e636520666f60408201527f722063616c6c0000000000000000000000000000000000000000000000000000606082015260800190565b6020808252602c908201527f4552433732313a206f70657261746f7220717565727920666f72206e6f6e657860408201526b34b9ba32b73a103a37b5b2b760a11b606082015260800190565b6020808252601b908201527f4974656d3a207370656e6465722063616e6e6f74206265203078300000000000604082015260600190565b60208082526038908201527f4552433732313a20617070726f76652063616c6c6572206973206e6f74206f7760408201527f6e6572206e6f7220617070726f76656420666f7220616c6c0000000000000000606082015260800190565b60208082526024908201527f4974656d3a206d657461646174612068617368206d757374206265206e6f6e2d60408201527f7a65726f00000000000000000000000000000000000000000000000000000000606082015260800190565b6020808252602a908201527f4552433732313a2062616c616e636520717565727920666f7220746865207a6560408201527f726f206164647265737300000000000000000000000000000000000000000000606082015260800190565b60208082526022908201527f456e756d657261626c654d61703a20696e646578206f7574206f6620626f756e604082015261647360f01b606082015260800190565b6020808252818101527f4552433732313a206d696e7420746f20746865207a65726f2061646472657373604082015260600190565b6020808252602c908201527f4552433732313a20617070726f76656420717565727920666f72206e6f6e657860408201526b34b9ba32b73a103a37b5b2b760a11b606082015260800190565b6020808252602c908201527f4552433732314d657461646174613a2055524920736574206f66206e6f6e657860408201526b34b9ba32b73a103a37b5b2b760a11b606082015260800190565b6020808252818101527f4974656d3a206f6e6c79206974656d45786368616e676520636f6e7472616374604082015260600190565b6020808252818101527f4f776e61626c653a2063616c6c6572206973206e6f7420746865206f776e6572604082015260600190565b60208082526029908201527f4552433732313a207472616e73666572206f6620746f6b656e2074686174206960408201527f73206e6f74206f776e0000000000000000000000000000000000000000000000606082015260800190565b60208082526017908201527f4974656d3a206e6f6e6578697374656e7420746f6b656e000000000000000000604082015260600190565b60208082526017908201527f4974656d3a205369676e617475726520696e76616c6964000000000000000000604082015260600190565b60208082526021908201527f4552433732313a20617070726f76616c20746f2063757272656e74206f776e6560408201527f7200000000000000000000000000000000000000000000000000000000000000606082015260800190565b6020808252603d908201527f4974656d3a206120746f6b656e2068617320616c7265616479206265656e206360408201527f7265617465642077697468207468697320636f6e74656e742068617368000000606082015260800190565b60208082526014908201527f4974656d3a205065726d69742065787069726564000000000000000000000000604082015260600190565b60208082526031908201527f4552433732313a207472616e736665722063616c6c6572206973206e6f74206f60408201527f776e6572206e6f7220617070726f766564000000000000000000000000000000606082015260800190565b6020808252601d908201527f416464726573733a2063616c6c20746f206e6f6e2d636f6e7472616374000000604082015260600190565b60208082526027908201527f4974656d45786368616e67653a20426964646572206d757374206265206d736760408201527f2073656e64657200000000000000000000000000000000000000000000000000606082015260800190565b6020808252601f908201527f5265656e7472616e637947756172643a207265656e7472616e742063616c6c00604082015260600190565b60208082526019908201527f4974656d3a206d696e7457697468536967206578706972656400000000000000604082015260600190565b9182526001600160a01b0316602082015260400190565b918252805160208084019190915201516001600160a01b0316604082015260600190565b91825280515160208084019190915281015151604080840191909152015151606082015260800190565b82815260c0810161229b6020830184613432565b83815260e081016142676020830185613432565b6001600160a01b03831660c0830152949350505050565b60405181810167ffffffffffffffff8111828210171561429d57600080fd5b604052919050565b60005b838110156142c05781810151838201526020016142a8565b8381111561196d5750506000910152565b6001600160a01b03811681146122f057600080fd5b7fffffffff00000000000000000000000000000000000000000000000000000000811681146122f057600080fdfe4552433732313a207472616e7366657220746f206e6f6e20455243373231526563656976657220696d706c656d656e7465724552433732313a206f776e657220717565727920666f72206e6f6e6578697374656e7420746f6b656ea264697066735822122079d6f8b00afa3961e22cf17ec0ce11bb72b760fbb4f6f476a0654062712bb9eb64736f6c63430006080033",
  "linkReferences": {},
  "deployedLinkReferences": {}
}