{
  "_format": "hh-sol-artifact-1",
  "contractName": "ItemListing",
  "sourceName": "contracts/ItemListing.sol",
  "abi": [
    {
      "inputs": [
        {
          "internalType": "address",
          "name": "_motif",
          "type": "address"
        },
        {
          "internalType": "address",
          "name": "_wmotif",
          "type": "address"
        }
      ],
      "stateMutability": "nonpayable",
      "type": "constructor"
    },
    {
      "anonymous": false,
      "inputs": [
        {
          "indexed": true,
          "internalType": "uint256",
          "name": "listingId",
          "type": "uint256"
        },
        {
          "indexed": true,
          "internalType": "uint256",
          "name": "tokenId",
          "type": "uint256"
        },
        {
          "indexed": true,
          "internalType": "address",
          "name": "tokenContract",
          "type": "address"
        },
        {
          "indexed": false,
          "internalType": "bool",
          "name": "approved",
          "type": "bool"
        }
      ],
      "name": "ListingApprovalUpdated",
      "type": "event"
    },
    {
      "anonymous": false,
      "inputs": [
        {
          "indexed": true,
          "internalType": "uint256",
          "name": "listingId",
          "type": "uint256"
        },
        {
          "indexed": true,
          "internalType": "uint256",
          "name": "tokenId",
          "type": "uint256"
        },
        {
          "indexed": true,
          "internalType": "address",
          "name": "tokenContract",
          "type": "address"
        },
        {
          "indexed": false,
          "internalType": "address",
          "name": "sender",
          "type": "address"
        },
        {
          "indexed": false,
          "internalType": "uint256",
          "name": "value",
          "type": "uint256"
        },
        {
          "indexed": false,
          "internalType": "bool",
          "name": "firstBid",
          "type": "bool"
        },
        {
          "indexed": false,
          "internalType": "bool",
          "name": "extended",
          "type": "bool"
        }
      ],
      "name": "ListingBid",
      "type": "event"
    },
    {
      "anonymous": false,
      "inputs": [
        {
          "indexed": true,
          "internalType": "uint256",
          "name": "listingId",
          "type": "uint256"
        },
        {
          "indexed": true,
          "internalType": "uint256",
          "name": "tokenId",
          "type": "uint256"
        },
        {
          "indexed": true,
          "internalType": "address",
          "name": "tokenContract",
          "type": "address"
        },
        {
          "indexed": false,
          "internalType": "address",
          "name": "tokenOwner",
          "type": "address"
        }
      ],
      "name": "ListingCanceled",
      "type": "event"
    },
    {
      "anonymous": false,
      "inputs": [
        {
          "indexed": true,
          "internalType": "uint256",
          "name": "listingId",
          "type": "uint256"
        },
        {
          "indexed": true,
          "internalType": "uint256",
          "name": "tokenId",
          "type": "uint256"
        },
        {
          "indexed": true,
          "internalType": "address",
          "name": "tokenContract",
          "type": "address"
        },
        {
          "indexed": false,
          "internalType": "uint256",
          "name": "startsAt",
          "type": "uint256"
        },
        {
          "indexed": false,
          "internalType": "uint256",
          "name": "duration",
          "type": "uint256"
        },
        {
          "indexed": false,
          "internalType": "uint256",
          "name": "listPrice",
          "type": "uint256"
        },
        {
          "indexed": false,
          "internalType": "uint8",
          "name": "listType",
          "type": "uint8"
        },
        {
          "indexed": false,
          "internalType": "address",
          "name": "tokenOwner",
          "type": "address"
        },
        {
          "indexed": false,
          "internalType": "address",
          "name": "intermediary",
          "type": "address"
        },
        {
          "indexed": false,
          "internalType": "uint8",
          "name": "intermediaryFeePercentage",
          "type": "uint8"
        },
        {
          "indexed": false,
          "internalType": "address",
          "name": "listCurrency",
          "type": "address"
        }
      ],
      "name": "ListingCreated",
      "type": "event"
    },
    {
      "anonymous": false,
      "inputs": [
        {
          "indexed": true,
          "internalType": "uint256",
          "name": "listingId",
          "type": "uint256"
        },
        {
          "indexed": true,
          "internalType": "uint256",
          "name": "tokenId",
          "type": "uint256"
        },
        {
          "indexed": true,
          "internalType": "address",
          "name": "tokenContract",
          "type": "address"
        },
        {
          "indexed": false,
          "internalType": "bool",
          "name": "approved",
          "type": "bool"
        },
        {
          "indexed": false,
          "internalType": "uint256",
          "name": "startsAt",
          "type": "uint256"
        }
      ],
      "name": "ListingDropApprovalUpdated",
      "type": "event"
    },
    {
      "anonymous": false,
      "inputs": [
        {
          "indexed": true,
          "internalType": "uint256",
          "name": "listingId",
          "type": "uint256"
        },
        {
          "indexed": true,
          "internalType": "uint256",
          "name": "tokenId",
          "type": "uint256"
        },
        {
          "indexed": true,
          "internalType": "address",
          "name": "tokenContract",
          "type": "address"
        },
        {
          "indexed": false,
          "internalType": "uint256",
          "name": "duration",
          "type": "uint256"
        }
      ],
      "name": "ListingDurationExtended",
      "type": "event"
    },
    {
      "anonymous": false,
      "inputs": [
        {
          "indexed": true,
          "internalType": "uint256",
          "name": "listingId",
          "type": "uint256"
        },
        {
          "indexed": true,
          "internalType": "uint256",
          "name": "tokenId",
          "type": "uint256"
        },
        {
          "indexed": true,
          "internalType": "address",
          "name": "tokenContract",
          "type": "address"
        },
        {
          "indexed": false,
          "internalType": "address",
          "name": "tokenOwner",
          "type": "address"
        },
        {
          "indexed": false,
          "internalType": "address",
          "name": "intermediary",
          "type": "address"
        },
        {
          "indexed": false,
          "internalType": "address",
          "name": "winner",
          "type": "address"
        },
        {
          "indexed": false,
          "internalType": "uint256",
          "name": "amount",
          "type": "uint256"
        },
        {
          "indexed": false,
          "internalType": "uint256",
          "name": "intermediaryFee",
          "type": "uint256"
        },
        {
          "indexed": false,
          "internalType": "address",
          "name": "listCurrency",
          "type": "address"
        }
      ],
      "name": "ListingEnded",
      "type": "event"
    },
    {
      "anonymous": false,
      "inputs": [
        {
          "indexed": true,
          "internalType": "uint256",
          "name": "listingId",
          "type": "uint256"
        },
        {
          "indexed": true,
          "internalType": "uint256",
          "name": "tokenId",
          "type": "uint256"
        },
        {
          "indexed": true,
          "internalType": "address",
          "name": "tokenContract",
          "type": "address"
        },
        {
          "indexed": false,
          "internalType": "uint256",
          "name": "listPrice",
          "type": "uint256"
        }
      ],
      "name": "ListingListPriceUpdated",
      "type": "event"
    },
    {
      "stateMutability": "payable",
      "type": "fallback"
    },
    {
      "inputs": [
        {
          "internalType": "uint256",
          "name": "listingId",
          "type": "uint256"
        }
      ],
      "name": "cancelListing",
      "outputs": [],
      "stateMutability": "nonpayable",
      "type": "function"
    },
    {
      "inputs": [
        {
          "internalType": "uint256",
          "name": "listingId",
          "type": "uint256"
        },
        {
          "internalType": "uint256",
          "name": "amount",
          "type": "uint256"
        }
      ],
      "name": "createBid",
      "outputs": [],
      "stateMutability": "payable",
      "type": "function"
    },
    {
      "inputs": [
        {
          "internalType": "uint256",
          "name": "listingId",
          "type": "uint256"
        },
        {
          "internalType": "uint256",
          "name": "amount",
          "type": "uint256"
        }
      ],
      "name": "createBidForFixed",
      "outputs": [],
      "stateMutability": "payable",
      "type": "function"
    },
    {
      "inputs": [
        {
          "internalType": "uint256",
          "name": "tokenId",
          "type": "uint256"
        },
        {
          "internalType": "address",
          "name": "tokenContract",
          "type": "address"
        },
        {
          "internalType": "uint256",
          "name": "startsAt",
          "type": "uint256"
        },
        {
          "internalType": "uint256",
          "name": "duration",
          "type": "uint256"
        },
        {
          "internalType": "uint256",
          "name": "listPrice",
          "type": "uint256"
        },
        {
          "internalType": "uint8",
          "name": "listType",
          "type": "uint8"
        },
        {
          "internalType": "address payable",
          "name": "intermediary",
          "type": "address"
        },
        {
          "internalType": "uint8",
          "name": "intermediaryFeePercentage",
          "type": "uint8"
        },
        {
          "internalType": "address",
          "name": "listCurrency",
          "type": "address"
        }
      ],
      "name": "createListing",
      "outputs": [
        {
          "internalType": "uint256",
          "name": "",
          "type": "uint256"
        }
      ],
      "stateMutability": "nonpayable",
      "type": "function"
    },
    {
      "inputs": [
        {
          "internalType": "uint256",
          "name": "listingId",
          "type": "uint256"
        }
      ],
      "name": "endListing",
      "outputs": [],
      "stateMutability": "nonpayable",
      "type": "function"
    },
    {
      "inputs": [
        {
          "internalType": "uint256",
          "name": "",
          "type": "uint256"
        }
      ],
      "name": "listings",
      "outputs": [
        {
          "internalType": "uint256",
          "name": "tokenId",
          "type": "uint256"
        },
        {
          "internalType": "address",
          "name": "tokenContract",
          "type": "address"
        },
        {
          "internalType": "bool",
          "name": "approved",
          "type": "bool"
        },
        {
          "internalType": "uint256",
          "name": "amount",
          "type": "uint256"
        },
        {
          "internalType": "uint256",
          "name": "startsAt",
          "type": "uint256"
        },
        {
          "internalType": "uint256",
          "name": "duration",
          "type": "uint256"
        },
        {
          "internalType": "uint256",
          "name": "firstBidTime",
          "type": "uint256"
        },
        {
          "internalType": "uint256",
          "name": "listPrice",
          "type": "uint256"
        },
        {
          "internalType": "uint8",
          "name": "listType",
          "type": "uint8"
        },
        {
          "internalType": "uint8",
          "name": "intermediaryFeePercentage",
          "type": "uint8"
        },
        {
          "internalType": "address",
          "name": "tokenOwner",
          "type": "address"
        },
        {
          "internalType": "address payable",
          "name": "bidder",
          "type": "address"
        },
        {
          "internalType": "address payable",
          "name": "intermediary",
          "type": "address"
        },
        {
          "internalType": "address",
          "name": "listCurrency",
          "type": "address"
        }
      ],
      "stateMutability": "view",
      "type": "function"
    },
    {
      "inputs": [],
      "name": "minBidIncrementPercentage",
      "outputs": [
        {
          "internalType": "uint8",
          "name": "",
          "type": "uint8"
        }
      ],
      "stateMutability": "view",
      "type": "function"
    },
    {
      "inputs": [],
      "name": "motif",
      "outputs": [
        {
          "internalType": "address",
          "name": "",
          "type": "address"
        }
      ],
      "stateMutability": "view",
      "type": "function"
    },
    {
      "inputs": [
        {
          "internalType": "uint256",
          "name": "listingId",
          "type": "uint256"
        },
        {
          "internalType": "bool",
          "name": "approved",
          "type": "bool"
        }
      ],
      "name": "setListingApproval",
      "outputs": [],
      "stateMutability": "nonpayable",
      "type": "function"
    },
    {
      "inputs": [
        {
          "internalType": "uint256",
          "name": "listingId",
          "type": "uint256"
        },
        {
          "internalType": "bool",
          "name": "approved",
          "type": "bool"
        },
        {
          "internalType": "uint256",
          "name": "startsAt",
          "type": "uint256"
        }
      ],
      "name": "setListingDropApproval",
      "outputs": [],
      "stateMutability": "nonpayable",
      "type": "function"
    },
    {
      "inputs": [
        {
          "internalType": "uint256",
          "name": "listingId",
          "type": "uint256"
        },
        {
          "internalType": "uint256",
          "name": "listPrice",
          "type": "uint256"
        }
      ],
      "name": "setListingListPrice",
      "outputs": [],
      "stateMutability": "nonpayable",
      "type": "function"
    },
    {
      "inputs": [],
      "name": "timeBuffer",
      "outputs": [
        {
          "internalType": "uint256",
          "name": "",
          "type": "uint256"
        }
      ],
      "stateMutability": "view",
      "type": "function"
    },
    {
      "inputs": [],
      "name": "wmotifAddress",
      "outputs": [
        {
          "internalType": "address",
          "name": "",
          "type": "address"
        }
      ],
      "stateMutability": "view",
      "type": "function"
    },
    {
      "stateMutability": "payable",
      "type": "receive"
    }
  ],
  "bytecode": "0x60806040523480156200001157600080fd5b5060405162003b0638038062003b0683398101604081905262000034916200013a565b60016000556040516301ffc9a760e01b81526001600160a01b038316906301ffc9a7906200006e906380ac58cd60e01b90600401620001a1565b60206040518083038186803b1580156200008757600080fd5b505afa1580156200009c573d6000803e3d6000fd5b505050506040513d601f19601f82011682018060405250810190620000c2919062000178565b620000ea5760405162461bcd60e51b8152600401620000e190620001b6565b60405180910390fd5b60028054600380546001600160a01b039485166001600160a01b03199091161790556104b060015560ff199290931661010002610100600160a81b03199093169290921716600517905562000206565b600080604083850312156200014d578182fd5b82516200015a81620001ed565b60208401519092506200016d81620001ed565b809150509250929050565b6000602082840312156200018a578081fd5b815180151581146200019a578182fd5b9392505050565b6001600160e01b031991909116815260200190565b6020808252601d908201527f446f65736e277420737570706f7274204e465420696e74657266616365000000604082015260600190565b6001600160a01b03811681146200020357600080fd5b50565b6138f080620002166000396000f3fe6080604052600436106100d65760003560e01c8063b7751c711161007f578063e273aece11610059578063e273aece14610226578063ec91f2a41461023b578063fac2e3d814610250578063fb4bd43914610270576100dd565b8063b7751c71146101b9578063c89e0985146101cc578063de74e57b146101ec576100dd565b806350a14d73116100b057806350a14d731461014a57806383872bc11461016a578063b296024d14610197576100dd565b806312604245146100df5780631582f801146100ff578063305a67a81461012a576100dd565b366100dd57005b005b3480156100eb57600080fd5b506100dd6100fa366004612c17565b610283565b34801561010b57600080fd5b50610114610329565b6040516101219190612cce565b60405180910390f35b34801561013657600080fd5b506100dd610145366004612b52565b610338565b34801561015657600080fd5b506100dd610165366004612c46565b61042a565b34801561017657600080fd5b5061018a610185366004612b82565b6104fd565b6040516101219190613700565b3480156101a357600080fd5b506101ac610ae7565b604051610121919061385a565b6100dd6101c7366004612c7d565b610af0565b3480156101d857600080fd5b506100dd6101e7366004612c7d565b61108d565b3480156101f857600080fd5b5061020c610207366004612b52565b6111ae565b6040516101219e9d9c9b9a99989796959493929190613709565b34801561023257600080fd5b50610114611234565b34801561024757600080fd5b5061018a611248565b34801561025c57600080fd5b506100dd61026b366004612b52565b61124e565b6100dd61027e366004612c7d565b611657565b8161028d81611c76565b6102b25760405162461bcd60e51b81526004016102a990613026565b60405180910390fd5b6000838152600460205260409020600901546001600160a01b031633146102eb5760405162461bcd60e51b81526004016102a990612dfc565b6000838152600460205260409020600501541561031a5760405162461bcd60e51b81526004016102a990613094565b6103248383611c9c565b505050565b6003546001600160a01b031681565b6002600054141561035b5760405162461bcd60e51b81526004016102a99061356a565b60026000558061036a81611c76565b6103865760405162461bcd60e51b81526004016102a990613026565b6000828152600460205260409020600701546201000090046001600160a01b03163314806103cd57506000828152600460205260409020600901546001600160a01b031633145b6103e95760405162461bcd60e51b81526004016102a990613351565b600082815260046020526040902060050154156104185760405162461bcd60e51b81526004016102a990612f0f565b61042182611d13565b50506001600055565b8261043481611c76565b6104505760405162461bcd60e51b81526004016102a990613026565b60008481526004602052604090206007015460ff166002146104845760405162461bcd60e51b81526004016102a9906135d8565b6000848152600460205260409020600901546001600160a01b031633146104bd5760405162461bcd60e51b81526004016102a99061360f565b600084815260046020526040902060050154156104ec5760405162461bcd60e51b81526004016102a9906132ae565b6104f7848484611eb4565b50505050565b6000600260005414156105225760405162461bcd60e51b81526004016102a99061356a565b60026000556040517f01ffc9a70000000000000000000000000000000000000000000000000000000081526001600160a01b038a16906301ffc9a79061058c907f80ac58cd0000000000000000000000000000000000000000000000000000000090600401612d9c565b60206040518083038186803b1580156105a457600080fd5b505afa1580156105b8573d6000803e3d6000fd5b505050506040513d601f19601f820116820180604052508101906105dc9190612b36565b6105f85760405162461bcd60e51b81526004016102a990613646565b60648360ff161061061b5760405162461bcd60e51b81526004016102a990613442565b6040517f6352211e0000000000000000000000000000000000000000000000000000000081526000906001600160a01b038b1690636352211e90610663908e90600401613700565b60206040518083038186803b15801561067b57600080fd5b505afa15801561068f573d6000803e3d6000fd5b505050506040513d601f19601f820116820180604052508101906106b39190612b1a565b6040517f081812fc0000000000000000000000000000000000000000000000000000000081529091506001600160a01b038b169063081812fc906106fb908e90600401613700565b60206040518083038186803b15801561071357600080fd5b505afa158015610727573d6000803e3d6000fd5b505050506040513d601f19601f8201168201806040525081019061074b9190612b1a565b6001600160a01b0316336001600160a01b031614806107725750336001600160a01b038216145b61078e5760405162461bcd60e51b81526004016102a99061349f565b600061079a6005611f28565b9050604051806101c001604052808d81526020018c6001600160a01b03168152602001600015158152602001600081526020018b81526020018a8152602001600081526020018981526020018860ff1681526020018660ff168152602001836001600160a01b0316815260200160006001600160a01b03168152602001876001600160a01b03168152602001856001600160a01b0316815250600460008381526020019081526020016000206000820151816000015560208201518160010160006101000a8154816001600160a01b0302191690836001600160a01b0316021790555060408201518160010160146101000a81548160ff021916908315150217905550606082015181600201556080820151816003015560a0820151816004015560c0820151816005015560e082015181600601556101008201518160070160006101000a81548160ff021916908360ff1602179055506101208201518160070160016101000a81548160ff021916908360ff1602179055506101408201518160070160026101000a8154816001600160a01b0302191690836001600160a01b031602179055506101608201518160080160006101000a8154816001600160a01b0302191690836001600160a01b031602179055506101808201518160090160006101000a8154816001600160a01b0302191690836001600160a01b031602179055506101a082015181600a0160006101000a8154816001600160a01b0302191690836001600160a01b031602179055509050508a6001600160a01b03166323b872dd83308f6040518463ffffffff1660e01b81526004016109fe93929190612ce2565b600060405180830381600087803b158015610a1857600080fd5b505af1158015610a2c573d6000803e3d6000fd5b50505050610a3a6005611f2c565b8a6001600160a01b03168c827f804f18cb6eb2eeef9ae4bfec904ef4d2b03d3364418461d62d4919c3a746407a8d8d8d8d898e8e8e604051610a83989796959493929190613812565b60405180910390a46000818152600460205260409020600901546001600160a01b03161580610ac35750816001600160a01b0316866001600160a01b0316145b15610ad357610ad3816001611c9c565b60016000559b9a5050505050505050505050565b60025460ff1681565b81610afa81611c76565b610b165760405162461bcd60e51b81526004016102a990613026565b60026000541415610b395760405162461bcd60e51b81526004016102a99061356a565b6002600090815583815260046020526040902060088101546001909101546001600160a01b0390911690600160a01b900460ff16610b895760405162461bcd60e51b81526004016102a990613196565b60008481526004602052604090206007015460ff1660011480610bc0575060008481526004602052604090206007015460ff166002145b610bdc5760405162461bcd60e51b81526004016102a9906132e5565b600084815260046020526040902060030154421015610c0d5760405162461bcd60e51b81526004016102a990612ea1565b6000848152600460205260409020600501541580610c535750600084815260046020819052604090912090810154600590910154610c509163ffffffff611f3516565b42105b610c6f5760405162461bcd60e51b81526004016102a9906134fc565b600084815260046020526040902060060154831015610ca05760405162461bcd60e51b81526004016102a990612e6a565b60028054600086815260046020526040902090910154610cfe91610ce091606491610cd4919060ff1663ffffffff611f6316565b9063ffffffff611f9d16565b6000868152600460205260409020600201549063ffffffff611f3516565b831015610d1d5760405162461bcd60e51b81526004016102a9906131f3565b600260019054906101000a90046001600160a01b03166001600160a01b031663f1d5596b6040518163ffffffff1660e01b8152600401602060405180830381600087803b158015610d6d57600080fd5b505af1158015610d81573d6000803e3d6000fd5b505050506040513d601f19601f82011682018060405250810190610da59190612b1a565b6000858152600460208190526040918290205491516302e8fe1360e01b81526001600160a01b0393909316926302e8fe1392610de5929091889101613804565b60206040518083038186803b158015610dfd57600080fd5b505afa158015610e11573d6000803e3d6000fd5b505050506040513d601f19601f82011682018060405250810190610e359190612b36565b610e515760405162461bcd60e51b81526004016102a990612ed8565b600084815260046020526040902060050154610e8157600084815260046020526040902042600590910155610ebd565b6001600160a01b03811615610ebd5760008481526004602052604090206002810154600a90910154610ebd9183916001600160a01b0316611fcf565b6000848152600460205260409020600a0154610ee39084906001600160a01b031661210d565b60008481526004602081905260408220600281018690556008810180546001600160a01b0319163317905560015491810154600590910154610f3c914291610f309163ffffffff611f3516565b9063ffffffff6122fd16565b1015610fb057600085815260046020819052604090912090810154600590910154610f9790610f8a90610f7b904290610f30908663ffffffff611f3516565b6001549063ffffffff6122fd16565b829063ffffffff611f3516565b6000878152600460208190526040909120015550600190505b600085815260046020526040908190206001810154905491516001600160a01b03918216929188917fdf3c258fd5ebb54ac1a83c73feafacc466858d3badc3dda9c4034b0da1da54d99161100e9133918b91908a1615908990612d06565b60405180910390a480156110815760008581526004602081905260409182902060018101548154919092015492516001600160a01b0390921692909188917f7c5d8b1980b451e2d8e5887c47bfdb1153d8b8de54ca953d110c9ec926dba3e3916110789190613700565b60405180910390a45b50506001600055505050565b8161109781611c76565b6110b35760405162461bcd60e51b81526004016102a990613026565b6000838152600460205260409020600901546001600160a01b03163314806110fa57506000838152600460205260409020600701546201000090046001600160a01b031633145b6111165760405162461bcd60e51b81526004016102a990612f6c565b600083815260046020526040902060050154156111455760405162461bcd60e51b81526004016102a990613094565b60008381526004602052604090819020600681018490556001810154905491516001600160a01b03909116919085907f0409843698c80a52d5e9991fdf99f888ac3f2282b93ddd87bbb63df422907e94906111a1908790613700565b60405180910390a4505050565b600460208190526000918252604090912080546001820154600283015460038401549484015460058501546006860154600787015460088801546009890154600a9099015497996001600160a01b038089169a60ff600160a01b909a048a169a98999298858416956101008104909416946201000090940483169383169291821691168e565b60025461010090046001600160a01b031681565b60015481565b8061125881611c76565b6112745760405162461bcd60e51b81526004016102a990613026565b600260005414156112975760405162461bcd60e51b81526004016102a99061356a565b600260009081558281526004602052604090206007015460ff16600114806112d3575060008281526004602052604090206007015460ff166002145b6112ef5760405162461bcd60e51b81526004016102a9906132e5565b60008281526004602052604090206005015461131d5760405162461bcd60e51b81526004016102a9906135a1565b60008281526004602052604090206003015442101561134e5760405162461bcd60e51b81526004016102a990612ea1565b6000828152600460208190526040909120908101546005909101546113789163ffffffff611f3516565b4210156113975760405162461bcd60e51b81526004016102a990613533565b6000828152600460205260408120600a01546001600160a01b0316156113d7576000838152600460205260409020600a01546001600160a01b03166113e4565b6003546001600160a01b03165b60008481526004602052604081206002015491925090818061140587612325565b9350915082905060018215151461145f57600087815260046020526040902060088101546002820154600a9092015461144c926001600160a01b0392831692909116611fcf565b61145587611d13565b5050505050610421565b6000878152600460205260409020600901546001600160a01b0316156114f1576000878152600460205260409020600701546114ab90606490610cd4908690610100900460ff16611f63565b93506114bd838563ffffffff6122fd16565b60008881526004602052604090206009810154600a909101549194506114f1916001600160a01b0391821691879116611fcf565b60008781526004602052604090206007810154600a90910154611528916001600160a01b0362010000909104811691869116611fcf565b60008781526004602052604090819020600181015481546007830154600984015460089094015494516001600160a01b039384169592948d947f334843dd102fb480fd982e331134a746cae45483f35aa91db449e96cb90cc5f1946115a294620100009004821693928216929116908b908d908f90612d30565b60405180910390a45050506000938452505060046020819052604083208381556001808201805474ffffffffffffffffffffffffffffffffffffffffff191690556002820185905560038201859055918101849055600581018490556006810184905560078101805475ffffffffffffffffffffffffffffffffffffffffffff191690556008810180546001600160a01b031990811690915560098201805482169055600a9091018054909116905590915550565b8161166181611c76565b61167d5760405162461bcd60e51b81526004016102a990613026565b600260005414156116a05760405162461bcd60e51b81526004016102a99061356a565b6002600090815583815260046020526040902060010154600160a01b900460ff166116dd5760405162461bcd60e51b81526004016102a990613196565b60008381526004602052604090206007015460ff166003146117115760405162461bcd60e51b81526004016102a99061331a565b6000838152600460205260409020600301544210156117425760405162461bcd60e51b81526004016102a990612ea1565b600083815260046020526040902060050154158061178857506000838152600460208190526040909120908101546005909101546117859163ffffffff611f3516565b42105b6117a45760405162461bcd60e51b81526004016102a9906134fc565b60008381526004602052604090206006015482146117d45760405162461bcd60e51b81526004016102a990612e33565b600260019054906101000a90046001600160a01b03166001600160a01b031663f1d5596b6040518163ffffffff1660e01b8152600401602060405180830381600087803b15801561182457600080fd5b505af1158015611838573d6000803e3d6000fd5b505050506040513d601f19601f8201168201806040525081019061185c9190612b1a565b6000848152600460208190526040918290205491516302e8fe1360e01b81526001600160a01b0393909316926302e8fe139261189c929091879101613804565b60206040518083038186803b1580156118b457600080fd5b505afa1580156118c8573d6000803e3d6000fd5b505050506040513d601f19601f820116820180604052508101906118ec9190612b36565b6119085760405162461bcd60e51b81526004016102a990612ed8565b6000838152600460205260409020426005820155600a01546119349083906001600160a01b031661210d565b600083815260046020526040808220600281018590556008810180546001600160a01b03191633908117909155600180830154925493516001600160a01b03939093169488937fdf3c258fd5ebb54ac1a83c73feafacc466858d3badc3dda9c4034b0da1da54d9936119a99390928a92612d06565b60405180910390a46000838152600460205260408120600a01546001600160a01b0316156119f1576000848152600460205260409020600a01546001600160a01b03166119fe565b6003546001600160a01b03165b600085815260046020526040812060020154919250908180611a1f88612325565b93509150829050600182151514611a7957600088815260046020526040902060088101546002820154600a90920154611a66926001600160a01b0392831692909116611fcf565b611a6f88611d13565b5050505050611c6c565b6000888152600460205260409020600901546001600160a01b031615611b0b57600088815260046020526040902060070154611ac590606490610cd4908690610100900460ff16611f63565b9350611ad7838563ffffffff6122fd16565b60008981526004602052604090206009810154600a90910154919450611b0b916001600160a01b0391821691879116611fcf565b60008881526004602052604090206007810154600a90910154611b42916001600160a01b0362010000909104811691869116611fcf565b60008881526004602052604090819020600181015481546007830154600984015460089094015494516001600160a01b039384169592948e947f334843dd102fb480fd982e331134a746cae45483f35aa91db449e96cb90cc5f194611bbc94620100009004821693928216929116908b908d908f90612d30565b60405180910390a45050506000858152600460208190526040822082815560018101805474ffffffffffffffffffffffffffffffffffffffffff19169055600281018390556003810183905590810182905560058101829055600681019190915560078101805475ffffffffffffffffffffffffffffffffffffffffffff191690556008810180546001600160a01b031990811690915560098201805482169055600a9091018054909116905550505b5050600160005550565b6000908152600460205260409020600701546201000090046001600160a01b0316151590565b6000828152600460205260409081902060018101805460ff60a01b1916600160a01b851515021790819055905491516001600160a01b03909116919084907f301b3a878e4bfbb57bd5babb78545aff93752440eb359d65b3ad34de32d842fc90611d07908690612d81565b60405180910390a45050565b60008181526004602081905260409182902060078101546001820154915493517f42842e0e000000000000000000000000000000000000000000000000000000008152620100009091046001600160a01b03908116949216926342842e0e92611d8192309287929101612ce2565b600060405180830381600087803b158015611d9b57600080fd5b505af1158015611daf573d6000803e3d6000fd5b505050600083815260046020526040908190206001810154905491516001600160a01b03909116925084907fd5074712d772916d5592447e134f0f148b438068d1cd2559a4b2ab8990c0fba090611e07908690612cce565b60405180910390a4506000908152600460208190526040822082815560018101805474ffffffffffffffffffffffffffffffffffffffffff19169055600281018390556003810183905590810182905560058101829055600681019190915560078101805475ffffffffffffffffffffffffffffffffffffffffffff191690556008810180546001600160a01b031990811690915560098201805482169055600a90910180549091169055565b6000838152600460205260409081902060018101805460ff60a01b1916600160a01b86151502179081905560038201849055905491516001600160a01b03909116919085907f366ba2ff3ae87084a6b770c4ac0371bf0647243b3ab1a7f5c751d29322aa6161906111a19087908790612d8c565b5490565b80546001019055565b600082820183811015611f5a5760405162461bcd60e51b81526004016102a99061305d565b90505b92915050565b600082611f7257506000611f5d565b82820282848281611f7f57fe5b0414611f5a5760405162461bcd60e51b81526004016102a990613251565b6000808211611fbe5760405162461bcd60e51b81526004016102a99061315f565b818381611fc757fe5b049392505050565b6001600160a01b0381166120f3576003546040517f2e1a7d4d0000000000000000000000000000000000000000000000000000000081526001600160a01b0390911690632e1a7d4d90612026908590600401613700565b600060405180830381600087803b15801561204057600080fd5b505af1158015612054573d6000803e3d6000fd5b5050505061206283836127e4565b6120ee57600360009054906101000a90046001600160a01b03166001600160a01b031663d0e30db0836040518263ffffffff1660e01b81526004016000604051808303818588803b1580156120b657600080fd5b505af11580156120ca573d6000803e3d6000fd5b50506003546120ee93506001600160a01b031691508590508463ffffffff61285b16565b610324565b6103246001600160a01b038216848463ffffffff61285b16565b6001600160a01b0381166121a85781341461213a5760405162461bcd60e51b81526004016102a990612fc9565b600360009054906101000a90046001600160a01b03166001600160a01b031663d0e30db0836040518263ffffffff1660e01b81526004016000604051808303818588803b15801561218a57600080fd5b505af115801561219e573d6000803e3d6000fd5b50505050506122f9565b6040516370a0823160e01b815281906000906001600160a01b038316906370a08231906121d9903090600401612cce565b60206040518083038186803b1580156121f157600080fd5b505afa158015612205573d6000803e3d6000fd5b505050506040513d601f19601f820116820180604052508101906122299190612b6a565b90506122466001600160a01b03831633308763ffffffff6128de16565b6040516370a0823160e01b81526000906001600160a01b038416906370a0823190612275903090600401612cce565b60206040518083038186803b15801561228d57600080fd5b505afa1580156122a1573d6000803e3d6000fd5b505050506040513d601f19601f820116820180604052508101906122c59190612b6a565b9050806122d8838763ffffffff611f3516565b146122f55760405162461bcd60e51b81526004016102a9906136a3565b5050505b5050565b60008282111561231f5760405162461bcd60e51b81526004016102a9906130cb565b50900390565b6000818152600460205260408120600a0154819081906001600160a01b031615612369576000848152600460205260409020600a01546001600160a01b0316612376565b6003546001600160a01b03165b9050612380612aa7565b506040805160a08101825260008681526004602081815284832060028082015486526001600160a01b0380891684880181905230888a01528c875285855260089093015481166060880152875180850189528681526080880152905487517ff1d5596b00000000000000000000000000000000000000000000000000000000815297519697929663095ea7b3966101009092049092169463f1d5596b94848201949093929083900390910190829087803b15801561243d57600080fd5b505af1158015612451573d6000803e3d6000fd5b505050506040513d601f19601f820116820180604052508101906124759190612b1a565b83516040517fffffffff0000000000000000000000000000000000000000000000000000000060e085901b1681526124b1929190600401612d68565b602060405180830381600087803b1580156124cb57600080fd5b505af11580156124df573d6000803e3d6000fd5b505050506040513d601f19601f820116820180604052508101906125039190612b36565b506002546000868152600460208190526040918290205491517f5bf624220000000000000000000000000000000000000000000000000000000081526101009093046001600160a01b031692635bf62422926125639290918691016137b1565b600060405180830381600087803b15801561257d57600080fd5b505af1158015612591573d6000803e3d6000fd5b50506040516370a0823160e01b8152600092506001600160a01b03851691506370a08231906125c4903090600401612cce565b60206040518083038186803b1580156125dc57600080fd5b505afa1580156125f0573d6000803e3d6000fd5b505050506040513d601f19601f820116820180604052508101906126149190612b6a565b6002546000888152600460208190526040918290205491517fba3393990000000000000000000000000000000000000000000000000000000081529394506101009092046001600160a01b03169263ba3393999261267592918791016137b1565b600060405180830381600087803b15801561268f57600080fd5b505af19250505080156126a0575060015b612743576002546000878152600460208190526040918290205491517fb320f4590000000000000000000000000000000000000000000000000000000081526101009093046001600160a01b03169263b320f4599261270192909101613700565b600060405180830381600087803b15801561271b57600080fd5b505af115801561272f573d6000803e3d6000fd5b50600097508796506127df95505050505050565b6040516370a0823160e01b81526000906001600160a01b038516906370a0823190612772903090600401612cce565b60206040518083038186803b15801561278a57600080fd5b505afa15801561279e573d6000803e3d6000fd5b505050506040513d601f19601f820116820180604052508101906127c29190612b6a565b905060016127d6828463ffffffff6122fd16565b95509550505050505b915091565b60408051600080825260208201928390529182916001600160a01b03861691859161280e91612cb2565b60006040518083038185875af1925050503d806000811461284b576040519150601f19603f3d011682016040523d82523d6000602084013e612850565b606091505b509095945050505050565b6103248363a9059cbb60e01b848460405160240161287a929190612d68565b60408051601f198184030181529190526020810180517bffffffffffffffffffffffffffffffffffffffffffffffffffffffff167fffffffff00000000000000000000000000000000000000000000000000000000909316929092179091526128ff565b6104f7846323b872dd60e01b85858560405160240161287a93929190612ce2565b6060612954826040518060400160405280602081526020017f5361666545524332303a206c6f772d6c6576656c2063616c6c206661696c6564815250856001600160a01b031661298e9092919063ffffffff16565b80519091501561032457808060200190518101906129729190612b36565b6103245760405162461bcd60e51b81526004016102a9906133e5565b606061299d84846000856129a7565b90505b9392505050565b6060824710156129c95760405162461bcd60e51b81526004016102a990613102565b6129d285612a68565b6129ee5760405162461bcd60e51b81526004016102a9906133ae565b60006060866001600160a01b03168587604051612a0b9190612cb2565b60006040518083038185875af1925050503d8060008114612a48576040519150601f19603f3d011682016040523d82523d6000602084013e612a4d565b606091505b5091509150612a5d828286612a6e565b979650505050505050565b3b151590565b60608315612a7d5750816129a0565b825115612a8d5782518084602001fd5b8160405162461bcd60e51b81526004016102a99190612dc9565b6040518060a001604052806000815260200160006001600160a01b0316815260200160006001600160a01b0316815260200160006001600160a01b03168152602001612af1612af6565b905290565b6040518060200160405280600081525090565b803560ff81168114611f5d57600080fd5b600060208284031215612b2b578081fd5b8151611f5a81613894565b600060208284031215612b47578081fd5b8151611f5a816138ac565b600060208284031215612b63578081fd5b5035919050565b600060208284031215612b7b578081fd5b5051919050565b60008060008060008060008060006101208a8c031215612ba0578485fd5b8935985060208a0135612bb281613894565b975060408a0135965060608a0135955060808a01359450612bd68b60a08c01612b09565b935060c08a0135612be681613894565b9250612bf58b60e08c01612b09565b91506101008a0135612c0681613894565b809150509295985092959850929598565b60008060408385031215612c29578182fd5b823591506020830135612c3b816138ac565b809150509250929050565b600080600060608486031215612c5a578283fd5b833592506020840135612c6c816138ac565b929592945050506040919091013590565b60008060408385031215612c8f578182fd5b50508035926020909101359150565b6001600160a01b03169052565b60ff169052565b60008251612cc4818460208701613868565b9190910192915050565b6001600160a01b0391909116815260200190565b6001600160a01b039384168152919092166020820152604081019190915260600190565b6001600160a01b039490941684526020840192909252151560408301521515606082015260800190565b6001600160a01b039687168152948616602086015292851660408501526060840191909152608083015290911660a082015260c00190565b6001600160a01b03929092168252602082015260400190565b901515815260200190565b9115158252602082015260400190565b7fffffffff0000000000000000000000000000000000000000000000000000000091909116815260200190565b6000602082528251806020840152612de8816040850160208701613868565b601f01601f19169190910160400192915050565b6020808252601c908201527f4d757374206265206c697374696e6720696e7465726d65646961727900000000604082015260600190565b60208082526013908201527f4d7573742073656e64206c697374507269636500000000000000000000000000604082015260600190565b6020808252601c908201527f4d7573742073656e64206174206c65617374206c697374507269636500000000604082015260600190565b60208082526012908201527f4c697374206973206e6f74206163746976650000000000000000000000000000604082015260600190565b6020808252601f908201527f42696420696e76616c696420666f722073686172652073706c697474696e6700604082015260600190565b60208082526027908201527f43616e27742063616e63656c20616e206c697374696e67206f6e63652069742760408201527f7320626567756e00000000000000000000000000000000000000000000000000606082015260800190565b6020808252602b908201527f4d757374206265206c697374696e6720696e7465726d656469617279206f722060408201527f746f6b656e206f776e6572000000000000000000000000000000000000000000606082015260800190565b60208082526034908201527f53656e74204d4f5449462056616c756520646f6573206e6f74206d617463682060408201527f7370656369666965642062696420616d6f756e74000000000000000000000000606082015260800190565b60208082526015908201527f4c697374696e6720646f65736e27742065786973740000000000000000000000604082015260600190565b6020808252601b908201527f536166654d6174683a206164646974696f6e206f766572666c6f770000000000604082015260600190565b6020808252601b908201527f4c697374696e672068617320616c726561647920737461727465640000000000604082015260600190565b6020808252601e908201527f536166654d6174683a207375627472616374696f6e206f766572666c6f770000604082015260600190565b60208082526026908201527f416464726573733a20696e73756666696369656e742062616c616e636520666f60408201527f722063616c6c0000000000000000000000000000000000000000000000000000606082015260800190565b6020808252601a908201527f536166654d6174683a206469766973696f6e206279207a65726f000000000000604082015260600190565b60208082526028908201527f4c697374696e67206d75737420626520617070726f76656420627920696e746560408201527f726d656469617279000000000000000000000000000000000000000000000000606082015260800190565b602080825260409082018190527f4d7573742073656e64206d6f7265207468616e206c6173742062696420627920908201527f6d696e426964496e6372656d656e7450657263656e7461676520616d6f756e74606082015260800190565b60208082526021908201527f536166654d6174683a206d756c7469706c69636174696f6e206f766572666c6f60408201527f7700000000000000000000000000000000000000000000000000000000000000606082015260800190565b60208082526018908201527f4c6973742068617320616c726561647920737461727465640000000000000000604082015260600190565b6020808252818101527f4d7573742062652062696464696e67206f722064726f70206c69737454797065604082015260600190565b6020808252601c908201527f4d757374206265206669786564207072696365206c6973745479706500000000604082015260600190565b60208082526035908201527f43616e206f6e6c792062652063616c6c6564206279206c697374696e6720637260408201527f6561746f72206f7220696e7465726d6564696172790000000000000000000000606082015260800190565b6020808252601d908201527f416464726573733a2063616c6c20746f206e6f6e2d636f6e7472616374000000604082015260600190565b6020808252602a908201527f5361666545524332303a204552433230206f7065726174696f6e20646964206e60408201527f6f74207375636365656400000000000000000000000000000000000000000000606082015260800190565b6020808252602f908201527f696e7465726d65646961727946656550657263656e74616765206d757374206260408201527f65206c657373207468616e203130300000000000000000000000000000000000606082015260800190565b6020808252602d908201527f43616c6c6572206d75737420626520617070726f766564206f72206f776e657260408201527f20666f7220746f6b656e20696400000000000000000000000000000000000000606082015260800190565b6020808252600f908201527f4c697374696e6720657870697265640000000000000000000000000000000000604082015260600190565b60208082526018908201527f4c697374696e67206861736e277420636f6d706c657465640000000000000000604082015260600190565b6020808252601f908201527f5265656e7472616e637947756172643a207265656e7472616e742063616c6c00604082015260600190565b60208082526014908201527f4c697374696e67206861736e277420626567756e000000000000000000000000604082015260600190565b60208082526015908201527f4d7573742062652064726f70206c697374547970650000000000000000000000604082015260600190565b60208082526019908201527f4d757374206265206c69737420696e7465726d65646961727900000000000000604082015260600190565b6020808252602f908201527f746f6b656e436f6e747261637420646f6573206e6f7420737570706f7274204560408201527f524337323120696e746572666163650000000000000000000000000000000000606082015260800190565b60208082526034908201527f546f6b656e207472616e736665722063616c6c20646964206e6f74207472616e60408201527f7366657220657870656374656420616d6f756e74000000000000000000000000606082015260800190565b90815260200190565b60006101c0820190508f82526001600160a01b038f1660208301528d151560408301528c60608301528b60808301528a60a08301528960c08301528860e0830152613758610100830189612cab565b613766610120830188612cab565b613774610140830187612c9e565b613782610160830186612c9e565b613790610180830185612c9e565b61379e6101a0830184612c9e565b9f9e505050505050505050505050505050565b600060c0820190508382528251602083015260208301516001600160a01b038082166040850152806040860151166060850152806060860151166080850152505060808301515160a08301529392505050565b918252602082015260400190565b9788526020880196909652604087019490945260ff92831660608701526001600160a01b039182166080870152811660a0860152911660c08401521660e08201526101000190565b60ff91909116815260200190565b60005b8381101561388357818101518382015260200161386b565b838111156104f75750506000910152565b6001600160a01b03811681146138a957600080fd5b50565b80151581146138a957600080fdfea2646970667358221220de3ae9721129d83407ee6359d79786fc219551f58dfcd619c08c5e53ca8b807f64736f6c63430006080033",
  "linkReferences": {},
  "deployedLinkReferences": {}
}